:020000040000FA
:06000000020A9C0201C58A
:030013000201E8FF
:03002B000208D7F1
:03003B0002023D81
:030053000200F6B2
:1000830002015A0101FF0503014A104A104A104AAE
:1000930010060F000F4A107F1D00000000431E00D2
:1000A3000000000C0000000C00010000181200000A
:1000B30000000000CC12000000000000000000005F
:1000C300FFFF01010100F4040000004505E803649B
:1000D300006400B801020200000002050207051EC9
:1000E30002051E0A03B80B02010206000201000208
:1000F300020612C0E074F2120485A2AFE433FED20A
:10010300AFE5A7FFE5A1F5085F5410600612186C70
:1001130075A1EFE5085F5408600812187275A1F71E
:10012300802BEFA2E0C0D0E508A2E092F01209D93B
:10013300158182F05017906198E0F8900712E0C3A0
:1001430098A2D265D0335002E8F075A1FEEEA2E08A
:1001530092AF7F0102053CC0E074F2120485A2AFA6
:10016300E433FED2AF9061A4E0F8759B00E59158AB
:10017300540860087591F71218B4802AE591585411
:100183001060087591EF1218BA801BE8A2E0C0D086
:10019300E591A2E092F01209D9158182F05007E0AF
:1001A300C2E0F01219F89061A3E0F8E5E9585404AD
:1001B300600E1219CE75E9FB906193E0A2E640F25E
:1001C300808BC0E074F2120485A2AFE433FED2AF99
:1001D3009061A5E0F8E5BF585404600675BFFB12B3
:1001E3001A10020150C0E0C0D0E8C0E0E9C0E0C08E
:1001F30082C083E5C1C0E090067EE0F874FD28F577
:100203008274053400F583D0E0F090067DE0F8A316
:10021300E0687006E595900680F090067EE004F0B5
:10022300C394804002E4F0A374C6F0D083D082D09C
:10023300E0F9D0E0F8D0D0D0E032C0E0C0D0E8C0E0
:10024300E0C008C009C082C083900701E0F8A3E0C2
:10025300687008539AFBA374018026C2E9900701D2
:10026300E0F50874012508F074812508F582740609
:100273003400F583E0F5C1900701E0C394804002A8
:10028300E4F0D083D082D009D00880A6C3E498F8E4
:10029300E499F91202D08026C3E49AFAE49BFBE9BD
:1002A30020E7E91202D0E498F8E499F922C3E4982C
:1002B300F8E499F91202D0E498F8E499F9C3E49ABE
:1002C300FAE49BFB22EB20E7CFE920E7E0B900103B
:1002D300BB0008E88AF084F8AAF022E4FBC8FA22FB
:1002E300EB70227B10C833C8C933C9335007C39A94
:1002F300C3DBF280069A50012ADBEAC833F4C8C98B
:1003030033F4C9FA2275F008E4C833C8C933C933D2
:10031300C99AC99B5004C92AC93BD5F0ECFBC83321
:10032300F4C8E4C9FA22080808EAC0E0EBC0E08692
:10033300F0E7A4FA180986F0E7A42AFA180986F068
:10034300E7A42AFA180986F0E7A42AFA1986F0E73F
:10035300A4FBE5F02AFA190886F0E7A42BFBE5F0E5
:100363003AFA190886F0E7A42BFBE5F03AFA1818D5
:100373000986F0E7A4C5F02BFBE43AFA1908E7C5B0
:10038300F0C6A426F6E5F03BFBE43AFA1886F0E75C
:10039300A4F6E5F00826F6E43B08F6E43A08F6D0BE
:1003A300E0FBD0E0FA22E4CFC0E0E4CEC0E0E4CD4D
:1003B300C0E0E4CCC0E075F020C3E633F608E633D2
:1003C300F608E633F608E633F6181818EC33FCEDB6
:1003D30033FDEE33FEEF33FFC3EC9709ED9709EEE0
:1003E3009709EF97191919400FFFEC97FC09ED973F
:1003F300FD09EE97FE191906D5F0BEECF709EDF7E6
:1004030009EEF709EFF7191919D0E0FCD0E0FDD098
:10041300E0FED0E0FF222518C582C0E0E51934FFD5
:10042300C583C0E0E518C3958224F810AF0885831F
:10043300198582188008858319858218D2AFCEF07A
:10044300A3E520F0A37808E608F0A3DEFAEFF0A313
:10045300E58124FAF8E608F0A3E608F0A3E608F03D
:10046300A30808E608F0A3E608F0A315811581D0D8
:10047300E0FED0E0F8158115811581E8C0E0EEC0FB
:10048300E022C0D02518C582C0E0E51934FFC5833A
:10049300C0E0E518C3958224F310AF08858319855E
:1004A30082188008858319858218D2AFC8F0A3E922
:1004B300F0A3EAF0A3EBF0A37908E709F0A3D8FAD5
:1004C300ECF0A3EDF0A3EEF0A3EFF0A3D0E0F0A3E4
:1004D300D0E0F0A3D0E0F0A3E520F0A3E5F0F0A393
:1004E30022120AFEB90003020526E4900301786094
:1004F30079098002F0A3D8FCD9FA900B60AA82ABE9
:1005030083900086787179018015E493A3AC82AD62
:10051300838A828B83F0A3AA82AB838C828D83D858
:10052300E9D9E775829C7583D4740212084F7582EA
:100533008675831C740012084F851983851882E021
:10054300C0E0A3E0F9A3E0FAA3E0FBA37808E0F698
:1005530008A3DFFAE0FCA3E0FDA3E0FEA3E0FFA312
:10056300E0C0E0A3E0C0E0A3E0F5D0A3E0F520A362
:10057300E0A3F5F010AF08858319858218800885FC
:100583008319858218D2AFD082D083D0E0F8D0E02F
:100593003275F0108E1A8F1B85821F85831E851876
:1005A30082851983E0CEA3E0CF851F82851E83EB6E
:1005B300C9EAC8EDCBECCAC3E833C8E933C9EA33A7
:1005C300CAEB33CBC3EA9EF51DEB9FF51CB3500476
:1005D300AB1CAA1DEC33CCED33CDD5F0DAAE1AAF9C
:1005E3001B22D083D082ECC0E0EDC0E0E493A3FCF7
:1005F300E493A3FDED4C600D1206BDEC24FFFCED6E
:1006030034FFFD80EFE493A3FCE493A3FDED4C6082
:100613000D12075AEC24FFFCED34FFFD80EFD0E010
:10062300FDD0E0FCE493A3C0E0E493C0E02285198D
:1006330083851882E0A3FEE0A3F5207808E0A3F603
:1006430008DFFAE0A3FFE0A3C0E0E0A3C0E0E0A37B
:10065300C0E0E0A3C0E0E0A3C0E010AF08858218CB
:100663008583198008858218858319D2AFD083D0FA
:1006730082020855D083D082E9C0E0E493A3C38605
:10068300F0C5F095F0F908E493A386F0C5F095F072
:10069300700BE493A3C3994005E9048002A3E475B6
:1006A300F002A42582F582E5F03583F583D0E0F9E5
:1006B300E493A3C0E0E493C0E022C0E0C3E49396D4
:1006C300087401939618400FE49366700808740148
:1006D30093661870007019A3A3C3E493960874017A
:1006E300939618A3A3400DD0E0D0E0D0E0020621FA
:1006F300A3A3A3A3A3A3D0E0227404800474028061
:1007030000CCC0E0EDC0E0E518C39CCCAD195001AE
:100713001D10AF068C188D1980068C188D19D2AF59
:100723001207D1D0E0FDD0E0FC2274028000CCC0DF
:10073300E0EDC0E0E518C39CCCAD1950011D10AF2E
:10074300068C188D1980068C188D19D2AF1207AF3D
:10075300D0E0FDD0E0FC22C0E0C0F088F0E4936676
:1007630070080874019366187000A8F0A3A3700BB7
:10077300D0F0D0E0D0E0D0E0020621A3A3D0F0D0A7
:10078300E022D083D082CCC0E0E493A360061207BA
:10079300F21470FAE493A360061209211470FAD0DC
:1007A300E0FCE493A3C0E0E493C0E022CAC0E0E429
:1007B30093A3C582CCC582C583CDC583F0A3C5826F
:1007C300CCC582C583CDC583DAE5D0E0CA22CAC0D1
:1007D300E0E0A3C582CCC582C583CDC583F0A3C5A4
:1007E30082CCC582C583CDC583DAE6D0E0CA22C0F8
:1007F300E0E493A3D39C5010E493A3C39C400AD09A
:10080300E0D0E0D0E00207A2A3A3A3D0E022C00877
:10081300C3E096F50808A3E096420808A3E09642D1
:100823000808A3E09645087001D3D0082270090890
:100833000808226016181818C6C333C608C633C67C
:1008430008C633C608C633C6D5E0EA22C09FF59F63
:10085300E473D09F22D083D082C09FE493C0E0741E
:100863000193C0E0740293F59F222518F58210AF1F
:1008730008F518400215198008F51840021519D219
:10088300AF851983227404800A740380067402807E
:10089300027401C0E0F40412086DD0E0120AD922F8
:1008A300BB0102E722C082C08389828A83BB000323
:1008B300E08002E493D083D08222C0D0251810AF09
:1008C30008F518500205198008F51850020519D2C9
:1008D300AFD0D022C0E0C0D0E8C0E0E5A8D2AFC21C
:1008E300C7A2E792AFD0E0F8D0D0D0E032601608CC
:1008F3000808C6C313C618C613C618C613C618C637
:1009030013C6D5E0EA22C3E0C696F608A3E0C6966E
:10091300F608A3E0C696F608A3E0C696F622C0E062
:10092300E493A36C7009D0E0D0E0D0E00207A2A367
:10093300A3D0E022251810AF08F51840021519803E
:1009430008F51840021519D2AF22E766701008099E
:10095300E766700A0809E76670040809E76622C3B8
:10096300E09608A3E09608A3E09608A3E096A2D237
:1009730065D03322E066701008A3E066700A08A30E
:10098300E066700408A3E06622C3E096F008A3E0E3
:1009930096F008A3E096F008A3E096F022E026F094
:1009A30008A3E036F008A3E036F008A3E036F0220F
:1009B300E627F60809E637F60809E637F60809E6F2
:1009C30037F622E026F608A3E036F608A3E036F66B
:1009D30008A3E036F622C0E0E8C0E0E58124FCF895
:1009E300E6A2E7D0E0F8D0E022700422600D18C63A
:1009F300C333C608C633C6D5E0F41822E657F60853
:100A030009E657F60809E657F60809E657F622E01D
:100A130056F608A3E056F608A3E056F608A3E056F8
:100A2300F622E056F008A3E056F008A3E056F008DB
:100A3300A3E056F022E647F60809E647F60809E67A
:100A430047F60809E647F622E4C396F608E496F665
:100A530008E496F608E496F622C3E7960809E796B3
:100A63000809E7960809E79622C6F4C608C6F4C63D
:100A730008C6F4C608C6F4C622600D08C6A2E7136A
:100A8300C618C613C6D5E0F322C3E09608A3E096C2
:100A930008A3E09608A3E0962275D00075814075FF
:100AA3001801751903000204E4E0F608A3E0F60850
:100AB300A3E0F608A3E0F622600C08C6C313C61829
:100AC300C613C6D5E0F422E6F008A3E6F008A3E6D1
:100AD300F008A3E6F022CAC0E0E6F0A308DAFAD0F1
:100AE300E0FA22E0FAA3E0FBA3E0FCA3E0FD22EAA4
:100AF300F0A3EBF0A3ECF0A3EDF022E5C754F84428
:100B030001F5C77901222518F582E43519F5832209
:100B1300C2AF75D69F02000022120858F8AD011229
:100B230008584BAF01120858EEAF0112085826B10E
:100B33000112085844B10112085875B1011208583E
:100B430087B101120858D9B1011208583AB20112FB
:100B53000858C4B20112085868B301120858BCB34C
:100B630001120858D5B301120858FBB301120858F3
:100B730036B4011208587FB401120858D0B40112D8
:100B8300085880B50112085838B60112085800B742
:100B930001120858DDB70112085863B8011208584A
:100BA30072B8011208587DB8011208588EB90112A3
:100BB30008589FB90112085824BA01120858B3BA49
:100BC300011208580BBB01120858D5BB0112085873
:100BD30006BC0112085843BC0112085850BC01124C
:100BE3000858DFBD0112085842BF0112085855C00A
:100BF300011208589CC201120858A7C201120858D2
:100C0300B1C201120858BCC201120858C6C201126F
:100C13000858D0C201120858DBC201120858E6C2B4
:100C23000112085817C3011208583BC30112085890
:100C33005FC301120858C4C30112085808C4011243
:100C4300085824C4011208589BC401120858D3C47D
:100C5300011208581FC5011208587CC50112085813
:100C63005EC701120858E4C701120858BFC8011231
:100C73000858C0CB0112085815CC0112085841CCB2
:100C8300011208588DCD01120858DDCD0112085804
:100C930032CE0112085833CF01120858CBCF0112BC
:100CA30008584DD001120858EDD0011208581420ED
:100CB300001208584D200012085827220012085825
:100CC300662200120858B022001208585523001259
:100CD3000858B42300120858E82300120858552472
:100CE300001208587225001208587A260012085874
:100CF300352700120858772A00120858202B0012B3
:100D03000858142C00120858752C00120858922DFC
:100D1300001208589F2F0012085856300012085826
:100D23006030001208589330001208585A310012EC
:100D33000858F531001208585A3200120858833205
:100D430000120858A53200120858D434001208586B
:100D5300AB3500120858EF35001208585C36001204
:100D630008581737001208584937001208588D37AA
:100D730000120858C03700120858153800120858D6
:100D83006A3800120858FE380012085860390012F9
:100D93000858C83900120858713B00120858593CCA
:100DA300001208589B3D00120858C93F001208580A
:100DB300894000120858B842001208585B430012D9
:100DC30008589943001208584545001208585945D8
:100DD300001208586345001208588D450012085840
:100DE300994500120858B845001208586F4600127A
:100DF3000858AE4600120858B846001208586C4707
:100E0300001208586B480012085864490012085829
:100E1300014A00120858A34A00120858BA4A00129D
:100E23000858F14A001208580F4B00120858534B48
:100E330000120858784B001208585E4C00120858EC
:100E4300CA4C00120858444D00120858534E001261
:100E53000858924F00120858F44F00120858AE5029
:100E630000120858D15000120858A5510012085812
:100E7300F051001208583252001208589C520012C6
:100E83000858CA520012085803530012085828532E
:100E930000120858B05300120858D35500120858CE
:100EA300325600120858C65600120858325700121C
:100EB30008588657001208582D9D031208586C9D38
:100EC30003120858D458001208582E590012085813
:100ED3008A5900120858D65900120858F1590012BD
:100EE3000858225A001208583F5A001208584B5A01
:100EF30000120858BF5B00120858D85B001208584C
:100F03003F5C00120858525C00120858605C0012E3
:100F13000858145D00120858F85D00120858FE5E68
:100F230000120858845F001208588E5F0012085898
:100F3300FB5F001208581260001208584460001248
:100F430008587D6000120858A7600012085808610D
:100F53000012085828610012085846610012085808
:100F63008C6100120858B26200120858FF62001226
:100F730008582E6300120858A46300120858CC6363
:100F83000012085805640012085813640012085828
:100F93006B6400120858BA6400120858F96400120E
:100FA30008582965001208585565001208586065ED
:100FB300001208587E65001208584066001208584F
:100FC3004A66001208588566001208589B6600128C
:100FD3000858A46600120858F966001208580D67ED
:100FE300001208580A68001208581D6800120858B1
:100FF300326800120858D468001208585769001262
:101003000858156A00120858206A00120858466BDF
:1010130000120858626B00120858B46B001208588B
:10102300F36B00120858086C001208584A6C00123F
:101033000858976E00120858156F00120858886FE9
:1010430000120858AA7100120858C27100120858F9
:10105300C57100120858D17100120858E5710012C9
:101063000858ED7100120858207200120858D07207
:1010730000120858467300120858B9730012085832
:101083006D74001208582275001208584175001239
:101093000858E17500120858ED75001208581876C3
:1010A300001208581B76001208588576001208585B
:1010B300AD7700120858857800120858107900128D
:1010C3000858297A00120858E67A001208581F7B3C
:1010D30000120858507B00120858F07B0012085881
:1010E300207C00120858FB7C00120858947D0012E3
:1010F30008581F7E00120858D07E00120858527FED
:1011030000120858847F00120858C57F001208583F
:1011130086B702120858EBB70212085823B8021216
:10112300085872B80212085894BA0212085877BCC9
:1011330002120858D5BF021208580AC002120858F2
:101143002CC00212085891C002120858C7C00212DC
:101153000858EAC00212085817C10212085873C18E
:101163000212085874AB02120858F5AB0212085861
:101173002BAC0212085892AC0212085805AE0212A8
:10118300085821AE0212085866AE02120858F4AE8F
:10119300021208584DAF0212085881B002120858C3
:1011A3004FB102120858C7B10212085843B20212D3
:1011B300085885B202120858C6B202120858FAB388
:1011C30002120858F8B40212085823B5021208583C
:1011D3006EB502120858B5B50212085847B6021286
:1011E300085800B7021208588992031208589A92B5
:1011F30003120858EB92031208583093031208584D
:10120300DA93031208588C9803120858558F031267
:101213000858AD9003120858BFC10212085866C29D
:101223000212085886C202120858ADC202120858A8
:10123300C1C20212085819C30212085849C3021244
:101243000858CAC40212085870C50212085852C678
:1012530002120858A3C602120858E6C6021208581A
:1012630029C7021208588FC702120858B0C70212C2
:1012730008583CC80212085864C802120858D8C853
:101283000212085886CA0212085860CB0212085884
:10129300BACB02120858E38B03120858048C0312CA
:1012A3000858358D031208585F8D031208581AFB2E
:1012B3000212085895FB02120858A0FB02120858A4
:1012C300C1FB02120858379F021208583A9F0212B4
:1012D3000858F49F021208581FA00212085866A06B
:1012E300021208588BA002120858ACA00212085828
:1012F300E0A00212085819A10212085842A20212D1
:10130300085879A20212085899A20212085834A365
:1013130002120858F9A30212085830A402120858FE
:101323002BA10112085848A60212085841A702121D
:1013330008586AA702120858BEA70212085884A8C0
:1013430002120858B2A80212085847AA02120858F3
:10135300C8AA02120858FBAA02120858CECB0212DE
:1013630008581ACC0212085888CC02120858A9CC83
:1013730002120858C0CC0212085870CD0212085845
:10138300A9AB01120858CCCD02120858F5CD0212B0
:1013930008585CCE02120858EDCE021208582FCF1F
:1013A3000212085879CF02120858D8CF02120858EF
:1013B30069D002120858A8D002120858E7D00212C6
:1013C30008581CD1021208582ED10212085840D1D5
:1013D300021208585FD10212085868D10212085845
:1013E3001ED2021208585ED202120858E7E0021217
:1013F3000858BAE102120858D4E102120858E5E18C
:1014030002120858FAE30212085819E402120858A3
:10141300B18903120858E78903120858308A031266
:101423000858808B03120858A0D101120858DFD244
:10143300011208581BD301120858DAD401120858B4
:1014430003D50112085896D701120858DAD70112AA
:10145300085863D901120858FBD90112085863DAF6
:101463000112085804DB0112085846DB0112085820
:1014730086DB0112085811DD0112085881DE0112C2
:101483000858A6E001120858D4E001120858FBE0FE
:101493000112085804E1011208585FE101120858CB
:1014A300F2E10112085810E50112085891E5011202
:1014B3000858E29C03120858239E0312085852F15D
:1014C3000212085865F10212085802F20212085873
:1014D3003DF20212085858F2021208587DF2021225
:1014E3000858C2F202120858F3F20212085824F301
:1014F30002120858AAF4021208584A9A031208580A
:10150300809A031208589C9A03120858DE9A031211
:101513000858EE9A0312085872E502120858EDE5CE
:1015230002120858BFE6021208585DE70212085873
:101533004EE8021208587BE8021208586F90021214
:101543000858C490021208586E9102120858169255
:1015530002120858739202120858CC9202120858C9
:101563009694021208581395021208583D950212D8
:101573000858FA96021208581597021208586497E9
:10158300021208587A9702120858879702120858CD
:10159300B79702120858CD9702120858DC97021227
:1015A30008583598021208588F9802120858E19883
:1015B30002120858EB9902120858699C0212085843
:1015C300039D021208584E9D02120858B29D021242
:1015D3000858CF9D02120858D29D02120858D59D73
:1015E30002120858489E02120858639E02120858B5
:1015F3008F9E02120858CA9E02120858CD9E0212EC
:101603000858E09E02120858079F02120858989B38
:1016130003120858A49B03120858DE9B03120858B0
:101623000080021208582B8002120858F780021219
:1016330008587C8102120858E58102120858318249
:1016430002120858B0820212085842830212085844
:10165300D283021208581484021208588088021296
:101663000858008A021208583F8A02120858088B49
:1016730002120858BC8B021208586C8D02120858CB
:10168300F88D02120858FA8E02120858EEE501127C
:101693000858A8E6011208581AE70112085829E762
:1016A30001120858A3E70112085812E8011208585A
:1016B3001CE90112085845E901120858E5E901122D
:1016C300085833EA01120858A3EA01120858D7EB65
:1016D30001120858B3EC0112085824ED01120858FE
:1016E300A1EE0112085863EF01120858FEEF011230
:1016F300085859F001120858C4F001120858C8F1EB
:101703000112085889F30112085828F401120858E5
:101713009AF40112085857F501120858479E03120C
:101723000858499E031208585B87031208588C8790
:1017330003120858468803120858AC880312085845
:101743001D890312085887D2021208582AD502129B
:101753000858FCD6021208587F990312085890992A
:1017630003120858309A031208589D8D0312085823
:10177300AB8D03120858EDFF011208581B9C03128E
:1017830008582B9C03120858409C03120858889C45
:10179300031208588A97031208580F98031208581F
:1017A300739803120858FA7F00120858EFFF0212C9
:1017B3000858F2FF02120858F5FF02120858F8FF02
:1017C30002120858B7F402120858C5F40212085856
:1017D3003FF50212085817F602120858A2F7021230
:1017E3000858F9FD0212085852FE02120858FDFE6D
:1017F3000212085815FF0212085891FF02120858E6
:10180300A7FF02120858B5FF021208589DD702120B
:101813000858F2D702120858EED90212085820DAF3
:101823000212085842DA021208585BDA0212085808
:1018330074DA021208587EDB0212085819DC02120D
:101843000858F19303120858169403120858269463
:10185300031208585994031208588A94031208581B
:10186300BF940312085821950312085830950312A8
:1018730008583A95031208580A8003120858308012
:10188300031208586D80031208587C80031208580D
:101893009B80031208580381031208580C8103121A
:1018A30008586B81031208588F81031208584E821F
:1018B300031208585B82031208586C8203120858FB
:1018C300BA9D03120858D79D0312085821EA021241
:1018D30008587FEB021208588CEB021208589FEB52
:1018E30002120858BEEB02120858D4EB0212085831
:1018F300E8EB021208586BEC02120858CEEC021205
:10190300085855ED02120858B3ED02120858C3EDFA
:1019130002120858FF9A03120858239B031208580F
:101923004B9B03120858739B031208589A820312A5
:101933000858C18203120858E282031208584783E9
:101943000312085800850312085819850312085812
:101953002585031208583985031208585785031241
:1019630008586185031208586B85031208587E8551
:1019730003120858CF850312085808860312085823
:10198300378603120858858603120858D486031233
:101993000858EF8603120858F986031208580A8775
:1019A30003120858508703120858919C03120858D1
:1019B300ACF601120858D8F601120858F4F60112D1
:1019C300085807F7011208581DF70112085889F73C
:1019D30001120858BCF701120858EBFB0112085812
:1019E30011FD0112085844FD0112085890FD01121F
:1019F3000858C9FE01120858F1FE0112085806FFE3
:101A03000112085816FF011208585AFF011208580C
:101A1300AFFF01120858BFFF011208584495031283
:101A230008585F9503120858889503120858A29521
:101A330003120858C79503120858E695031208586D
:101A4300FE95031208582C96031208584696031263
:101A53000858769D03120858D2ED02120858D9EDA2
:101A630002120858E5EE0212085815EF0212085840
:101A73003BEF021208585EEF0212085880EF021281
:101A83000858BAEF0212085820F00212085859F009
:101A930002120858A5F002120858D2F00212085890
:101AA300F2F002120858FC90031208580E91031228
:101AB3000858F9910312085886920312085877962A
:101AC30003120858E9960312085827970312085877
:101AD30068970312085807F80212085823F80212ED
:101AE300085872F8021208588EF802120858BFF804
:101AF30002120858CFF802120858BBF9021208580C
:101B0300C5F902120858D2F902120858E2FA021271
:101B13000858F6FA02120858FFFA0212085858DC5D
:101B23000212085878E0021208587DE002120858A1
:101B3300F69D03120858E69E011208585D9E011295
:101B43000858049E01120858989D011208586F9D69
:101B530001120858629B011208582E9B0112085863
:101B6300FB9A01120858DF9A01120858FB990112D7
:101B73000858B39901120858E89701120858689752
:101B8300011208586597011208587F9601120858E8
:101B93004D96011208588A9501120858B5930112FF
:101BA30008586B93011208583D93011208583A9351
:101BB3000112085827930112085844AB0112085820
:101BC300FCAA011208586FAA0112085862AA01124E
:101BD300085860A701120858BF9201120858AE9224
:101BE30001120858939101120858299101120858BB
:101BF300B2A401120858EC90011208588D900112FA
:101C030008585C9001120858178D0112085886A3D2
:101C13000112085879CD02120858088C011208588D
:101C2300978B011208585C8B01120858278B0112FD
:101C330008581B8B011208587B8A01120858C28965
:101C43000112085895870112085821850112085876
:101C5300DF8401120858AA83011208585F83011216
:101C63000858918201120858E88101120858BE8170
:101C730001120858DAA20112085884810112085887
:101C8300A5A50200000080FBE473000136360101C4
:101C9300000102010001030100010401060605021F
:101CA3000000070100340801000F090401010D01C0
:101CB30000FF0E08000017020000190100FF1A01BF
:101CC30000011B0100FE1C0100081D0200001F0192
:101CD300000120010001210200002301000F240262
:101CE30000002601000127010008280200FF2A0145
:101CF30000072B0102402C0100002D0100012E01E1
:101D030000012F0100FF30010B1C310800003A01D4
:101D130000083B01000F2F01000003027102300194
:101D2300600211027002010202020202800210022A
:101D330061023A00410063027302720262024302CB
:101D43000002130238000002000204021202000221
:101D530000020002000204020402370037003C02C2
:101D6300440200023900000200026502000235024B
:101D73008102000205028202830200020300710055
:101D83003001600011007000310220035004800014
:101D93001000610000001400630073007200620011
:101DA30043000000130006000000000004001200BE
:101DB30000000000000000000400040037003700AA
:101DC3003C02440000000000000000006500000029
:101DD30035008100000005000000830000000101C0
:101DE3007101010101011101010131010101010130
:101DF3008001100161013B00140063017301720152
:101E0300620143010001130106013D013500040194
:101E1300120100010001000100010401040133016A
:101E230033013C0144013201360000010001650128
:101E330000013500810100010501820183010001D8
:101E430001037103010301030103010301032203DE
:101E53000203010310030003000300030003000354
:101E630000030003420300032403060300030003EB
:101E73000403120325032303250323030403040399
:101E830000030003000344030003000323030003D0
:101E930065032100350381030003050300030003E9
:101EA300000336000100060000000F0000000000E0
:101EB300000000000000000003FFFF00000403FF18
:101EC300FF0000FFFF0FF4010005C404032000011D
:101ED30000030B000000000000000003010F0100DD
:101EE300C8160200381603003E1604004416050007
:101EF3004A160600561611006E16140074161500C5
:101F03006816FFFF0000600F900F660F6C0F8A0FBB
:101F13007E0F780F960F9C0FA20FAE0F720F5A0F02
:101F2300540F03EAF5E5D5D5C5B5A5959585857512
:101F330075656555554545353525251515058400C4
:101F43000400B40B83000200C70B01040200CA0B98
:101F53000000000000000A320D02FC0C050E0D0704
:101F6300020D0CDE0C0DF00CFF000000160F00003C
:101F73000B150B020002220F320000064A105C1000
:101F830062102A0F6810240F300FAA10C810CE1049
:101F9300B010BC10B61000034948424D1817250570
:101FA300020C0E020B040B0A0708000F000119169E
:101FB3001816161523030000383C3E363B3B352BE1
:101FC300432C303017181921301B1D1F30303016A9
:101FD300181920231A1C1E30840FA80FC210B40F27
:101FE300BA0F9E106E10741080107A100204020152
:101FF300010101090200BE040AE8030E00040015F2
:102003000028000804050A030908FF1E1E0F040C1C
:102013000C74F7120419E99003B0F0900365E4F02F
:10202300121AA69003B5E4F0A3F09003B1F0A3F065
:10203300120E6A121AAC900334E4F0A3F09020104D
:1020430093FA7902121B0C024CC574F2120419EABA
:10205300FEEBFF548060699003B0E0F91213928A9B
:10206300088B09EA4509604F7C0080010CEC75F090
:1020730003A4F8A9F0745928F582741F39F583E491
:1020830093F4602CE493F88508828B83E06870DC1A
:10209300AA08EC75F003A4F8745A28F582741F3962
:1020A300F583E493C0E0740193F583D082121C8B13
:1020B300AA08AB09121386EEFAEF6480FB02221A18
:1020C300EF5420601D120D8C8A088B09EA450960C4
:1020D3000A120CF0AA08AB09121386EEFAEF642079
:1020E30080DAEEA2E0501A90036AE0640F700B7975
:1020F30000120CBAE9600312221DEE6401FAEF80AC
:10210300BB542070030221E8750C0012370A8B09B7
:10211300EA450970107C027D007A207B009003B0B1
:10212300E0F91214DC7C0079047A007B00120D685C
:102133008A088B098018850882850983A3A3A3A332
:10214300A3A3A3A3A37401F0850A08850B09E508DB
:102153004509606D7C007904AA08AB09120D688AF1
:102163000A8B0B750C01E5082404F8E5091234AE5B
:1021730024FFF0A3E034FF12577D70CC85088285DD
:102183000983A3A3A3A3A3A3A3A3A3A3E0640170AD
:10219300A5850882850983A3A3A3A3A3A3E054046D
:1021A3007094850882850983A3A3A3A3A3A3A3A3F0
:1021B300A37406F07AB785088285098312234980C0
:1021C30087120D387C0079017A007B00120D688B31
:1021D30009EA45097009E50C70057A20124664EE98
:1021E3006420022100EF5402600B120E64EEFAEF3A
:1021F30064020220BFEF540460191247FB12471B0D
:102203007901900363124A7F120C00EEFAEF640423
:102213000220BF7A007B00022450900BAA122B07E6
:10222300120CD222C082C08374EA12093785188245
:10223300851983AA82AB83794B121AE27408120BB5
:10224300097402F07409120B09AA82AB8379501244
:102253001AE27413120B09E4124C4E121B0074168B
:10226300023C2874F712041974E1120937EAFEEBF1
:10227300FFEE4F6033851882851983AC82AD8312DC
:102283000DB07406120B09E0601E7417120B09E0FF
:10229300FD7401120B09E0FCEEFAEFFB7900120B5F
:1022A3002EE9600479A480027900024CC074F6120E
:1022B3000419EAFEEBFF8E828F83A3A3A3A3A3A338
:1022C300E05440601B12513D12241760067AFF7BD5
:1022D300FF801A8E828F831238B4FAA3E0FB800347
:1022E300120DD474FE6A700374FF6B604112513D8A
:1022F3001246A8120E28E98E828F836006122342AB
:10230300E480051223427401F07CC07D0C8E828F21
:1023130083124A7F121B06E9F5087015EE4F600918
:102323007901EEFAEFFB120D44A9080246D97508AC
:10233300CDAA088E828F83122349E960DF80EAE009
:10234300240D123D8322E0240C123D83E0F9120C8C
:10235300CC2274F6120419E9FEEAFF7A0F7B00120D
:102363001C14EA4B60198A828B83740CF0EEA3A3CE
:10237300F0EF8A828B83A3F01247047900802FEE5B
:10238300F9120D6E8A088B09A808A909E849601C8F
:1023930088828983A3A3A3A3A3A3A3A3A3740612DD
:1023A30053A4E0F9120C84EEF9120D4A7910024697
:1023B300D9C082C08390036AE0640F7014EA4B6053
:1023C30010900365E064086005E064047003122361
:1023D300D7023C52EAFCEBFD7A017B009003B0E0AC
:1023E300F91214D622C082C0837900EA241DF58233
:1023F300EB1238B124FD600B14600824FD60042443
:10240300FD700109023C528E828F83A3A3A3A3A371
:10241300A3A3A3A312241B221238F9FB120E28E94B
:10242300228E828F83A3A3A3A3A3A3A3A3A3122474
:102433001B6402228E828F83A3A3A3A3A3A3A3A3BC
:10244300A3123C49900356E068221208BD7F06029E
:10245300063174F412041974FD1209378A088B09C2
:102463008A828B83A3A3E0F9120D6E8A0A8B0BAECB
:102473000AAF0BEE4F700302255C85088285098342
:10248300A3E064F16030850882850983A3E064CD0D
:102493006024850882850983A3E0641A601885088F
:1024A30082850983A3E064E9600C8508828509833A
:1024B300A3E064E170087900120D44E9706C8508AB
:1024C30082850983A3E0C0E07402120B09D0E012F5
:1024D3003C2DEEF0A3EF122F75851882851983AA80
:1024E30082AB837005120BE88003120E1074021284
:1024F3000B09E064E970338E828F83122568750AB5
:1025030001780A120894750AE9780A120894E50812
:10251300240CF582E509122A57122F52FCA3E0FD81
:102523008A828B83122F6C1208BD8E828F83A3A3A2
:10253300A3A3A3A3A3A3A3E0640270108E828F833B
:10254300A3A3A3A3A3A3A3A3A37406F085088285CF
:102553000983A3A3E0F9120D4A120D38900BAE12B2
:102563002220022B0CE0F8A3E0F9E8FAE9FB22743D
:10257300F4120419EAFEEBFF7508008E828F83A321
:10258300A3A3A3A3E060427508088E828F83A3A34D
:10259300A3A3A3A3A3A3123B5C8B0BEA450B60107D
:1025A30075082C8E828F83A3A3A3A3A3E0D2E0F0AC
:1025B3008E828F83A3A3A3A3A3E0540364016003C8
:1025C30002265B43081102265BEE2418122B1960C6
:1025D30033EE241A122B19700F1224377003A3E061
:1025E3006970757508228070EE241BF582EF122640
:1025F30060241AF582EF122F7DEE24191251711205
:102603000C7280541224247003750801122437704D
:1026130003A3E0697006E508D2E1F508E508601553
:102623008E828F83A3A3E07006E508D2E58004E5DC
:1026330008D2E6F50812240A64017006E508D2E020
:10264300F5088E828F83A3A3E0600D12266E6401CA
:102653006006E508C2E0F508A908022B1112389FAD
:1026630012266722E0FCA3E0FDEE2212389912380D
:10267300D1F9120E16E922C082C08379018A828BB6
:1026830083A3A3E0C394024001198A828B83A3A38B
:10269300A3A3E0C39402400279008A828B83A3A39D
:1026A300A3A3A3A3A3A3A3E064F87003A3E0F4602C
:1026B300458A828B83A3A3A3A3A3A3A3A3A3E064B9
:1026C300F97003A3E0F4602E8A828B83A3A3A3A3F0
:1026D300A3A3A3A3A3E064FA7003A3E0F460178A9F
:1026E300828B83A3A3A3A3A3A3A3A3A3E064FB70ED
:1026F30003A3E0F4700279008A828B83A3A3A3E08F
:10270300F8900353E0686002790090200FE493C3CC
:1027130094805013EA241112272D90200FE493C3C1
:1027230033C39850027900023C52F582EB124734CE
:10273300F82274F012041974DE120937EAFEEBFF73
:102743008E828F83A3A3A3A3E0600E900BAC1246EB
:10275300D06006900BAC1222207403120B09AC82DA
:10276300AD838E828F83A3A3A3124752124F8BE9AB
:10277300600F7403120B09AA82AB83120CEAE9708F
:10278300087901121AB8022A4CEE241B1238A474D9
:1027930010120B0912471B7409120B09E060217414
:1027A3001A120B09E0FD7404120B09E0FC8E828FF0
:1027B30083124A7D7901120B2EE96004790280C3EA
:1027C3007403120B09AA82AB83120CE4E9F50A74B1
:1027D30009120B09E0702A90034DE060247422551E
:1027E3000A6422601C7442550A644270CF7420123A
:1027F3000B09122A62600A7420120B09122A5B70F9
:10280300BBE9A2E650417403120B09AA82AB8312FF
:102813000CD8E970030227847420120B091238B410
:102823006403700F7420120B09A31246C2A3E06461
:102833000D60147403120B09AA82AB83120E3AE9DA
:1028430064017003022A4CEE242C122A54122D88A0
:102853007003A3E069701C75080078081208947867
:1028630008120894EE242E125171122A68122F6C4A
:102873001208BD7409120B09E07003022929122AF8
:1028830068124A7F120E888A088B09EA4509700389
:102893000229C67404120B09E0F88E828F83A3A366
:1028A300E028F8A3E03400F9E8240DF582E91227C3
:1028B300308A828B83A3A3A3E068601CE88A828B9F
:1028C30083A3A3A3F090813D120AE68508828509BC
:1028D30083A3A3A3A3120AF27904E9120B09124FEB
:1028E300682AF8A3E034008882F583A3AA82AB8325
:1028F3001213748A0C8B0D8C0E8D0F85088285093B
:1029030083A3A3A3A3780C1208114003022A4C90BB
:102913008131780C1209C6850882850983A3A3A394
:10292300A3780C120ACA900365E064046008E064AB
:10293300096003022A4CE50AA2E54003022A04EED9
:10294300242E122B19851882851983F0EE242F1259
:102953002B19C0E07401120B09D0E0F0EE24301201
:102963002B19C0E07402120B09D0E0F07414120B9F
:1029730009E064017027740E120B091238AAEE24C1
:1029830012122B19687003A3E0697011740C120BF7
:102993000912243170077414120B09E4F0EE242495
:1029A300122A541206FC7404120B09AC82AD837410
:1029B30007120B09AA82AB83120BEE74041208BD33
:1029C300022A4C9003AAE0640160030229297420BF
:1029D300120B09122A627009E50AA2E650030229C2
:1029E300297410120B09E0F47003A3E0F4605AEEAB
:1029F300FCEFFD7403120B09AA82AB83120CF68061
:102A030048A2E650447420120B09124A8E701A74BD
:102A13001A120B09E0640270307403120B09AA82C4
:102A2300AB837900120E0480207420120B09122A42
:102A33005B7016741A120B09E06404700C740312B1
:102A43000B09AA82AB83120DFE7422024E3AEE24C6
:102A53000BF582EF12389F2212514FE064072212C6
:102A630038D1640622EE242A12389C1226672412D7
:102A730012389C2274F4120419EAFEEBFF8C088DC1
:102A8300099005A0E0600F1224377003A3E069707A
:102A930005120C60804F7900124A72120C908A82E0
:102AA3008B83E58245836035A3A3A3A3A3A3E0544B
:102AB30018602AE508241BF582E509122A57120734
:102AC30000123148122A57120700EE2418125171CE
:102AD300122AEA120CA274041208BD8008790012AB
:102AE3002AEA120C6680278E828F83A3A3A3A3A353
:102AF300A3A3A3A3122667240BF582EF122B0322B1
:102B03003400F5831238F9FB2274031208BD7F04E5
:102B1300020631EE2417F582EF1247342274F712BE
:102B2300041974F7120937EAFEEBFF900365E064BA
:102B330003600DE064016008E064096003022C0295
:102B43008E828F83A3E06003022BE17C007D007AF9
:102B5300027B00121AB2EE2402FAEF1234B51238D5
:102B6300AA90035612471B7953121AE87900122CC4
:102B730007E064096009900363124A7F120E82859D
:102B8300188285198374011246F19003657404F069
:102B93007401120B09AA82AB83794A121AE27401F7
:102BA300120B09AC82AD837A5B7B03121AD09003BC
:102BB30056124F817A037B00121AB2900359124FB7
:102BC300817A047B00121AB2900350E0A2E350040E
:102BD300D2F08002C2F01246DE12221D801E8E82C7
:102BE3008F83A3AE82AF83FC7D007A037B10121A1E
:102BF300B28E828F83E0F9122C07E4F0120D207459
:102C030009024CC2900363122B07120C0090036558
:102C130022C082C0839003341246D0701F90036594
:102C2300E014600924FC600A14600C800F90033CDC
:102C33008032900338802D90033A8028E849600859
:102C4300900335122F4C700C8A828B83A3E0F91208
:102C53000BF4801B9003351231E47005120E58807B
:102C63000E9003D21246D060061246C2121C8B028B
:102C73003C5274F412041974FB1209378A088B0945
:102C83007A0F7B00121C148A0A8B0BAE0AAF0BEE71
:102C93004F7003022D7C8E828F83124C4C7950121D
:102CA3001AE2850882850983A3E06003022D6490FC
:102CB3000363E0F47003A3E0F46034900363E0641F
:102CC300FE7003A3E0F46027851882851983122D13
:102CD300887003A3E0696017850882850983A3745C
:102CE300EA122F827A637B037950121AE880728585
:102CF300188285198312513012471B7A567B037948
:102D030053121AE290035612474C12471B7A597B0F
:102D130003794B121AE27A587B0379E1121AE29093
:102D2300036AE0C3940F5021900358E0C0E074029B
:102D3300120B09D0E0F07404120B097401F00412B1
:102D43000B09AA82AB83121AFA750A00780A1208D1
:102D530094780A120894900BCEE0F9122F631208AC
:102D6300BD850882850983122D81A3F090036574C4
:102D730003F0EEFAEFFB1247047405022B0EA3E0F7
:102D83008E828F8322125134E06822123D8A22748C
:102D9300F512041974D81209378A088B098A828BB1
:102DA30083A3A3A31238D67415120B09AC82AD8387
:102DB3008A828B83A3A3A3A3A3A3A3A3122F52FA51
:102DC300A3E0FB120D267415120B09E0706B850846
:102DD30082850983A3A3A3A3A3A3A3A3E0C3940B03
:102DE30040578E828F83A3A3A3A3A3A3A3A3E064CB
:102DF300027046EE240B122B19F4703D900365E02C
:102E03006402603AE0640660359003341246D06091
:102E130005122F4C604F900365E064086005E06481
:102E23000470167417120B09E0F9741C120B09AC29
:102E330082AD83124A72120D2C742802562A900313
:102E4300341246D0701F7508007808120894780869
:102E5300120894EE2410122A5412518912359D122D
:102E63002F6C1208BD8E828F831249EE1234C71263
:102E730038AA7402120B0912471BEE240D122B19E8
:102E8300C0E07404120B09D0E0122F75F508A3E01B
:102E9300F509740F7808120ABB7405120B09E508CB
:102EA300F07419120B09E0C0E07406120B09D0E0AC
:102EB300F0741B120B09E0C0E07407120B09D0E099
:102EC300F07416120B09E0C0E07409120B09D0E08C
:102ED300F07417120B09E0C0E07408120B09D0E07C
:102EE300F0EE2410122B19C0E0740A120B09D0E083
:102EF300F0741A120B09E0C0E0740B120B09D0E056
:102F0300F07427120B09E0C0E0740C120B09D0E037
:102F1300F0741C120B09A982AA8389088A09750A0D
:102F230000780812088C7C087D007410120B09AA23
:102F330082AB8312427F1208BD851882851983AA4A
:102F430082AB83120BFA022E3C1231EA640122E0B7
:102F5300F98A828B83A3A3A3A3A3A3A3A3A3E0229E
:102F6300900363124F85900359122B07120DE674D9
:102F73000222F0EE240B12473122124734FA22F0D8
:102F83007A567B037953122F8D22121AE87A597BD2
:102F930003794B121AE822F01251942274F21204AC
:102FA3001974F8120937EAFEEBFF8C0A8D0B890CB2
:102FB300851882851983AC82AD837583807582D52C
:102FC30074081207D1F50DEEFCEFFD851882851903
:102FD30083AA82AB8312494F7003750D019003B12D
:102FE300803BEEFCEFFDE508240BFAE50934001203
:102FF300494E601E850882850983A3A3E0650C7092
:1030030011850882850983E0650A7004A3E0650BD6
:103013006038E5082414F582E509122A571234BFF3
:10302300E50845096024E50DA2E040B685088285E0
:103033000983E0650A7004A3E0650B70D5850882F7
:10304300850983A3A3E0650C70C8AA08AB097408BB
:1030530002244DC082C0839003B1023C4F74F71227
:1030630004199003B11238F98012EA2414F582EBA3
:10307300122A571238D6121422EEFAEFFBEA4B70DB
:10308300E99003B1E4F0A3F0024CC57F07020631D7
:1030930074F1120419EAFEEBFF890A8C088D098E7C
:1030A300828F83E08C828D83123B66AE82AF83E096
:1030B30012433F1242B0C412433F123151E0540352
:1030C3008C828D831242AEA2E2E4338C828D831212
:1030D30042AD131313541F12433F1242ACA2E7E451
:1030E300338C828D83A3A3A3A31231518E0C8F0D36
:1030F300750E00780C12088C7C087D00E508240707
:10310300124EF41208BD124F5F8E0C8F0D780C1205
:10311300088C7C037D00E508240F124EF41208BDD1
:10312300E50AC3940F40148E828F83A3A3A3E0C048
:10313300E0123148122A57D0E08006123148125368
:1031430098F002308EE5082412F582E50922A3A344
:10315300123B6A0EAF832274F412041974F9120934
:1031630037EAFEEBFF89089003341246D0600E1253
:1031730031E47009EEFAEFFB120E52805F900363A5
:10318300E06E7003A3E06F70537401650860097A01
:10319300777B0312494F70447A007B0212370E8B00
:1031A3000BEA450B7036900366120AE68518828592
:1031B3001983120AF290036CE0C0E07404120B0945
:1031C300D0E0F07405120B097401F07406120B09B8
:1031D300124C4C120BC4E9609B120BCA7407022BEE
:1031E3000E1231EA640222125150A3A3A3A3A3A394
:1031F300E02274F51204198A088B098A828B83A34F
:10320300AE82AF83E0F9120C188E828F83E064EBF9
:10321300600C850882850983A3E064E17009850851
:1032230082850983A3E4F012221D750A01780A122C
:103233000894850882850983A3E0F50878081208B5
:10324300947900122F631208BD120D3802562DEA2D
:10325300F0A3EBF0023C5274F61204199003B4E0AD
:10326300701B7C0079017A007B00120D68EA4B60C9
:103273000C8A828B831246D06003120CC60246D995
:10328300C082C0831236F6401079FF120D62E9F84E
:10329300902013E493C398500479018002790002CB
:1032A3003C5274F01204198A088B09890B750C00BF
:1032B3008A828B83A3A3A3A3A3A3A3A3E0F9120DE1
:1032C3006E8A0E8B0FAE0EAF0F750A01EE4F6003C1
:1032D300023383850882850983A3A3A3A3A3A3122F
:1032E3004F81850882850983A3A3A3A3A3A3A31264
:1032F300407F124A7F120D568A0C8B0DAE0CAF0D18
:10330300EE4F70030234A68E828F83A3A3A3A3E49C
:10331300F0A3F0E508240B1234B2E0C0E0122A5106
:10332300D0E0F0120E2EEE240CF582EF1246A4E547
:1033330008240EF582E5091238A7EE240EF582EF74
:10334300124718750C01EE2406F8EF1234AE547FC1
:10335300F0A3E054FC1251E6E05404600302340984
:10336300900BB2124070740778081209EC8E828FAA
:1033730083A3A3A3A3A3A3E04508F0A3E04509F017
:103383008E828F83A3A3A3A31234BD74077808127C
:103393000ABBE5085407F508E50B607A8E828F8334
:1033A300A3A3A3A3A3A3A3A3A374021242B1240DB3
:1033B300123D7FE0A2E2500B90035112474CA3A3AE
:1033C30012471BE508700302347BEE2406F8EF3442
:1033D30000F9E8FAE9FB8A828B83E0547FFCA3E0DF
:1033E30054FCFDE50824FFF508E434FFF5097407F0
:1033F30078081209ECEC4508F8ED4509F98A828B47
:103403008312471B80728E828F83A3A3A3A3A3A3DC
:10341300E04480023382E5087005750A0080598E06
:10342300828F83A3A3A3A3A3A3E054206012121348
:103433007AEA547F245F8E828F83A3A3A3A380237E
:103443008E828F83A3A3A3A3A3A3E05410600A12C5
:10345300137AEA540F240A80DD8E828F83A3A3A3F9
:10346300A37401F0A3E41234C774041237058B0963
:10347300EA45097003124697E50CA2E050288E82B4
:103483008F83A3A3A3A3124CB2F9EEFAEFFB120DA1
:103493005CE960121246C6600312388FEEFAEFFB46
:1034A300121422750A00A90A024E3D12480F22FA8D
:1034B300E5093400FB8A828B8322A3A3E0F508A3EA
:1034C300E0F509221234CB22124F10A3A3A3A3A326
:1034D3002274F412041974F71209377E00120D6E68
:1034E300EA4B70030235968A828B83A3A3A3A3A31B
:1034F300A3A3A3A3E0640660030235968A828B83A9
:10350300A3A3A3A3A3A3A3E0FF8A828B83123D9269
:10351300E0C0E07408120B09D0E01238CA12495512
:1035230012471B120D80EF540860668518828519B7
:1035330083124F817A007B00120D508B0BEA450BEF
:10354300704F9003631239BA121B127C007D007A0C
:10355300007B0080288E828F831238B4F47003A31B
:10356300E0F4602D90036312359D124A7F12181206
:10357300E9641A601C7C007D00EEFAEFFB120D502B
:103583008A0A8B0BAE0AAF0BEE4F70C97900121B80
:10359300187E01EEF97409022B0E1235A122E0FC0C
:1035A300A3E0FD8E828F8322C082C083EA4B700525
:1035B3009003B580068A828B83A3A31237BA602552
:1035C3008A828B83A3A3A3A3A3A3A3E0540860E5E8
:1035D300EC4D60158A828B831238B46C7003A3E0C0
:1035E3006D70D280047A007B00023C5274F21204A4
:1035F30019EAFEEBFF890A8C088D097A107B001209
:10360300141CEA4B603F8A828B83A3A3A3A3A3A3C7
:10361300A3A3A3E41238B8A3E50A125156A31236A2
:10362300528A828B83A3A3A3A3E4F0A31238C4A377
:10363300F0124FEAEA240CF582EB123B5612364B9A
:10364300A3A3F0A3F0022450A3F08A828B8322A3C6
:10365300A3E508F0A3E509F02274F4120419EAFEC5
:10366300EBFF89088C0A8D0BEE4F605574016508DA
:1036730070147901120D62E9F890200CE493C39859
:10368300500F7911806A74046508702F1236F64062
:10369300F18E828F83A3A3A3A3A3A3A3A3A3E5086C
:1036A300123B66A31256B78E828F83A3A3E4F0A3C3
:1036B300F09003B51246D06021800D740265086056
:1036C300D079C1802BE0F8A3124745A3A31237BAE0
:1036D30088828983A3A370ED80039003B5EEF0A3E2
:1036E300EF1237058B0BEA450B70031246977900EF
:1036F300022B117904120D62E9F8902008E493C3B8
:103703009822F012370A227A207B009003B0E0F966
:103713001214E822C082C083E9F879009003B580CF
:103723001D8A828B83A3A3A3A3A3A3A3A3A3E0685C
:10373300600574FF687001098A828B83A3A3123723
:10374300BA70DE023C5274F7120419EA4B7005900A
:1037530003B580068A828B83A3A31237BA60248AB7
:10376300828B83A3A3A3A3A3A3A3A3A3E06970E46E
:10377300EC60148A828B83E0240D124F72A2E24024
:10378300D380047A007B00024CC5C082C0839003BF
:10379300B580068A828B83A3A31237BA60128A820A
:1037A3008B83A3A3A3A3A3A3A3A3E06970E58004CE
:1037B3007A007B00023C52122B07EA4B2274F2126E
:1037C30004198A0A8B0B8C0C8D0D75080075090082
:1037D300EA450B602E9003B580068E828F83A3A3E8
:1037E30012380D601EAC0CAD0DEEFAEFFB850A82AC
:1037F300850B83121C8BE9640170DFEEF8EFF98807
:10380300088909AA08AB09022450E0FEA3E0FFEEF1
:103813004F2274F71204199003B51238AA7C007D65
:1038230000800DE8FCE9FD88828983A3A31238AAEE
:10383300E8496030EA687002EB6970E79003B512FB
:103843004A7FE86A7002E96B88828983A3A37008C0
:103853001238AA9003B580091238AA8C828D83A3EB
:10386300A312471B024CC574F7120419EAFEEBFFBF
:10387300EE4F6015120D7A1238DC1246C660031241
:10388300388FEEFAEFFB121422024CC5EE240C1211
:10389300389C1238F122EE241DF582EF3400F583B3
:1038A30022F582EF12389F123C4922F582EF12383B
:1038B3009F1238D1221238BC2212515EA3A3A3A3B4
:1038C300221238BCA3A32212364C1238D122125131
:1038D30049E022E0FEA3E0FF228E828F83E0241CD6
:1038E300123D831238F18E828F831238F1221238FF
:1038F300F9FB12142222E0FAA3E022C082C083EA79
:10390300FCEBFDEC4D700479058044EC24FBF5825F
:10391300ED34FF1246CE7007123955E0F4600512FC
:10392300138680E39003B0E0C0E0123955D0E0F095
:10393300902009E493F97AB77B031213B0E9640189
:10394300700B7A007B2012469B7900800279040277
:103953003C52EC24FFF582ED34FFF5832274F4121C
:103963000419A2AFE433F508C2AF9003B712380DC0
:103973006038EE24FBF582EF34FF1246CE7A007BEB
:10398300209003B0600512469E8005E0F91213BC37
:10399300E4F50AF50B780A120890EEFCEFFD7AB70E
:1039A3007B031213AA74021208BDE508A2E092AFCA
:1039B300EEFAEFFB022B11124F85851882851983CE
:1039C300AA82AB832274F212041974FC120937EA37
:1039D300FEEBFF750AFE750BFF120D3EE9600579DC
:1039E30011023B4BEE2415122B196037900BC6E0E6
:1039F300C43354E0F8E0333354FC48C0E0EE2415FC
:103A0300122A54D0E0123B66123B5C8B09EA45094B
:103A13006011750AFFEE240F122B19440412472973
:103A2300D2E0F08E828F831224156006EE241212E8
:103A33003B53EE2413122B19701090200FE493C004
:103A4300E0EE2413122A54D0E0F08E828F83E0A29A
:103A5300E750045403801CEE2414122B19701590A4
:103A63000342E0C0E0EE2414122A54D0E0F09003A5
:103A730042E004F0EE2411122B1964017016900534
:103A830097E0600D90034DE0700A8E828F83E070A3
:103A930003123B508E828F83E064017013EE240B7C
:103AA3001238AE64027009EE240F122B194440F051
:103AB300851882851983AC82AD83EEFAEFFB120D74
:103AC300A48A088B0974FE650A700374FFF47009F5
:103AD3008E828F83A3A3124F00EA450960668E820C
:103AE3008F83E0C0E07401120B09D0E0F07402127E
:103AF3000B09124FEE7401120B0985820C85830D9D
:103B0300780C120890EE240F122A54120700EE24A8
:103B13000E122B19F50C780C120894900356120709
:103B2300007407120B09E0F9AC0AAD0B120D9E7479
:103B3300071208BDE9FE74106E700BAA08AB0912D8
:103B4300142280027E10EEF9740402244DEE241137
:103B5300F582EF12389FE4F022A3122B0779FF12AC
:103B63001BC022123B6A22F08E828F83A322C08263
:103B7300C08374DE1209378A828B83A3A3A3A312A3
:103B830038AA740E120B09E8F0A3E9123C40740C36
:103B9300120B09123C39240DF582EB122B1CC0E0E9
:103BA300741A120B09D0E0F0124E4DEB1238A774C1
:103BB30020120B09123C392415F582EB122B1CC081
:103BC300E07408120B09D0E0F0EA241CF582EB1232
:103BD30038A77412120B09123C392411F582EB1227
:103BE3002B1CC0E07409120B09D0E0123C2D74FFAA
:103BF300F07401120B0974FFF07402120B0974FFC5
:103C0300F090813D1206FC7404120B09AC82AD8363
:103C13007407120B09AA82AB83120BEE7404120809
:103C2300BD790074221208BD8025123C3122F08533
:103C3300188285198322E8F0A3E9F0EA2212364CB0
:103C4300A3123C4822A3E0F8A3E0F922124A7FD052
:103C530083D08202085574EC12041974EE120937EA
:103C63008A128B13ECFEEDFF89097426120B0912DD
:103C73004F007428120B09E0F5107429120B091276
:103C83003D74742B120B09E0F50EA3E0F50F7508D4
:103C9300107A1E7B0012141C7402120B091246A820
:103CA3007402120B091246D07003023D6D8518820F
:103CB300851983AA82AB837950124583124A7F7494
:103CC30002120B09123D92A31246A87410120B099B
:103CD3001256B97402120B09E0240B123D7F7402D1
:103CE300F0120B09123D927402F0120B09125141AA
:103CF300124FEE7402120B09124A94E509F0740292
:103D0300120B09E0240C123D7FE510F07402120B34
:103D130009123D7CE512F0A3E513F07408120B09B8
:103D2300E50CF0A3E50DF0740A120B09E510F0851C
:103D33000E82850F83C082C083740D120B09AC827F
:103D4300AD83D083D08274031207D1F97402120BAE
:103D530009AA82AB83120D44E9640170057508005A
:103D630080087402120B09123895A9087412024FC5
:103D730017E0F50CA3E0F50D22E0241C123D83228D
:103D8300F8A3E0123D8A223400F988828983221243
:103D93004A87A3A3A3A3A32274EE120419EAFEEB9A
:103DA300FF8C088D098E828F83A37408124764E009
:103DB30060088E828F83A37410F0122B1660098E15
:103DC300828F83A3E02408F0EE2415122B196008D8
:103DD3008E828F83A3E004F08E828F83A3A3A3A399
:103DE300A3A3E060198E828F83A3A3A3A3A3A3A39A
:103DF300E0C3332402F88E828F83A3E028F0EE24FD
:103E030011122B196005750B0E8003750B008E8242
:103E13008F83A3C082C083EE240D122B19D083D0CD
:103E230082F8E028250B8C828D83F0EE2411122B6F
:103E330019600512428F28F0850882850983E0C343
:103E430094754009750800750900023F7DE0FA7B0F
:103E53000012509C7003023F7DEEFAEFFB120DAA95
:103E6300EA8508828509831246A9EE2402F8EF1237
:103E73002D8E124077123FB9F0EE24040808EF129A
:103E83002D8E1244B9A3123FB9A3A3F0EE2413124B
:103E93003F9FF0EE2414123F9FA3F0750A08EE240F
:103EA30016122B196010EE2418124F7EE508240811
:103EB30012517F750A10122B166016EE241A124F38
:103EC3007E850A0CE508250C12517F7408250AF536
:103ED3000A8E828F83A3A3A3A3A3A3E06059EE2436
:103EE30007F510EF3400F511851082F583E0C0E08B
:103EF300123F86122A57D0E0123FA9E0C0E0123FDA
:103F030086122A57D0E0123FA9A3123F9212088CBF
:103F1300851082851183E0C333FCE433FD850A0CED
:103F2300E508250C124EF41208BD85108285118315
:103F3300E0C333250AF50AEE2415122B19600BC0D2
:103F4300E0123F86122A57D0E0F0122A51123F9214
:103F530012088CEE240D122B19FC7D00850B0A8EA2
:103F6300828F83A3E0F8E50828F8E5093400F9E82F
:103F7300250AFAE9124EF71208BDAA08AB097F0A0F
:103F8300020631850A0CE508250CF582E50922E0D5
:103F9300F50CA3E0F50D750E00780C2212389C1277
:103FA3003FC3A3A3A322F0050A8E828F83A3A3A3F7
:103FB300A3A3A3A3A322A3A31251EAA3123FC32241
:103FC3001244BDA3A32274F61204198A828B83E0E0
:103FD300FC900353124070740278081209ECEC450C
:103FE30008FCAD09EA241212406A74067808120923
:103FF300ECEC4508FCED4509FDEA2415F582EB12CE
:104003002B1C6004780180027800E4C8F9ED49FDB7
:10401300EA2411F582EB122B1CF508880974097840
:10402300081209ECED4509FDEA241612406A740BE7
:1040330078081209ECED4509FDEA241712406A7469
:104043000C78081209ECED4509FD8A828B83A3A342
:10405300A3A3A3A3124070740A78081209ECECFA24
:10406300ED4509FB0246D9F582EB12389FE0F508CE
:1040730075090022E085088285098322A3E0F9857A
:1040830008828509832274EE1204198A0A8B0BECC9
:10409300FEEDFF750F01E9C3940850057900024254
:1040A3007C8E828F83E9F01244E2E96003750F008E
:1040B3001244C68E828F83124510EE124E4EEF12BB
:1040C3004505C0E0EE2411122A54D0E01244FDC08D
:1040D300E0EE2412122A54D0E0123B667408124F09
:1040E30008A3A3A3E060151244AEEE2413F582EFF8
:1040F3001247188E828F83A3E02408F08E828F8369
:10410300A3A3A3A3A3A3A3A3E060218E828F83A36E
:104113008582088583091244F1EE2415F582EF1296
:104123004718850882850983E02408F08E828F83EF
:10413300A3A3A3A3A3E0601A8E828F83A38582081F
:104143008583091244D58E828F83A3A3A3A3A312CD
:1041530042A1EE2419123B53EE241B123B53A3122C
:10416300475CE07003024210EE2419F8EF3400F9C3
:104173008E828F83A3858208858309E0FAE50A2A64
:10418300F582E50B122B1C888289831242A1FAE582
:104193000A2AF582E50B122B1CC0E0EE241A122A20
:1041A30054D0E01242A188828983E06059F89020BC
:1041B30012E493C398500575110C8008EE2419126C
:1041C3002B19F5118E828F83A3E0F8E50A28F50CED
:1041D300E50B12428512088CE511C333FCE433FD71
:1041E3007A647B0A12427F1208BDEE241B122A5402
:1041F3007464F0A3740AF0E511C333F8850882856B
:104203000983E0288006EE2418125395F08E828FDE
:1042130083A3E0F88E828F83E0C398500302409F0C
:10422300A3E0FA8A08E50A2508F8E50B3400F9EE5D
:10423300241DF582EF1248241242B1C39AC0E0EE66
:104243002417122A54D0E0124721602BEE2417F8CA
:10425300EF3400F9880889098882F583E024F21293
:104263004805240EFAA3E03400FB888289831246B2
:10427300A812428FC398F0A90F023F8112135C74F6
:1042830003223400F50D750E00780C2290034EE0E6
:10429300F9120B34E9F8850882850983E022F08559
:1042A3000882850983E004F022A3A3A3A3A3F08ECD
:1042B300828F83E02274F41204198A088B09EA12AC
:1042C3004346F0EA1313543F12433FA3A3A3F0EA78
:1042D300C41313124346A3A3F0EB12433812435003
:1042E3007409780A120ABB12433612434F740A78D0
:1042F3000A120ABBE50A5401C0E0EC2418F582ED6A
:10430300122A57D0E0124355740B780A120ABB12D3
:104313004336A312434F740C780A120ABB12433676
:10432300A3A3A3A3A3A3A3A3F0740D7808120ABBAA
:1043330002265BE50A54018C828D8322540F8C8202
:104343008D832254038C828D83A3A322A3A3A3A3CF
:10435300A3A3F08A0A8B0B22C082C08379008A82CE
:104363008B83A3A3A3A3A3A3E090034D600FE070EB
:10437300228A828B83A3A3E07019098016E060135D
:104383008A828B83124A76900356E06A7003A3E015
:104393006B70E7023C5274F01204198A0A8B0B8982
:1043A3000C8C088D091244E21244C68508828509E3
:1043B30083124510E508124E4EE509124505C0E08B
:1043C300E5082411F582E509122A57D0E01244FDCD
:1043D300C0E0123148122A57D0E012482C74081258
:1043E300484560111244AEE50824131248201248D0
:1043F3002CE02408F0850882850983A3A3A3A3A343
:10440300A3A3A3E06017850882850983A31244ED63
:10441300E50824151248201242B12408F0850882C9
:10442300850983A3A3A3A3A3E06019850882850953
:1044330083A3AE82AF831244D58508828509831294
:1044430042AC04F0AA08AB09120DBCE9F50D705695
:10445300850882850983A3A3A3A3A3A31244B970E8
:1044630014E0FA8A0EE50A250EF8E50B12470DE56E
:104473000CC39A80211244EDE8240EF8E912470D8B
:1044830090034EE0F9120B348E828F83E0F8E50C33
:10449300C39824F2C399C0E0E5082417F582E5091F
:1044A300122A57D0E0F0A90D024E3DE50A2408F880
:1044B300E50B3400F9221244BD22E0850882850908
:1044C30083A322850A82850B83A3A3124526E0F9E1
:1044D300EA22E0F8E50A28F582E50B124734228A3E
:1044E300828B83124E42120DB622AE82AF83E0F866
:1044F300E50A28F8E50B3400F922124539A3A3A3F2
:10450300E02212389FE8124532A3A3E022A3A3A31B
:10451300A3A3A3A3A3A3124532124526A3A3E0F9A1
:10452300EAF822E0FA850A82850B83A3A3A322F08B
:10453300A3E912453922F0850A82850B83A3A3A33D
:10454300A322C082C0837AC57B0379E2121AE27A7E
:10455300C57B03023C52C082C083900356023C4F8A
:10456300C082C08374FE120937851882851983AA15
:1045730082AB83794B124583124A7F7402023C2833
:10458300121AE285188285198322C082C083794A70
:10459300121AE2023C5274F61204199003CDE0FEA3
:1045A30004F0EEF9120D6E8B09EA450970EDEE6029
:1045B300EAF90246D974F0120419EAFEEBFF8C08FB
:1045C3008D09890A7410120B09E0F50B7411120B93
:1045D30009E0F50C120E88EA4B7013E50C7042A942
:1045E3000AAC08AD09EEFAEFFB120EA0806EE50AE5
:1045F3006021EA2402F582EB122B1C850A082508A8
:10460300F8E4340013E813F070098A828B83A3A3C0
:104613007401F0E50C6045E50B70068A828B83E438
:10462300F07401650C7035E50B9003D47004E4F06D
:10463300802AE004F0900BB3E0F89003D4E0C39831
:10464300401AE4F0900359E06E7003A3E06F700C1E
:10465300EEFAEFFB7901120C12124662024E3D7A1A
:10466300017B009003B0E0F91214E222C082C08300
:1046730074016A7001EB70077A01124699801290F7
:104683000BAA1246A8EA4B60051223D780031246F1
:1046930062023C527A207B009003B0E0F91213B619
:1046A300223400F583EAF0A3EBF022C082C08390AA
:1046B3000BAC023252C082C083900BAE0232521254
:1046C300515022EE240CF582EF3400F583123C495D
:1046D300E849221208BD7F02020631A2F0E43385C5
:1046E30018828519831246FA7952121AE822124661
:1046F300FA7942121AE822F0AA82AB8322AA08AB03
:10470300099003B0E0F912138C223400F9E5082470
:104713001DF582E50912389FE8F0A3E9F022124F54
:104723000CA3A3E022A3F0EE241512473122F58255
:10473300EF3400F583E02212473E223400F583E094
:10474300F8A3E0F98882898322E0F812475222A372
:10475300E0F98E828F83A3A322F0EE241812389CF3
:1047630022F0EE241612389C2274F4120419EAFE85
:10477300EBFF7A007B041246661247FB12471B903D
:1047830003657409F0120DC88A088B09AC08AD09DA
:10479300EE2413122A54124A7F12494F64017048BF
:1047A3007A0F1247EE60418A828B837402124805A6
:1047B300FAA3E0FB8A828B83A3E0FC8A828B83A328
:1047C300A3E0FBEC850882850983A3A31246A9888D
:1047D300828983124A83124077124728FAA3E0FBA7
:1047E300794A121AE8124700022B117B00121C149B
:1047F3008A088B09EA450922900336123C49900B3B
:10480300AE22F0EE241DF8EF12480F22123D8AE08B
:1048130022124818223400F5837401F022F582E550
:104823000912389FE8F0A3E92212483022124834D3
:1048330022F0850882850983A322124834A3A3A307
:10484300A32212483DA3A3E022124C56120E1C22AF
:10485300EE2417F582EF124818120DC8EE241A122F
:10486300389CEAF0A3EBF02274F412041974F312E7
:1048730009378908EAFEEBFF7C0D7D007900851876
:1048830082851983AA82AB83121368EE241D122A30
:1048930054125141A3E0F8741F58600A7901121AA7
:1048A300B87900024946E8A2E55008740C120B09D6
:1048B3007401F0E8A2E75008740B120B097401F0BD
:1048C300E8A2E6740A5008120B097401F08008127A
:1048D3000B09E064017005EE24138003EE24151226
:1048E3004F7E7402120B09AA82AB83121AD0122ACA
:1048F3005112495412471B740A120B09E0640170E8
:104903003312240A703B120DD48A0A8B0BA80AA90E
:104913000BEE240B122B19687003A3E069702212AB
:104923000DC8EAFCEBFD7402120B09AA82AB8312D9
:10493300494F600D851882851983AA82AB83120CB7
:104943000CA908740D022B0EEEFAEFFB121ACAE93A
:1049530022E012495922F8A3E0F9851882851983C8
:104963002274F612041974F31209378A088B09ECBE
:10497300FEEDFF7C0D7D007900851882851983AAE1
:1049830082AB831252C2A3A3A3A3A3A3A3A3A31281
:1049930049EE1249F7F8A2E55008740B120B09749B
:1049A30001F0E8A2E75008740A120B097401F0E859
:1049B300A2E6EE5004241380022415124F7E7402E3
:1049C300120B091249E0A3A3E0C0E0740C120B0917
:1049D300D0E0124C4E120C06740D0246D6AA82ABDE
:1049E30083121AD085088285098322E0124959E887
:1049F300F0A3E922F0123899125145A3E02274F78B
:104A030012041974E1120937EAFEEBFF8E828F83D9
:104A1300124A83A3A3A3E0A2E050518E828F831294
:104A2300256A8A828B83A3A3A3A3A3A3E054FE12C4
:104A33004A9B8A828B83124A94E0F98A828B83E0B1
:104A4300241CFAA3E01234B5124A7F120DC2E97096
:104A53001B741D120B09124A8E7011851882851959
:104A630083AC82AD83EEFAEFFB120E0A024CC08ECA
:104A7300828F83A3A3A3A3A3A3A3A3A3122B07227E
:104A8300124A8722125149A3A3A3221238D16404E4
:104A930022E0241B123D8322123C31AC82AD8322DF
:104AA300E9F87900740468600A740A68600574039D
:104AB3006870010902085574F61204198A828B83FF
:104AC3007420F0A3A37401F0120BB88A088B09AE0B
:104AD30008AF09EE4F60108E828F837401F090034C
:104AE300A3E07003124853EEFAEFFB0246D9C082EB
:104AF300C0839003B97401F0E9A2E350037403F097
:104B0300E9A2E15004E0D2E2F0023C5274F612044E
:104B13001979007C008A088B097808120677F8FF58
:104B230007424B404B404B404B404B394B3D4B4274
:104B33004B364B0C80097C0480050C80F67C089076
:104B430003B9E05C6003098003EC6001090246D904
:104B530074F61204198A828B83E07012A31246D072
:104B6300600C8A828B83124A7E121BE480047A00D3
:104B73007B000246D974F512041974F31209378ABB
:104B8300088B09ECFEEDFF750A12EA4509700579F9
:104B930000024C47900356E065087004A3E06509E2
:104BA3007014120DC8EAFCEBFD12494B7005750A2F
:104BB300018003750A00851882851983E4F00412C5
:104BC3000B09E508F0A3E509124C4E120B7CE960D2
:104BD300277403120B09AA82AB83120B64E96401E5
:104BE3007016750A017403120B09AC82AD83124966
:104BF3004B6021750A00801C7412650A70169003BD
:104C0300A2E06402700EEEFCEFFDAA08AB09120BE2
:104C130094E970DFEEFCEFFDAA08AB09120E8EE9F2
:104C2300F8740A687005750A01801774A068701219
:104C3300EEFCEFFDAA08AB09120E9AAA08AB091203
:104C43000EACA90A740D02562A7402124C52221297
:104C53004C5622123C31AA82AB832274F7120419F8
:104C6300EAFEEBFF8E828F83A3A3A3A3A3A3A3A335
:104C7300E06015EE2415122A54122AF7120E34E9B5
:104C830064017004790180258E828F83A3A3A3A37B
:104C9300A3A3A3E06015EE2413122A54124CB2FA14
:104CA300A3E0FB120E34E9640160D979008013128A
:104CB30035A1A3A3A3A3A3A3A3A3A3E022741F12B9
:104CC30008BD7F0102063174F012041974FD120944
:104CD300378A088B09ECFEEDFF890B7413120B095D
:104CE300E0F50C750A017401120B09740412517971
:104CF3006048E50C601DEA2417F582EB1253981205
:104D030051678A828B83E0D2E7F0EA2414F582EBC1
:104D1300123B56124E4DEB12473A74031256BBEE3A
:104D230088828983A3A3F0EF88828983A3A31236A1
:104D33004B123652120BB2E9F50AA90A7403024E5A
:104D43003A74EC12041974F51209378A0A8B0B8929
:104D53000C8C0E8D0F741F120B09E0F50D742012CD
:104D63000B09E0F510A3E0F5117E01EE120B0974B7
:104D73000AF0E97007E50DC333240AF0124F1F70E0
:104D830003024E21124F347409F0A3E50CC43354CB
:104D9300E0450D124F46E50C702D7C008023ECC3DB
:104DA30033F8E433F9E51028F8E51139F9888289F5
:104DB30083124E2E88828983122D81F0A30EAF8336
:104DC3000CECC3950D40D7E5082417F582E50912CD
:104DD3004814120DC8E508241AF582E5091246A401
:104DE3007403120B09AC82AD83AA0AAB0B120B6AD4
:104DF300E96019E5082416F582E509124E28120B1D
:104E030009A882A983E50824181247148508828516
:104E130009831256B7AA08AB09120BB2E9FEEEF9E1
:104E2300740B024F17124818740322E08E828F838B
:104E3300F0A3AE82AF83221208BD7F0802063112AF
:104E430038F9F9EA2400E439FB22EA240BF582223B
:104E530074EE1204198A0C8B0D890E8C088D09745B
:104E630012120B09E0F50F7413120B09124F009085
:104E730005081246D06077E50FC333F8E433F9E849
:104E8300240EFAE93400FB121C148A108B11AE10A5
:104E9300AF11EE4F60588E828F8374D4F0A3A3E5D5
:104EA3000CF0A3E50D124F08E50EF0AC08AD09EECA
:104EB3002405FAEF125182EE240D122A54E50FF065
:104EC300850A08850B09750A00780812088CE50F16
:104ED300C333FCE433FDEE240EFAEF124EF712084F
:104EE300BDEEFAEFFB900508125141121C8B023FF5
:104EF30081FAE5093400FB12135C740322E0F50A1E
:104F0300A3E0F50B22124F0C22124F1022123B6A20
:104F1300A3A3A3221208BD7F0C0206318518828544
:104F23001983AA82AB83120E1C8A088B09EA4509EE
:104F330022EA240BF582EB124734FEA3E0FF8E82B4
:104F43008F8322F0A3AE82AF83AC0EAD0FEEFAEFE8
:104F5300FB124F5822121AD0124F5F22EE2408FE82
:104F6300EF3400FF22E0FA8E828F83A3A3E022FEB8
:104F7300A3E03400FF8E828F83E02212389C124F0D
:104F83008522E0FCA3E0FD22122B07120DB0227450
:104F9300F6120419EAFEEBFF9003BA8013888289A4
:104FA30083E06E7003A3E06F603A88828983A3A3D2
:104FB3001246D070E87A047B0012141C8A088B090D
:104FC300A808A909E849601C88828983124FEE90DA
:104FD30003BA124A7F88828983A3A31246A8900347
:104FE300BA12471B0246D98A828B83EEF0A3EFF0F5
:104FF3002274F41204197E009003BA80070E88828B
:105003008983A3A31246D070F4EEC333FAE433FBCF
:1050130012509C607E7F009003BA8024888289832B
:10502300124F81EFC333FAE433FBE5082AF582E537
:10503300093BF583ECF0A3EDF00F88828983A3A3EA
:105043001246D070D79003AB1224447003A3E069D7
:1050530078087019120890EEF50A780A1208947C01
:10506300777D0379009003AB1250A7801A12089042
:10507300EEF50A780A1208947C777D037900900391
:10508300AB124A7F120E4674031208BDAA08AB097D
:10509300121422120BCA022B1112141C8A088B0938
:1050A300EA450922122B07120E4C22C082C08380CC
:1050B300128A828B83A3A31238AA9003BA12471BC6
:1050C3001214229003BA1237BA70E6023C5274F6F5
:1050D3001204199003631238D69003CE1251301282
:1050E300471B7ACE7B037950121AE89003CE12261F
:1050F30063FAEFFB120EA69003CE1238D690050A80
:105103001246D060257A067B00121C14EA4B601A03
:105113008A828B8374D5F0A3A3E4125156041251EF
:105123006790050A125141121C8B0246D912513461
:1051330022E0F8A3E0F9900363228E828F83125159
:10514300452212514922E0F812514F22A3E0F58380
:1051530088822212515A2212515E22F08A828B8354
:10516300A3A3A32212515AA3EEF0A3EFF022F582D8
:10517300EF124734F92212484CEA4B22FAE509347C
:1051830000FB121AD022124753A3A3A3A3A3A3A3E2
:105193002290200AE4932401F8E43400F97A027B94
:1051A300002274F71204197E00800412576E0E1247
:1051B300529240F77E00EE1251D174FEF0A3041216
:1051C30051E6E4F00EEEC3940340EB024CC575F0D8
:1051D30003A4F8A9F074BC28F8740339F988828908
:1051E30083A3221251EA22F0888289832274F71260
:1051F30004197F0080010F902007E493F8EFC39810
:105203005026EF12537E6A7003A3E06B70E81257C7
:105213001B6C7003A3E06D600A74FF6C700374FF72
:105223006D70D312528980047A007B00024CC574DE
:10523300F61204197CFF7DFF7AFE7BFF120E70EAE3
:105243004B70407508008036E50875F017A4F8A97F
:10525300F074FF28F5827408125390600C74FE28D2
:10526300F5827408125390701374F028FE74083991
:10527300FF8E828F8312539DEEFAEFFB05081252C5
:10528300F840C50246D974F028FA740839FB229015
:105293002007E493F8EEC3982274F7120419EAFE88
:1052A300EBFFEE4F60101252BC74FEF0A3041256D3
:1052B300C114F0A304F0024CC57C177D00790012E1
:1052C30013688E828F832274F7120419EAFEEBFFB0
:1052D3007508008018E50875F017A4F8A9F01257AF
:1052E300267003A3E06F600312577605081252F885
:1052F30040E3024CC5902007E493F8E508C39822E5
:1053030074F6120419120E708A088B09A808A909E9
:10531300E849600AE8240DFAE93400FB80047A00C6
:105323007B000246D974F41204198A0A8B0BECFE33
:10533300EDFF750800750900802EE50975F017A4C7
:10534300F8A9F0125761601EE50912537E650A70D1
:1053530004A3E0650B700375080AEEFCEFFD12561B
:105363001D60034308A00509902007E493F8E509AD
:10537300C3985004E50860C202265B75F017A4F8D1
:10538300A9F01253892274F028F582740839F58341
:10539300E022F582EF12389FE422122B07120CA8A9
:1053A300221251EAA3A3A3A3A3A3A3A32274F212D9
:1053B30004198A088B09ECFEEDFF740E120B091217
:1053C3004F00750C007C007D01801012137AE50CF0
:1053D300F5F0EA84ACF0750C007D0078007900806C
:1053E3000312555A1255B6400302547CE8FAE9FBFE
:1053F300EA75F017A4FA85F00D75F017EBA4250DE7
:105403001255927003A3E0F460D7125570650870CB
:1054130004A3E0650960CA1255706E7003A3E06FC0
:1054230060BF125570650A7004A3E0650B60B2E8B3
:10543300FAE9FBEA75F017A4FA75F017EBA4250D4A
:10544300FB74FE2AF5827408125551509474016D51
:10545300050C608DE50CC39C4087E875F017A4F834
:10546300AAF075F017E9A42AF974F028F5827408F4
:1054730039F583124A7F02554E7800790080031272
:10548300555A1255C34003025535E8FAE9FBEA754C
:10549300F012A4FA85F00D1255A264FE7003A3E086
:1054A300F460DC12559865087004A3E0650960CFC9
:1054B3001255986E7003A3E06F60C4125598650A85
:1054C3007004A3E0650B60B7E8FAE9FBEA75F01234
:1054D300A4FA75F012EBA4250DFB747F2AF58274F0
:1054E300071255515099E8FAE9FBEA75F012A4FA4C
:1054F30075F012EBA4250D12556364016081E0641D
:1055030002700302548274016D050C70030254820D
:10551300E50CC39C5003025482E875F012A4F8AA68
:10552300F075F012E9A42AF9747628F5827407025B
:105533005473E50C6011EC700E7401650C6003028A
:1055430053CE7C010253D97AFE7BFF0224503BF5F4
:1055530083E014C3940622E8240108E93400F92205
:10556300FB747A2AF58274073BF583E022E8FAE9B3
:10557300FBEA75F017A4FA75F017EBA4250D125585
:105583008522FB74F02AF58274083BF583E022122E
:10559300558564FE22E8FAE9FBEA75F012A4FA7570
:1055A300F012EBA4250DFB74762AF58274073BF504
:1055B30083E022902007E493FAC3E89AE994002257
:1055C300902002E493FA740193FBC3E89AE99B22C7
:1055D30074F51204198A088B09ECFEEDFF750A00B5
:1055E3008002050A902007E493F8E50AC39850283F
:1055F300EEFCEFFDE50A75F017A4F8A9F012561DAD
:1056030060E0E50A75F017A4F8A9F074F028F582B4
:10561300740839F583123654801074F228FA74082A
:1056230039FB121ACAE9221208BD7F03020631743C
:10563300F01204198A088B098C0A8D0B890C120E3F
:10564300768A0E8B0FAE0EAF0FEE4F60551252BC23
:10565300E508F0A3E5091256C11256B9E50C600A34
:10566300EE240F122A54E50C8006EE240F1256B1D5
:10567300F09003D01246D0601A9003AAE064017040
:1056830008EE240E1253958010EE240E122A547441
:10569300078006EE240E1256B1122F9A1202C81278
:1056A30056A8024E3DEE240D12389CE8F022123823
:1056B3009C740122A3A3E50AF0A3E50BF0221234A4
:1056C300CBA32274F51204198A088B09ECFEEDFFB3
:1056D300750A00800F1257267003A3E06F60031250
:1056E3005776050A902007E493F8E50AC3985025F6
:1056F300E50A75F017A4F8A9F012571B65087004A2
:10570300A3E0650970CF74FA28F582740839F5832C
:10571300124FEE80CD02562D74FA28F582740812CA
:1057230053902274FA28F58274081253906E2274EF
:10573300F7120419EAFEEBFF7508008019E5081259
:10574300537E6E7003A3E06F700A1257617005E514
:105753000812576F05081252F840E2024CC574F262
:1057630028FA740839FB120B64E922EE75F017A4CA
:10577300F8A9F0125289120E7C221251EA123C4906
:10578300E84922C082C08374F812093785188285DC
:105793001983AC82AD837583807582CD740812073B
:1057A300D1851882851983AC82AD8312494F640178
:1057B30070047900800279017408023C28126B2876
:1057C300F9EA22E0F508E4F509F50AF50B22740974
:1057D3001208BD7F04020631EE2412FAEF3400FBF7
:1057E300121026E9227905121032740422E024F5FE
:1057F300C39412221218548A0C8B0D8C0E8D0F2217
:1058030012110A9007411272C47A147B0022FB1210
:10581300581CE8F0A3E9F0EE221258248A828B8305
:10582300228A828B83E024FFF8A3E034FFF922EE7F
:10583300240E12751A74012212587C1208BD7F08B7
:10584300020631125876A2E52212751DE4F0227F7A
:1058530005020631E508126E63E509125876227ACD
:10586300D57B031213AA74022212587022EE24105D
:10587300F582EF3400F583E0221210FE740422F562
:1058830082EF125876F822EE240DF582EF12587645
:10589300640122E0FEA3E0FFEE4F22F582EF1258EF
:1058A3007622FAEF3400FB79E112193E22F0EEFA88
:1058B300EFFB22EE240EF582EF12751D22F0A3F00A
:1058C30002600BF582EB125876FA221208BD0264CD
:1058D30066C082C08374FE12093780077AD57B03C2
:1058E3001259129003D51268CE70F19003D7126843
:1058F300CE60097AD77B0312591280EF9003D5E467
:10590300F0A3F09003DBF0A3F0A3F074028016126F
:1059130013A4851882851983EAF0A3EB127ABD12CA
:1059230010142274111208BD02600B74F6120419CC
:10593300E9FF8F0874BA1269ED741F1269F2FE8EC3
:1059430008FA7B00121C14EA4B6017EA2508F8EBEF
:105953003400F98A828B831273ADA3A3A3A3E4F06B
:1059630080227A027B00121C14EA4B60138F0874A6
:10597300C51269ED741F125CF5F0A3741A125D0A67
:105983007A007B00027468E9FDEAFC74062DFAECE8
:10599300A2E0501EEA75F00A84A8F0E86014740AC5
:1059A3002AC398FAE8C394054004740A2AFA740BCC
:1059B3002AFAEDC394134004781480027806E82A87
:1059C3002409F8E43400F97A0A7B001202C8E8F9E2
:1059D300020855C082C083900405E05402600A1295
:1059E3001B24E9600479018002790002600BC08204
:1059F300C083900405E0540260149003DBE0700A56
:105A03001268CB6009125A1650047901800279009A
:105A130002600B9003DEE02410125EE5A2E722C0D1
:105A230082C083908109E0F89003DDE0C3985005BC
:105A3300121C1480047A007B0002600BC082C083B6
:105A4300121014790002600BC082C08374FE120925
:105A530037851882851983125BB1600D1460652444
:105A6300FE7003025AEB025B75900721E0640F603E
:105A730018120FEAE97012851882851983126B23B5
:105A8300900B6A125F6C121C8B900749E0C0E08593
:105A9300188285198312660ED0E0125B97F8125BA9
:105AA300857414125B97FCA3E0FD7AD77B03121372
:105AB3009EE5A8F8C2AF9003DD125BA87920120F10
:105AC300D802590E120FE4E98518828519836011F3
:105AD300125F6C740D125B97FAA3E0FB121B1E801E
:105AE300E0125F6C741580BB125EEB7003025B7592
:105AF30085188285198312743EC0E0125B8AD0E058
:105B0300125B972402F8125DDC2401FAA3E034004F
:105B1300FB88828983125BB114C394095020125EFF
:105B2300EBFA851882851983A3127CE4A3A3A3E06F
:105B3300F874EE28F582741F1269F26A600F125B23
