:020000040000FA
:06000000020C940203BC97
:030013000203DF06
:03002B00020ACFF7
:03003B0002043488
:030053000202EDB9
:100083000203510101FF01010503010F10FEFF30BF
:1000930015301530153015E613E0133015D5220051
:1000A300000000FB23000000000C0000000C000116
:1000B3000000FE16000000000000B2170000000060
:1000C300000000000000020002000008000400021B
:1000D30000010200020500FF805101003C00000006
:1000E300100E000082003A003B0000000000E21402
:1000F300DE0FF21C82172022A821281A301B4C2065
:1001030009FFC0F9A4B0999282F880908883C6A1B0
:10011300868E010101002B05000000010000003A5A
:1001230020004E4D2D656E65726779206E6F7420C9
:1001330075700000F8FF0753746172744465766943
:10014300636520455252004D4F444520756E6B6EDA
:100153006F776E004D61746368204465736320524A
:100163006571005273702053656E74005273702072
:100173004E6F6E204D617463686564004E6F6E2030
:100183004D61746368656400A005E803640064005E
:10019300B801020200000002050207051E02051E47
:1001A300020A0A03B80B02803E01020600010100A5
:1001B30014FFFFFFFFFFFFFFFF494545453A2000BE
:1001C3005465786173496E737472756D656E74737B
:1001D30000000800000010000000200000004000A4
:1001E3000000800000000001000000020000000485
:1001F3000000000800000010000000200000004084
:100203000000008000000000010000000200000068
:100213000400580000640000000200000C00050800
:10022300050001000000FF02064173736F63204362
:100233006E66005375636365737300506172656E18
:10024300743A005A696742656520436F6F726400B0
:100253004E6574776F726B2049443A00526F757420
:1002630065723A004F727068616E20526573706FE9
:100273006E73650053656E74004661696C65640056
:100283004173736F6320527370206661696C004120
:1002930073736F6320436E66206661696C00456EFD
:1002A30065726779204C6576656C005363616E20D7
:1002B3004661696C65640073656737526F75746571
:1002C3007241707000726376640048656C6C6F20D5
:1002D300576F726C64000500010002000A000A04F3
:1002E3000F01000004940F04940FC0E074F212068F
:1002F3007CA2AFE433FED2AFE5A7FFE5A1F5085F2B
:1003030054106006121DDC75A1EFE5085F54086008
:1003130008121DE275A1F7802BEFA2E0C0D0E5081B
:10032300A2E092F0120BD1158182F05017906198E0
:10033300E0F890076DE0C398A2D265D0335002E88D
:10034300F075A1FEEEA2E092AF7F01020733C0E099
:1003530074F212067CA2AFE433FED2AF9061A4E044
:10036300F8759B00E59158540860087591F7121EC3
:1003730024802AE59158541060087591EF121E2AC3
:10038300801BE8A2E0C0D0E591A2E092F0120BD16D
:10039300158182F05007E0C2E0F0121F689061A35C
:1003A300E0F8E5E9585404600E121F3E75E9FB902E
:1003B3006193E0A2E640F2808BC0E074F212067C07
:1003C300A2AFE433FED2AF9061A5E0F8E5BF585485
:1003D30004600675BFFB121F80020347C0E0C0D054
:1003E300E8C0E0E9C0E0C082C083E5C1C0E0900698
:1003F300D9E0F8745828F58274063400F583D0E008
:10040300F09006D8E0F8A3E0687006E5959006DB67
:10041300F09006D9E004F0C394804002E4F0A374A2
:10042300C6F0D083D082D0E0F9D0E0F8D0D0D0E0CD
:1004330032C0E0C0D0E8C0E0C008C009C082C083B9
:1004430090075CE0F8A3E0687008539AFBA374017B
:100453008026C2E990075CE0F50874012508F07472
:10046300DC2508F58274063400F583E0F5C19007B6
:100473005CE0C394804002E4F0D083D082D009D002
:100483000880A6C3E498F8E499F91204C78026C348
:10049300E49AFAE49BFBE920E7E91204C7E498F83D
:1004A300E499F922C3E498F8E499F91204C7E498AB
:1004B300F8E499F9C3E49AFAE49BFB22EB20E7CF33
:1004C300E920E7E0B90010BB0008E88AF084F8AA45
:1004D300F022E4FBC8FA22EB70227B10C833C8C9B0
:1004E30033C9335007C39AC3DBF280069A50012AFB
:1004F300DBEAC833F4C8C933F4C9FA2275F008E457
:10050300C833C8C933C933C99AC99B5004C92AC956
:100513003BD5F0ECFBC833F4C8E4C9FA2208080859
:10052300EAC0E0EBC0E086F0E7A4FA180986F0E73A
:10053300A42AFA180986F0E7A42AFA180986F0E72C
:10054300A42AFA1986F0E7A4FBE5F02AFA1908862B
:10055300F0E7A42BFBE5F03AFA190886F0E7A42BA1
:10056300FBE5F03AFA18180986F0E7A4C5F02BFB6F
:10057300E43AFA1908E7C5F0C6A426F6E5F03BFB12
:10058300E43AFA1886F0E7A4F6E5F00826F6E43B29
:1005930008F6E43A08F6D0E0FBD0E0FA22E4CFC054
:1005A300E0E4CEC0E0E4CDC0E0E4CCC0E075F020F0
:1005B300C3E633F608E633F608E633F608E633F621
:1005C300181818EC33FCED33FDEE33FEEF33FFC3A5
:1005D300EC9709ED9709EE9709EF97191919400F51
:1005E300FFEC97FC09ED97FD09EE97FE191906D567
:1005F300F0BEECF709EDF709EEF709EFF719191952
:10060300D0E0FCD0E0FDD0E0FED0E0FF222518C50D
:1006130082C0E0E51934FFC583C0E0E518C39582C5
:1006230024F810AF088583198582188008858319FB
:10063300858218D2AFCEF0A3E520F0A37808E608B0
:10064300F0A3DEFAEFF0A3E58124FAF8E608F0A3BD
:10065300E608F0A3E608F0A30808E608F0A3E60816
:10066300F0A315811581D0E0FED0E0F81581158146
:100673001581E8C0E0EEC0E022C0D02518C582C0D5
:10068300E0E51934FFC583C0E0E518C3958224F380
:1006930010AF0885831985821880088583198582A0
:1006A30018D2AFC8F0A3E9F0A3EAF0A3EBF0A37963
:1006B30008E709F0A3D8FAECF0A3EDF0A3EEF0A35A
:1006C300EFF0A3D0E0F0A3D0E0F0A3D0E0F0A3E5F7
:1006D30020F0A3E5F0F0A322120CF6B90003020701
:1006E3001DE49003017841790B8002F0A3D8FCD973
:1006F300FA900D41AA82AB839000867868790380D3
:1007030015E493A3AC82AD838A828B83F0A3AA8280
:10071300AB838C828D83D8E9D9E77582FC7583CA54
:100723007403120A4775823E7583227400120A47C6
:10073300851983851882E0C0E0A3E0F9A3E0FAA35A
:10074300E0FBA37808E0F608A3DFFAE0FCA3E0FDF2
:10075300A3E0FEA3E0FFA3E0C0E0A3E0C0E0A3E0CA
:10076300F5D0A3E0F520A3E0A3F5F010AF0885834F
:10077300198582188008858319858218D2AFD082A3
:10078300D083D0E0F8D0E0320975F0108E1A8F1BB9
:1007930085821F85831E851882851983E0CEA3E099
:1007A300CF851F82851E83EBC9EAC8EDCBECCAC394
:1007B300E833C8E933C9EA33CAEB33CBC3EA9EF55E
:1007C3001DEB9FF51CB35004AB1CAA1DEC33CCED01
:1007D30033CDD5F0DAAE1AAF1B22D083D082ECC072
:1007E300E0EDC0E0E493A3FCE493A3FDED4C600DC6
:1007F3001208B5EC24FFFCED34FFFD80EFE493A376
:10080300FCE493A3FDED4C600D120952EC24FFFCB4
:10081300ED34FFFD80EFD0E0FDD0E0FCE493A3C016
:10082300E0E493C0E022851983851882E0A3FEE00B
:10083300A3F5207808E0A3F608DFFAE0A3FFE0A31E
:10084300C0E0E0A3C0E0E0A3C0E0E0A3C0E0E0A319
:10085300C0E010AF08858218858319800885821847
:10086300858319D2AFD083D082020A4DD083D08240
:10087300E9C0E0E493A3C386F0C5F095F0F908E47A
:1008830093A386F0C5F095F0700BE493A3C399404E
:1008930005E9048002A3E475F002A42582F582E54C
:1008A300F03583F583D0E0F9E493A3C0E0E493C08B
:1008B300E022C0E0C3E49396087401939618400FB6
:1008C300E49366700808740193661870007019A3A6
:1008D300A3C3E49396087401939618A3A3400DD081
:1008E300E0D0E0D0E0020819A3A3A3A3A3A3D0E020
:1008F300227404800474028000CCC0E0EDC0E0E503
:1009030018C39CCCAD1950011D10AF068C188D195E
:1009130080068C188D19D2AF1209C9D0E0FDD0E042
:10092300FC2274028000CCC0E0EDC0E0E518C39C5B
:10093300CCAD1950011D10AF068C188D1980068C93
:10094300188D19D2AF1209A7D0E0FDD0E0FC22C068
:10095300E0C0F088F0E493667008087401936618A9
:100963007000A8F0A3A3700BD0F0D0E0D0E0D0E0EB
:10097300020819A3A3D0F0D0E022D083D082CCC048
:10098300E0E493A360061209EA1470FAE493A36007
:1009930006120B191470FAD0E0FCE493A3C0E0E450
:1009A30093C0E022CAC0E0E493A3C582CCC582C54C
:1009B30083CDC583F0A3C582CCC582C583CDC58352
:1009C300DAE5D0E0CA22CAC0E0E0A3C582CCC58282
:1009D300C583CDC583F0A3C582CCC582C583CDC5F0
:1009E30083DAE6D0E0CA22C0E0E493A3D39C50109C
:1009F300E493A3C39C400AD0E0D0E0D0E002099A7C
:100A0300A3A3A3D0E022C008C3E096F50808A3E09F
:100A130096420808A3E096420808A3E096450870AA
:100A230001D3D00822700908080822601618181884
:100A3300C6C333C608C633C608C633C608C633C6DC
:100A4300D5E0EA22C09FF59FE473D09F22D083D0E4
:100A530082C09FE493C0E0740193C0E0740293F5F5
:100A63009F222518F58210AF08F51840021519804A
:100A730008F51840021519D2AF8519832274048032
:100A83000A74038006740280027401C0E0F4041245
:100A93000A65D0E0120CD122BB0102E722C082C05A
:100AA3008389828A83BB0003E08002E493D083D0EE
:100AB3008222C0D0251810AF08F5185002051980FE
:100AC30008F51850020519D2AFD0D022C0E0C0D02B
:100AD300E8C0E0E5A8D2AFC2C7A2E792AFD0E0F882
:100AE300D0D0D0E0326016080808C6C313C618C6B3
:100AF30013C618C613C618C613C6D5E0EA22C3E048
:100B0300C696F608A3E0C696F608A3E0C696F608CE
:100B1300A3E0C696F622C0E0E493A36C7009D0E08C
:100B2300D0E0D0E002099AA3A3D0E022251810AFA9
:100B330008F518400215198008F51840021519D256
:100B4300AF22E76670100809E766700A0809E766CE
:100B530070040809E76622C3E09608A3E09608A399
:100B6300E09608A3E096A2D265D03322E066701027
:100B730008A3E066700A08A3E066700408A3E066B1
:100B830022C3E096F008A3E096F008A3E096F008ED
:100B9300A3E096F022E026F008A3E036F008A3E0F5
:100BA30036F008A3E036F022E627F60809E637F622
:100BB3000809E637F60809E637F622E026F608A321
:100BC300E036F608A3E036F608A3E036F622C0E0E6
:100BD300E8C0E0E58124FCF8E6A2E7D0E0F8D0E045
:100BE30022700422600D18C6C333C608C633C6D5A7
:100BF300E0F41822E657F60809E657F60809E6571F
:100C0300F60809E657F622E056F608A3E056F6087A
:100C1300A3E056F608A3E056F622E056F008A3E058
:100C230056F008A3E056F008A3E056F022E647F694
:100C33000809E647F60809E647F60809E647F622F3
:100C4300E4C396F608E496F608E496F608E496F606
:100C530022C3E7960809E7960809E7960809E79685
:100C630022C6F4C608C6F4C608C6F4C608C6F4C647
:100C730022600D08C6A2E713C618C613C6D5E0F353
:100C830022C3E09608A3E09608A3E09608A3E096A3
:100C93002275D0007581407518017519030002068D
:100CA300DBE0F608A3E0F608A3E0F608A3E0F622EB
:100CB300600C08C6C313C618C613C6D5E0F422E6F3
:100CC300F008A3E6F008A3E6F008A3E6F022CAC002
:100CD300E0E6F0A308DAFAD0E0FA22E0FAA3E0FBB8
:100CE300A3E0FCA3E0FD22EAF0A3EBF0A3ECF0A366
:100CF300EDF022E5C754F84401F5C7790122251820
:100D0300F582E43519F58322C2AF75D69F02000040
:100D130022120A5007E402120A5025E402120A5072
:100D2300682600120A507A2600120A50CC260012B6
:100D33000A502D2700120A50B72700120A505B28C9
:100D430000120A50AF2800120A50C82800120A5095
:100D5300EE2800120A50292900120A506D290012A8
:100D63000A50942900120A50E52900120A50952AC4
:100D730000120A504D2B00120A50152C00120A5073
:100D8300D52C00120A50192D00120A503E2D0012C4
:100D93000A50812D00120A50CE2D00120A50442F02
:100DA30000120A50CA2F00120A50E82F00120A50EC
:100DB300123000120A502C3000120A503B3000123D
:100DC3000A50463000120A50063100120A505F31B1
:100DD30000120A50213200120A50293200120A501E
:100DE300BD3200120A50293300120A505434001243
:100DF3000A50653400120A50EA3400120A50793559
:100E030000120A50D13500120A50953600120A50CA
:100E1300BC3600120A50CE3600120A502137001297
:100E23000A505E3700120A506B3700120A50E93835
:100E330000120A503E3A00120A50703A00120A5049
:100E4300FC3A00120A50353B00120A50813B001253
:100E53000A50943C00120A50B83E00120A50C33E96
:100E630000120A50CE3E00120A50D83E00120A5019
:100E7300E33E00120A50FD3E00120A50073F0012E3
:100E83000A50113F00120A501C3F00120A50443FFF
:100E930000120A509F3F00120A50C33F00120A502B
:100EA300E73F00120A50454000120A5089400012E1
:100EB3000A50A54000120A501C4100120A50544126
:100EC30000120A50A04100120A50FD4100120A50BC
:100ED300B74200120A509B4400120A50F444001215
:100EE3000A50244600120A504A4600120A50C447C8
:100EF30000120A504F4B00120A50214D00120A50A3
:100F0300EA4E00120A50974F00120A500B5100127A
:100F13000A50AA5100120A50EF5100120A505952B6
:100F230000120A50685200120A50E85400120A5084
:100F3300915600120A50FE5600120A50DD57001255
:100F43000A50005900120A50685A00120A50875A70
:100F530000120A50DC5A00120A50E15B00120A50D8
:100F6300095C00120A50615C00120A50405D0012D5
:100F73000A50845D00120A50CF5D00120A503A5E97
:100F830000120A507F5F00120A50E35F00120A50FA
:100F9300316100120A50986300120A50C9630012AB
:100FA3000A50816500120A50D66500120A50DA66AB
:100FB30000120A50776700120A50D06700120A50D5
:100FC300836800120A50256900120A50C56900128D
:100FD3000A506A6A00120A50148001120A505380A0
:100FE30001120A509A8201120A50E48201120A5035
:100FF300FF8301120A506F8401120A50A484011264
:101003000A50188601120A509B8801120A50C4899B
:1010130001120A50778A01120A50D39201120A5020
:10102300689301120A504F9601120A504897011211
:101033000A50A99701120A50C59801120A50AA9A98
:1010430001120A50BB9C01120A50139D01120A504F
:10105300E59D01120A509C9E01120A50A69E0112A0
:101063000A50D49E01120A50919F01120A5068A09F
:1010730001120A502FA101120A50E1A101120A50D4
:101083000AA201120A502CA201120A5082A40112D0
:101093000A505AA501120A509EA501120A5006A62B
:1010A30001120A50BEA601120A50F0A601120A50FC
:1010B30034A701120A506AA701120A50B6A70112F7
:1010C3000A500BA801120A5010A801120A5063A873
:1010D30001120A5088A801120A5097A901120A5056
:1010E300FBA901120A506BAA01120A50F7AA0112B6
:1010F3000A50C4AD01120A50A8AE01120A502BB017
:1011030001120A5061B201120A500FB301120A50C0
:10111300BFB301120A5000B601120A50A3B601125E
:101123000A50EAB601120A5096B801120A50AAB838
:1011330001120A50B4B801120A50DCB801120A5065
:10114300E8B801120A5007B901120A50ECBA0112A9
:101153000A5023BB01120A502DBB01120A5063BB74
:1011630001120A50B2BC01120A50F6BC01120A5015
:101173009EBD01120A5081BE01120A502CBF0112FA
:101183000A5078C001120A5076C101120A501CC2DB
:1011930001120A50BDC201120A50D4C201120A50F0
:1011A3000BC301120A5015C301120A5020C30112C6
:1011B3000A503EC301120A5082C301120A50DFC310
:1011C30001120A5004C401120A501EC401120A502B
:1011D300AAC401120A50C7C501120A5023C601123C
:1011E3000A500AC701120A5031C701120A50A5C793
:1011F30001120A5020C801120A5024C901120A50D0
:101203001ACA01120A50C9CA01120A50DCCB0112D0
:101213000A5078CC01120A50FACC01120A50D8CDE8
:1012230001120A5010CE01120A5068CE01120A5060
:1012330031CF01120A5052CF01120A50D9CF0112F5
:101243000A50FDCF01120A501FD001120A5068D074
:1012530001120A507ED201120A5061D301120A50C0
:1012630012D401120A5048D601120A5098D601121C
:101273000A50D8D601120A501AD701120A5076D74B
:1012830001120A50A4D701120A50C8D701120A50FA
:101293001BD801120A5049D801120A5082D80112F0
:1012A3000A50D7D801120A503DD901120A50A7DAC1
:1012B30001120A50CADC01120A5037DD01120A502A
:1012C30060DD01120A50EBDD01120A5052DE0112F9
:1012D3000A509DDE01120A50C1DE01120A50E5DEFA
:1012E30001120A5040DF01120A505BDF01120A505B
:1012F30014E001120A50218D04120A50608D041269
:101303000A50788002120A50BE8002120A509E814F
:1013130002120A50A08202120A50A38302120A5038
:101323002F8502120A508D8502120A504A86021234
:101333000A50688702120A50D98702120A50158888
:1013430002120A50638802120A506D8802120A5070
:10135300B18802120A500D8902120A50A88902129A
:101363000A50258A02120A50F48A02120A508D8BFF
:1013730002120A50AD8B02120A50E38B02120A507A
:10138300148C02120A50D58C02120A50E58C0212F8
:101393000A50398D02120A50548D02120A50668D7A
:1013A30002120A506F8D02120A50C98D02120A509E
:1013B300258E02120A50718E02120A508C8E02126E
:1013C3000A50BD8E02120A50DA8E02120A50E68EBD
:1013D30002120A505A9002120A50739002120A50D3
:1013E300DA9002120A50ED9002120A50FB90021298
:1013F3000A50AF9102120A50939202120A50999323
:1014030002120A50239402120A502D9402120A5017
:101413009A9402120A50B19402120A50E3940212EF
:101423000A501C9502120A50469502120A50A795BB
:1014330002120A50C79502120A50E59502120A5089
:101443002B9602120A50519702120A509E970212CB
:101453000A50CD9702120A50439802120A506B9811
:1014630002120A50A49802120A50B29802120A50A9
:101473000A9902120A50599902120A5098990212B3
:101483000A50C89902120A50F49902120A50FF999D
:1014930002120A501D9A02120A50DF9A02120A50CF
:1014A300E99A02120A50249B02120A503A9B021232
:1014B3000A508F9B02120A50A39B02120A50A09C4F
:1014C30002120A50B39C02120A50C89C02120A501C
:1014D3006A9D02120A50ED9D02120A50AB9E02123F
:1014E3000A50B69E02120A50E29F02120A50FE9F51
:1014F30002120A5050A002120A508FA002120A5080
:10150300A4A002120A5006A102120A5095A10212C7
:101513000A50E0A102120A5031A402120A50AFA4E9
:1015230002120A5024A502120A5046A702120A50B8
:101533005EA702120A5061A702120A506DA7021297
:101543000A5081A702120A5089A702120A50BCA7A7
:1015530002120A506CA802120A50E2A802120A50A0
:1015630055A902120A5009AA02120A50BEAA02126F
:101573000A50DDAA02120A507DAB02120A5089AB4F
:1015830002120A50B4AB02120A50B7AB02120A504D
:1015930021AC02120A5049AD02120A5021AE0212C6
:1015A3000A50ACAE02120A50C5AF02120A5082B002
:1015B30002120A50BBB002120A50ECB002120A50D7
:1015C300AAB102120A50DAB102120A50B5B20212DB
:1015D3000A504EB302120A50D9B302120A508AB407
:1015E30002120A500DB502120A503FB502120A50F8
:1015F30080B502120A5019F401120A507EF4011246
:101603000A50B6F401120A5005F501120A5027F7E1
:1016130001120A500AF901120A5068FC01120A5019
:101623009DFC01120A50BFFC01120A5024FD011255
:101633000A505AFD01120A507DFD01120A50AAFDFB
:1016430001120A5006FE01120A50679D03120A5046
:10165300E89D03120A501E9E03120A50859E031230
:101663000A50F89F03120A5014A003120A5059A0FB
:1016730003120A50E7A003120A5040A103120A50B2
:1016830074A203120A5042A303120A50BAA303120C
:101693000A5036A403120A5078A403120A50B9A4BC
:1016A30003120A50EDA503120A50EBA603120A50C7
:1016B30016A703120A5061A703120A50A8A7031220
:1016C3000A503AA803120A50F3A803120A508DFED7
:1016D30003120A509EFE03120A50EFFE03120A5031
:1016E30034FF03120A50DEFF03120A50047F001274
:1016F3000A5052FE01120A50A7D702120A5079A9C2
:1017030003120A5020AA03120A5040AA03120A50D5
:1017130067AA03120A507BAA03120A50D3AA031220
:101723000A5003AB03120A5084AC03120A502AADC9
:1017330003120A500CAE03120A505DAE03120A5094
:10174300A0AE03120A50E3AE03120A5049AF0312CC
:101753000A506AAF03120A50D3E202120A501EB0B3
:1017630003120A5092B003120A5040B203120A50F5
:101773001AB303120A5074B303120A50E881041215
:101783000A50098204120A503A8304120A506483ED
:1017930004120A50D5ED03120A5050EE03120A50F8
:1017A3005BEE03120A507CEE03120A502A910312D5
:1017B3000A502D9103120A50E79103120A50129214
:1017C30003120A50599203120A507E9203120A50CE
:1017D3009F9203120A50D39203120A500C930312DE
:1017E3000A50359403120A506C9403120A508C94D5
:1017F30003120A50279503120A50EC9503120A505C
:10180300239603120A50989703120A503B98031227
:101813000A50349903120A505D9903120A50B19980
:1018230003120A50779A03120A50A59A03120A5018
:101833003A9C03120A50BB9C03120A50EE9C0312FB
:101843000A50C9BC03120A50D3BC03120A501FBD6D
:1018530003120A508DBD03120A50AEBD03120A5083
:10186300C5BD03120A5075BE03120A507EBE031291
:101873000A50D1BE03120A50FABE03120A5061BFC6
:1018830003120A50F2BF03120A5034C003120A5063
:101893007EC003120A50DDC003120A5009C10312AD
:1018A3000A509AC103120A50D9C103120A5018C22E
:1018B30003120A504DC203120A505FC203120A50A8
:1018C30071C203120A5090C203120A5099C2031242
:1018D3000A504FC303120A508FC303120A5050D742
:1018E30003120A5023D803120A503DD803120A5098
:1018F3004ED803120A5063DA03120A5082DA031233
:101903000A5065FA03120A509BFA03120A50E4FACA
:1019130003120A5034FC03120A50B66A00120A502A
:10192300F56B00120A50316C00120A50F06D001270
:101933000A50196E00120A50AC7000120A50F0706F
:1019430000120A50797200120A50117300120A50E1
:10195300797300120A501A7400120A505C74001250
:101963000A509C7400120A50277600120A50977787
:1019730000120A50BC7900120A50EA7900120A5088
:10198300117A00120A501A7A00120A50757A00125C
:101993000A50087B00120A50267E00120A50A77EC6
:1019A30000120A50178E04120A502D8E04120A5088
:1019B30020E703120A5033E703120A50D0E7031259
:1019C3000A500BE803120A5026E803120A504BE8A8
:1019D30003120A5090E803120A50C1E803120A5096
:1019E300F2E803120A5078EA03120A50838C0412B5
:1019F3000A50F58904120A502B8A04120A50478AA6
:101A030004120A50898A04120A50998A04120A504D
:101A1300A38A04120A50468B04120A50588B0412EC
:101A23000A50008003120A50558003120A503E8167
:101A330003120A50D78103120A50218203120A505B
:101A4300838203120A50DC8203120A50BE840312FB
:101A53000A503B8503120A50658503120A505E87BC
:101A630003120A50798703120A50C88703120A50D7
:101A7300DE8703120A50EB8703120A501B880312F6
:101A83000A50348803120A50438803120A50A1886B
:101A930003120A50FB8803120A504D8903120A509D
:101AA300608A03120A50CD8C03120A50028D03126E
:101AB3000A50908D03120A50F18D03120A50F68DCD
:101AC30003120A50328E03120A50A38E03120A50D5
:101AD3004B8F03120A50708F03120A507A8F03122E
:101AE3000A507D8F03120A50EC8F03120A5007909D
:101AF30003120A501A9003120A50469003120A5016
:101B0300819003120A50849003120A50C09003126A
:101B13000A50D39003120A50FA9003120A50D38C3E
:101B230004120A50EB8C04120A50B2F702120A5044
:101B330001F802120A50A3F902120A5061FB0212C1
:101B43000A50A9FB02120A50CBFC02120A50FCFDF8
:101B530002120A501EFE02120A507AFE02120A50A4
:101B6300FCFE02120A504EE001120A5079E0011203
:101B73000A5066E101120A50EBE101120A5054E2E5
:101B830001120A50A0E201120A501FE301120A5087
:101B9300B1E301120A5041E401120A5083E4011235
:101BA3000A50EFE801120A506FEA01120A50AEEA36
:101BB30001120A508FEB01120A5092EB01120A50E4
:101BC30046EC01120A507BED01120A50DCEF0112C0
:101BD3000A5068F001120A5075F101120A500EF210
:101BE30001120A50FFF201120A5081F301120A5046
:101BF3004CE402120A5006E502120A5078E502127A
:101C03000A5087E502120A5001E602120A5070E6F2
:101C130002120A5077E702120A50A0E702120A5092
:101C230040E802120A508EE802120A50FEE802123D
:101C33000A50B7EB02120A508EEC02120A50FBEC68
:101C430002120A5078EE02120A502CEF02120A50C6
:101C5300DAEF02120A5035F002120A50A0F0021213
:101C63000A50A0F102120A507AF302120A508DF4BC
:101C730002120A5026F502120A5098F502120A506F
:101C83005EF602120A50638E04120A50658E041225
:101C93000A500FF803120A5040F803120A50FAF8D8
:101CA30003120A5060F903120A50D1F903120A50C1
:101CB300E7C803120A508ACB03120A505CCD031201
:101CC3000A5030FF02120A5041FF02120A50E1FF8C
:101CD30002120A50A28304120A50B08304120A505B
:101CE3006A8E04120A50BC8B04120A50CC8B041265
:101CF3000A50E18B04120A50298C04120A50F3880B
:101D030004120A50788904120A50DC8904120A501A
:101D1300F77F00120A507B8E04120A507E8E041243
:101D23000A50818E04120A50848E04120A50878E40
:101D330004120A5085EA03120A5093EA03120A5066
:101D43000DEB03120A50E5EB03120A5070ED031278
:101D53000A5097FC03120A50F0FC03120A509BFD31
:101D630003120A50B3FD03120A502FFE03120A5046
:101D730045FE03120A5053FE03120A50FDCD03120F
:101D83000A5052CE03120A504ED003120A5080D08A
:101D930003120A50A2D003120A50BBD003120A50F6
:101DA300D4D003120A50DED103120A5079D203129F
:101DB3000A505A8504120A507F8504120A508F85EF
:101DC30004120A50C28504120A50F38504120A5001
:101DD300288604120A508A8604120A50998604122D
:101DE3000A50A38604120A50BEF003120A50E4F00C
:101DF30003120A5021F103120A5030F103120A5060
:101E03004FF103120A50B7F103120A50C0F1031243
:101E13000A501FF203120A5043F203120A5002F34C
:101E230003120A500FF303120A5020F303120A504D
:101E3300AE8D04120A50CB8D04120A5021DC03121A
:101E43000A507FDD03120A508CDD03120A509FDD16
:101E530003120A50BEDD03120A50D4DD03120A50E6
:101E6300E8DD03120A506BDE03120A50CEDE0312C2
:101E73000A5055DF03120A50B3DF03120A50C3DFBF
:101E830003120A50AD8A04120A50D18A04120A506E
:101E9300F98A04120A50218B04120A504EF30312DA
:101EA3000A5075F303120A5096F303120A50FBF318
:101EB30003120A50B4F503120A50CDF503120A5067
:101EC300D9F503120A50EDF503120A500BF603126B
:101ED3000A5015F603120A501FF603120A5032F67F
:101EE30003120A5083F603120A50BCF603120A5077
:101EF300EBF603120A5039F703120A5088F703125C
:101F03000A50A3F703120A50ADF703120A50BEF7A3
:101F130003120A5004F803120A50328C04120A50B6
:101F230088B303120A50B4B303120A50D0B3031296
:101F33000A50E3B303120A50F9B303120A5065B40B
:101F430003120A5098B403120A50C7B803120A5076
:101F5300EDB903120A5020BA03120A506CBA0312E5
:101F63000A50A5BB03120A50CDBB03120A50E2BBB1
:101F730003120A50F2BB03120A5036BC03120A5072
:101F83008BBC03120A509BBC03120A50AD86041289
:101F93000A50C88604120A50F18604120A500B87AD
:101FA30004120A50308704120A504F8704120A5051
:101FB300678704120A50958704120A50AF870412E8
:101FC3000A506A8D04120A50A0E303120A50A7E3D1
:101FD30003120A50B3E403120A50E3E403120A5053
:101FE30009E503120A502CE503120A504EE50312C9
:101FF3000A5088E503120A50EEE503120A5027E659
:1020030003120A5073E603120A50A0E603120A50A1
:10201300C0E603120A50008004120A50188004120A
:102023000A50068104120A50E58104120A50E0871F
:1020330004120A50528804120A50908804120A505B
:10204300D18804120A50B8C303120A502BC40312D6
:102053000A50E4C403120A5079C503120A5068C631
:1020630003120A5017C703120A5096C703120A50E5
:10207300D2DF03120A50F1DF03120A5040E00312C9
:102083000A505CE003120A508DE003120A509DE0EF
:1020930003120A50AAE003120A50B7E003120A50CF
:1020A300A3E103120A50E1E103120A50EBE1031228
:1020B3000A50FBE203120A5006E303120A5018E324
:1020C30003120A5021E303120A502BE303120A50AE
:1020D300B8D203120A50D8D603120A50E6D6031216
:1020E3000A50EA8D04120A50378E04120A5070D631
:1020F30002120A50C4D502120A500AD402120A501C
:10210300BAD102120A5041D102120A50E8D0021287
:102113000A5078D002120A504FD002120A502FCE22
:1021230002120A50FBCD02120A50C8CD02120A5005
:10213300ACCD02120A50BBCC02120A5073CC02126D
:102143000A50BECA02120A503ECA02120A503BCAC1
:1021530002120A503BC902120A5009C902120A505C
:1021630046C802120A5071C602120A5027C602124A
:102173000A5030E202120A50E3E002120A508EDEE5
:1021830002120A502EDE02120A50E6DD02120A5033
:10219300F9C502120A50F6C502120A50E3C502122B
:1021A3000A508EC502120A5058DD02120A507DC52C
:1021B30002120A5073C402120A5009C402120A50CE
:1021C300B7C302120A504BDD02120A50F6AF0312D4
:1021D3000A5058C302120A5027C302120A50EFBF13
:1021E30002120A50AFBF02120A50A3BF02120A50D2
:1021F30003BF02120A5043BE02120A50C5BB0212A9
:102203000A5056B902120A5014B902120A50E8B71A
:1022130002120A509DB702120A50DCB602120A508B
:102223001FB602120A50EFB502120A5045DA021223
:102233000A50B5B502120A50AAFF0100000080FB44
:10224300E4730001363601010001020100010301BC
:10225300000104010606050200000701003408011D
:10226300000F090401010D0100FF0E080000170211
:102273000000190100FF1A0100011B0100FE1C01EF
:1022830000081D0200001F010001200100012102BE
:1022930000002301000F2402000026010001270192
:1022A3000008280200FF2A0100072B0102402C012D
:1022B30000002D0100012E0100012F0100FF30015C
:1022C3000B1C310800003A0100083B01000F2F01ED
:1022D3000000030071003001600011007000310242
:1022E300200350048000100061000000140063000C
:1022F3007300720062004300000013000600000038
:1023030000000400120000000000000000000400B0
:102313000400370037003C024400000000000000C6
:10232300000065000000350081000000050000008A
:10233300830000000101710101010101110101018B
:102343003101010101018001100161013B00140011
:10235300630173017201620143010001130106016C
:102363003D013500040112010001000100010001DB
:1023730004010401330133013C01440132013600FD
:102383000001000165010001350081010001050123
:102393008201830100010304710402046004110437
:1023A3007004020402040104020410046104000422
:1023B30014046304730472046204430400041304E6
:1023C30006040004000404041204000400040004CE
:1023D30000045104640000040004000444040004E5
:1023E300000400040004650400043504810464004F
:1023F30005040004830400040103710301030103C2
:102403000103010301032203020301031003000379
:10241300000300030003000300030003420300035F
:102423002403060300030003040312032503230309
:1024330025032303040304030003000300034403ED
:102443000003000323030003650321003503810315
:1024530000030503000300030003030271023001BC
:1024630060021102700201020202020280021002E3
:1024730061023A0041006302730272026202430284
:1024830000021302380000020002040212020002DA
:1024930000020002000204020402370037003C027B
:1024A3004402000239000002000265020002350204
:1024B300810200020502820283020002360001004B
:1024C300060000000F0000000000000000000000F4
:1024D300000003FFFF00000403FFFF0000FFFF0FE6
:1024E300F4010005C4040320000100030B000000F5
:1024F300000000000003010F00002C1C1300C61B8A
:1025030001002C1C02007E1B0300841B04008A1B99
:102513000500901B06009C1B1100BA1B1400C01B76
:102523001500AE1BFFFF0000012010064A100844EF
:10253300100B6210109C0F022610053810072C1088
:102543000C02100D1410FF000003EAF5E5D5D5C504
:10255300B5A5959585857575656555554545353598
:1025630025251515054014701446144C146A145E81
:1025730014581476147C1482148E1452143A14349E
:102583001484000400520E83000200690E01040249
:10259300006C0E00000000000000160F00000B1579
:1025A3000B020002220F32000006301542154815B7
:1025B3000A144E150414101444133E137A13801393
:1025C30074132C139015AE15B4159615A2159C15FE
:1025D3000C0E020B040B0A0708000F3030161819F3
:1025E30020231A1C1E300001191618161615230372
:1025F3000000034948424D181725050230301718CB
:102603001921301B1D1F3000383C3E363B3B352B18
:10261300432C841554155A156615601564148814D3
:10262300A81594149A14020402010101010902502D
:102633001356134A1386135C136E1300BE040A0E5B
:1026430000150004007F00E8030C002800000000D0
:10265300000308100C0A03080900040001FF1E1EF2
:102663000C05040F08C082C0838A828B83E0D2E703
:10267300F0121ADC02371AC082C0837900122B349D
:102683001258DEC082C083900334124B29D083D00A
:1026930082C3E09CA3E09D500C12610FFAA3E012E9
:1026A30026AB60010902371AFBEA75F00BA4FAA8FE
:1026B300F075F00BEBA428FB900336E02AF8A3E0B7
:1026C3003B8882F583E0540F2274F71206108908C1
:1026D300122B34122BDAACF075F00BE9A42CF99021
:1026E3000336E028FEA3E039FF7401650860067431
:1026F30002650870208A828B83122BC6123AF67405
:10270300026508701B122A85122C0D70138E828F9E
:1027130083E4F0800BEA2403FCEB122BA8122BB406
:10272300EEFAEFFB120D20023A5274F41206101265
:102733006A3D79008E828F83E06076890A890B80F7
:1027430065E50A75F00BA4FAA8F075F00BE50B121A
:1027530026B87046E50A75F00BA4F8AAF075F00BDD
:10276300E50B122BEC8E828F83E08508828509832B
:10277300122CCE850882850983A3123AF6EE240330
:10278300FCEF122BB11234DB1254C9AA08AB0912A5
:102793000D207901900334124ED8E50A2401F50A7D
:1027A300E50B3400F50B122A8DE50A9AE50B9B40E5
:1027B3009002510674F5120610EAFEEBFF740B1239
:1027C3000D011238E1750A01EC4D602BEC126A59C8
:1027D300ED1258DE123AED7901120D2CE508450988
:1027E300606F850882850983A3126A477902AA0864
:1027F300AB09120D2C805AE5084509602B125A4685
:102803001241171234DC122BF7700CEEFAEFFB12A5
:102813000D32E9F50A80CBEE2403FA122B2F703127
:102823007903EEFAEFFB80CA8E828F83A3E064FE06
:102833007003A3E0F4700BEE24030A0A0A122B2F91
:10284300700CEEFAEFFB120D32E9F50A8003750AFC
:1028530000A90A7F0302082974F7120610900334B3
:10286300123A62EA4B602FEA75F00BA4FAA8F075EE
:10287300F00BEBA428FBEAFEEBFF12190E900336D4
:10288300123A62900336124D1D6012EEFCEFFD7991
:10289300001218548007900336E4F0A3F0023A5272
:1028A300900334124487C3EE98EF9922C082C08309
:1028B300EC4D600512204080097C087D00790012F0
:1028C300185402371A74F61206107900EA4B60188E
:1028D30078008808125D7EEB12610B600479017841
:1028E3000808E8C3940840EA0232B074F7120610ED
:1028F30074F3120B2FECFEEDFF851882851983E428
:10290300F004120D01EAF0A3EB1252527403120DFC
:1029130001AC82AD83EEFAEFFB120D44EEFAEFFB4E
:10292300120D4A023A4D74F712061074F3120B2F6C
:10293300ECFEEDFF851882851983E4F0EAFCEBFDDC
:102943007403120D01122CC77401120D01123AE91E
:102953008E828F83123AF674FE68700374FF696087
:1029630004790180027900023A4D74F7120610EAE5
:10297300FEEBFF1229CB70141229D68E828F83E0CF
:10298300F4F88A828B83E058F0120D20A908023AEA
:102993005274F7120610EAFEEBFF7508008E828F61
:1029A30083E060221229CB701D1229D68A828B8381
:1029B300E08F838E82F8E058700CE0F88A828B8374
:1029C300E048F0120D2080C4120D26E9F5087401C9
:1029D300650822126A52122BDE122B20FAA3E03969
:1029E300FB2274F41206108A088B097C007D001206
:1029F3002A85122BB4122B45126A4479008508826A
:102A0300850983A3E064FE7003A3E0F460717E0094
:102A13007F008062EEFAEF1226AB6057EEFAEFFB0F
:102A2300EA75F00BA4FAA8F075F00BEBA428FB9061
:102A33000336E02AF50AA3E03BF50B8508828509F6
:102A430083A31251A0850A82850B83A3E06A7003D6
:102A5300A3E06B701EE50A2403FAE50B122B30701A
:102A63000AE50A2403FCE50B122BB1122B39790179
:102A7300125A4D123412122A8DEE9AEF9B40950290
:102A83005106EA24030A0A0AEB2290033412562F52
:102A9300C32274F31206108A088B098A828B83A3DC
:102AA300126A47122B34126A44750C00122A8512DB
:102AB3002B3070547E007F008049122B12FAA3E062
:102AC300398A82F583E0540F6036122B12F50AA37C
:102AD300E039F50BE50A2403FCE50B122BBB3400AC
:102AE300FB12203AE964017017850A82850B83A3E0
:102AF3001256F0A3123AF6122B39750C01125A4DE5
:102B03001234121228A340B2A90C7F05020829EE41
:102B1300F8EFF9E875F00BA4F8122B2022AAF07550
:102B2300F00BE9A42AF9900336E02822EF122C07D0
:102B330022126A58EB22122B451234E5EEF0A3EF72
:102B4300F022E508126A59E5092274F5120610EA23
:102B5300FEEBFF8E828F83A3126A477C007D00EE1B
:102B630024030A0A0AEF122BB4EEFAEFFB120D2626
:102B7300E9F50A7401650A7029126A52122BDAAA5E
:102B8300F075F00BE9122BEC850882F583122BC646
:102B9300122BF7700DE5082403FCE509122BA8128C
:102BA3002BB40228543400FDEE2403FAEF22122B37
:102BB300BB3400FB120D44223400FDE5082403FA64
:102BC300E50922A3122BCB22122BCF22E0F8A3E09C
:102BD300F98E828F83A322122BDE223400F5831217
:102BE300448BE875F00BA4F822122B26F508A3E01A
:102BF30039F50922E8F0A3E9F0E5082403FAE50929
:102C0300122C0722122C0D6401223400FB120D4AF0
:102C1300E92274F312061074E6120B2F126A3D7543
:102C23000C01750800750900750A00750B008518FD
:102C330082851983E4F0EE2403FCEF3400FD740372
:102C4300120D01122CC7E964017023740B120D01DC
:102C5300123AED7401120D011251A47003A3E0693D
:102C63006051851882851983858208858309740DCF
:102C7300120D01E4122CCE740E120D01123AF674E9
:102C83000D120D01AA82AB83120D68E96401700B6A
:102C9300740D120D0185820A85830B780A120A8846
:102CA300AC08AD09EEFAEFFB120D387402120AB547
:102CB300E9F50CEEFAEFFB120D62A90C741A120A75
:102CC300B5022B0D122FB8120D6E22123A5D12446B
:102CD3008722C082C083780079008003122DC51239
:102CE3002A8DE89AE99B5029E8FAE9FBEA75F00B8B
:102CF300A4FAACF075F00BEBA42CFB900336E02A9E
:102D0300FCA3E03B8C82F583E0540F70CF79008005
:102D130002790102371AC082C0839026441244DD2F
:102D2300EC75F012A4FCA8F075F012EDA428FD795F
:102D3300FF7AD37B0712185402371A74F71206105E
:102D4300E9FEEAFF7A007B00780079008028E8FC3E
:102D5300E9FDEC75F012A4FC85F00875F012EDA402
:102D630025081231F8C39E400AE0FCEFC39C4003E0
:102D73001232E7122DC51231EC40D3023A52C0820F
:102D8300C083780079008003122DC5122DB9501F1E
:102D93001231FCF470F2E875F012A4F8AAF075F0A1
:102DA30012E9A42AF974D328FA740739FB80047A48
:102DB300007B0002371A9026441232B5C3E89AE921
:102DC3009B22E8240108E93400F92274F01206106A
:102DD30074F3120B2F8A0A8B0B8C0C8D0D8908EC64
:102DE300450D6016AA0CAB0D120DBC8A0E8B0FAEEF
:102DF3000EAF0FEE4F6003022E8C120D928A0E8BD4
:102E03000FA80EA90FE8FEE9FFE849607C9026525F
:102E1300122F0C6022740365086006740465087041
:102E2300167A047903120D8C902652122F23400731
:102E33007A007B00022F09902650122F0C601B741E
:102E4300016508600674026508700F7A0279011241
:102E53000D8C902650122F2350D685188285198306
:102E63007401F0120D011254C9AC0CAD0D740312B0
:102E73000D01122FB1740B120D011238D8123EA995
:102E8300E41254B11212848004EE4F606878007427
:102E9300FF2508C39404500278048E828F83125452
:102EA300C98E828F83A3A3A3A3E508F0E88E828F44
:102EB30083A3A3A3A3A31254D11204BFE88E828FCA
:102EC30083A3A3A3A3A3A3A3A3123C8D7401123CC6
:102ED3008DA3F0EE24101258DBE4F0A3123691A375
:102EE300F01234DBE4F0900DA8120CDEEE240C1289
:102EF30058DB120CEA122F114005900D45E4F01235
:102F0300115EEEFAEFFB0244911255E549227A0471
:102F13007900120D8C9026441260F1EA98EB992205
:102F2300122F3C758326758244E493C398F8A3E477
:102F33009399F9C3EA98EB9922E493F8740193F90E
:102F43002274F212061074F3120B2F8A088B09EC09
:102F5300FEEDFF750A00EEFAEFFB120DBC8A0C8B37
:102F63000DA80CA90DE849603E88828983E06508B5
:102F73007004A3E06509602F88828983A3A3A3A3B8
:102F8300E0C3940550211258F4851882851983747F
:102F930001F0120D011258F8EEFCEFFD7403120D4F
:102FA30001122FB1750A01A90A740D024F8F122F56
:102FB300B8120D7A22AA82AB83120D44851882853A
:102FC3001983AA82AB832274F612061012300660AC
:102FD3000FA3A3A3A3E014C39404500479018002B4
:102FE30079000232B074F6120610123006600FA395
:102FF300A3A3A3E014C394025004790180027900CF
:103003000232B0120DB68A828B83E5824583227425
:10301300F6120610123006600BA3A3A3A3E07004FC
:103023007901800279000232B0C082C083EAFCEBEE
:10303300FD7A007B00023717C082C0837C007D00CD
:1030430002371774F412061074F3120B2FEAFEEB17
:10305300FF8C0A8D0BC3EC94F8ED94FF4007EE4F01
:1030630070030230FF750800750900802E851882F1
:103073008519837401F012343A120D011234486039
:10308300137403120D01AC82AD83EEFAEFFB122031
:103093003AE97049E5082401123298902644E41273
:1030A3006379E50898E509995052E50875F012A48B
:1030B300F8AAF075F012E509A42AF912612460D484
:1030C300EE4F70A974FF650A700474FF650B60C44A
:1030D30012342A650A7004A3E0650B70B7E508751E
:1030E300F012A4F508A8F075F012E509A428F50973
:1030F30074D32508FA74073509FB80047A007B0032
:1031030002510174F412061074F3120B2F750800A8
:10311300120DBC8A0A8B0BAE0AAF0BEE4F602A85E9
:1031230018828519837401123A57F8A3E0F9740BD6
:10313300120D01123B71120D5C7C127D0079FFEEC2
:10314300FAEFFB121854750801122F115009900D54
:10315300457401F012115EA90802510174F71206B9
:1031630010E9FE74FE6A700374FF6B7800790070D7
:10317300058052122DC51231EC504AE8FCE9FDECF2
:1031830075F012A4FCAFF075F012EDA42F1231F814
:10319300F460E0E8FCE9FDEC75F012A4FC75F012B4
:1031A300EDA42FFD74D32CF58274073DF583E06AFB
:1031B3007003A3E06B70BC80091231FC14C3940448
:1031C3004017122DC5122DB95018EE70EC1231FCB8
:1031D30064016005E0640370E912341BFAA3E0FBA9
:1031E30080047AFE7BFF023A529026441244E1C3E4
:1031F300E89CE99D2212331C22E8FAE9FBEA75F008
:1032030012A4FAACF075F012EBA42CFB74D72AF5D8
:103213008274073BF583E022120DCE02371AC08277
:10322300C083790180F274F01206108A0A8B0B7A3C
:10323300047901120D8C8A0C8B0DEA450D603EEA70
:10324300C333FAEB33FB12190E8A088B09AE08AFAE
:1032530009EE4F60237AFE7BFF120DD474FE6A7071
:103263000374FF6B601B850882850983123A62E54C
:1032730008240212329880E1750C0080047E007FDE
:1032830000850A82850B83E50CF0EEFAEFFB02441E
:1032930096E5082407F508E5093400F50922902688
:1032A300441244E1C3EA9CEB9D22120AB57F020259
:1032B3000829E493FA740193FB22C082C0837A0045
:1032C3007B008004191232E71232A1501012330628
:1032D300C3940550F0E970EC1232F080047A007B5D
:1032E3000002371AEA24010AEB3400FB22EA75F0E4
:1032F30012A4FA75F012EBA428FB74D32AFA74070C
:103303003BFB22EAFCEBFDEC75F012A4FCA8F07584
:10331300F012EDA42812331C22FD74D72CF582740D
:10332300073DF583E02274F712061074F3120B2F96
:103333007E007F000233CEE50875F017A4F8A9F0EC
:1033430012638CFAA3E0FBEEF8EFF9E875F012A430
:10335300F8ACF075F012E9A42C1234296A7003A3B7
:10336300E06B603FE50875F017A4F8AAF0EA126372
:103373008BF8A3E0F97401120D01E0687003A3E078
:10338300696020E50875F017A4F8EAF9744F28FC82
:10339300740939FD7403120D01AA82AB8312203A1A
:1033A300E96014E50875F017A4F8A9F0744D28FA3C
:1033B300740939FB1212900508902656E493F8E538
:1033C30008C398500302333A12341290264412660B
:1033D300D25039EEF8EFF912341BF47003A3E0F482
:1033E30060E68518828519837401F0EEF8EFF9E839
:1033F30075F012A4F875F012E9A42AF912343A12FE
:103403000D0112344860C175080080AD023A4DEEDB
:1034130024010EEF3400FF22E875F012A4F8AAF09D
:1034230075F012E9A42AF912342E2274D328F582F6
:10343300740739F583E02274D528F58274073912AD
:103443004485740B22E8F0A3E9123B79120D74E969
:1034530022C082C0839003417432F0A37410F0023F
:10346300371A74F7120610EAFEEBFF900377E06455
:1034730008601BE0640460168E828F83E05403644B
:103483000170481234DB123F96E06406703D8E8271
:103493008F83A3A3E064FE7003A3E0F4602D8E8208
:1034A3008F83A3A3123AE9900368E0687003A3E053
:1034B30069700BEE2415F582EF12610B6008121090
:1034C300ECE9F50880081210F280F67508C2EEFAEE
:1034D300EFFB12191402298FEE1234E022240BF5AC
:1034E30082EF3400F5832274F41206108A088B09E4
:1034F3008A828B83E0F8A3E0FAE82AFAE43400FB3B
:1035030012190E8A0A8B0BAE0AAF0BEE4F60608561
:103513000882850983E0FC7D0079001218548E82AD
:103523008F83A3A3126A4712112E8E828F83A3A3C4
:10353300A3A3123A62850882850983E0F8EE28F88E
:10354300EF3400123AF1850882850983A3E0C0E0D5
:103553001258D8D0E0F0121140EE240E1258DBE9D5
:103563001250F7E0C0E0EE24111258DBD0E0F0EE89
:10357300FAEFFB02510674F412061074EB120B2FD0
:103583008A088B098C0A8D0BE9FE900377E06404AB
:103593006005E06408700479C2802EA37808120CD9
:1035A300C2EE90037E123758120CC27405120D013D
:1035B300E9F07404120D017401F07407120D01E4B3
:1035C300F090037774021236B5741502510374F642
:1035D30012061074EB120B2FEAFEEBFF124D1A606A
:1035E300030236757A077B0012190E900339123ADB
:1035F30062124D1A60788E828F83120CDE90033A2A
:10360300123F99120CEA12690BC0E0123681D0E026
:10361300F0EE2405FAEF3400FB8A088B098A82F561
:1036230083E0C0E012367CD0E0123691E0C0E012B5
:10363300367CA3D0E0123AD6120CDE8518828519A7
:1036430083120CEA88828983E0C0E07405120D01BD
:10365300D0E0F0850882850983E0C0E07404120D90
:1036630001D0E0F07407120D011236B48006791010
:103673008002790174150232AD123681A3229003C0
:1036830039E0FAA3E0F5838A82A3A3A3A322123E1F
:10369300B122C082C083124D1A600D9003391256B5
:1036A3001D900339E4F0A3F012105C1212300237BC
:1036B3001AE4123B7912209A22C082C08390033805
:1036C300E07003121BB4120E16804CC082C08390AC
:1036D3000338E0900D447004E4F0802D7401F09001
:1036E3000338E0F460237C41E0C394415002E0FCE2
:1036F300ECF8E0C398F0EC75F0E8A4CCA8F075F012
:1037030003A428FD7A801244E97A447B0D7941129F
:1037130020828003120DC2D083D082020A4D74F43A
:1037230012061074EB120B2F8A088B098C0A8D0B6F
:103733009003777401123758120CC27405120D01ED
:10374300E9F07404120D017403F07407120D0112F1
:1037530036B40235CC123AE178082274F712061017
:103763007C01120E28023A5274F212061074FC12F3
:103773000B2FE9851882851983F0EAFEEBFF8C0A8B
:10378300900375124B291210508A088B09EA4509D8
:10379300700579CA0238D38A828B83A3A3A3A3A318
:1037A300A3A3E064FE7003A3E0F4700579C30238B9
:1037B300D39003751251A01212968508828509834E
:1037C300A3A3A3A3A3A3A3A3A3A3E0049003881287
:1037D3003A317402120D017402F014120D01AA821F
:1037E300AB8312119A8A0C8B0DAE0CAF0DEE4F709A
:1037F300030238CA1234DB12410B7406F0A3A88209
:10380300A98390036212565A124464F0EE241312F1
:1038130058DB74011254A97440F0A3E41250F0A3CE
:10382300A31238D8123AF6EE24111258DBE50AF047
:10383300EEFAEFFB120DF2E9FE60030238CC9003BF
:10384300777409F0123294AA08FB794B122082850F
:103853000882850983123A23123AF690036AE0F844
:10386300851882851983E068600CE090036A123B37
:103873007579E1122082900E4C123AE9900E4EE0D7
:10388300687003A3E069601A90033B123AF6900E46
:103893004E1251A0121158900E4E124B297A01125A
:1038A30044E97A007B049003C2E0F91219D4900E24
:1038B3004E1238E174027808120BE4AC08AD09FA31
:1038C3007B041244EB80027E10900516E4F0EEF9BF
:1038D3007404024F8F1238DC22122BCFA322E0F59F
:1038E30008A3E0F5092274F512061074E2120B2FF7
:1038F300851882851983ECF0A3EDF0EAFEEBFF89CE
:10390300087429120D01E0F509742C120D01E0F57C
:103913000A900377E064046005E06408700579C2E7
:10392300023A1B742A120D01E064FE7003A3E0F453
:10393300700579C3023A1B9003777403123B7579C0
:1039430050122082742A120D01AA82AB83794B1282
:103953002082851882851983123A2A123AF6E508DD
:1039630090036AF0742A120D01123A23123AF6E513
:1039730009900362123A3174CE55094480C0E07451
:1039830012120D01D0E0F07401250A900388F0743F
:103993000F120D017402F0742A120D01123AE97428
:1039A30007120D01E8F0A3E9123A687410120D0131
:1039B300123AF67405120D01E508F0741B120D019D
:1039C300E4F090037D740FF07A7D7B037954122029
:1039D3008290037C740FF07A7C7B037947122082F8
:1039E30090037CE0C3940F50237405120D01E0C0D3
:1039F300E07402120D01D0E0F07404120D017401A1
:103A0300F004120D01AA82AB831220A67405120DD5
:103A130001AA82AB83122088741E120AB5022856AB
:103A230012448790036B2212448790037522F0EEB1
:103A3300FCEFFD7A897B031220402274F7120610F3
:103A4300EB90037FF012103E8005740D120AB57FD0
:103A530001020829123A5DA3E022123AD6A322EA10
:103A6300F0A3EBF022123ADCF8A3E0F92274F71288
:103A7300061074F8120B2FEAFEEBFF790090037720
:103A8300E06408704485188285198374FDF0A3747B
:103A9300FFF01211287402120D01123A627405121A
:103AA3000D01E4123A5DE0C0E07404120D01D0E0B0
:103AB300123AD1C0E07406120D01D0E0F07407127F
:103AC3000D01E4123B7512117C7408023A4F123A4D
:103AD300D6E022F08E828F8322123AE1E022F08533
:103AE30018828519832212448722E0F8A3E0F9EEB5
:103AF3001234E0E8F0A3E9F022C082C083900349C6
:103B030074E2F0A3740EF09003EF74D6F0A3741173
:103B1300F090034D7418F0A3740FF090034F74E208
:103B2300F0A3740EF0900351741EF0A3740FF0020F
:103B3300371A74F412061074F9120B2F8A088B09C2
:103B43008C0A8D0B8518828519837808120CC27430
:103B530004120D01E9F07405120D01E4F07406126C
:103B63000D01E4123B75120E047407025103E8F0D1
:103B7300A3E9123B7922123AE1AA82AB832274F4BD
:103B83001206108A088B098A828B83125A50EE4FD1
:103B93007003023C8A900312124D1D60158A828BBA
:103BA30083A3A3E0F9EEFAEFFB900313123F9912FC
:103BB30022438E828F83A3A3A3A3A3A3A3A3A3E0E0
:103BC300640270718E828F83A3A3A3A3A3A3E05483
:103BD300027003023C5C850882850983A3A3E06429
:103BE300E960768E828F83A3A3A3A3A3A3A3A3A336
:103BF300A3E07014900E61E0048E828F83A3A3A3CD
:103C0300A3A3A3A3A3A3A3F08E828F83A3A3A3A39E
:103C1300A3A3A3A3A3A3E014123C8D7404F0900EFA
:103C2300621254A3E8F0A3E912656F8B0BEA450B0C
:103C33007003125F428E828F83A3A3A3A3A3A3A3C4
:103C4300A3A3E0640260128E828F83A3A3A3A3A322
:103C5300A3A3A3A3E06406702E8E828F83A3A3A3E2
:103C6300A3A3A3E0A2E0501F850882850983A3A331
:103C7300E0F9EEFAEFFB12212A8E828F83A3A3A32E
:103C8300A3A3A3E054FEF0025106123EB1A3A3A3E3
:103C93002274EC12061074DD120B2FEAFEEBFF8C7C
:103CA300088D097437120D01780C120CA4750A00E3
:103CB3007405120D01AC82AD8312217E7412120DB4
:103CC30001E070087415120D01E060207405120DF7
:103CD30001E0A2E6501E8E828F83A3A3A3A3A3A316
:103CE300A3A3A31251A01211B2E960087903122011
:103CF30028023E977405120D01E0540C640470050C
:103D0300750B018003750B00E0A2E55019750A01DC
:103D1300E50BA2E04010126A4E12519C122136E9C3
:103D23006004790480C87405120D01E0A2E65022F4
:103D33007406120D01E0540370187405120D01E0AE
:103D4300540C640C600CE0540C640860057510019D
:103D530080037510007405120D01E05403F874021A
:103D630068700C126A4E12519C121758023E9774D7
:103D73000168703AE510A2E05003123E9F740512E9
:103D83000D01A882A9837403120D01E8F0A3E912BF
:103D9300447B851882851983123EA9E0C0E0740232
:103DA300120D01D0E0123B7512221A023E97E86011
:103DB30003023E9790035FE0640170108E828F834D
:103DC300A3A3A3A3A3A3E07003023D257422120DB2
:103DD30001740212447B741A120D01123AF6E510B3
:103DE300A2E050087405120D01123E9FE50BA2E0FC
:103DF300506AEE240FF582EF12610BC0E0741712C4
:103E03000D01D0E0F0900314124D1D7003023E9794
:103E130012112E8A128B13A812A913741A120D01F0
:103E2300E0687003A3E069706B780C120A80780A6B
:103E3300120A8C7808120A88A910740C120D01ACAE
:103E430082AD837421120D01AA82AB8390031412F5
:103E53003F961222437407120AB58038780C120A6F
:103E630080780A120A8C7808120A8890037512085F
:103E7300F8EE2412F582EF125E357423120D01ACB5
:103E830082AD83740E120D01AA82AB8312211E74BC
:103E930009120AB57423120AB502653A126A4E1260
:103EA300562B12217822E8F0A3E9123EB122125FC9
:103EB30078A3A3A32274F7120610121A94023A529B
:103EC30074F7120610121AA6023A52C082C0831265
:103ED3001AA002371A74F7120610121AAC023A52D9
:103EE30074F71206107409120D01E0F50878081230
:103EF3000A8C121AB87401023A4FC082C083121A94
:103F0300C402371AC082C083121ACA02371A74F75E
:103F1300120610121AD0023A5274F7120610EAFE71
:103F2300EBFF89087401650870147900120F5A9029
:103F33002661E493FC7900EEFAEFFB120ED0023A0D
:103F43005274F412061074F9120B2FE9FE8A088BCF
:103F5300098C0A8D0B7413120D011251A090056088
:103F6300124D1D6027EE851882851983F0740112A6
:103F73000D017808120CC2EAF8EBF97405120D0171
:103F8300123B71900560123F96122243023B6CFB79
:103F930090034BE0F8A3E0F58388822274F71206BE
:103FA30010900D47E0F97E00800B1260F7540D640A
:103FB300017001190E1241995003E970ED023A5252
:103FC30074F7120610900D48E0F97E00800B126022
:103FD300F7548D64817001190E1241995003E970F1
:103FE300ED023A5274F2120610890BE975F006A439
:103FF300240CF508E5F012329C8A0CE508250CFA2E
:10400300E5093400FB12190E8A0C8B0DAE0CAF0DB3
:10401300EE4F6027AC08AD0979001218541234DB57
:10402300E50BF0EE2508F8EF3509F98E828F83A3AF
:10403300A3A3A3A3A3A3A3A3123AF6EEFAEFFB024F
:104043004F9274F6120610EAFEEBFF120EAC900DBF
:1040530046E0F8E9C39840099003451251A0120EB7
:10406300B2EE2402F8EF1257A090034712565A906B
:104073000347E004F0EEFAEFFB120EB885088285E1
:104083000983E0025C4BC082C083790090034580C2
:1040930001091251A08A828B83E582458370F20263
:1040A300371A74F7120610EAFEEBFFEE4F605690D4
:1040B3000345124D1D604E888289837A007B00EE92
:1040C30065827003EF6583600FAA82AB8312410B95
:1040D300E5824583602F80E790034512411768709E
:1040E30002EF698E828F837008123AE9900345804C
:1040F3000312654C123AF6EEFAEFFB1221EAEEFADE
:10410300EFFB121914023A5212410F2212448B8808
:1041130082898322124487EE22C082C083900345A2
:10412300800488828983124D1D600B8882898312E3
:104133004B29EC4D70EC8A828B83E4F0A3F0E849C1
:104143006006888289838003900345123A620237AE
:104153001A74F712061090034580048A828B831227
:1041630041944B60257E0080010E12419950ECEE84
:1041730075F006A4FCADF0EA2CFCEB3DFDEC24103D
:10418300F582ED1241E970E180047A007B00023A86
:104193005212562FEA221241F2EEC3982274F712FA
:1041A30006107D0080010D1241EEEDC3985034EDF1
:1041B30075F006A4FEA8F0E8FFEA2EFEEB3FFFEE43
:1041C3002410F582EF1241E970DCED75F006A4FED0
:1041D300E8FFEA2EFAEB3FFBEA2411F582EB1261CA
:1041E3000B4CF0023A5212611769221241F2221269
:1041F3006A58EB3400F583E0F82274F612061012C5
:104203000FD27A007B008025EAF8EBF9E875F00617
:10421300A4F8ACF075F006E9A42C1256041269193F
:10422300A3E41256FAF0A312691F126A9690264C61
:10423300122F1B40D37A007B00801C8A088B0974E1
:10424300037808120BE41250BEA374FEF0A3041209
:1042530054E3A3E4126A9690265512429C40DC7AFA
:10426300007B00801D8A088B0974037808120BE415
:104273007475125D7F740C1265D174FEF0A3041281
:104283006A9690265B12429C40DB90265FE49390F3
:104293000353F01242A60232B0E493F8C3EA98EB58
:1042A3009400227CE87D037A107B009003C2E0F93E
:1042B3001219CE2274F012061074F5120B2F8A080D
:1042C3008B09890A8C0BE9A2E050147508FC750967
:1042D300FFA2E15005D2E4024379D2E3024379120B
:1042E3004F7E7003A3E06970057900024446AC0A6F
:1042F3007902AA08AB09120FAEE960EDE50AF50CE5
:10430300780C120A8C79027CFE7DFFAA08AB091295
:104313004CF9120AB5E96003024444E50AC2E5F523
:104323000A9003B5E07051E50AA2E6404B7403120C
:104333000D01AC82AD83AA08AB09120D50E97032AE
:1043430012461A8A0C8B0DA80CA90DE8FEE9FFE8AA
:10435300496025EE24020A0AEF122C0D601AEE249E
:1043630002FCEF3400FD7403120D01AA82AB831229
:104373002040E50AD2E5F50A900348E0F50C9003E6
:1043830068E0F50EA3E0F50F780E120A887D017C34
:1043930000900348E0F9AA0EAB0F120F66740212E5
:1043A3000AB5E9F8900348E004F0E86003024444E6
:1043B300E50AA2E55004740E80027406C0E074019D
:1043C300120D01D0E0125A618A0E8B0FAE0EAF0FA1
:1043D300EE4F606912446412447B888289837401BE
:1043E300F07478550AA3126A5EE50C126A5EA3E5BF
:1043F30008F0E509124453E4F0E50AA2E5500F740E
:1044030003120D01AC82AD83E8240612444A8E8266
:104413008F83A3A374FDF0A374FFF0E50B601590E5
:104423002662E493F8E50BC3985009EE241312585F
:10443300DBE50BF0EEFAEFFB120DF280067910804C
:104443000279C7740B8049FAE93400FB1220402239
:1044530088828983A3A3A3A312445F221257D3A301
:1044630022EE24171234E27401F0121128EE241AFA
:104473001234E2EAF0A3EB22F0126A52340012443F
:104483008522F58312448B22E0F8A3E0F922740D10
:10449300120AB57F0802082974F61206107A007B07
:1044A30010125F4F60089003D47401F080299005C7
:1044B300FDE06401900E5F7006E0FC79018004E08A
:1044C300FC79037A007B00120ED090264A1244DD59
:1044D3007A007B101244EB0232B01244E122E493DF
:1044E300FC740193FD227B009003C2E0F91219C80A
:1044F3002274EC1206108A088B098C0C8D0D890E20
:104503007414120D01124ED87416120D01E0F51039
:10451300A3E0F5111211B2E960077AFF7BFF0246AF
:1045230017900E5EE06402600302460A7900AA084F
:10453300AB09120FB4A90E120FA88A128B13AE1275
:10454300AF13EE4F70030245F28E828F83A3A3A3B2
:10455300A3A3E064018E828F83A3A370691251A089
:104563008E828F83A3A3A3A3A3A3E05418604390D5
:104573002660E4938E828F83A3A3A3A3F0EA650C42
:104583007003EB650D6014EA650A7003EB650B605D
:104593000AEA65107003EB6511701F7810120A8820
:1045A300AC0AAD0BAA0CAB0D1212AE7402120AB513
:1045B3008008900367125F39A3F074FE6A70037476
:1045C300FF6B601D804EA3A3A3E0640360298E826A
:1045D3008F83A3A3A3A3A3E0640470057AFE02451B
:1045E3001F8E828F83A3A3A3A3A3E064027008900A
:1045F30003B4E06402701012461A8B0BEA450B6099
:1046030006AA08AB09800DAA08AB09900349123F1B
:104613009612224302653A900375124CFF121272EE
:104623002274F7120610EAFEEBFF120DA4E9700ADA
:10463300EEFAEFFB120DB0E96006EEFAEFFB800431
:104643007AFE7BFF023A5274F01206108A0A8B0B31
:104653008C0E8D0F89097508001211B2E97900607B
:10466300030247C1AA0AAB0B120FB4A909120FA880
:104673008A0C8B0DAE0CAF0DEE4F60198E828F83BB
:10468300A3A3A3A3A3E0640270559003B4E0640260
:1046930070030247BFAA0AAB0B90034F123F961257
:1046A3002243120DB68A0C8B0DA80CA90DE8497094
:1046B300030247BF88828983A3A3A3A3A3E0A2E045
:1046C30040030247BF750C01A2E150687901AC0AAF
:1046D300AD0BAA0EAB0F120F00E970640247BF8E39
:1046E300828F83A3A3A3A3A3E064037005750C02C5
:1046F30080528E828F83A3A3A3A3A3E064016003EC
:104703000247BF900375124B298E828F83124B157C
:104713008A0C8B0DA80CA90DE84960D1902659E4A9
:1047230093FA88828983E0C39A50C2A3E0600302AC
:1047330047BF80B988828983A3A3A3A3A3D2E1F04F
:10474300EE4F603A8E828F83A3A3A3A3A3A3E05467
:1047530018602B7508018E828F83A3A31208F87546
:104763000CFE750DFF780C120A887900AC0AAD0BAC
:10477300AA0EAB0F120FC67404120AB5803E900343
:1047830068E0650E7004A3E0650F7014902661E481
:1047930093FCA909AA0AAB0B120ED0750801801C61
:1047A300A90CAC0AAD0BAA0EAB0F120F00E9700CEB
:1047B300750801A909AA0AAB0B120F5AA9080244EA
:1047C3009674EA12061074F0120B2F8A0C8B0D8C60
:1047D300088D097426120D01E0F514A3E0F5157593
:1047E30012069003F5124D1D6023900375124B2999
:1047F300AA08AB0912129C8A108B11EA4511600DAD
:104803008A828B83A3E070057900024AFDE50C24BC
:104813001DF50EE50D3400F50F850E82124D09F5D9
:104823001388828983A3A3A3E0FA88828983A3A33D
:10483300A3A3E0F9EA2400FEE439FFAA08AB0912B6
:104843000F60850E82850F83124B47E029F50BE538
:104853000AA2E5500375120E7487550A701774186F
:10486300550A6418600FE50C2417F582E50D1261F3
:104873000B651260077901122028808C530A78C3D4
:10488300EE94F8EF94FF501D7900EEFAEFFB124B14
:1048930007601288828983A3A3A3A3A3A3E0541868
:1048A300600302480B7808120A887D00124B3A1203
:1048B3000AB5E9F8740368700302480BE860030261
:1048C30049767418550A7003024A2BE50AD2E0F5BB
:1048D3000AA2E45004D2E1F50AA90A125199124B33
:1048E30007605388828983A3A3A3A3A3A3E05418D7
:1048F300604488828983A3A3A3A3A3E064017036E1
:10490300E51045116030900375124B298882898325
:10491300124B158A0E8B0FA80EA90FE84960178852
:10492300828983A3E0600F851082851183A3125CC3
:1049330056500302480BE50AF50E780E120A8C1244
:104943004B2D120AB5E9702B7C007D0085148285FE
:10495300158374FFF0A3F0850C82850D83A3A3A3B5
:10496300A3A3A3A3A3E06003124B1EA90B125199A7
:10497300121ABE851482851583E0F47003A3E0F454
:1049830060399003B4E06402700302480B124EC90D
:10499300E0FAA3E0123F92122243EA65087003EBA8
:1049A3006509600302480BEEFAEF123F92122243AD
:1049B300851482851583EAF0A3EBF07808120A8840
:1049C3007D01124B3A120AB5A90AEEFAEFFB120F58
:1049D300B48A088B09A808A909900368E0687003E2
:1049E300A3E0696003024AEEEEFAEFFB120DB68A0A
:1049F300088B09A808A909E849606E88828983A3FE
:104A0300A3A3A3E06401600D88828983A3A3A3A366
:104A1300E064027054851882851983AC82AD83EEFD
:104A2300FAEFFB120D508055900361E0600FE50A29
:104A3300F50E780E120A8C124B2D120AB5E50AF503
:104A43000E780E120A8C79027CFE7DFFEEFAEFFBE4
:104A5300124CF9120AB5E96003024976851482857E
:104A6300158374FFF0A30249BD121128EAFCEBFD84
:104A7300851882851983AA82AB83122040850C8214
:104A8300850D83A3A3A3A3A3A3A3A3E06401700F32
:104A9300124B1E7408120D01AA82AB83122040121E
:104AA3004CD31258E24430F5087808120A8C74018A
:104AB300120D018582088583097808120A88740B10
:104AC300120D018582088583097808120A88E51387
:104AD300F5087808120A8C7900EEFCEFFD12519963
:104AE300120EFA7406120AB502480B124CD312586E
:104AF300DE124B47E50BF01211407410120AB57F1A
:104B03000E020829120FA88A0E8B0FA80EA90FE810
:104B13004922A3A312562F12129C22E50C2415F549
:104B230082E50D1234E51254BD227901AC08AD09BA
:104B3300125624124CF922AC0BA913125624120F4D
:104B4300667402221258EAA3A3A3A32274F01206E6
:104B53001074F0120B2F8A0C8B0DECFAEDFB750F12
:104B6300089003F5124D1D6014125C4F8A828B83EB
:104B7300E58245836007A3E07003024CCE124CD359
:104B83003400124D09F50B88828983124CDCE0FB5B
:104B9300EC2400FEE43BFF88828983A3A3124CDC50
:104BA300A3A3E0FBECF508E43BF50988828983A322
:104BB300A3A3A3A3A3A3E0F50EE50AA2E450037500
:104BC3000F10A2E550067408250FF50F748F550AD0
:104BD300700FE50C2417F582E50D12610B650F606C
:104BE300087901122028024CCE530A707800E50A96
:104BF300A2E45022124CD312610B2408FCA3E0342C
:104C030000FD7408120D01AA82AB831220407808BC
:104C1300E50AC2E4F50AE50AA2E55028124CD312CC
:104C2300610B28F8A3E03400F9E82408FCE9340018
:104C3300FD851882851983AA82AB83122040E50A79
:104C4300C2E5F50AAC0EA90BEEFAEFFB120F6CE905
:104C5300F87403686075900368E06E7003A3E06FF7
:104C6300605EE87054E50AF50F780F120A8C124C57
:104C7300EA120AB5E97054780A120A8C7401120D0B
:104C83000185820C85830D780C120A88740B120D32
:104C93000185820C85830D780C120A88E50BF50AD1
:104CA300780A120A8CA90EAC08AD09EEFAEFFB12D2
:104CB3000EFA7406120AB58012740468700D80B778
:104CC300780A120A8C124CEA120AB5741002449341
:104CD300E50C241DF582E50D22A3A3A3E0FC888245
:104CE3008983A3A3A3A3227901124ED01234E51220
:104CF3004CFF124CF922120F24740122E0FCA3E0B2
:104D0300FDAA08AB0922F58312410FA3E0F50A8837
:104D1300828983A3A3E02290033912568B2274E87D
:104D230012061074F5120B2FEAFEEBFF8C088D09A7
:104D330089147423120D01E0F50F7424120D01E0A0
:104D4300F512A3E0F5137426120D01E0F516A3E0A6
:104D5300F5177428120D01E0F50EA90F120F728AD0
:104D6300108B117401120D017408F0E50EA2E450CA
:104D7300037410F0E50EA2E55004E02408F0851852
:104D830082851983AA82AB8312119A8A0C8B0DEA4E
:104D9300450D7003024EB0EA2417F582EB124EC2A2
:104DA300121128E50C241AF582E50D1258DE123A89
:104DB300627403120D01AC82AD83AA10AB11120D04
:104DC30050E9601D124EBA7403120D01A882A98323
:104DD300E50C2418F582E50D1258DEE8F0A3E9800E
:104DE30024E50EA2E4501FE5106E7003E5116F7009
:104DF30015124EBAE50C2418F582E50D1258DEE5BE
:104E030012F0A3E513F0124EC9124ED8850A82F5AB
:104E1300837402F0A3E50E124EE0E50FF0EE850A6F
:104E230082850B83A3A3A3F0EF850A82850B83A35B
:104E3300A3A3A3124EE0A3A3A3E508F0E509850A03
:104E430082850B83A3A3A3A3A3A3F0AA10AB111280
:104E53000F60E92514850A82850B83A3A3A3A3A36B
:104E6300A3A3F0750800E50EA2E45011AC12AD1334
:104E7300E50A2408FAE50B12444C750808E50EA26E
:104E8300E55014AC16AD17E50A2508F8E50B340018
:104E9300F9E8240812444A850C82850D83A3A3E50F
:104EA30010F0A3E511F0AA0CAB0D120DF2740B1266
:104EB3000AB57F10020829E50C2416F582E50D12C8
:104EC30034E57401F022124ED01234E522E50C12BF
:104ED3006A59E50D22E0F50AA3E0F50B22F0850AF5
:104EE30082850B83A3A32274F21206108A088B090E
:104EF300ECFEEDFF890A7900124F7E7003A3E0698F
:104F0300700479018073750B01900368E065087084
:104F130004A3E06509601F750B00780B120A8CA9C6
:104F23000AEEFCEFFDAA08AB091211EE7401120A96
:104F3300B5E9F50B80417900EEFAEFFB120FA8EA11
:104F43004B602B8A828B83A3A3A3A3A3A3E0541850
:104F5300601C7508FE7509FF7808120A888A828B1F
:104F630083A3A31208F812686E120AB580097901A7
:104F7300EEFAEFFB120E88A90B8014120FB48A0C01
:104F83008B0DA80CA90D900368E06822120AB57F67
:104F93000602082974F41206107508BD75090A7A09
:104FA300101265768B0BEA450B70031242A6900331
:104FB30053E014F0700C90265FE493900353F012C7
:104FC3000FC07E007F00806C850882850983A3A3C0
:104FD300A3A3E06059F46056E5082404F582E509CB
:104FE300125F337049850882850983A3A3A3A3A312
:104FF300E0640370197902850882850983124B29BD
:10500300850882850983A3A31251A0120F00850886
:1050130082850983A3A3A3A3A3E064016010850889
:105023008285098374FEF0A3041250F0E4F0123475
:105033001212329490264E1266D2408C7E007F006C
:1050430080391210CE8E088F0974037808120BE48E
:1050530074352508FC740C3509FD7A0C7B0F12108E
:10506300BCEA4B70DD8E088F0974037808120BE4D9
:105073001250BE126919E4F0123412902655E493CB
:10508300F8C3EE98EF9400501B8E088F09740378D1
:1050930008120BE41250C6E82407F582E9125F33C5
:1050A30070D680A17E007F00800A1250D160021466
:1050B300F01234121266CF40F180481250C6888233
:1050C30089832274352508F8740C3509F922EEF822
:1050D300EFF9E875F006A4F8AAF075F006E9A42A3A
:1050E300F974D528F582740B39F583E0221250F751
:1050F300A3A3A322F0850882850983A3A322740DA9
:10510300120AB57F0402082974F712061074E1121B
:105113000B2FECFEEDFF750800EE4F60728A828B59
:1051230083E0241C125F64124D1D60638A828B83AB
:105133001251A0851882851983AC82AD83EA241BA2
:10514300F582EB125E35EA241CF582EB12519C12B8
:105153001110740B120D011251A47003A3E06970B6
:105163002E7402120D01E064017024741D120D01EE
:10517300123F96E064017017741D120D01123F98DF
:10518300A3A3E0F88E828F83E0687003750801A9FA
:1051930008741F023A4F124ED03400F58312562F73
:1051A30022122BCBE0682274F4120610E9702479E2
:1051B3000090034D123F961222438A0A8B0BAE0ACC
:1051C300AF0B74FE6E700374FF6F701A90265CE46D
:1051D300936013790190034D123F961222438A0A7A
:1051E3008B0BAE0AAF0B12115E02357274F6120608
:1051F3001074F3120B2F1218668A088B09AE08AFCE
:1052030009900368E06E7003A3E06F60E912113444
:10521300EA6E7002EB6F60DEEEFAEFFB1211B2E999
:1052230070D4EE4F60D0851882851983E4F00412A0
:105233000D01EEF0A3EF125252E970BA74FE6E70D4
:105243000374FF6F60B0EEFAEFFB740D0232AD1220
:105253003B79120D6822C082C08312115E02371A95
:105263007F0A02082974F2120610EAFEEBFF8C0A89
:105273008D0B8908740E120D01E0F50974FC6E7034
:105283000374FF6F70057900024F927900120FB417
:105293008A0C8B0DAE0CAF0D900368E06E7003A308
:1052A300E06F7006E509A2E650DCA90912675C709D
:1052B3006179007AFE7BFF12675C7056741855099A
:1052C300700302539F780079008003122DC5902646
:1052D3004E122DBC400302539FE8FAE9FBEA75F036
:1052E30007A4FAACF075F007EBA42CFB74C32AF502
:1052F30082740A3BF583E0541870D0E875F007A474
:10530300F8AAF075F007E9A42AF974BD28F8740A1D
:1053130039F988828983A3A3A3A3A3A3E0541860C4
:105323000974185509700302528988828983EEF043
:10533300A3EFF074FE650A700474FF650B6003123B
:1053430054C388828983A3A3A3A3A3A3E509F0A2DB
:10535300E0500D88828983A3A3A3A3A3A3D2E2F081
:105363007401650888828983A3A3A3A3A3703874F7
:10537300011254E3E054186028902660E493888275
:105383008983A3A3A3A31254B112129C8B0DEA45E4
:105393000D60030252897800790080397902025244
:1053A3008B900367E080D7E0640170030252898821
:1053B300828983A3A3A3A3A3A3E054186007902621
:1053C30060E4938004900366E0124453E508F0021E
:1053D3005289122DC5902656E493FAC3E89AE994AC
:1053E3000040030252897A007B00804BEAFCEBFD0C
:1053F300EC75F007A4FCAEF075F007EDA42EFD7478
:10540300BF2CF582740A3DF583125A50E8FCE9FD7E
:10541300EC75F017A4FC85F00975F017EDA42509C8
:10542300FD744D2CF58274093DF583E06E7003A382
:10543300E06F609E1232E790264E1232A440AD1206
:1054430044DDEC6A7002ED6B7088E875F017A4F820
:10545300AAF075F017E9A42AF9744D28FE740939E6
:10546300FF7C177D007900EEFAEFFB1218548E8251
:105473008F831254C99003751254A3A3A3A3A3A3A8
:10548300A3E8F0A3E91254A97401F0EE240E125814
:10549300DB74011254D11204BF1258D8E80253D15D
:1054A3001238DCA3A322F0EE240F1234E222F0120E
:1054B30054BAAA0AAB0B22900375E0FCA3E0FD22C9
:1054C30088828983A3A3E50AF0A3E50BF022F09079
:1054D3002659E4932401F8E43400F97A027B00228C
:1054E30012445FA32274ED1206108A088B09890EF9
:1054F30012560D400579050255E2121B06AA08ABA8
:10550300091256DF90264C1255E5650A7003E965CA
:105513000B70077AFE7BFF1256DF90264C1260EA6F
:10552300E50B9940030255E01255EA6012E50A754E
:10553300F006A4F875F006E50B125635121914E5BA
:105543000E6018E50A75F006A4F8AAF075F006E5F2
:105553000B125661701A79010255E2E50A75F006DD
:10556300A4F8AAF075F006E50B125642E4F0A3F096
:10557300E50A75F006A4F8AAF075F006E50B1256D5
:1055830002A31258F888828983A3AA82AB83125696
:10559300508A828B83E060411255EA603C8E108F03
:1055A300117512007810120A84E50EC333FCE4333C
:1055B300FDE50A75F006A4F50AA8F075F006E50BFB
:1055C300A428F50B74D9250AF582740B350B1251F7
:1055D3009E1218487403120AB579008002790702F3
:1055E3006772122F3CE822E50A75F006A4F8AAF0C8
:1055F30075F006E50B12563DF8A3E0F9E84922A43D
:105603002A12579688828983A322ECFEEDFF902607
:1056130057E493F8E9C39822F58312562F1219140D
:1056230022E50C126A59E50D3400F583E0FAA3E094
:10563300FB2212563DFAA3E0FB22125642E022A4BB
:105643002AF974D928F582740B39F58322E50EF013
:10565300900E6012565A22E088828983F0221257F4
:10566300BAF50CE93400F50DE50EC333FAE433FB68
:1056730012190E850C82850D83EAF0A3EBF0850CDD
:1056830082850D8312568B2212448BE8492274F4CF
:10569300120610ECFEEDFF740C120D01123AE988AC
:1056A3000889091256DFAC0AAD0BECF8EDF9902628
:1056B3004C1256E75021E875F006A4F8AAF075F0ED
:1056C30006E9125602E08E828F831256FA1256F0C2
:1056D300123AF6790080027904025106120F368AD3
:1056E3000A8B0B221232B5C3EC9AED9B221244872C
:1056F300850882850983221257CF2274F612061079
:105703007E007F008028EEF8EFF9E875F006A4F834
:10571300ACF075F006E9A42CF974D728F582740B64
:1057230012637D6A7003A3E06B6057123412126632
:10573300CF40D31266CA7002E96F704674FE6A7076
:105743000374FF6B703C7E007F00800312341212DF
:1057530066CF502E1250D170F3EEF8EFF9E875F0E2
:1057630006A4F812578C1257C160171257A8F8E90C
:105773001257A0888212561B850882850983E4F09C
:10578300A3F0EEFAEFFB0232B075F006E91257947C
:1057930022A42AF974D528F8740B39F9223400F9B4
:1057A3008808890922EEF8EFF9E875F006A4F87580
:1057B300F006E91257BA22125794E8240422A3A34D
:1057C30074FE1257CC12568B22F0A3041257D32225
:1057D300F088828983A3A3A3A32274F6120610EA96
:1057E300241DF582EB1258E2F9604BEA241DF58281
:1057F300EB12610B2402FCA3E03400FD12561140AE
:10580300030258CB780080298C828D83E0F508A3AE
:10581300E0FFE5082400E43FF509E833FEE433FF45
:10582300741D2EF582740C3FF5831258F81258CE6E
:1058330008E8C39940D28A828B83A3A3A3A3A3A31B
:10584300A3A3A3124B29900368E06C7003A3E06D3C
:10585300700F7C1D7D0C122B3412519C120F2A8069
:1058630067EA2411F582EB12610B605CFC74FF2C78
:10587300F07508017808120A8C75081D75090C78F3
:1058830008120A88E9F5087808120A8CEA2412F546
:1058930082EB12610BF5087808120A8CEA2415F5DD
:1058A30082EB1258DE1208F8ECF9122B34124B2655
:1058B3008A828B83A3A3A3A3A3A3A3A3A31251A00D
:1058C300120F427407120AB50232B0EC24020C0C18
:1058D300ED3400FD22EE240DF582EF1234E52212A1
:1058E30034E51258EAE022E0F8A3E0F5838882A3C6
:1058F3002288828983E508F0A3E509F02274EA127D
:10590300061074FD120B2F8A148B158C0E8D0F89C4
:105913000D7419120D01125A50741B120D01E0F58A
:1059230011741C120D01E0F50C741D120D01124EC1
:10593300D8741F120D01E0F5106008E50CC3332481
:105943000480027402C0E07401120D01D0E0125A07
:10595300618A088B09EA45097003025A418A828BDE
:1059630083A3A3E514F0A3E515126565E50EF0A383
:10597300E50FF0EA2413F582EB1258DEE50DF0EAA9
:105983002414F582EB1258DEE511F0EA2417F582B0
:10599300EB12610B6401704012112E8A0E8B0FA85B
:1059A3000EA90F850882850983A3A3A3A3E06870CA
:1059B30003A3E0696022EE4F6011E508241AF58223
:1059C300E5091258DEEEF0A3EF800CE5082417F585
:1059D30082E5091258DEE4F0125A46125A508E82BA
:1059E3008F837405F0A3E5107004E50C80487401FF
:1059F300250C125A5A7A008028850A82850B83E087
:105A0300125A56850A82850B83A3E08E828F83F018
:105A1300E50A2402F50AE50B3400F50BA30EAF8368
:105A23000AEAC3950C40D212112EEA125A561211E9
:105A33002EEB8E828F83F0AA08AB09120DF274034A
:105A4300024AFF122B451234E522900334E0FEA3F1
:105A5300E0FF228E828F83F0A3AE82AF8322123BBC
:105A63007912119A22C082C083E9C333FCE433FD67
:105A7300EA2CFAEB3DFBEA24FEF582EB34FF1251EC
:105A83009E02371A74F212061089098A0A12560DF9
:105A930040047900804075080080020508E508C3CA
:105AA3009509502AE508C333F8E433F9EE28F58263
:105AB300EF39F583C082C08312112E8A0C8B0DD06F
:105AC30083D082E0650C7004A3E0650D70CDE50A18
:105AD300650870BE7901024F9274F012061074F3D8
:105AE300120B2F8A088B098C0A8D0B890C750D00FC
:105AF3001211B2E979006003025BDEAA08AB091256
:105B03000FB4A90C120FA88A0E8B0FAE0EAF0FEEB7
:105B13004F7003025BDC8E828F83A3A3A3A3A3A393
:105B2300E0A2E24003025BDC12112EEA650A700375
:105B3300EB650B7011780D120A8CE4F50EF50F78F6
