:020000040000FA
:06000000020B100201C515
:030013000201E8FF
:03002B0002096463
:03003B0002023D81
:03004B000203A904
:030053000200F6B2
:1000830002015A0101FF050301B810B810B810B8F6
:1000930010740F6E0FB810231E00000000E71E003F
:1000A3000000000C0000000C00010000981200008A
:1000B300000000004C1300000000000000000000DE
:1000C300FFFF01010100E2040000003305E80364BF
:1000D300006400B801020200000002050207051EC9
:1000E30002051E0A03B80B02010206000201000208
:1000F300020612C0E074F21204F8A2AFE433FED297
:10010300AFE5A7FFE5A1F5085F54106006121904D7
:1001130075A1EFE5085F5408600812190A75A1F785
:10012300802BEFA2E0C0D0E508A2E092F0120A4DC6
:10013300158182F05017906198E0F8900716E0C39C
:1001430098A2D265D0335002E8F075A1FEEEA2E08A
:1001530092AF7F010205AFC0E074F21204F8A2AFC0
:10016300E433FED2AF9061A4E0F8759B00E59158AB
:10017300540860087591F712194C802AE591585478
:100183001060087591EF121952801BE8A2E0C0D0ED
:10019300E591A2E092F0120A4D158182F05007E03A
:1001A300C2E0F0121A909061A3E0F8E5E958540414
:1001B300600E121A6675E9FB906193E0A2E640F2C5
:1001C300808BC0E074F21204F8A2AFE433FED2AF26
:1001D3009061A5E0F8E5BF585404600675BFFB12B3
:1001E3001AA8020150C0E0C0D0E8C0E0E9C0E0C0F6
:1001F30082C083E5C1C0E0900682E0F8740128F56F
:100203008274063400F583D0E0F0900681E0F8A311
:10021300E0687006E595900684F0900682E004F0AD
:10022300C394804002E4F0A374C6F0D083D082D09C
:10023300E0F9D0E0F8D0D0D0E032C0E0C0D0E8C0E0
:10024300E0C008C009C082C083900705E0F8A3E0BE
:10025300687008539AFBA374018026C2E9900705CE
:10026300E0F50874012508F074852508F582740605
:100273003400F583E0F5C1900705E0C394804002A4
:10028300E4F0D083D082D009D00880A6C3E498F8E4
:10029300E499F91202D08026C3E49AFAE49BFBE9BD
:1002A30020E7E91202D0E498F8E499F922C3E4982C
:1002B300F8E499F91202D0E498F8E499F9C3E49ABE
:1002C300FAE49BFB22EB20E7CFE920E7E0B900103B
:1002D300BB0008E88AF084F8AAF022E4FBC8FA22FB
:1002E300EB70227B10C833C8C933C9335007C39A94
:1002F300C3DBF280069A50012ADBEAC833F4C8C98B
:1003030033F4C9FA2275F008E4C833C8C933C933D2
:10031300C99AC99B5004C92AC93BD5F0ECFBC83321
:10032300F4C8E4C9FA22080808EAC0E0EBC0E08692
:10033300F0E7A4FA180986F0E7A42AFA180986F068
:10034300E7A42AFA180986F0E7A42AFA1986F0E73F
:10035300A4FBE5F02AFA190886F0E7A42BFBE5F0E5
:100363003AFA190886F0E7A42BFBE5F03AFA1818D5
:100373000986F0E7A4C5F02BFBE43AFA1908E7C5B0
:10038300F0C6A426F6E5F03BFBE43AFA1886F0E75C
:10039300A4F6E5F00826F6E43B08F6E43A08F6D0BE
:1003A300E0FBD0E0FA22C0E0C0D0E8C0E0C082C0E9
:1003B30083900469E004F0C394644002E4F0E0F83D
:1003C30090046AE0C398400474018001E4C333F8E5
:1003D300E58054FD12041390046BE0C39840047449
:1003E300018001E4C4333354C0F8E58054BF1204E0
:1003F3001390046CE0C3984004780180027800E80D
:10040300A2E09287D083D082D0E0F8D0D0D0E0327F
:1004130048F580900469E0F822E4CFC0E0E4CEC060
:10042300E0E4CDC0E0E4CCC0E075F020C3E633F6F1
:1004330008E633F608E633F608E633F6181818EC40
:1004430033FCED33FDEE33FEEF33FFC3EC9709EDE1
:100453009709EE9709EF97191919400FFFEC97FCCD
:1004630009ED97FD09EE97FE191906D5F0BEECF7D5
:1004730009EDF709EEF709EFF7191919D0E0FCD0E8
:10048300E0FDD0E0FED0E0FF222518C582C0E0E504
:100493001934FFC583C0E0E518C3958224F810AF73
:1004A300088583198582188008858319858218D267
:1004B300AFCEF0A3E520F0A37808E608F0A3DEFAB8
:1004C300EFF0A3E58124FAF8E608F0A3E608F0A329
:1004D300E608F0A30808E608F0A3E608F0A31581F0
:1004E3001581D0E0FED0E0F8158115811581E8C0B3
:1004F300E0EEC0E022C0D02518C582C0E0E5193483
:10050300FFC583C0E0E518C3958224F310AF0885C7
:1005130083198582188008858319858218D2AFC80C
:10052300F0A3E9F0A3EAF0A3EBF0A37908E709F05D
:10053300A3D8FAECF0A3EDF0A3EEF0A3EFF0A3D071
:10054300E0F0A3D0E0F0A3D0E0F0A3E520F0A3E532
:10055300F0F0A322120B72B90003020599E4900391
:1005630001786479098002F0A3D8FCD9FA900B646E
:10057300AA82AB83900086787179018015E493A3F6
:10058300AC82AD838A828B83F0A3AA82AB838C82F5
:100593008D83D8E9D9E77582F97583DC7402120873
:1005A300C375822A75831D74001208C38519838558
:1005B3001882E0C0E0A3E0F9A3E0FAA3E0FBA3788C
:1005C30008E0F608A3DFFAE0FCA3E0FDA3E0FEA346
:1005D300E0FFA3E0C0E0A3E0C0E0A3E0F5D0A3E028
:1005E300F520A3E0A3F5F010AF08858319858218E1
:1005F3008008858319858218D2AFD082D083D0E05A
:10060300F8D0E0320875F0108E1A8F1B85821F8593
:10061300831E851882851983E0CEA3E0CF851F82D0
:10062300851E83EBC9EAC8EDCBECCAC3E833C8E93E
:1006330033C9EA33CAEB33CBC3EA9EF51DEB9FF50F
:100643001CB35004AB1CAA1DEC33CCED33CDD5F059
:10065300DAAE1AAF1B22D083D082ECC0E0EDC0E04B
:10066300E493A3FCE493A3FDED4C600D120731EC7E
:1006730024FFFCED34FFFD80EFE493A3FCE493A39C
:10068300FDED4C600D1207CEEC24FFFCED34FFFDB5
:1006930080EFD0E0FDD0E0FCE493A3C0E0E493C09E
:1006A300E022D083D082E9C0E0E493A3C386F0C5FF
:1006B300F095F0F908E493A386F0C5F095F0700B7C
:1006C300E493A3C3994005E9048002A3E475F0020F
:1006D300A42582F582E5F03583F583D0E0F9E49330
:1006E300A3C0E0E493C0E022851983851882E0A3C8
:1006F300FEE0A3F5207808E0A3F608DFFAE0A3FF05
:10070300E0A3C0E0E0A3C0E0E0A3C0E0E0A3C0E05A
:10071300E0A3C0E010AF088582188583198008859F
:100723008218858319D2AFD083D0820208C9C0E072
:10073300C3E49396087401939618400FE49366708C
:100743000808740193661870007019A3A3C3E49397
:1007530096087401939618A3A3400DD0E0D0E0D07F
:10076300E0020695A3A3A3A3A3A3D0E0227404806D
:100773000474028000CCC0E0EDC0E0E518C39CCC5B
:10078300AD1950011D10AF068C188D1980068C18F9
:100793008D19D2AF120845D0E0FDD0E0FC227402DF
:1007A3008000CCC0E0EDC0E0E518C39CCCAD19508F
:1007B300011D10AF068C188D1980068C188D19D267
:1007C300AF120823D0E0FDD0E0FC22C0E0C0F088E7
:1007D300F0E4936670080874019366187000A8F03B
:1007E300A3A3700BD0F0D0E0D0E0D0E0020695A335
:1007F300A3D0F0D0E022D083D082CCC0E0E493A396
:1008030060061208A41470FAE493A360061209ABFD
:100813001470FAD0E0FCE493A3C0E0E493C0E022B8
:10082300CAC0E0E493A3C582CCC582C583CDC5838A
:10083300F0A3C582CCC582C583CDC583DAE5D0E0FC
:10084300CA22CAC0E0E0A3C582CCC582C583CDC598
:1008530083F0A3C582CCC582C583CDC583DAE6D038
:10086300E0CA227009080808226016181818C6C3BF
:1008730033C608C633C608C633C608C633C6D5E072
:10088300EA22C008C3E096F50808A3E096420808E8
:10089300A3E096420808A3E09645087001D3D00868
:1008A30022C0E0E493A3D39C5010E493A3C39C40E1
:1008B3000AD0E0D0E0D0E0020816A3A3A3D0E02240
:1008C300C09FF59FE473D09F22D083D082C09FE462
:1008D30093C0E0740193C0E0740293F59F2225183E
:1008E300F58210AF08F518400215198008F5184075
:1008F300021519D2AF851983227404800A74038008
:1009030006740280027401C0E0F4041208E1D0E02E
:10091300120B4D22C0D0251810AF08F51850020550
:10092300198008F51850020519D2AFD0D022BB01A7
:1009330002E722C082C08389828A83BB0003E080EE
:1009430002E493D083D082226016080808C6C3133A
:10095300C618C613C618C613C618C613C6D5E0EA0A
:1009630022C0E0C0D0E8C0E0E5A8D2AFC2C7A2E78A
:1009730092AFD0E0F8D0D0D0E032C3E0C696F6080C
:10098300A3E0C696F608A3E0C696F608A3E0C696CB
:10099300F622251810AF08F518400215198008F53E
:1009A3001840021519D2AF22C0E0E493A36C70097A
:1009B300D0E0D0E0D0E0020816A3A3D0E022E066A6
:1009C300701008A3E066700A08A3E066700408A329
:1009D300E06622E76670100809E766700A0809E70F
:1009E3006670040809E76622C3E09608A3E0960848
:1009F300A3E09608A3E096A2D265D03322C3E09683
:100A0300F008A3E096F008A3E096F008A3E096F0C0
:100A130022E026F008A3E036F008A3E036F008A3AE
:100A2300E036F022E627F60809E637F60809E63746
:100A3300F60809E637F622E026F608A3E036F608BC
:100A4300A3E036F608A3E036F622C0E0E8C0E0E50E
:100A53008124FCF8E6A2E7D0E0F8D0E0227004227B
:100A6300600D18C6C333C608C633C6D5E0F41822D2
:100A7300E657F60809E657F60809E657F60809E6C1
:100A830057F622E056F608A3E056F608A3E056F61A
:100A930008A3E056F622E056F008A3E056F008A3B8
:100AA300E056F008A3E056F022E647F60809E647C9
:100AB300F60809E647F60809E647F622E4C396F680
:100AC30008E496F608E496F608E496F622C3E79659
:100AD3000809E7960809E7960809E79622C6F4C6C7
:100AE30008C6F4C608C6F4C608C6F4C622600D08D4
:100AF300C6A2E713C618C613C6D5E0F322C3E09611
:100B030008A3E09608A3E09608A3E0962275D00018
:100B130075814075180175190300020557E0F60841
:100B2300A3E0F608A3E0F608A3E0F622600C08C6EB
:100B3300C313C618C613C6D5E0F422E6F008A3E62D
:100B4300F008A3E6F008A3E6F022CAC0E0E6F0A3AB
:100B530008DAFAD0E0FA22E0FAA3E0FBA3E0FCA370
:100B6300E0FD22EAF0A3EBF0A3ECF0A3EDF022E525
:100B7300C754F84401F5C77901222518F582E435F5
:100B830019F58322C2AF75D69F020000221208CC4A
:100B930069AF011208CC0CB0011208CC44B10112A8
:100BA30008CC62B1011208CC6358001208CC755806
:100BB300001208CCC758001208CC2859001208CCE0
:100BC300B259001208CC565A001208CCAA5A001285
:100BD30008CCC35A001208CCE95A001208CC245B93
:100BE300001208CC6D5B001208CCBE5B001208CC6F
:100BF3006E5C001208CC265D001208CCEE5D00127C
:100C030008CCCB5E001208CC515F001208CC605FA9
:100C1300001208CC6B5F001208CC7C60001208CC79
:100C23008D60001208CC1261001208CCA161001281
:100C330008CCF961001208CCC362001208CCF4623C
:100C4300001208CC3163001208CC3E63001208CCBA
:100C5300CD64001208CC3066001208CC4367001242
:100C630008CC8A69001208CC9569001208CC9F69E8
:100C7300001208CCAA69001208CCB469001208CC8F
:100C8300BE69001208CCC969001208CCD4690012ED
:100C930008CC056A001208CC296A001208CC4D6AF8
:100CA300001208CCB26A001208CCF66A001208CC13
:100CB300126B001208CC896B001208CCC16B0012B6
:100CC30008CC0D6C001208CC6A6C001208CC4C6E78
:100CD300001208CCD26E001208CCAD6F001208CC03
:100CE300AE72001208CC0373001208CC2F730012EB
:100CF30008CC7B74001208CCCB74001208CC20758E
:100D0300001208CC2176001208CCB976001208CC68
:100D13003B77001208CCDB77001208CCB720001217
:100D230008CCF020001208CCCA22001208CC0923F8
:100D3300001208CC5323001208CCF823001208CC6D
:100D43005724001208CC8B24001208CCF82400127C
:100D530008CC1526001208CC1D27001208CCD82772
:100D6300001208CC1A2B001208CCC32B001208CC9B
:100D7300B72C001208CC182D001208CC352E001207
:100D830008CC4230001208CCF930001208CC0331F1
:100D9300001208CC3631001208CCFD31001208CC09
:100DA3009832001208CCFD32001208CC2633001210
:100DB30008CC4833001208CC7735001208CC4E36E5
:100DC300001208CC9236001208CCFF36001208CC71
:100DD300BA37001208CCEC37001208CC30380012B6
:100DE30008CC6338001208CCB838001208CC0D398F
:100DF300001208CCA139001208CC033A001208CC27
:100E03006B3A001208CC143C001208CCFC3C0012D4
:100E130008CC3E3E001208CC6C40001208CC2C419A
:100E2300001208CC5B43001208CCFE43001208CC2E
:100E33003C44001208CCE845001208CCFC450012E3
:100E430008CC0646001208CC3046001208CC3C46BB
:100E5300001208CC5B46001208CC1247001208CCE3
:100E63005147001208CC5B47001208CC0F48001210
:100E730008CC0E49001208CC074A001208CCA44A39
:100E8300001208CC464B001208CC5D4B001208CC74
:100E9300944B001208CCB24B001208CCF64B001254
:100EA30008CC1B4C001208CC014D001208CC6D4D30
:100EB300001208CCE74D001208CCF64E001208CC05
:100EC3003550001208CC9750001208CC5151001233
:100ED30008CC7451001208CC4852001208CC93522B
:100EE300001208CCD552001208CC3F53001208CC94
:100EF3006D53001208CCA653001208CCCB5300123A
:100F030008CC5354001208CC7656001208CCD556A0
:100F1300001208CC6957001208CCD557001208CC30
:100F23002958001208CCD19F031208CC10A0031239
:100F330008CCA7B2011208CC01B3011208CC5DB3EF
:100F4300011208CCA9B3011208CCC4B3011208CC16
:100F5300F5B3011208CC12B4011208CC1EB401126D
:100F630008CC92B5011208CCABB5011208CC12B66D
:100F7300011208CC25B6011208CC33B6011208CCF5
:100F8300E7B6011208CCCBB7011208CCD1B80112D5
:100F930008CC57B9011208CC61B9011208CCCEB9FB
:100FA300011208CCE5B9011208CC17BA011208CC1A
:100FB30050BA011208CC7ABA011208CCDBBA01127A
:100FC30008CCFBBA011208CC19BB011208CC5FBBD9
:100FD300011208CC85BC011208CCD2BC011208CC8A
:100FE30001BD011208CC77BD011208CC9FBD0112CF
:100FF30008CCD8BD011208CCE6BD011208CC3EBE18
:10100300011208CC8DBE011208CCCCBE011208CC53
:10101300FCBE011208CC28BF011208CC33BF011259
:1010230008CC51BF011208CC13C0011208CC1DC05B
:10103300011208CC58C0011208CC6EC0011208CCB2
:1010430077C0011208CCCCC0011208CCE0C0011259
:1010530008CCDDC1011208CCF0C1011208CC05C2D5
:10106300011208CCA7C2011208CC2AC3011208CC72
:10107300E8C3011208CCF3C3011208CC19C501124D
:1010830008CC35C5011208CC87C5011208CCC6C5EA
:10109300011208CCDBC5011208CC1DC6011208CC15
:1010A3006AC8011208CCE8C8011208CC5BC9011256
:1010B30008CC7DCB011208CC95CB011208CC98CB80
:1010C300011208CCA4CB011208CCB8CB011208CC76
:1010D300C0CB011208CCF3CB011208CCA3CC011274
:1010E30008CC19CD011208CC8CCD011208CC40CE0E
:1010F300011208CCF5CE011208CC14CF011208CC92
:10110300B4CF011208CCC0CF011208CCEBCF01122F
:1011130008CCEECF011208CC58D0011208CC80D1F4
:10112300011208CC58D2011208CCE3D2011208CC28
:10113300FCD3011208CCB9D4011208CCF2D40112A9
:1011430008CC23D5011208CCC3D5011208CCF3D5A2
:10115300011208CCCED6011208CC67D7011208CCF5
:10116300F2D7011208CCA3D8011208CC25D9011259
:1011730008CC57D9011208CC98D9011208CC86B7EC
:10118300021208CCEBB7021208CC23B8021208CC27
:1011930072B8021208CC94BA021208CC77BC0212BD
:1011A30008CCD5BF021208CC0AC0021208CC2CC04E
:1011B300021208CC91C0021208CCC7C0021208CC9C
:1011C300EAC0021208CC17C1021208CC73C1021282
:1011D30008CC74AB021208CCF5AB021208CC2BACD2
:1011E300021208CC92AC021208CC05AE021208CC53
:1011F30021AE021208CC66AE021208CCF4AE021283
:1012030008CC4DAF021208CC81B0021208CC4FB10A
:10121300021208CCC7B1021208CC43B2021208CCA6
:1012230085B2021208CCC6B2021208CCFAB302127B
:1012330008CCF8B4021208CC23B5021208CC6EB560
:10124300021208CCB5B5021208CC47B6021208CC7C
:1012530000B7021208CCDA9E031208CCF59E0312E3
:1012630008CC0F9F031208CC5E97031208CC6F972C
:10127300031208CCC097031208CC0598031208CCBC
:10128300AF98031208CC4E9C031208CC2A94031285
:1012930008CC8295031208CCBFC1021208CC66C2E7
:1012A300021208CC86C2021208CCADC2021208CCCC
:1012B300C1C2021208CC19C3021208CC49C30212DC
:1012C30008CCCAC4021208CC70C5021208CC52C69C
:1012D300021208CCA3C6021208CCE6C6021208CC3E
:1012E30029C7021208CC8FC7021208CCB0C702125A
:1012F30008CC3CC8021208CC64C8021208CCD8C877
:10130300021208CC86CA021208CC60CB021208CCA7
:10131300BACB021208CCB890031208CCD9900312AE
:1013230008CC0A92031208CC3492031208CC008032
:10133300031208CC7B80031208CC8680031208CCEE
:10134300A780031208CC379F021208CC3A9F0212DF
:1013530008CCF49F021208CC1FA0021208CC66A08E
:10136300021208CC8BA0021208CCACA0021208CC4B
:10137300E0A0021208CC19A1021208CC42A2021268
:1013830008CC79A2021208CC99A2021208CC34A389
:10139300021208CCF9A3021208CC30A4021208CC22
:1013A300A5A5021208CC48A6021208CCF8A2011285
:1013B30008CC6AA7021208CCBEA7021208CC84A8E4
:1013C300021208CCB2A8021208CC47AA021208CC17
:1013D300C8AA021208CCFBAA021208CC8E7800120B
:1013E30008CC9878001208CCE478001208CC527923
:1013F300001208CC7379001208CC8A79001208CC49
:101403003A7A001208CC16AE011208CC967A001272
:1014130008CCBF7A001208CC267B001208CCB77B1D
:10142300001208CCF97B001208CC437C001208CCD4
:10143300A27C001208CC337D001208CC727D00120E
:1014430008CCB17D001208CCE67D001208CCF87DF3
:10145300001208CC0A7E001208CC297E001208CCA8
:10146300327E001208CCE87E001208CC287F0012DE
:1014730008CC44E9021208CC17EA021208CC31EA7C
:10148300021208CC42EA021208CC57EC021208CC32
:1014930076EC021208CC908C031208CCC68C031293
:1014A30008CC0F8D031208CC5F8E031208CCCDD964
:1014B300011208CC0CDB011208CC48DB011208CC6A
:1014C30007DD011208CC30DD011208CCC3DF0112A5
:1014D30008CC07E0011208CC90E1011208CC28E205
:1014E300011208CC90E2011208CC31E3011208CCBE
:1014F30073E3011208CCB3E3011208CC3EE50112F9
:1015030008CCAEE6011208CCD3E8011208CC01E9FD
:10151300011208CC28E9011208CC31E9011208CCE8
:101523008CE9011208CC1FEA011208CC3DED01122F
:1015330008CCBEED011208CCC7A0031208CC46F5B7
:10154300021208CC59F5021208CCF6F5021208CCA7
:1015530031F6021208CC4CF6021208CC71F60212D4
:1015630008CCB6F6021208CCE7F6021208CC18F73C
:10157300021208CC9EF8021208CC869F031208CCF4
:10158300517F001208CC877F001208CCA37F001282
:1015930008CCE57F001208CCF57F001208CC6F90D1
:1015A300021208CCC490021208CC6E91021208CC2D
:1015B3001692021208CC7392021208CCCC92021239
:1015C30008CC9694021208CC1395021208CC3D95D0
:1015D300021208CCFA96021208CC1597021208CC14
:1015E3006497021208CC7A97021208CC87970212EA
:1015F30008CCB797021208CCCD97021208CCDC971F
:10160300021208CC3598021208CC8F98021208CC2B
:10161300E198021208CCEB99021208CC699C0212E1
:1016230008CC039D021208CC4E9D021208CCB29D39
:10163300021208CCCF9D021208CCD29D021208CC14
:10164300D59D021208CC489E021208CC639E02125A
:1016530008CC8F9E021208CCCA9E021208CCCD9EE3
:10166300021208CCE09E021208CC079F021208CC9B
:10167300E19D031208CCED9D031208CC279E0312B3
:1016830008CC0080021208CC2B80021208CCF78011
:10169300021208CC7C81021208CCE581021208CC2C
:1016A3003182021208CCB082021208CC42830212A9
:1016B30008CCD283021208CC1484021208CC80888E
:1016C300021208CC008A021208CC3F8A021208CC0C
:1016D300088B021208CCBC8B021208CC6C8D021250
:1016E30008CCF88D021208CCFA8E021208CC1BEE3D
:1016F300011208CCD5EE011208CC47EF011208CC39
:1017030056EF011208CCD0EF011208CC3FF00112C2
:1017130008CC49F1011208CC72F1011208CC12F283
:10172300011208CC60F2011208CCD0F2011208CCED
:1017330004F4011208CCE0F4011208CC51F50112B3
:1017430008CCCEF6011208CC90F7011208CC2BF886
:10175300011208CC86F8011208CCF1F8011208CC6A
:10176300F5F9011208CCB6FB011208CC55FC0112A5
:1017730008CCC7FC011208CC84FD011208CCEBA0F5
:10178300031208CCEDA0031208CC3A8A031208CC4A
:101793006B8A031208CC258B031208CC8B8B0312A4
:1017A30008CCFC8B031208CCE4DA021208CC87DDE8
:1017B300021208CC59DF021208CC0FD5021208CC52
:1017C3008DD5021208CC46D6021208CCD3D602120B
:1017D30008CCC4D7021208CC9ED8021208CC20D958
:1017E300021208CC54D9021208CCCFDA021208CC68
:1017F3000EFF021208CC1FFF021208CCBFFF021219
:1018030008CC7292031208CC8092031208CCECFF2E
:10181300011208CC649E031208CC749E031208CCF8
:10182300899E031208CCD19E031208CC4C9B031251
:1018330008CCD19B031208CC359C031208CCFDFFC6
:10184300011208CCF2A0031208CCF5A0031208CCB5
:10185300F8A0031208CCFBA0031208CCABF80212C9
:1018630008CCB9F8021208CC33F9021208CC0BFAEF
:10187300021208CC96FB021208CCC28E031208CCCB
:101883001B8F031208CCC68F031208CCDE8F031202
:1018930008CC5A90031208CC7090031208CC7E90A7
:1018A300031208CCFADF021208CC4FE0021208CC74
:1018B3004BE2021208CC7DE2021208CC9FE2021234
:1018C30008CCB8E2021208CCD1E2021208CCDBE366
:1018D300021208CC76E4021208CCC698031208CC94
:1018E300EB98031208CCFB98031208CC2E99031231
:1018F30008CC5F99031208CC9499031208CCF6998B
:10190300031208CC059A031208CC0F9A031208CCD1
:10191300E982031208CC0F83031208CC4C83031211
:1019230008CC5B83031208CC7A83031208CCE283CE
:10193300031208CCEB83031208CC4A84031208CCAD
:101943006E84031208CC2D85031208CC3A8503124A
:1019530008CC4B85031208CC5EA0031208CC7BA0F5
:10196300031208CC15EE021208CC73EF021208CC56
:1019730080EF021208CC93EF021208CCB2EF0212EE
:1019830008CCC8EF021208CCDCEF021208CC5FF0DF
:10199300021208CCC2F0021208CC49F1021208CCA0
:1019A300A7F1021208CCB7F1021208CC489D03122A
:1019B30008CC6C9D031208CC949D031208CCBC9DEB
:1019C300031208CC7985031208CCA085031208CC36
:1019D300C185031208CC2686031208CCDF870312C5
:1019E30008CCF887031208CC0488031208CC1888A3
:1019F300031208CC3688031208CC4088031208CCA3
:101A03004A88031208CC5D88031208CCAE880312FF
:101A130008CCE788031208CC1689031208CC648922
:101A2300031208CCB389031208CCCE89031208CC65
:101A3300D889031208CCE989031208CC2F8A031230
:101A430008CC359F031208CCCECB021208CCFACBBC
:101A5300021208CC16CC021208CC29CC021208CCF4
:101A63003FCC021208CCABCC021208CCDECC021263
:101A730008CC0DD1021208CC33D2021208CC66D2A4
:101A8300021208CCB2D2021208CCEBD3021208CC59
:101A930013D4021208CC28D4021208CC38D4021270
:101AA30008CC7CD4021208CCD1D4021208CCE1D4E5
:101AB300021208CC199A031208CC349A031208CCE8
:101AC3005D9A031208CC779A031208CC9C9A0312EE
:101AD30008CCBB9A031208CCD39A031208CC019BFF
:101AE300031208CC1B9B031208CC1AA0031208CCC8
:101AF300C6F1021208CCCDF1021208CCD9F20212BF
:101B030008CC09F3021208CC2FF3021208CC52F3CB
:101B1300021208CC74F3021208CCAEF3021208CC02
:101B230014F4021208CC4DF4021208CC99F40212F8
:101B330008CCC6F4021208CCE6F4021208CCD19504
:101B4300031208CCE395031208CCCE96031208CCFB
:101B53005B97031208CCD9FE011208CC4BFF01128C
:101B630008CC89FF011208CCCAFF011208CCFBFB89
:101B7300021208CC17FC021208CC66FC021208CC35
:101B830082FC021208CCB3FC021208CCC3FC021282
:101B930008CCAFFD021208CCB9FD021208CCC6FD79
:101BA300021208CCD6FE021208CCEAFE021208CCBE
:101BB300F3FE021208CCB5E4021208CCD5E80212F7
:101BC30008CCDAE8021208CC9AA0031208CCD9FF99
:101BD300021208CC49A1011208CC049F011208CCBF
:101BE3007B9E011208CC229E011208CCB69D0112E5
:101BF30008CC8D9D011208CC809B011208CC4C9B14
:101C0300011208CC199B011208CCFD9A011208CCD1
:101C1300199A011208CCD199011208CC0698011225
:101C230008CC8697011208CC8397011208CC9D96A5
:101C3300011208CC6B96011208CCA895011208CCAE
:101C4300D393011208CC8993011208CC5B93011240
:101C530008CC5893011208CCC7AB011208CC62AB75
:101C6300011208CC1AAB011208CC8DAA011208CCC0
:101C730080AA011208CC4593011208CCDD9201120F
:101C830008CCCC92011208CCB191011208CC7EA7EA
:101C9300011208CC4791011208CC0A91011208CC19
:101CA300AB90011208CC7A90011208CCD0A4011297
:101CB30008CC437A001208CC358D011208CC268C4F
:101CC300011208CCB58B011208CC7A8B011208CC17
:101CD300458B011208CC398B011208CC998A011269
:101CE30008CCE089011208CCB387011208CC3F85E8
:101CF300011208CCFD84011208CCC883011208CC60
:101D03007D83011208CCAF82011208CC0682011236
:101D130008CCA4A3011208CCDC81011208CCA28157
:101D2300011208CC41A70200000080FBE47300010C
:101D33003636010100010201000103010001040123
:101D4300060605020000070100340801000F09041C
:101D530001010D0100FF0E08000017020000190128
:101D630000FF1A0100011B0100FE1C0100081D02F7
:101D730000001F01000120010001210200002301D6
:101D8300000F240200002601000127010008280299
:101D930000FF2A0100072B0102402C0100002D0146
:101DA30000012E0100012F0100FF30010B1C31083F
:101DB30000003A0100083B01000F2F01000003025D
:101DC300710230016002110270020102020202027A
:101DD3008002100261023A00410063027302720240
:101DE30062024302000213023800000200020402EE
:101DF3001202000200020002000204020402370081
:101E030037003C024402000239000002000265026E
:101E130000023502810200020502820283020002EF
:101E230003007100300160001100700031022003D3
:101E33005004800010006100000014006300730070
:101E4300720062004300000013000600000000005F
:101E53000400120000000000000000000400040061
:101E6300370037003C02440000000000000000007F
:101E730065000000350081000000050000008300BC
:101E83000000010171010101010111010101310191
:101E9300010101018001100161013B001400630194
:101EA30073017201620143010001130106013D0147
:101EB30035000401120100010001000100010401C9
:101EC3000401330133013C014401320136000001B6
:101ED3000001650100013500810100010501820156
:101EE30083010001010371030103010301030103E2
:101EF3000103220302030103100300030003000391
:101F0300000300030003000342030003240306034A
:101F13000003000304031203250323032503230300
:101F2300040304030003000300034403000300034A
:101F33002303000365032100350381030003050325
:101F430000030003000336000100060000000F0039
:101F530000000000000000000000000003FFFF007D
:101F6300000403FFFF0000FFFF0FF4010005C4049A
:101F73000320000100030B00000000000000000329
:101F8300010F01002A1702009A160300A01604008D
:101F9300A6160500AC160600B8161100D0161400DC
:101FA300D6161500CA16FFFF0000CE0FFE0FD40F82
:101FB300DA0FF80FEC0FE60F04100A1010101C10C4
:101FC300E00FC80FC20F03EAF5E5D5D5C5B5A59552
:101FD30095858575756565555545453535252515AE
:101FE300150584000400B80B83000200CB0B010429
:101FF3000200CE0B0000000000000AA00D026A0DD3
:10200300057C0D07700D0C4C0D0D5E0DFF000000DF
:10201300160F00000B150B020002220F3200000600
:10202300B810CA10D010980FD610920F9E0F181127
:1020330036113C111E112A11241100034948424D47
:1020430018172505020C0E020B040B0A0708000FD4
:10205300000119161816161523030000383C3E36E6
:102063003B3B352B432C303017181921301B1D1FD8
:1020730030303016181920231A1C1E30F20F161098
:102083003011221028100C11DC10E210EE10E810B1
:1020930002040201010101090200BE040AE8030E61
:1020A3000004001500280004050A030908FF1E1E8A
:1020B3000F040C0C74F712048CE99003B0F0900336
:1020C30065E4F0121B3E9003B5E4F0A3F09003B176
:1020D300F0A3F0120ED8121B44900334E4F0A3F0E3
:1020E3009020B393FA7902121BA4024D6874F21282
:1020F300048CEAFEEBFF548060699003B0E0F912B0
:1021030014188A088B09EA4509604F7C0080010C8A
:10211300EC75F003A4F8A9F074FD28F582741F3957
:10212300F583E493F4602CE493F88508828B83E0D1
:102133006870DCAA08EC75F003A4F874FE28F58235
:10214300741F39F583E493C0E0740193F583D0825F
:10215300121D2FAA08AB0912140CEEFAEF6480FBD0
:102163000222BDEF5420601D120DFA8A088B09EA82
:102173004509600A120D5EAA08AB0912140CEEFAA7
:10218300EF642080DAEEA2E0501A90036AE0640F55
:10219300700B7900120D28E960031222C0EE64016E
:1021A300FAEF80BB5420700302228B750C001237A8
:1021B300AD8B09EA450970107C027D007A207B0013
:1021C3009003B0E0F912155C7C0079047A007B007F
:1021D300120DD68A088B098018850882850983A386
:1021E300A3A3A3A3A3A3A3A37401F0850A08850B48
:1021F30009E5084509606D7C007904AA08AB09125A
:102203000DD68A0A8B0B750C01E5082404F8E50941
:1022130012355124FFF0A3E034FF12582070CC850F
:102223000882850983A3A3A3A3A3A3A3A3A3A3E0D2
:10223300640170A5850882850983A3A3A3A3A3A32F
:10224300E054047094850882850983A3A3A3A3A300
:10225300A3A3A3A37406F07AB78508828509831222
:1022630023EC8087120DA67C0079017A007B001293
:102273000DD68B09EA45097009E50C70057A201221
:102283004707EE64200221A3EF5402600B120ED223
:10229300EEFAEF6402022162EF5404601912489EC1
:1022A3001247BE7901900363124B22120C6EEEFAB1
:1022B300EF64040221627A007B000224F3900BAEE8
:1022C300122BAA120D4022C082C08374EA12099510
:1022D300851882851983AA82AB83794B121B7A7482
:1022E30008120B7D7402F07409120B7DAA82AB8372
:1022F3007950121B7A7413120B7DE4124CF1121BEA
:10230300987416023CCB74F712048C74E11209958D
:10231300EAFEEBFFEE4F6033851882851983AC82AA
:10232300AD83120E1E7406120B7DE0601E7417122D
:102333000B7DE0FD7401120B7DE0FCEEFAEFFB79FF
:1023430000120B9CE9600479A480027900024D63BA
:1023530074F612048CEAFEEBFF8E828F83A3A3A391
:10236300A3A3A3E05440601B1251E01224BA6006F9
:102373007AFF7BFF801A8E828F83123957FAA3E08C
:10238300FB8003120E4274FE6A700374FF6B60419C
:102393001251E012474B120E96E98E828F8360062C
:1023A3001223E5E480051223E57401F07C2E7D0DF4
:1023B3008E828F83124B22121B9EE9F5087015EE55
:1023C3004F60097901EEFAEFFB120DB2A90802473B
:1023D3007C7508CDAA088E828F831223ECE960DF17
:1023E30080EAE0240D123E2622E0240C123E26E071
:1023F300F9120D3A2274F612048CE9FEEAFF7A0F01
:102403007B00121CB2EA4B60198A828B83740CF036
:10241300EEA3A3F0EF8A828B83A3F01247A7790080
:10242300802FEEF9120DDC8A088B09A808A909E8A8
:1024330049601C88828983A3A3A3A3A3A3A3A3A303
:102443007406125447E0F9120CF2EEF9120DB87942
:102453001002477CC082C08390036AE0640F70144B
:10246300EA4B6010900365E064086005E064047063
:102473000312247A023CF5EAFCEBFD7A017B00901F
:1024830003B0E0F912155622C082C0837900EA2412
:102493001DF582EB12395424FD600B14600824FDF2
:1024A300600424FD700109023CF58E828F83A3A38F
:1024B300A3A3A3A3A3A3A31224BE2212399CFB129A
:1024C3000E96E9228E828F83A3A3A3A3A3A3A3A320
:1024D300A31224BE6402228E828F83A3A3A3A3A389
:1024E300A3A3A3A3123CEC900356E068221209179E
:1024F3007F060206EB74F412048C74FD1209958AAC
:10250300088B098A828B83A3A3E0F9120DDC8A0A64
:102513008B0BAE0AAF0BEE4F70030225FF850882CB
:10252300850983A3E064F16030850882850983A36C
:10253300E064CD6024850882850983A3E0641A6082
:1025430018850882850983A3E064E9600C85088205
:10255300850983A3E064E170087900120DB2E97084
:102563006C850882850983A3E0C0E07402120B7DA9
:10257300D0E0123CD0EEF0A3EF123018851882851C
:102583001983AA82AB837005120C568003120E7E48
:102593007402120B7DE064E970338E828F831226FE
:1025A3000B750A01780A120908750AE9780A1209F3
:1025B30008E508240CF582E509122AFA122FF5FC26
:1025C300A3E0FD8A828B8312300F1209178E828F4C
:1025D30083A3A3A3A3A3A3A3A3A3E0640270108E66
:1025E300828F83A3A3A3A3A3A3A3A3A37406F085AA
:1025F3000882850983A3A3E0F9120DB8120DA690F2
:102603000BB21222C3022BAFE0F8A3E0F9E8FAE918
:10261300FB2274F412048CEAFEEBFF7508008E8231
:102623008F83A3A3A3A3A3E060427508088E828FC0
:1026330083A3A3A3A3A3A3A3A3123BFF8B0BEA45EB
:102643000B601075082C8E828F83A3A3A3A3A3E032
:10265300D2E0F08E828F83A3A3A3A3A3E0540364E9
:102663000160030226FE4308110226FEEE2418121F
:102673002BBC6033EE241A122BBC700F1224DA70B9
:1026830003A3E06970757508228070EE241BF58240
:10269300EF122703241AF582EF123020EE241912C9
:1026A3005214120CE080541224C7700375080112EF
:1026B30024DA7003A3E0697006E508D2E1F508E5C2
:1026C3000860158E828F83A3A3E07006E508D2E528
:1026D3008004E508D2E6F5081224AD64017006E52E
:1026E30008D2E0F5088E828F83A3A3E0600D122742
:1026F3001164016006E508C2E0F508A908022BB4DD
:1027030012394212270A22E0FCA3E0FDEE2212391D
:102713003C123974F9120E84E922C082C083790114
:102723008A828B83A3A3E0C394024001198A828B1C
:1027330083A3A3A3A3E0C39402400279008A828BFC
:1027430083A3A3A3A3A3A3A3A3A3E064F87003A3F6
:10275300E0F460458A828B83A3A3A3A3A3A3A3A3CB
:10276300A3E064F97003A3E0F4602E8A828B83A351
:10277300A3A3A3A3A3A3A3A3E064FA7003A3E0F416
:1027830060178A828B83A3A3A3A3A3A3A3A3A3E01A
:1027930064FB7003A3E0F4700279008A828B83A345
:1027A300A3A3E0F8900353E068600279009020B29D
:1027B300E493C394805013EA24111227D09020B2DB
:1027C300E493C333C39850027900023CF5F582EBDE
:1027D3001247D7F82274F012048C74DE120995EABA
:1027E300FEEBFF8E828F83A3A3A3A3E0600E900B67
:1027F300B01247736006900BB01222C37403120B1E
:102803007DAC82AD838E828F83A3A3A31247F5127F
:10281300502EE9600F7403120B7DAA82AB83120D55
:1028230058E970087901121B50022AEFEE241B129B
:1028330039477410120B7D1247BE7409120B7DE0E9
:102843006021741A120B7DE0FD7404120B7DE0FC11
:102853008E828F83124B207901120B9CE9600479DD
:102863000280C37403120B7DAA82AB83120D52E95B
:10287300F50A7409120B7DE0702A90034DE0602481
:102883007422550A6422601C7442550A644270CF54
:102893007420120B7D122B05600A7420120B7D121B
:1028A3002AFE70BBE9A2E650417403120B7DAA8293
:1028B300AB83120D46E970030228277420120B7DA7
:1028C3001239576403700F7420120B7DA3124765EE
:1028D300A3E0640D60147403120B7DAA82AB831210
:1028E3000EA8E964017003022AEFEE242C122AF7E2
:1028F300122E2B7003A3E069701C75080078081270
:1029030009087808120908EE242E125214122B0B10
:1029130012300F1209177409120B7DE0700302299C
:10292300CC122B0B124B22120EF68A088B09EA45A6
:10293300097003022A697404120B7DE0F88E828FFA
:1029430083A3A3E028F8A3E03400F9E8240DF5827B
:10295300E91227D38A828B83A3A3A3E068601CE8D0
:102963008A828B83A3A3A3F0908165120B5A8508F7
:1029730082850983A3A3A3A3120B667904E9120B2F
:102983007D12500B2AF8A3E034008882F583A3AAB2
:1029930082AB831213FA8A0C8B0D8C0E8D0F850874
:1029A30082850983A3A3A3A3780C1208854003029D
:1029B3002AEF908169780C120A3A85088285098387
:1029C300A3A3A3A3780C120B3E900365E0640460F9
:1029D30008E064096003022AEFE50AA2E540030266
:1029E3002AA7EE242E122BBC851882851983F0EEBC
:1029F300242F122BBCC0E07401120B7DD0E0F0EE4B
:102A03002430122BBCC0E07402120B7DD0E0F074B2
:102A130014120B7DE064017027740E120B7D1239C2
:102A23004DEE2412122BBC687003A3E0697011747D
:102A33000C120B7D1224D470077414120B7DE4F076
:102A4300EE2424122AF71207707404120B7DAC8251
:102A5300AD837407120B7DAA82AB83120C5C7404E2
:102A6300120917022AEF9003AAE064016003022906
:102A7300CC7420120B7D122B057009E50AA2E650D7
:102A8300030229CC7410120B7DE0F47003A3E0F46D
:102A9300605AEEFCEFFD7403120B7DAA82AB831226
:102AA3000D648048A2E650447420120B7D124B3112
:102AB300701A741A120B7DE0640270307403120BE7
:102AC3007DAA82AB837900120E7280207420120BD0
:102AD3007D122AFE7016741A120B7DE06404700CCA
:102AE3007403120B7DAA82AB83120E6C7422024E06
:102AF300DDEE240BF582EF123942221251F2E0642B
:102B03000722123974640622EE242A12393F12274F
:102B13000A241212393F2274F412048CEAFEEBFFEA
:102B23008C088D0990058EE0600F1224DA7003A3E0
:102B3300E0697005120CCE804F7900124B15120C10
:102B4300FE8A828B83E58245836035A3A3A3A3A377
:102B5300A3E05418602AE508241BF582E509122A2C
:102B6300FA1207741231EB122AFA120774EE2418C0
:102B7300125214122B8D120D1074041209178008AF
:102B83007900122B8D120CD480278E828F83A3A3FE
:102B9300A3A3A3A3A3A3A312270A240BF582EF12D3
:102BA3002BA6223400F58312399CFB2274031209ED
:102BB300177F040206EBEE2417F582EF1247D722A4
:102BC30074F712048C74F7120995EAFEEBFF900375
:102BD30065E06403600DE064016008E0640960037C
:102BE300022CA58E828F83A3E06003022C847C00D9
:102BF3007D007A027B00121B4AEE2402FAEF1235A3
:102C03005812394D9003561247BE7953121B8079DF
:102C130000122CAAE064096009900363124B22128C
:102C23000EF0851882851983740112479490036509
:102C33007404F07401120B7DAA82AB83794A121BD0
:102C43007A7401120B7DAC82AD837A5B7B03121B1A
:102C5300689003561250247A037B00121B4A900398
:102C6300591250247A047B00121B4A900350E0A2AD
:102C7300E35004D2F08002C2F01247811222C080D6
:102C83001E8E828F83A3AE82AF83FC7D007A037B8B
:102C930010121B4A8E828F83E0F9122CAAE4F012E1
:102CA3000D8E7409024D65900363122BAA120C6EEC
:102CB30090036522C082C083900334124773701F50
:102CC300900365E014600924FC600A14600C800F13
:102CD30090033C8032900338802D90033A8028E89B
:102CE300496008900335122FEF700C8A828B83A3FF
:102CF300E0F9120C62801B900335123287700512C3
:102D03000EC6800E9003D2124773600612476512F7
:102D13001D2F023CF574F412048C74FB1209958A7E
:102D2300088B097A0F7B00121CB28A0A8B0BAE0A3E
:102D3300AF0BEE4F7003022E1F8E828F83124CEF68
:102D43007950121B7A850882850983A3E060030208
:102D53002E07900363E0F47003A3E0F46034900360
:102D630063E064FE7003A3E0F4602785188285198D
:102D730083122E2B7003A3E06960178508828509EF
:102D830083A374EA1230257A637B037950121B8084
:102D930080728518828519831251D31247BE7A56E1
:102DA3007B037953121B7A9003561247EF1247BEE7
:102DB3007A597B03794B121B7A7A587B0379E11298
:102DC3001B7A90036AE0C3940F5021900358E0C02C
:102DD300E07402120B7DD0E0F07404120B7D7401D9
:102DE300F004120B7DAA82AB83121B92750A007842
:102DF3000A120908780A120908900BD2E0F9123076
:102E030006120917850882850983122E24A3F090E0
:102E130003657403F0EEFAEFFB1247A77405022B68
:102E2300B1A3E08E828F83221251D7E06822123E33
:102E33002D2274F512048C74D81209958A088B0913
:102E43008A828B83A3A3A31239797415120B7DACE9
:102E530082AD838A828B83A3A3A3A3A3A3A3A31279
:102E63002FF5FAA3E0FB120D947415120B7DE0709D
:102E73006B850882850983A3A3A3A3A3A3A3A3E0CC
:102E8300C3940B40578E828F83A3A3A3A3A3A3A3AF
:102E9300A3E064027046EE240B122BBCF4703D9049
:102EA3000365E06402603AE064066035900334121F
:102EB30047736005122FEF604F900365E06408606D
:102EC30005E0640470167417120B7DE0F9741C128C
:102ED3000B7DAC82AD83124B15120D9A74280256EA
:102EE300CD900334124773701F75080078081209D8
:102EF300087808120908EE2410122AF712522C122D
:102F0300364012300F1209178E828F83124A9112A4
:102F1300356A12394D7402120B7D1247BEEE240D31
:102F2300122BBCC0E07404120B7DD0E0123018F5F4
:102F330008A3E0F509740F7808120B2F7405120B20
:102F43007DE508F07419120B7DE0C0E07406120BE6
:102F53007DD0E0F0741B120B7DE0C0E07407120B10
:102F63007DD0E0F07416120B7DE0C0E07409120B03
:102F73007DD0E0F07417120B7DE0C0E07408120BF3
:102F83007DD0E0F0EE2410122BBCC0E0740A120BCB
:102F93007DD0E0F0741A120B7DE0C0E0740B120BCD
:102FA3007DD0E0F07427120B7DE0C0E0740C120BAF
:102FB3007DD0E0F0741C120B7DA982AA8389088A54
:102FC30009750A0078081209007C087D0074101244
:102FD3000B7DAA82AB8312432212091785188285BF
:102FE3001983AA82AB83120C68022EDF12328D641E
:102FF3000122E0F98A828B83A3A3A3A3A3A3A3A3A0
:10300300A3E022900363125028900359122BAA12B3
:103013000E54740222F0EE240B1247D4221247D727
:10302300FA22F07A567B03795312303022121B8036
:103033007A597B03794B121B8022F0125237227488
:10304300F212048C74F8120995EAFEEBFF8C0A8DD8
:103053000B890C851882851983AC82AD83758381B6
:1030630075820A7408120845F50DEEFCEFFD85180C
:1030730082851983AA82AB831249F27003750D010D
:103083009003B1803BEEFCEFFDE508240BFAE50964
:1030930034001249F1601E850882850983A3A3E0E9
:1030A300650C7011850882850983E0650A7004A3A5
:1030B300E0650B6038E5082414F582E509122AFA65
:1030C300123562E50845096024E50DA2E040B685A6
:1030D3000882850983E0650A7004A3E0650B70D557
:1030E300850882850983A3A3E0650C70C8AA08AB91
:1030F3000974080224F0C082C0839003B1023CF239
:1031030074F712048C9003B112399C8012EA2414D0
:10311300F582EB122AFA1239791214A8EEFAEFFBB0
:10312300EA4B70E99003B1E4F0A3F0024D687F0726
:103133000206EB74F112048CEAFEEBFF890A8C0899
:103143008D098E828F83E08C828D83123C09AE823F
:10315300AF83E01243E2124353C41243E21231F449
:10316300E054038C828D83124351A2E2E4338C82B8
:103173008D83124350131313541F1243E212434F10
:10318300A2E7E4338C828D83A3A3A3A31231F48E2D
:103193000C8F0D750E00780C1209007C087D00E57C
:1031A300082407124F971209171250028E0C8F0D25
:1031B300780C1209007C037D00E508240F124F9759
:1031C300120917E50AC3940F40148E828F83A3A3B9
:1031D300A3E0C0E01231EB122AFAD0E080061231EC
:1031E300EB12543BF0023131E5082412F582E50974
:1031F30022A3A3123C0D0EAF832274F412048C7429
:10320300F9120995EAFEEBFF89089003341247731C
:10321300600E1232877009EEFAEFFB120EC0805F68
:10322300900363E06E7003A3E06F7053740165084D
:1032330060097A777B031249F270447A007B0212A9
:1032430037B18B0BEA450B7036900366120B5A8528
:103253001882851983120B6690036CE0C0E0740436
:10326300120B7DD0E0F07405120B7D7401F074062F
:10327300120B7D124CEF120C32E9609B120C387466
:1032830007022BB112328D6402221251F3A3A3A3BE
:10329300A3A3A3E02274F512048C8A088B098A8203
:1032A3008B83A3AE82AF83E0F9120C868E828F8369
:1032B300E064EB600C850882850983A3E064E17018
:1032C30009850882850983A3E4F01222C0750A01E7
:1032D300780A120908850882850983A3E0F508782E
:1032E300081209087900123006120917120DA602F6
:1032F30056D0EAF0A3EBF0023CF574F612048C907E
:1033030003B4E0701B7C0079017A007B00120DD6B8
:10331300EA4B600C8A828B831247736003120D346D
:1033230002477CC082C083123799401079FF120D87
:10333300D0E9F89020B6E493C39850047901800251
:103343007900023CF574F012048C8A088B09890B0E
:10335300750C008A828B83A3A3A3A3A3A3A3A3E0D7
:10336300F9120DDC8A0E8B0FAE0EAF0F750A01EE4C
:103373004F6003023426850882850983A3A3A3A390
:10338300A3A3125024850882850983A3A3A3A3A31F
:10339300A3A3124122124B22120DC48A0C8B0DAE31
:1033A3000CAF0DEE4F70030235498E828F83A3A3BA
:1033B300A3A3E4F0A3F0E508240B123555E0C0E025
:1033C300122AF4D0E0F0120E9CEE240CF582EF12D8
:1033D3004747E508240EF582E50912394AEE240E23
:1033E300F582EF1247BB750C01EE2406F8EF123598
:1033F30051547FF0A3E054FC125289E0540460035B
:103403000234AC900BB612411374077808120A60A9
:103413008E828F83A3A3A3A3A3A3E04508F0A3E015
:103423004509F08E828F83A3A3A3A312356074078B
:103433007808120B2FE5085407F508E50B607A8E20
:10344300828F83A3A3A3A3A3A3A3A3A3740212435F
:1034530054240D123E22E0A2E2500B900351124776
:10346300EFA3A31247BEE508700302351EEE240640
:10347300F8EF3400F9E8FAE9FB8A828B83E0547FA2
:10348300FCA3E054FCFDE50824FFF508E434FFF554
:103493000974077808120A60EC4508F8ED4509F944
:1034A3008A828B831247BE80728E828F83A3A3A3EB
:1034B300A3A3A3E04480023425E5087005750A0040
:1034C30080598E828F83A3A3A3A3A3A3E054206078
:1034D30012121400EA547F245F8E828F83A3A3A366
:1034E300A380238E828F83A3A3A3A3A3A3E054105B
:1034F300600A121400EA540F240A80DD8E828F833F
:10350300A3A3A3A37401F0A3E412356A74041237CE
:10351300A88B09EA4509700312473AE50CA2E0506B
:10352300288E828F83A3A3A3A3124D55F9EEFAEF3E
:10353300FB120DCAE960121247696003123932EEB9
:10354300FAEFFB1214A8750A00A90A024EE012480A
:10355300B222FAE5093400FB8A828B8322A3A3E01B
:10356300F508A3E0F5092212356E22124FB3A3A387
:10357300A3A3A32274F412048C74F71209957E009A
:10358300120DDCEA4B70030236398A828B83A3A3C4
:10359300A3A3A3A3A3A3A3E0640660030236398A0B
:1035A300828B83A3A3A3A3A3A3A3E0FF8A828B831A
:1035B300123E35E0C0E07408120B7DD0E012396D85
:1035C3001249F81247BE120DEEEF540860668518D3
:1035D300828519831250247A007B00120DBE8B0B57
:1035E300EA450B704F900363123A5D121BAA7C00ED
:1035F3007D007A007B0080288E828F83123957F4F6
:103603007003A3E0F4602D900363123640124B2243
:103613001218AAE9641A601C7C007D00EEFAEFFB25
:10362300120DBE8A0A8B0BAE0AAF0BEE4F70C9792F
:1036330000121BB07E01EEF97409022BB11236445D
:1036430022E0FCA3E0FD8E828F8322C082C083EA46
:103653004B70059003B580068A828B83A3A312382F
:103663005D60258A828B83A3A3A3A3A3A3A3E054B2
:103673000860E5EC4D60158A828B831239576C70B4
:1036830003A3E06D70D280047A007B00023CF574E2
:10369300F212048CEAFEEBFF890A8C088D097A107A
:1036A3007B001214A2EA4B603F8A828B83A3A3A3FD
:1036B300A3A3A3A3A3A3E412395BA3E50A1251F9BD
:1036C300A31236F58A828B83A3A3A3A3E4F0A312E8
:1036D3003967A3F012508DEA240CF582EB123BF903
:1036E3001236EEA3A3F0A3F00224F3A3F08A828B95
:1036F3008322A3A3E508F0A3E509F02274F41204DE
:103703008CEAFEEBFF89088C0A8D0BEE4F60557433
:1037130001650870147901120DD0E9F89020AFE427
:1037230093C398500F7911806A74046508702F123F
:10373300379940F18E828F83A3A3A3A3A3A3A3A34B
:10374300A3E508123C09A312575A8E828F83A3A3C1
:10375300E4F0A3F09003B51247736021800D740267
:10376300650860D079C1802BE0F8A31247E8A3A3D2
:1037730012385D88828983A3A370ED80039003B51B
:10378300EEF0A3EF1237A88B0BEA450B7003124739
:103793003A7900022BB47904120DD0E9F89020ABEA
:1037A300E493C39822F01237AD227A207B00900372
:1037B300B0E0F912156822C082C083E9F87900905D
:1037C30003B5801D8A828B83A3A3A3A3A3A3A3A36F
:1037D300A3E068600574FF687001098A828B83A384
:1037E300A312385D70DE023CF574F712048CEA4BC9
:1037F30070059003B580068A828B83A3A312385D7C
:1038030060248A828B83A3A3A3A3A3A3A3A3A3E07C
:103813006970E4EC60148A828B83E0240D125015E6
:10382300A2E240D380047A007B00024D68C082C0CC
:10383300839003B580068A828B83A3A312385D60CD
:10384300128A828B83A3A3A3A3A3A3A3A3E0697078
:10385300E580047A007B00023CF5122BAAEA4B2296
:1038630074F212048C8A0A8B0B8C0C8D0D75080074
:10387300750900EA450B602E9003B580068E828F92
:1038830083A3A31238B0601EAC0CAD0DEEFAEFFBB0
:10389300850A82850B83121D2FE9640170DFEEF820
:1038A300EFF988088909AA08AB090224F3E0FEA30B
:1038B300E0FFEE4F2274F712048C9003B512394DDA
:1038C3007C007D00800DE8FCE9FD88828983A3A349
:1038D30012394DE8496030EA687002EB6970E7908D
:1038E30003B5124B22E86A7002E96B88828983A3CD
:1038F300A3700812394D9003B5800912394D8C829B
:103903008D83A3A31247BE024D6874F712048CEA99
:10391300FEEBFFEE4F6015120DE812397F12476977
:103923006003123932EEFAEFFB1214A8024D68EE6F
:10393300240C12393F12399422EE241DF582EF3400
:1039430000F58322F582EF123942123CEC22F58214
:10395300EF1239421239742212395F22125201A333
:10396300A3A3A32212395FA3A3221236EF12397441
:10397300221251ECE022E0FEA3E0FF228E828F832D
:10398300E0241C123E261239948E828F83123994BE
:103993002212399CFB1214A822E0FAA3E022C0826F
:1039A300C083EAFCEBFDEC4D700479058044EC2404
:1039B300FBF582ED34FF12477170071239F8E0F41A
:1039C300600512140C80E39003B0E0C0E01239F8F4
:1039D300D0E0F09020ACE493F97AB77B031214366D
:1039E300E96401700B7A007B2012473E7900800264
:1039F3007904023CF5EC24FFF582ED34FFF58322D4
:103A030074F412048CA2AFE433F508C2AF9003B789
:103A13001238B06038EE24FBF582EF34FF124771A1
:103A23007A007B209003B060051247418005E0F9DE
:103A3300121442E4F50AF50B780A120904EEFCEFBE
:103A4300FD7AB77B031214307402120917E508A23A
:103A5300E092AFEEFAEFFB022BB4125028851882E6
:103A6300851983AA82AB832274F212048C74FC122C
:103A73000995EAFEEBFF750AFE750BFF120DACE923
:103A830060057911023BEEEE2415122BBC603790D2
:103A93000BCAE0C43354E0F8E0333354FC48C0E0CD
:103AA300EE2415122AF7D0E0123C09123BFF8B09D2
:103AB300EA45096011750AFFEE240F122BBC44047A
:103AC3001247CCD2E0F08E828F831224B86006EEC8
:103AD3002412123BF6EE2413122BBC70109020B26A
:103AE300E493C0E0EE2413122AF7D0E0F08E828F25
:103AF30083E0A2E750045403801CEE2414122BBC71
:103B03007015900342E0C0E0EE2414122AF7D0E0CF
:103B1300F0900342E004F0EE2411122BBC64017018
:103B230016900585E0600D90034DE0700A8E828F3C
:103B330083E07003123BF38E828F83E06401701382
:103B4300EE240B12395164027009EE240F122BBCC0
:103B53004440F0851882851983AC82AD83EEFAEF79
:103B6300FB120E128A088B0974FE650A700374FF38
:103B7300F470098E828F83A3A3124FA3EA450960D1
:103B8300668E828F83E0C0E07401120B7DD0E0F07B
:103B93007402120B7D1250917401120B7D85820CFD
:103BA30085830D780C120904EE240F122AF71207ED
:103BB30074EE240E122BBCF50C780C12090890033A
:103BC300561207747407120B7DE0F9AC0AAD0B12A1
:103BD3000E0C7407120917E9FE74106E700BAA0815
:103BE300AB091214A880027E10EEF974040224F0CB
:103BF300EE2411F582EF123942E4F022A3122BAA2C
:103C030079FF121C6422123C0D22F08E828F83A353
:103C130022C082C08374DE1209958A828B83A3A398
:103C2300A3A312394D740E120B7DE8F0A3E9123CE5
:103C3300E3740C120B7D123CDC240DF582EB122B8A
:103C4300BFC0E0741A120B7DD0E0F0124EF0EB12FD
:103C5300394A7420120B7D123CDC2415F582EB12D9
:103C63002BBFC0E07408120B7DD0E0F0EA241CF5F2
:103C730082EB12394A7412120B7D123CDC2411F5CB
:103C830082EB122BBFC0E07409120B7DD0E0123C13
:103C9300D074FFF07401120B7D74FFF07402120BE9
:103CA3007D74FFF09081651207707404120B7DAC74
:103CB30082AD837407120B7DAA82AB83120C5C74F2
:103CC30004120917790074221209178025123CD4B3
:103CD30022F085188285198322E8F0A3E9F0EA220D
:103CE3001236EFA3123CEB22A3E0F8A3E0F9221271
:103CF3004B22D083D0820208C974EC12048C74EE78
:103D03001209958A128B13ECFEEDFF8909742612B2
:103D13000B7D124FA37428120B7DE0F5107429124A
:103D23000B7D123E17742B120B7DE0F50EA3E0F50D
:103D33000F7508107A1E7B001214A27402120B7DF9
:103D430012474B7402120B7D1247737003023E102D
:103D5300851882851983AA82AB837950124626126D
:103D63004B227402120B7D123E35A312474B741083
:103D7300120B7D12575C7402120B7DE0240B123E72
:103D8300227402F0120B7D123E357402F0120B7D89
:103D93001251E41250917402120B7D124B37E50954
:103DA300F07402120B7DE0240C123E22E510F07435
:103DB30002120B7D123E1FE512F0A3E513F0740807
:103DC300120B7DE50CF0A3E50DF0740A120B7DE5F3
:103DD30010F0850E82850F83C082C083740D120B91
:103DE3007DAC82AD83D083D0827403120845F9740D
:103DF30002120B7DAA82AB83120DB2E96401700536
:103E030075080080087402120B7D123938A90874F2
:103E130012024FBAE0F50CA3E0F50D22E0241C12C8
:103E23003E2622F8A3E0123E2D223400F98882892F
:103E33008322124B2AA3A3A3A3A32274EE12048CFE
:103E4300EAFEEBFF8C088D098E828F83A374081220
:103E53004807E060088E828F83A37410F0122BB999
:103E630060098E828F83A3E02408F0EE2415122BC1
:103E7300BC60088E828F83A3E004F08E828F83A3BD
:103E8300A3A3A3A3A3E060198E828F83A3A3A3A3F9
:103E9300A3A3A3E0C3332402F88E828F83A3E02875
:103EA300F0EE2411122BBC6005750B0E8003750B0D
:103EB300008E828F83A3C082C083EE240D122BBC9D
:103EC300D083D082F8E028250B8C828D83F0EE24FA
:103ED30011122BBC600512433228F0850882850934
:103EE30083E0C394754009750800750900024020FA
:103EF300E0FA7B0012513F7003024020EEFAEFFB21
:103F0300120E18EA85088285098312474CEE2402B3
:103F1300F8EF122E3112411A12405CF0EE2404081D
:103F230008EF122E3112455CA312405CA3A3F0EEFE
:103F33002413124042F0EE2414124042A3F0750AF7
:103F430008EE2416122BBC6010EE2418125021E543
:103F5300082408125222750A10122BB96016EE2497
:103F63001A125021850A0CE508250C1252227408F6
:103F7300250AF50A8E828F83A3A3A3A3A3A3E060DC
:103F830059EE2407F510EF3400F511851082F583FF
:103F9300E0C0E0124029122AFAD0E012404CE0C0FF
:103FA300E0124029122AFAD0E012404CA312403505
:103FB300120900851082851183E0C333FCE433FDCD
:103FC300850A0CE508250C124F97120917851082F4
:103FD300851183E0C333250AF50AEE2415122BBCA1
:103FE300600BC0E0124029122AFAD0E0F0122AF442
:103FF300124035120900EE240D122BBCFC7D008506
:104003000B0A8E828F83A3E0F8E50828F8E50934CC
:1040130000F9E8250AFAE9124F9A120917AA08AB20
:10402300097F0A0206EB850A0CE508250CF582E5F3
:104033000922E0F50CA3E0F50D750E00780C2212B1
:10404300393F124066A3A3A322F0050A8E828F8311
:10405300A3A3A3A3A3A3A3A322A3A312528DA31237
:10406300406622124560A3A32274F612048C8A824E
:104073008B83E0FC90035312411374027808120AF5
:1040830060EC4508FCAD09EA241212410D74067870
:1040930008120A60EC4508FCED4509FDEA2415F514
:1040A30082EB122BBF6004780180027800E4C8F928
:1040B300ED49FDEA2411F582EB122BBFF5088809BF
:1040C30074097808120A60ED4509FDEA24161241C5
:1040D3000D740B7808120A60ED4509FDEA241712E6
:1040E300410D740C7808120A60ED4509FD8A828B34
:1040F30083A3A3A3A3A3A3124113740A7808120AE8
:1041030060ECFAED4509FB02477CF582EB1239427C
:10411300E0F50875090022E085088285098322A35A
:10412300E0F98508828509832274EE12048C8A0AD9
:104133008B0BECFEEDFF750F01E9C3940850057975
:104143000002431F8E828F83E9F0124585E96003E5
:10415300750F001245698E828F831245B3EE124E9E
:10416300F1EF1245A8C0E0EE2411122AF7D0E012B5
:1041730045A0C0E0EE2412122AF7D0E0123C0974E5
:1041830008124FABA3A3A3E06015124551EE24130D
:10419300F582EF1247BB8E828F83A3E02408F08E53
:1041A300828F83A3A3A3A3A3A3A3A3E060218E82EF
:1041B3008F83A3858208858309124594EE2415F520
:1041C30082EF1247BB850882850983E02408F08EBD
:1041D300828F83A3A3A3A3A3E0601A8E828F83A3FA
:1041E3008582088583091245788E828F83A3A3A3D2
:1041F300A3A3124344EE2419123BF6EE241B123BF5
:10420300F6A31247FFE070030242B3EE2419F8EF5E
:104213003400F98E828F83A3858208858309E0FAAF
:10422300E50A2AF582E50B122BBF888289831243A4
:1042330044FAE50A2AF582E50B122BBFC0E0EE240F
:104243001A122AF7D0E012434488828983E0605926
:10425300F89020B5E493C398500575110C8008EECF
:104263002419122BBCF5118E828F83A3E0F8E50A83
:1042730028F50CE50B124328120900E511C333FCA2
:10428300E433FD7A687B0A124322120917EE241BDA
:10429300122AF77468F0A3740AF0E511C333F885A2
:1042A3000882850983E0288006EE2418125438F02A
:1042B3008E828F83A3E0F88E828F83E0C3985003AE
:1042C300024142A3E0FA8A08E50A2508F8E50B341F
:1042D30000F9EE241DF582EF1248C7124354C39A26
:1042E300C0E0EE2417122AF7D0E01247C4602BEE89
:1042F3002417F8EF3400F9880889098882F583E0E8
:1043030024F21248A8240EFAA3E03400FB88828921
:104313008312474B124332C398F0A90F0240241271
:1043230013E27403223400F50D750E00780C22900D
:10433300034EE0F9120BA2E9F8850882850983E0B0
:1043430022F0850882850983E004F022A3A3A3A3B6
:10435300A3F08E828F83E02274F412048C8A088B7C
:1043630009EA1243E9F0EA1313543F1243E2A3A309
:10437300A3F0EAC413131243E9A3A3F0EB1243DB44
:104383001243F37409780A120B2F1243D91243F222
:10439300740A780A120B2FE50A5401C0E0EC2418C2
:1043A300F582ED122AFAD0E01243F8740B780A1260
:1043B3000B2F1243D9A31243F2740C780A120B2F5A
:1043C3001243D9A3A3A3A3A3A3A3A3F0740D7808B3
:1043D300120B2F0226FEE50A54018C828D83225490
:1043E3000F8C828D832254038C828D83A3A322A3FB
:1043F300A3A3A3A3A3F08A0A8B0B22C082C0837951
:10440300008A828B83A3A3A3A3A3A3E090034D609D
:104413000FE070228A828B83A3A3E07019098016B0
:10442300E060138A828B83124B19900356E06A7003
:1044330003A3E06B70E7023CF574F012048C8A0A64
:104443008B0B890C8C088D091245851245698508EB
:10445300828509831245B3E508124EF1E509124539
:10446300A8C0E0E5082411F582E509122AFAD0E094
:104473001245A0C0E01231EB122AFAD0E01248CF65
:1044830074081248E86011124551E50824131248D4
:10449300C31248CFE02408F0850882850983A3A3CB
:1044A300A3A3A3A3A3A3E06017850882850983A31D
:1044B300124590E50824151248C31243542408F00A
:1044C300850882850983A3A3A3A3A3E060198508B4
:1044D30082850983A3AE82AF8312457885088285DE
:1044E300098312434F04F0AA08AB09120E2AE9F517
:1044F3000D7056850882850983A3A3A3A3A3A312E2
:10450300455C7014E0FA8A0EE50A250EF8E50B12F5
:1045130047B0E50CC39A8021124590E8240EF8E9D0
:104523001247B090034EE0F9120BA28E828F83E004
:10453300F8E50CC39824F2C399C0E0E5082417F505
:1045430082E509122AFAD0E0F0A90D024EE0E50A4D
:104553002408F8E50B3400F92212456022E08508AF
:1045630082850983A322850A82850B83A3A312452F
:10457300C9E0F9EA22E0F8E50A28F582E50B1247DB
:10458300D7228A828B83124EE5120E2422AE82AF8B
:1045930083E0F8E50A28F8E50B3400F9221245DC3C
:1045A300A3A3A3E022123942E81245D5A3A3E02234
:1045B300A3A3A3A3A3A3A3A3A31245D51245C9A34E
:1045C300A3E0F9EAF822E0FA850A82850B83A3A324
:1045D300A322F0A3E91245DC22F0850A82850B832E
:1045E300A3A3A3A322C082C0837AC57B0379E2126B
:1045F3001B7A7AC57B03023CF5C082C083900356C5
:10460300023CF2C082C08374FE120995851882852C
:104613001983AA82AB83794B124626124B2274026A
:10462300023CCB121B7A85188285198322C082C073
:1046330083794A121B7A023CF574F612048C9003B8
:10464300CDE0FE04F0EEF9120DDC8B09EA450970AA
:10465300EDEE60EAF902477C74F012048CEAFEEB9B
:10466300FF8C088D09890A7410120B7DE0F50B7419
:1046730011120B7DE0F50C120EF6EA4B7013E50CEC
:104683007042A90AAC08AD09EEFAEFFB120F0E80D7
:104693006EE50A6021EA2402F582EB122BBF850A3C
:1046A300082508F8E4340013E813F070098A828BB4
:1046B30083A3A37401F0E50C6045E50B70068A82C1
:1046C3008B83E4F07401650C7035E50B9003D470B3
:1046D30004E4F0802AE004F0900BB7E0F89003D4F0
:1046E300E0C398401AE4F0900359E06E7003A3E02E
:1046F3006F700CEEFAEFFB7901120C801247050282
:104703004EE07A017B009003B0E0F912156222C0FB
:1047130082C08374016A7001EB70077A0112473C0F
:104723008012900BAE12474BEA4B600512247A803D
:1047330003124705023CF57A207B009003B0E0F9B1
:1047430012143C223400F583EAF0A3EBF022C0827A
:10475300C083900BB00232F5C082C083900BB202CB
:1047630032F51251F322EE240CF582EF3400F58377
:10477300123CECE849221209177F020206EBA2F071
:10478300E43385188285198312479D7952121B8061
:104793002212479D7942121B8022F0AA82AB832208
:1047A300AA08AB099003B0E0F9121412223400F9FD
:1047B300E508241DF582E509123942E8F0A3E9F082
:1047C30022124FAFA3A3E022A3F0EE24151247D485
:1047D30022F582EF3400F583E0221247E122340010
:1047E300F583E0F8A3E0F98882898322E0F8124791
:1047F300F522A3E0F98E828F83A3A322F0EE24187F
:1048030012393F22F0EE241612393F2274F41204B7
:104813008CEAFEEBFF7A007B0412470912489E12D2
:1048230047BE9003657409F0120E368A088B09ACF3
:1048330008AD09EE2413122AF7124B221249F2642F
:104843000170487A0F12489160418A828B83740207
:104853001248A8FAA3E0FB8A828B83A3E0FC8A8236
:104863008B83A3A3E0FBEC850882850983A3A312B2
:10487300474C88828983124B2612411A1247CBFA7E
:10488300A3E0FB794A121B801247A3022BB47B00DF
:10489300121CB28A088B09EA450922900336123C9E
:1048A300EC900BB222F0EE241DF8EF1248B2221264
:1048B3003E2DE0221248BB223400F5837401F0221E
:1048C300F582E509123942E8F0A3E9221248D3221E
:1048D3001248D722F0850882850983A3221248D77C
:1048E300A3A3A3A3221248E0A3A3E022124CF9122C
:1048F3000E8A22EE2417F582EF1248BB120E36EE13
:10490300241A12393FEAF0A3EBF02274F412048C58
:1049130074F31209958908EAFEEBFF7C0D7D00799B
:1049230000851882851983AA82AB831213EEEE24C5
:104933001D122AF71251E4A3E0F8741F58600A7994
:1049430001121B5079000249E9E8A2E55008740CF2
:10495300120B7D7401F0E8A2E75008740B120B7D73
:104963007401F0E8A2E6740A5008120B7D7401F09A
:104973008008120B7DE064017005EE24138003EEC2
:1049830024151250217402120B7DAA82AB83121BD1
:1049930068122AF41249F71247BE740A120B7DE01B
:1049A300640170331224AD703B120E428A0A8B0BE2
:1049B300A80AA90BEE240B122BBC687003A3E069B1
:1049C3007022120E36EAFCEBFD7402120B7DAA82F2
:1049D300AB831249F2600D851882851983AA82ABD5
:1049E30083120C7AA908740D022BB1EEFAEFFB12B5
:1049F3001B62E922E01249FC22F8A3E0F985188240
:104A03008519832274F612048C74F31209958A08AB
:104A13008B09ECFEEDFF7C0D7D0079008518828506
:104A23001983AA82AB83125365A3A3A3A3A3A3A34E
:104A3300A3A3124A91124A9AF8A2E55008740B12E2
:104A43000B7D7401F0E8A2E75008740A120B7D7421
:104A530001F0E8A2E6EE500424138002241512505C
:104A6300217402120B7D124A83A3A3E0C0E0740CED
:104A7300120B7DD0E0124CF1120C74740D024779C5
:104A8300AA82AB83121B6885088285098322E01200
:104A930049FCE8F0A3E922F012393C1251E8A3E003
:104AA3002274F712048C74E1120995EAFEEBFF8E6F
:104AB300828F83124B26A3A3A3E0A2E050518E82E0
:104AC3008F8312260D8A828B83A3A3A3A3A3A3E0C0
:104AD30054FE124B3E8A828B83124B37E0F98A8253
:104AE3008B83E0241CFAA3E0123558124B22120EDA
:104AF30030E9701B741D120B7D124B317011851838
:104B030082851983AC82AD83EEFAEFFB120E780235
:104B13004D638E828F83A3A3A3A3A3A3A3A3A312F3
:104B23002BAA22124B2A221251ECA3A3A32212393D
:104B330074640422E0241B123E2622123CD4AC826D
:104B4300AD8322E9F87900740468600A740A686026
:104B5300057403687001090208C974F612048C8A8B
:104B6300828B837420F0A3A37401F0120C268A08AD
:104B73008B09AE08AF09EE4F60108E828F837401EC
:104B8300F09003A3E070031248F6EEFAEFFB02473E
:104B93007CC082C0839003B97401F0E9A2E350039F
:104BA3007403F0E9A2E15004E0D2E2F0023CF574B0
:104BB300F612048C79007C008A088B0978081206A7
:104BC300A5F8FF07E54BE34BE34BE34BE34BDC4B30
:104BD300E04BE54BD94B0C80097C0480050C80F637
:104BE3007C089003B9E05C6003098003EC60010971
:104BF30002477C74F612048C8A828B83E07012A3C2
:104C0300124773600C8A828B83124B21121C88809B
:104C1300047A007B0002477C74F512048C74F3124F
:104C230009958A088B09ECFEEDFF750A12EA45091E
:104C330070057900024CEA900356E065087004A3FE
:104C4300E065097014120E36EAFCEBFD1249EE70B2
:104C530005750A018003750A00851882851983E4A6
:104C6300F004120B7DE508F0A3E509124CF1120BD9
:104C7300EAE960277403120B7DAA82AB83120BD27D
:104C8300E964017016750A017403120B7DAC82ADE1
:104C9300831249EE6021750A00801C7412650A7044
:104CA300169003A2E06402700EEEFCEFFDAA08ABBF
:104CB30009120C02E970DFEEFCEFFDAA08AB091242
:104CC3000EFCE9F8740A687005750A01801774A070
:104CD300687012EEFCEFFDAA08AB09120F08AA08D0
:104CE300AB09120F1AA90A740D0256CD7402124CA5
:104CF300F522124CF922123CD4AA82AB832274F718
:104D030012048CEAFEEBFF8E828F83A3A3A3A3A3DB
:104D1300A3A3A3E06015EE2415122AF7122B9A120F
:104D23000EA2E964017004790180258E828F83A32A
:104D3300A3A3A3A3A3A3E06015EE2413122AF712DF
:104D43004D55FAA3E0FB120EA2E9640160D9790084
:104D53008013123644A3A3A3A3A3A3A3A3A3E02274
:104D6300741F1209177F010206EB74F012048C748E
:104D7300FD1209958A088B09ECFEEDFF890B74136C
:104D8300120B7DE0F50C750A017401120B7D74049E
:104D930012521C6048E50C601DEA2417F582EB12E1
:104DA300543B12520A8A828B83E0D2E7F0EA24143E
:104DB300F582EB123BF9124EF0EB1247DD7403124E
:104DC300575EEE88828983A3A3F0EF88828983A349
:104DD300A31236EE1236F5120C20E9F50AA90A746D
:104DE30003024EDD74EC12048C74F51209958A0AE1
:104DF3008B0B890C8C0E8D0F741F120B7DE0F50D40
:104E03007420120B7DE0F510A3E0F5117E01EE1284
:104E13000B7D740AF0E97007E50DC333240AF01221
:104E23004FC27003024EC4124FD77409F0A3E50CAE
:104E3300C43354E0450D124FE9E50C702D7C00801E
:104E430023ECC333F8E433F9E51028F8E51139F915
:104E530088828983124ED188828983122E24F0A3FB
:104E63000EAF830CECC3950D40D7E5082417F582EC
:104E7300E5091248B7120E36E508241AF582E5094A
:104E83001247477403120B7DAC82AD83AA0AAB0BA6
:104E9300120BD8E96019E5082416F582E509124ECC
:104EA300CB120B7DA882A983E50824181247B78586
:104EB300088285098312575AAA08AB09120C20E904
:104EC300FEEEF9740B024FBA1248BB740322E08E54
:104ED300828F83F0A3AE82AF83221209177F080269
:104EE30006EB12399CF9EA2400E439FB22EA240B8D
:104EF300F5822274EE12048C8A0C8B0D890E8C08B9
:104F03008D097412120B7DE0F50F7413120B7D12D1
:104F13004FA39004F61247736077E50FC333F8E4A9
:104F230033F9E8240EFAE93400FB121CB28A108B21
:104F330011AE10AF11EE4F60588E828F8374D4F090
:104F4300A3A3E50CF0A3E50D124FABE50EF0AC08FF
:104F5300AD09EE2405FAEF125225EE240D122AF7BD
:104F6300E50FF0850A08850B09750A007808120910
:104F730000E50FC333FCE433FDEE240EFAEF124FCA
:104F83009A120917EEFAEFFB9004F61251E4121D80
:104F93002F024024FAE5093400FB1213E2740322C2
:104FA300E0F50AA3E0F50B22124FAF22124FB32212
:104FB300123C0DA3A3A3221209177F0C0206EB8553
:104FC3001882851983AA82AB83120E8A8A088B09F9
:104FD300EA450922EA240BF582EB1247D7FEA3E048
:104FE300FF8E828F8322F0A3AE82AF83AC0EAD0F10
:104FF300EEFAEFFB124FFB22121B6812500222EE55
:105003002408FEEF3400FF22E0FA8E828F83A3A3ED
:10501300E022FEA3E03400FF8E828F83E022123968
:105023003F12502822E0FCA3E0FD22122BAA120E0D
:105033001E2274F612048CEAFEEBFF9003BA80136F
:1050430088828983E06E7003A3E06F603A88828967
:1050530083A3A312477370E87A047B001214A28A15
:10506300088B09A808A909E849601C88828983126A
:1050730050919003BA124B2288828983A3A31247CB
:105083004B9003BA1247BE02477C8A828B83EEF0B1
:10509300A3EFF02274F412048C7E009003BA80070D
:1050A3000E88828983A3A312477370F4EEC333FA85
:1050B300E433FB12513F607E7F009003BA80248863
:1050C300828983125024EFC333FAE433FBE5082AC1
:1050D300F582E5093BF583ECF0A3EDF00F888289B7
:1050E30083A3A312477370D79003AB1224E7700313
:1050F300A3E06978087019120904EEF50A780A1218
:1051030009087C777D0379009003AB12514A801A1A
:10511300120904EEF50A780A1209087C777D0379EF
:10512300009003AB124B22120EB47403120917AA98
:1051330008AB091214A8120C38022BB41214A28A59
:10514300088B09EA450922122BAA120EBA22C08241
:10515300C08380128A828B83A3A312394D9003BA32
:105163001247BE1214A89003BA12385D70E6023CCF
:10517300F574F612048C9003631239799003CE12FE
:1051830051D31247BE7ACE7B037950121B80900312
:10519300CE122706FAEFFB120F149003CE123979C1
:1051A3009004F812477360257A067B00121CB2EA5A
:1051B3004B601A8A828B8374D5F0A3A3E41251F94E
:1051C3000412520A9004F81251E4121D2F02477C74
:1051D3001251D722E0F8A3E0F9900363228E828F65
:1051E300831251E8221251EC22E0F81251F222A369
:1051F300E0F5838882221251FD2212520122F08AA5
:10520300828B83A3A3A3221251FDA3EEF0A3EFF09D
:1052130022F582EF1247D7F9221248EFEA4B22FA1E
:10522300E5093400FB121B68221247F6A3A3A3A3CC
:10523300A3A3A3229020ADE4932401F8E43400F95E
:105243007A027B002274F712048C7E0080041258C9
:10525300110E12533540F77E00EE12527474FEF0B5
:10526300A304125289E4F00EEEC3940340EB024D03
:105273006875F003A4F8A9F074BC28F8740339F92D
:1052830088828983A32212528D22F0888289832205
:1052930074F712048C7F0080010F9020AAE493F826
:1052A300EFC3985026EF1254216A7003A3E06B708A
:1052B300E81257BE6C7003A3E06D600A74FF6C7054
:1052C3000374FF6D70D312532C80047A007B0002A9
:1052D3004D6874F612048C7CFF7DFF7AFE7BFF120F
:1052E3000EDEEA4B70407508008036E50875F0174E
:1052F300A4F8A9F0740328F5827409125433600CDE
:10530300740228F5827409125433701374F428FE5E
:10531300740839FF8E828F83125440EEFAEFFB0537
:105323000812539B40C502477C74F428FA74083969
:10533300FB229020AAE493F8EEC3982274F7120498
:105343008CEAFEEBFFEE4F601012535F74FEF0A386
:105353000412576414F0A304F0024D687C177D0017
:1053630079001213EE8E828F832274F712048CEA73
:10537300FEEBFF7508008018E50875F017A4F8A97F
:10538300F01257C97003A3E06F60031258190508A0
:1053930012539B40E3024D689020AAE493F8E5087A
:1053A300C3982274F612048C120EDE8A088B09A8A5
:1053B30008A909E849600AE8240DFAE93400FB80EA
:1053C300047A007B0002477C74F412048C8A0A8BF3
:1053D3000BECFEEDFF750800750900802EE50975DD
:1053E300F017A4F8A9F0125804601EE5091254211D
:1053F300650A7004A3E0650B700375080AEEFCEF01
:10540300FD1256C060034308A005099020AAE49347
:10541300F8E509C3985004E50860C20226FE75F05A
:1054230017A4F8A9F012542C2274F428F5827408F6
:1054330039F583E022F582EF123942E422122BAAD6
:10544300120D162212528DA3A3A3A3A3A3A3A322D7
:1054530074F212048C8A088B09ECFEEDFF740E12B1
:105463000B7D124FA3750C007C007D01801012147C
:1054730000E50CF5F0EA84ACF0750C007D007800D3
:10548300790080031255FD125659400302551FE857
:10549300FAE9FBEA75F017A4FA85F00D75F017EB3E
:1054A300A4250D1256357003A3E0F460D7125613EA
:1054B30065087004A3E0650960CA1256136E700391
:1054C300A3E06F60BF125613650A7004A3E0650B77
:1054D30060B2E8FAE9FBEA75F017A4FA75F017EB86
:1054E300A4250DFB74022AF58274091255F4509415
:1054F30074016D050C608DE50CC39C4087E875F065
:1055030017A4F8AAF075F017E9A42AF974F428F59A
:1055130082740839F583124B220255F17800790021
:1055230080031255FD12566640030255D8E8FAE986
:10553300FBEA75F012A4FA85F00D12564564FE706D
:1055430003A3E0F460DC12563B65087004A3E06536
:105553000960CF12563B6E7003A3E06F60C412560E
:105563003B650A7004A3E0650B60B7E8FAE9FBEA60
:1055730075F012A4FA75F012EBA4250DFB74832ABF
:10558300F58274071255F45099E8FAE9FBEA75F0CD
:1055930012A4FA75F012EBA4250D125606640160ED
:1055A30081E06402700302552574016D050C7003DC
:1055B300025525E50CC39C5003025525E875F012EE
:1055C300A4F8AAF075F012E9A42AF9747A28F582EE
:1055D3007407025516E50C6011EC700E7401650C2E
:1055E30060030254717C0102547C7AFE7BFF022427
:1055F300F33BF583E014C3940622E8240108E9345D
:1056030000F922FB747E2AF58274073BF583E022BE
:10561300E8FAE9FBEA75F017A4FA75F017EBA4258D
:105623000D12562822FB74F42AF58274083BF58385
:10563300E02212562864FE22E8FAE9FBEA75F0122A
:10564300A4FA75F012EBA4250DFB747A2AF5827483
:10565300073BF583E0229020AAE493FAC3E89AE992
:105663009400229020A6E493FA740193FBC3E89A72
:10567300E99B2274F512048C8A088B09ECFEEDFF7A
:10568300750A008002050A9020AAE493F8E50AC38C
:10569300985028EEFCEFFDE50A75F017A4F8A9F081
:1056A3001256C060E0E50A75F017A4F8A9F074F487
:1056B30028F582740839F5831236F7801074F628BA
:1056C300FA740839FB121B62E9221209177F0302DD
:1056D30006EB74F012048C8A088B098C0A8D0B89F3
:1056E3000C120EE48A0E8B0FAE0EAF0FEE4F605509
:1056F30012535FE508F0A3E50912576412575CE5FE
:105703000C600AEE240F122AF7E50C8006EE240F34
:10571300125754F09003D0124773601A9003AAE013
:1057230064017008EE240E1254388010EE240E1219
:105733002AF774078006EE240E12575412303D12D6
:1057430002C812574B024EE0EE240D12393FE8F027
:105753002212393F740122A3A3E50AF0A3E50BF05B
:105763002212356EA32274F512048C8A088B09EC7D
:10577300FEEDFF750A00800F1257C97003A3E06F97
:105783006003125819050A9020AAE493F8E50AC3A6
:10579300985025E50A75F017A4F8A9F01257BE65CD
:1057A300087004A3E0650970CF74FE28F5827408BD
:1057B30039F58312509180CD0256D074FE28F582BC
:1057C30074081254332274FE28F582740812543379
:1057D3006E2274F712048CEAFEEBFF750800801941
:1057E300E5081254216E7003A3E06F700A12580487
:1057F3007005E508125812050812539B40E2024D4A
:105803006874F628FA740839FB120BD2E922EE7594
:10581300F017A4F8A9F012532C120EEA2212528D9B
:10582300123CECE84922C082C08374F812099585C2
:105833001882851983AC82AD837583817582027466
:1058430008120845851882851983AC82AD831249F5
:10585300F2640170047900800279017408023CCB80
:10586300C082C0838A828B83E0D2E7F012163A02A9
:1058730062EDC082C0837900125D0D127287C0820F
:10588300C083900330126EAFD083D082C3E09CA359
:10589300E09D500C127457FAA3E01258A660010958
:1058A3000262EDFBEA75F00BA4FAA8F075F00BEBBE
:1058B300A428FB900332E02AF8A3E03B8882F58317
:1058C300E0540F2274F712048C8908125D0D125DE7
:1058D300B3ACF075F00BE9A42CF9900332E028FE89
:1058E300A3E039FF7401650860067402650870203F
:1058F3008A828B83125D9F12696A74026508701B2A
:10590300125C5E125DE670138E828F83E4F0800B6F
:10591300EA2403FCEB125D81125D8DEEFAEFFB12BC
:105923000BA802661374F412048C12784B79008E60
:10593300828F83E06076890A890B8065E50A75F0BA
:105943000BA4FAA8F075F00BE50B1258B37046E5FB
:105953000A75F00BA4F8AAF075F00BE50B125DC500
:105963008E828F83E0850882850983125EA785086E
:1059730082850983A312696AEE2403FCEF125D8A10
:1059830012610312720EAA08AB09120BA8790190D7
:105993000330126ECAE50A2401F50AE50B3400F55B
:1059A3000B125C66E50A9AE50B9B4090026F8E74BE
:1059B300F512048CEAFEEBFF740B120B7D1264C527
:1059C300750A01EC4D602BEC127867ED12728712A9
:1059D30069617901120BB4E5084509606F85088296
:1059E300850983A31278557902AA08AB09120BB46F
:1059F300805AE5084509602B127297126B84126175
:105A030004125DD0700CEEFAEFFB120BBAE9F50A43
:105A130080CBEE2403FA125D0870317903EEFAEFBE
:105A2300FB80CA8E828F83A3E064FE7003A3E0F43D
:105A3300700BEE24030A0A0A125D08700CEEFAEFEB
:105A4300FB120BBAE9F50A8003750A00A90A7F0362
:105A53000206EB74F712048C900330126618EA4BBB
:105A6300602FEA75F00BA4FAA8F075F00BEBA428ED
:105A7300FBEAFEEBFF1214A29003321266189003A6
:105A830032126EB66012EEFCEFFD79001213EE8057
:105A930007900332E4F0A3F0026613900330126E12
:105AA3003AC3EE98EF9922C082C083EC4D60051291
:105AB3001B6880097C087D0079001213EE0262EDF9
:105AC30074F612048C7900EA4B6018780088081287
:105AD300740EEB12745360047901780808E8C394D8
:105AE3000840EA02603374F712048C74F3120995C8
:105AF300ECFEEDFF851882851983E4F004120B7D1B
:105B0300EAF0A3EB126FA17403120B7DAC82AD8399
:105B1300EEFAEFFB120BCCEEFAEFFB120BD202669E
:105B23000E74F712048C74F3120995ECFEEDFF85E5
