:020000040000FA
:06000000020A780201B1C2
:030013000201D413
:03002B000208C305
:03003B0002022995
:030053000200E2C6
:100083000201460101FF01010503010F10FEFFF606
:1000930012F612F612F612B211AC11F612611E002C
:1000A300000000871F000000000C0000000C00018E
:1000B300FFFF0102003205000000A50564000202F3
:1000C30000000002050207051E02051E020A0A03BC
:1000D300B80B02803E01023700010014020206C081
:1000E300E074F2120471A2AFE433FED2AFE5A7FFCE
:1000F300E5A1F5085F541060061219A475A1EFE598
:10010300085F540860081219AA75A1F7802BEFA2A3
:10011300E0C0D0E508A2E092F01209B2158182F0A6
:100123005017906198E0F8900773E0C398A2D265E6
:10013300D0335002E8F075A1FEEEA2E092AF7F014A
:100143000204D0C0E074F2120471A2AFE433FED211
:10015300AF9061A4E0F8759B00E5915854086008DE
:100163007591F71219EC802AE591585410600875BF
:1001730091EF1219F2801BE8A2E0C0D0E591A2E052
:1001830092F01209B2158182F05007E0C2E0F0123A
:100193001B309061A3E0F8E5E9585404600E121B8C
:1001A3000675E9FB906193E0A2E640F2808BC0E024
:1001B30074F2120471A2AFE433FED2AF9061A5E0F2
:1001C300F8E5BF585404600675BFFB121B480201D3
:1001D3003CC0E0C0D0E8C0E0E9C0E0C082C083E535
:1001E300C1C0E09006DFE0F8745E28F5827406343F
:1001F30000F583D0E0F09006DEE0F8A3E068700637
:10020300E5959006E1F09006DFE004F0C3948040AA
:1002130002E4F0A374C6F0D083D082D0E0F9D0E03A
:10022300F8D0D0D0E032C0E0C0D0E8C0E0C008C011
:1002330009C082C083900762E0F8A3E068700853A6
:100243009AFBA374018026C2E9900762E0F5087463
:10025300012508F074E22508F58274063400F5835D
:10026300E0F5C1900762E0C394804002E4F0D083DC
:10027300D082D009D00880A6C3E498F8E499F91293
:1002830002BC8026C3E49AFAE49BFBE920E7E91267
:1002930002BCE498F8E499F922C3E498F8E499F9E4
:1002A3001202BCE498F8E499F9C3E49AFAE49BFBDC
:1002B30022EB20E7CFE920E7E0B90010BB0008E814
:1002C3008AF084F8AAF022E4FBC8FA22EB70227BBE
:1002D30010C833C8C933C9335007C39AC3DBF2808C
:1002E300069A50012ADBEAC833F4C8C933F4C9FAC1
:1002F3002275F008E4C833C8C933C933C99AC99B06
:100303005004C92AC93BD5F0ECFBC833F4C8E4C98F
:10031300FA22080808EAC0E0EBC0E086F0E7A4FA96
:10032300180986F0E7A42AFA180986F0E7A42AFA3E
:10033300180986F0E7A42AFA1986F0E7A4FBE5F08A
:100343002AFA190886F0E7A42BFBE5F03AFA190814
:1003530086F0E7A42BFBE5F03AFA18180986F0E7D4
:10036300A4C5F02BFBE43AFA1908E7C5F0C6A426A6
:10037300F6E5F03BFBE43AFA1886F0E7A4F6E5F07D
:100383000826F6E43B08F6E43A08F6D0E0FBD0E0B2
:10039300FA22E4CFC0E0E4CEC0E0E4CDC0E0E4CC98
:1003A300C0E075F020C3E633F608E633F608E6331B
:1003B300F608E633F6181818EC33FCED33FDEE338C
:1003C300FEEF33FFC3EC9709ED9709EE9709EF971B
:1003D300191919400FFFEC97FC09ED97FD09EE97EA
:1003E300FE191906D5F0BEECF709EDF709EEF7098A
:1003F300EFF7191919D0E0FCD0E0FDD0E0FED0E012
:10040300FF222518C582C0E0E51934FFC583C0E08B
:10041300E518C3958224F810AF08858319858218DF
:100423008008858319858218D2AFCEF0A3E520F02A
:10043300A37808E608F0A3DEFAEFF0A3E58124FA37
:10044300F8E608F0A3E608F0A3E608F0A30808E638
:1004530008F0A3E608F0A315811581D0E0FED0E0F3
:10046300F8158115811581E8C0E0EEC0E022C0D007
:100473002518C582C0E0E51934FFC583C0E0E5183F
:10048300C3958224F310AF088583198582188008E9
:10049300858319858218D2AFC8F0A3E9F0A3EAF0E7
:1004A300A3EBF0A37908E709F0A3D8FAECF0A3EDE6
:1004B300F0A3EEF0A3EFF0A3D0E0F0A3D0E0F0A31D
:1004C300D0E0F0A3E520F0A3E5F0F0A322851983A3
:1004D300851882E0C0E0A3E0F9A3E0FAA3E0FBA360
:1004E3007808E0F608A3DFFAE0FCA3E0FDA3E0FE52
:1004F300A3E0FFA3E0C0E0A3E0C0E0A3E0F5D0A346
:10050300E0F520A3E0A3F5F010AF088583198582F9
:10051300188008858319858218D2AFD082D083D002
:10052300E0F8D0E032120ADAB9000302056AE49077
:1005330003017831790B8002F0A3D8FCD9FA900D2E
:1005430031AA82AB83900086785D79018015E493AC
:10055300A3AC82AD838A828B83F0A3AA82AB838C04
:10056300828D83D8E9D9E775826B7583B5740312DD
:10057300083B7582CA75831D740012083B75F01021
:100583008E1A8F1B85821F85831E8518828519838A
:10059300E0CEA3E0CF851F82851E83EBC9EAC8EDB9
:1005A300CBECCAC3E833C8E933C9EA33CAEB33CB6C
:1005B300C3EA9EF51DEB9FF51CB35004AB1CAA1DAB
:1005C300EC33CCED33CDD5F0DAAE1AAF1B22D083AA
:1005D300D082ECC0E0EDC0E0E493A3FCE493A3FD80
:1005E300ED4C600D1206A9EC24FFFCED34FFFD80F9
:1005F300EFE493A3FCE493A3FDED4C600D120746D7
:10060300EC24FFFCED34FFFD80EFD0E0FDD0E0FCF7
:10061300E493A3C0E0E493C0E022851983851882A4
:10062300E0A3FEE0A3F5207808E0A3F608DFFAE0F4
:10063300A3FFE0A3C0E0E0A3C0E0E0A3C0E0E0A329
:10064300C0E0E0A3C0E010AF08858218858319805D
:1006530008858218858319D2AFD083D082020841DE
:10066300D083D082E9C0E0E493A3C386F0C5F095BC
:10067300F0F908E493A386F0C5F095F0700BE493CA
:10068300A3C3994005E9048002A3E475F002A425FD
:1006930082F582E5F03583F583D0E0F9E493A3C0D6
:1006A300E0E493C0E022C0E0C3E4939608740193AE
:1006B3009618400FE49366700808740193661870E7
:1006C300007019A3A3C3E49396087401939618A327
:1006D300A3400DD0E0D0E0D0E002060DA3A3A3A376
:1006E300A3A3D0E0227404800474028000CCC0E091
:1006F300EDC0E0E518C39CCCAD1950011D10AF0649
:100703008C188D1980068C188D19D2AF1207BDD0A5
:10071300E0FDD0E0FC2274028000CCC0E0EDC0E03C
:10072300E518C39CCCAD1950011D10AF068C188D74
:100733001980068C188D19D2AF12079BD0E0FDD01B
:10074300E0FC22C0E0C0F088F0E49366700808740F
:10075300019366187000A8F0A3A3700BD0F0D0E04B
:10076300D0E0D0E002060DA3A3D0F0D0E022D083E6
:10077300D082CCC0E0E493A3600612081C1470FA84
:10078300E493A3600612090D1470FAD0E0FCE4931D
:10079300A3C0E0E493C0E022CAC0E0E493A3C5820F
:1007A300CCC582C583CDC583F0A3C582CCC582C524
:1007B30083CDC583DAE5D0E0CA22CAC0E0E0A3C591
:1007C30082CCC582C583CDC583F0A3C582CCC58247
:1007D300C583CDC583DAE6D0E0CA22C008C3E0965C
:1007E300F50808A3E096420808A3E096420808A388
:1007F300E09645087001D3D0082270090808082242
:100803006016181818C6C333C608C633C608C633DD
:10081300C608C633C6D5E0EA22C0E0E493A3D39C5E
:100823005010E493A3C39C400AD0E0D0E0D0E00290
:10083300078EA3A3A3D0E022C09FF59FE473D09FAC
:1008430022D083D082C09FE493C0E0740193C0E0C0
:10085300740293F59F222518F58210AF08F518400E
:100863000215198008F51840021519D2AF851983AE
:10087300227404800A74038006740280027401C027
:10088300E0F404120859D0E0120AB522C0D02518AA
:1008930010AF08F518500205198008F51850020525
:1008A30019D2AFD0D022BB0102E722C082C0838914
:1008B300828A83BB0003E08002E493D083D0822248
:1008C300C0E0C0D0E8C0E0E5A8D2AFC2C7A2E792BB
:1008D300AFD0E0F8D0D0D0E0326016080808C6C325
:1008E30013C618C613C618C613C618C613C6D5E052
:1008F300EA22C3E0C696F608A3E0C696F608A3E08C
:10090300C696F608A3E0C696F622C0E0E493A36C6D
:100913007009D0E0D0E0D0E002078EA3A3D0E0229C
:10092300251810AF08F518400215198008F518406E
:10093300021519D2AF22E76670100809E766700A3C
:100943000809E76670040809E76622C3E09608A36E
:10095300E09608A3E09608A3E096A2D265D03322DE
:10096300E066701008A3E066700A08A3E0667004EE
:1009730008A3E06622C3E096F008A3E096F008A37C
:10098300E096F008A3E096F022E026F608A3E0360E
:10099300F608A3E036F608A3E036F622E627F608C3
:1009A30009E637F60809E637F60809E637F622C0FE
:1009B300E0E8C0E0E58124FCF8E6A2E7D0E0F8D067
:1009C300E022700422600D18C6C333C608C633C6BE
:1009D300D5E0F41822E657F60809E657F60809E6C3
:1009E30057F60809E657F622E056F608A3E056F64E
:1009F30008A3E056F608A3E056F622E056F008A353
:100A0300E056F008A3E056F008A3E056F022E647CC
:100A1300F60809E647F60809E647F60809E647F641
:100A230022E026F008A3E036F008A3E036F008A39E
:100A3300E036F022E4C396F608E496F608E496F668
:100A430008E496F622C6F4C608C6F4C608C6F4C679
:100A530008C6F4C622C3E7960809E7960809E7968D
:100A63000809E79622C3E09608A3E09608A3E09658
:100A730008A3E0962275D000758140751801751999
:100A83000300020528E0F608A3E0F608A3E0F60851
:100A9300A3E0F622600C08C6C313C618C613C6D556
:100AA300E0F422E6F008A3E6F008A3E6F008A3E6E4
:100AB300F022CAC0E0E6F0A308DAFAD0E0FA22E0B6
:100AC300FAA3E0FBA3E0FCA3E0FD22EAF0A3EBF032
:100AD300A3ECF0A3EDF022E5C754F84401F5C77980
:100AE30001222518F582E43519F58322C2AF75D6A4
:100AF3009F0200002212084447E202120844EAE27D
:100B0300021208441EE4021208443CE402120844A0
:100B1300F52100120844072200120844592200124A
:100B23000844BA2200120844442300120844E8236C
:100B3300001208443C2400120844552400120844BF
:100B43007B2400120844B62400120844FA2400123D
:100B53000844212500120844722500120844222665
:100B630000120844DA2600120844A227001208449F
:100B7300622800120844A62800120844CB28001259
:100B830008440E29001208445B2900120844D12AA4
:100B930000120844572B00120844752B0012084416
:100BA3009F2B00120844B92B00120844C82B0012D3
:100BB3000844D32B00120844932C00120844EC2C55
:100BC30000120844AE2D00120844B62D001208444A
:100BD3004A2E00120844B62E00120844E12F0012D8
:100BE30008440630001208448B30001208441A31BE
:100BF30000120844DE3100120844FD31001208449B
:100C03000C33001208441E330012084489330012C7
:100C13000844B333001208443A34001208447334CE
:100C230000120844BF3400120844D23500120844AD
:100C3300F637001208440138001208440C38001239
:100C430008441738001208442138001208442C388D
:100C53000012084446380012084450380012084471
:100C63005A38001208446538001208448D380012BF
:100C73000844E83800120844F238001208441639D0
:100C8300001208443A390012084498390012084403
:100C9300DC3900120844F839001208446F3A001294
:100CA3000844A73A00120844F33A00120844503BA0
:100CB300001208440A3C00120844EE3D00120844A6
:100CC300473E00120844773F001208449D3F00123C
:100CD3000844174100120844A24400120844744611
:100CE300001208443D4800120844EA480012084430
:100CF3005E4A00120844FD4A00120844424B0012A7
:100D03000844AC4B00120844BB4B001208443B4E52
:100D130000120844E44F00120844515000120844E2
:100D2300305100120844535200120844BB530012BE
:100D33000844DA53001208442F540012084434556F
:100D4300001208445C5500120844B45500120844CC
:100D5300935600120844D756001208442257001233
:100D630008448D5700120844D258001208443659DB
:100D730000120844845A00120844EB5C0012084431
:100D83001C5D00120844D45E00120844295F00125F
:100D930008442D6000120844CA600012084423610D
:100DA30000120844D6610012084478620012084415
:100DB300186300120844BD6300120844A6800112A0
:100DC3000844E580011208442C8301120844768309
:100DD30001120844918401120844F9840112084461
:100DE3002E8501120844A2860112084425890112A6
:100DF30008444E8A01120844018B011208445D9392
:100E030001120844F29301120844D99601120844CE
:100E1300D29701120844409801120844869901129E
:100E23000844659A011208444A9C011208445B9ED7
:100E330001120844B39E01120844859F011208441D
:100E4300B39F0112084470A00112084447A1011284
:100E530008440EA201120844B2A201120844DBA204
:100E630001120844FDA20112084453A501120844CB
:100E73002BA6011208446FA601120844D7A601123B
:100E830008448FA701120844C1A70112084405A80A
:100E9300011208443BA80112084487A80112084420
:100EA300DCA801120844E1A80112084434A9011284
:100EB300084459A90112084468AA01120844CCAA9B
:100EC300011208443CAB01120844C8AB01120844A8
:100ED30095AE0112084479AF01120844FCB0011227
:100EE300084432B301120844E0B30112084490B439
:100EF30001120844D1B60112084474B70112084420
:100F0300BBB70112084467B9011208447BB9011247
:100F1300084485B901120844ADB901120844B9B9AE
:100F230001120844D8B901120844F8BB011208445D
:100F330047BD011208448BBD0112084433BE0112A0
:100F4300084416BF01120844C1BF011208440DC171
:100F5300011208440BC201120844B1C20112084431
:100F630052C30112084469C301120844A0C3011209
:100F73000844AAC301120844B5C301120844D3C3E9
:100F83000112084417C40112084474C4011208442E
:100F930099C401120844B3C4011208443FC50112A5
:100FA30008445CC601120844B8C6011208449FC72E
:100FB30001120844C6C7011208443AC80112084482
:100FC300B5C801120844B9C901120844AFCA0112D5
:100FD30008445ECB0112084471CC011208440DCDC4
:100FE300011208448FCD011208446DCE011208444A
:100FF300A5CE01120844FDCE01120844C6CF01124A
:101003000844E7CF011208446ED00112084492D07D
:1010130001120844B4D001120844FDD0011208445F
:1010230013D301120844F6D301120844A7D40112C2
:101033000844DDD6011208442DD7011208446DD7A8
:1010430001120844AFD7011208440BD80112084417
:1010530039D8011208445DD801120844B0D80112EE
:101063000844DED80112084417D9011208446CD988
:1010730001120844D2D9011208443CDB011208448E
:101083005FDD01120844CCDD01120844F5DD0112D5
:10109300084480DE01120844E7DE0112084432DF0F
:1010A3000112084456DF011208447ADF0112084492
:1010B300D5DF01120844F0DF01120844A9E0011250
:1010C30008445ADF0312084499DF03120844788066
:1010D30002120844BE80021208449E810212084490
:1010E300A08202120844A383021208442F8502122D
:1010F30008448D85021208444A8602120844688710
:1011030002120844D98702120844158802120844BF
:101113006388021208446D8802120844B1880212DF
:1011230008440D8902120844A88902120844258A3A
:1011330002120844F48A021208448D8B02120844F6
:10114300AD8B02120844E38B02120844148C021282
:101153000844D58C02120844E58C02120844398DE8
:1011630002120844548D02120844668D0212084488
:101173006F8D02120844C98D02120844258E021293
:101183000844718E021208448C8E02120844BD8EEC
:1011930002120844DA8E02120844E68E0212084450
:1011A3005A9002120844739002120844DA90021211
:1011B3000844ED9002120844FB9002120844AF91D8
:1011C30002120844939202120844999302120844AB
:1011D3002394021208442D94021208449A94021292
:1011E3000844B19402120844E394021208441C9583
:1011F30002120844469502120844A79502120844B5
:10120300C79502120844E595021208442B96021270
:1012130008445197021208449E9702120844CD973E
:10122300021208444398021208446B9802120844BD
:10123300A49802120844B298021208440A990212AE
:101243000844599902120844989902120844C8990B
:1012530002120844F49902120844FF990212084446
:101263001D9A02120844DF9A02120844E99A0212F4
:1012730008442A9B021208447F9B02120844939B52
:1012830002120844909C02120844A39C02120844D0
:10129300B89C021208445A9D02120844DD9D0212B2
:1012A30008449B9E02120844A69E02120844D29F41
:1012B30002120844EE9F0212084440A0021208449E
:1012C3007FA00212084494A002120844F6A002125E
:1012D300084485A102120844D0A10212084421A4A3
:1012E300021208449FA40212084414A502120844DF
:1012F30036A7021208444EA70212084451A702124D
:1013030008445DA70212084471A70212084479A792
:1013130002120844ACA7021208445CA80212084453
:10132300D2A80212084445A902120844F9A90212DC
:101333000844AEAA02120844CDAA0212084473ABB1
:10134300021208449EAB02120844A1AB02120844E5
:101353000BAC0212084433AD021208440BAE021266
:10136300084496AE02120844AFAF021208446CB0B0
:1013730002120844A5B002120844D6B0021208446F
:1013830094B102120844C4B1021208449FB202127B
:10139300084438B302120844C3B30212084474B4B5
:1013A30002120844F7B40212084429B50212084491
:1013B3006AB502120844DBD5021208445799031296
:1013C30008448F9903120844DE9903120844009CD1
:1013D30003120844E39D0312084441A10312084485
:1013E30076A10312084498A103120844FDA1031235
:1013F300084433A20312084456A20312084483A2EA
:1014030003120844DFA203120844E08C03120844C9
:10141300FAE002120844978D03120844FE8D03126A
:101423000844718F031208448D8F03120844D28F2E
:1014330003120844609003120844B990031208444D
:10144300ED9103120844BB92031208443393031231
:101453000844AF9303120844F193031208443294EF
:101463000312084466950312084464960312084461
:101473008F9603120844DA96031208442197031245
:101483000844B397031208446C98031208449FC995
:101493000312084405CA03120844B1CA03120844DC
:1014A30050CB0312084441CC031208442BA303126C
:1014B300084435A30312084481A303120844EFA38D
:1014C3000312084410A403120844C0A403120844DE
:1014D300C9A4031208441CA50312084445A503121A
:1014E3000844ACA5031208443DA6031208447FA692
:1014F30003120844C9A60312084428A70312084488
:1015030054A703120844E5A70312084424A80312AE
:10151300084463A80312084498A803120844AAA81D
:1015230003120844BCA803120844DBA803120844AE
:10153300E4A8031208449AA903120844DAA903127F
:1015430008441DFF021208440FDF0312084484D12C
:1015530003120844BAD10312084403D20312084405
:1015630053D3031208440964001208444865001267
:1015730008448465001208444367001208446C67FA
:1015830000120844FF6900120844436A0012084429
:10159300CC6B00120844646C00120844CC6C00123B
:1015A30008446D6D00120844AF6D00120844EF6DDE
:1015B300001208447A6F00120844EA7000120844CB
:1015C3000F73001208443D73001208446473001241
:1015D30008446D7300120844F47300120844127730
:1015E300001208447BE00312084491E0031208440C
:1015F300EAC203120844FDC2031208449AC3031249
:101603000844D5C303120844F0C30312084415C4A5
:10161300031208445AC4031208448BC40312084437
:10162300BCC40312084442C603120844ADDC0312CF
:101633000844E3DC03120844FFDC0312084441DDE1
:101643000312084451DD03120844008003120844C6
:101653005580031208443E8103120844D7810312C4
:1016630008442182031208447E8203120844D7826D
:10167300031208440983031208440784031208442D
:101683006B8403120844868403120844D58403122E
:101693000844EB8403120844F884031208442C859D
:1016A300031208447E8503120844D88503120844B4
:1016B300268603120844488603120844BF8803128F
:1016C3000844F48803120844848903120844F989FE
:1016D30003120844FE89031208443A8A0312084499
:1016E300998A03120844398B031208445E8B031250
:1016F3000844688B031208446B8B03120844F48B71
:10170300031208440F8C03120844228C031208446A
:101713005D8C03120844608C031208446B8C031223
:101723000844A78C03120844C2DE03120844DADE1D
:1017330003120844937700120844E2770012084426
:10174300847900120844407B00120844887B00120D
:101753000844707C00120844A17D00120844C37D34
:10176300001208441F7E00120844A37E001208449E
:10177300E3E00112084404E10112084481E101128B
:10178300084406E20112084482E201120844EBE233
:101793000112084437E301120844B6E30112084476
:1017A30048E401120844D8E4011208441AE501127E
:1017B300084463E901120844E3EA0112084422EBF6
:1017C3000112084409EC011208440CEC011208440C
:1017D300C0EC01120844F5ED01120844E0EF0112D8
:1017E300084460F20112084419F30112084436F464
:1017F300011208448DF7011208449DF701120844B1
:10180300FEF8011208448AF901120844A6FA0112EB
:1018130008443FFB0112084442FC01120844C4FC83
:101823000112084463E4021208441DE5021208444D
:101833008FE50212084423E6021208442AE7021243
:1018430008449AE70212084453EA021208442AEBB6
:101853000212084497EB0212084414ED02120844E2
:10186300C8ED0212084476EE02120844D1EE0212C9
:1018730008443CEF021208443CF00212084416F2FA
:101883000212084429F302120844C2F30212084464
:1018930088F402120844F87F00120844FA7F001209
:1018A3000844B6D303120844E7D303120844A1D46F
:1018B3000312084407D50312084456B3031208441D
:1018C300EDB50312084450E00312084461E003122B
:1018D300084490D5031208449ED503120844B9E086
:1018E30003120844FBDD031208440BDE0312084411
:1018F30020DE0312084468DE03120844DADA031216
:1019030008445FDB03120844C3DB03120844F6FFF9
:10191300011208444FC6031208445DC6031208446B
:10192300D7C603120844AFC7031208443AC90312C7
:101933000844DCDB0312084487DC031208449FDC01
:101943000312084403AA0312084458AA03120844C2
:1019530054AC0312084486AC03120844A8AC031227
:101963000844C1AC03120844DAAC03120844E4ADE2
:10197300031208447FAE0312084448D703120844F5
:101983006DD7031208447DD703120844B0D703125E
:101993000844E1D70312084416D80312084478D840
:1019A3000312084487D80312084491D80312084449
:1019B30066FD011208448CFD01120844C9FD0112A1
:1019C3000844D8FD01120844F7FD011208445FFEE4
:1019D3000112084468FE01120844C7FE01120844BC
:1019E300EBFE01120844AAFF01120844B7FF0112DB
:1019F3000844C8FF01120844E7DF0312084404E067
:101A03000312084405B80312084463B903120844D7
:101A130070B90312084483B903120844A2B903122C
:101A23000844B8B903120844CCB9031208444FBAA6
:101A330003120844B2BA0312084439BB0312084420
:101A430097BB03120844A7BB0312084462DD0312C9
:101A5300084486DD03120844AEDD03120844D6DDD4
:101A630003120844C3CC03120844EACC031208440B
:101A73000BCD0312084470CD0312084429CF03127F
:101A8300084442CF031208444ECF0312084462CFE6
:101A93000312084480CF031208448ACF0312084478
:101AA30094CF03120844A7CF03120844F8CF0312BC
:101AB300084431D00312084460D003120844AED066
:101AC30003120844FDD00312084418D1031208443A
:101AD30022D10312084433D10312084479D10312EB
:101AE300084471DE03120844DCF50212084408F6C8
:101AF3000212084424F60212084437F6021208447C
:101B03004DF602120844B9F602120844ECF602122A
:101B130008441BFB0212084441FC0212084474FCF3
:101B230002120844C0FC02120844F9FD02120844E0
:101B330021FE0212084436FE0212084446FE021237
:101B430008448AFE02120844DFFE02120844EFFE34
:101B5300021208449BD803120844B6D8031208445F
:101B6300DFD803120844F9D8031208441ED903121C
:101B730008443DD90312084455D90312084483D9B4
:101B8300031208449DD903120844A3DF0312084437
:101B93006ABF0312084471BF031208447DC00312D5
:101BA3000844ADC003120844D3C003120844F6C06E
:101BB3000312084418C10312084452C10312084413
:101BC300B8C103120844F1C1031208443DC2031211
:101BD30008446AC2031208448AC203120844CED9D5
:101BE30003120844E6D903120844D4DA0312084462
:101BF300D7DA03120844D77E00120844497F001243
:101C03000844877F00120844C87F00120844B6BB0B
:101C130003120844D5BB0312084424BC031208442E
:101C230040BC0312084471BC031208447EBC031277
:101C330008448BBC0312084477BD03120844B5BDA6
:101C430003120844C5BE03120844D0BE031208445D
:101C5300E2BE03120844EBBE03120844F5BE0312AE
:101C63000844BEAE03120844DEB203120844ECB2C9
:101C73000312084423E0031208449BE003120844C0
:101C830021D402120844D1D10212084458D10212BD
:101C93000844FFD0021208448FD00212084466D0D1
:101CA3000212084446CE0212084412CE021208441D
:101CB300DFCD02120844C3CD02120844D2CC021273
:101CC30008448ACC02120844D5CA0212084455CAF1
:101CD3000212084452CA0212084452C902120844AA
:101CE30020C9021208445DC80212084488C60212C1
:101CF30008443EC60212084410C6021208440DC628
:101D030002120844A5DE0212084445DE021208440A
:101D1300FDDD021208446FDD0212084462DD021287
:101D23000844FAC502120844A5C50212084494C522
:101D3300021208445CDA021208448AC402120844FC
:101D430020C402120844CEC3021208446FC3021215
:101D53000844BED702120844618D031208443EC3EF
:101D63000212084406C002120844C6BF0212084405
:101D7300BABF021208441ABF021208445ABE021222
:101D83000844DCBB021208446DB9021208442BB9A3
:101D930002120844FFB702120844B4B702120844FF
:101DA300F3B602120844C6B60212084409B6021278
:101DB3000844D9B50212084487D6021208449FB5D5
:101DC30002120844F2980300000080FBE473000150
:101DD3003636010100010201000103010001040183
:101DE300060605020000070100340801000F09047C
:101DF30001010D0100FF0E08000017020000190188
:101E030000FF1A0100011B0100FE1C0100081D0256
:101E130000001F0100012001000121020000230135
:101E2300000F2402000026010001270100082802F8
:101E330000FF2A0100072B0102402C0100002D01A5
:101E430000012E0100012F0100FF30010B1C31089E
:101E530000003A0100083B01000F2F0100000300BE
:101E63007100300160001100700031022003500442
:101E73008000100061000000140063007300720012
:101E8300620043000000130006000000000004008D
:101E930012000000000000000000040004003700EE
:101EA30037003C0244000000000000000000650011
:101EB30000003500810000000500000083000000E1
:101EC300010171010101010111010101310101014F
:101ED30001018001100161013B00140063017301E2
:101EE3007201620143010001130106013D01350046
:101EF30004011201000100010001000104010401B9
:101F0300330133013C014401320136000001000179
:101F13006501000135008101000105018201830192
:101F23000001030471040204600411047004020438
:101F33000204010402041004610400041404630491
:101F430073047204620443040004130406040004CB
:101F530000040404120400040004000400045104F7
:101F630064000004000400044404000400040004AA
:101F730000046504000435048104640005040004BE
:101F8300830400040103710301030103010301033B
:101F930001032203020301031003000300030003F0
:101FA30000030003000300034203000324030603AA
:101FB3000003000304031203250323032503230360
:101FC30004030403000300030003440300030003AA
:101FD3002303000365032100350381030003050385
:101FE30000030003000303027102300160021102C7
:101FF30070020102020202028002100261023A0030
:10200300410063027302720262024302000213027E
:102013003800000200020402120200020002000261
:10202300000204020402370037003C0244020002AB
:10203300390000020002650200023502810200023B
:10204300050282028302000236000100060000003E
:102053000F0000000000000000000000000003FF6C
:10206300FF00000403FFFF0000FFFF0FF401000562
:10207300C4040320000100030B0000000000000063
:102083000003010F000042181300D6170100421885
:1020930002008E170300941704009A170500A01777
:1020A3000600AC171100CA171400D0171500BE178D
:1020B300FFFF000001040E06340E082E0E0B400E27
:1020C30010800D020A0E05220E07100E0CE60D0DF0
:1020D300F80DFF000003EAF5E5D5D5C5B5A595953F
:1020E300858575756565555545453535252515151D
:1020F300050C123C121212181236122A1224124222
:102103001248124E125A121E1206120012840004B2
:10211300006E0D83000200850D01040200870D008F
:10212300000000000000160F00000B150B02000258
:10213300220F32000006F61208130E13D6111413E1
:10214300D011DC1110110A1146114C114011F81075
:1021530050136E137413561362135C130C0E020B9D
:10216300040B0A0708000F303016181920231A1C15
:102173001E30000119161816161523030000034913
:1021830048424D1817250502303017181921301B06
:102193001D1F3000383C3E363B3B352B432C44134C
:1021A3001A1320132C1326133012541268136012BF
:1021B30066120204020101010109021C1122111617
:1021C30011521128113A1100BE040A0E0015000421
:1021D300007F00E8030C002800000000000903084A
:1021E300100C0A03080900040001FF1E1E0C05045D
:1021F3000F08C082C0838A828B83E0D2E7F0121675
:10220300F202336AC082C08379001226C1125231AE
:10221300C082C08390033412447CD083D082C3E055
:102223009CA3E09D500C125A62FAA3E0122238607C
:10223300010902336AFBEA75F00BA4FAA8F075F002
:102243000BEBA428FB900336E02AF8A3E03B88823B
:10225300F583E0540F2274F712040589081226C18E
:10226300122767ACF075F00BE9A42CF9900336E064
:1022730028FEA3E039FF740165086006740265084F
:1022830070208A828B8312275312343474026508B8
:10229300701B12261212279A70138E828F83E4F01A
:1022A300800BEA2403FCEB122735122741EEFAEFE9
:1022B300FB120B1002339D74F41204051263907920
:1022C300008E828F83E06076890A890B8065E50A38
:1022D30075F00BA4FAA8F075F00BE50B122245700C
:1022E30046E50A75F00BA4F8AAF075F00BE50B129E
:1022F30027798E828F83E085088285098312285B84
:10230300850882850983A3123434EE2403FCEF127B
:10231300273E12307C124E1CAA08AB09120B10790F
:102323000190033412482BE50A2401F50AE50B3426
:1023330000F50B12261AE50A9AE50B9B4090024A18
:102343005974F5120405EAFEEBFF740B120AE51249
:10235300337A750A01EC4D602BEC1263ACED12522B
:102363003112342B7901120B1CE5084509606F8586
:102373000882850983A312639A7902AA08AB09121A
:102383000B1C805AE5084509602B125399123A6ACF
:1023930012307D122784700CEEFAEFFB120B22E948
:1023A300F50A80CBEE2403FA1226BC70317903EED2
:1023B300FAEFFB80CA8E828F83A3E064FE7003A3CF
:1023C300E0F4700BEE24030A0A0A1226BC700CEE2A
:1023D300FAEFFB120B22E9F50A8003750A00A90A3A
:1023E3007F0302061D74F71204059003341233AD04
:1023F300EA4B602FEA75F00BA4FAA8F075F00BEB2B
:10240300A428FBEAFEEBFF12155A9003361233ADF4
:102413009003361246706012EEFCEFFD7900121441
:10242300BE8007900336E4F0A3F002339D9003349B
:10243300123DDAC3EE98EF9922C082C083EC4D605F
:1024430005121C0880097C087D0079001214BE0265
:10245300336A74F61204057900EA4B601878008831
:10246300081256D1EB125A5E60047901780808E825
:10247300C3940840EA022E3D74F712040574F31264
:102483000923ECFEEDFF851882851983E4F004121D
:102493000AE5EAF0A3EB124BA57403120AE5AC823A
:1024A300AD83EEFAEFFB120B34EEFAEFFB120B3AAD
:1024B30002339874F712040574F3120923ECFEED4A
:1024C300FF851882851983E4F0EAFCEBFD7403129F
:1024D3000AE51228547401120AE51234278E828FFA
:1024E3008312343474FE68700374FF6960047901E5
:1024F3008002790002339874F7120405EAFEEBFFB9
:1025030012255870141225638E828F83E0F4F88AA3
:10251300828B83E058F0120B10A90802339D74F7E5
:10252300120405EAFEEBFF7508008E828F83E060DC
:1025330022122558701D1225638A828B83E08F83B4
:102543008E82F8E058700CE0F88A828B83E048F0C2
:10255300120B1080C4120B16E9F5087401650822EA
:102563001263A512276B1226ADFAA3E039FB22747E
:10257300F41204058A088B097C007D0012261212CE
:1025830027411226D2126397790085088285098331
:10259300A3E064FE7003A3E0F460717E007F00801B
:1025A30062EEFAEF1222386057EEFAEFFBEA75F0AB
:1025B3000BA4FAA8F075F00BEBA428FB900336E00C
:1025C3002AF50AA3E03BF50B850882850983A3124C
:1025D3004AF3850A82850B83A3E06A7003A3E06B49
:1025E300701EE50A2403FAE50B1226BD700AE50AFC
:1025F3002403FCE50B12273E1226C679011253A0D1
:10260300122F9F12261AEE9AEF9B4095024A59EA1F
:1026130024030A0A0AEB22900334124F82C3227462
:10262300F31204058A088B098A828B83A312639AA7
:102633001226C1126397750C001226121226BD7062
:10264300547E007F00804912269FFAA3E0398A82D4
:10265300F583E0540F603612269FF50AA3E039F59F
:102663000BE50A2403FCE50B1227483400FB121C7C
:1026730002E964017017850A82850B83A312504314
:10268300A31234341226C6750C011253A0122F9FC5
:1026930012243040B2A90C7F0502061DEEF8EFF9B3
:1026A300E875F00BA4F81226AD22AAF075F00BE939
:1026B300A42AF9900336E02822EF1227942212630A
:1026C300ABEB221226D2123086EEF0A3EFF022E516
:1026D300081263ACE5092274F5120405EAFEEBFF68
:1026E3008E828F83A312639A7C007D00EE24030AFB
:1026F3000A0AEF122741EEFAEFFB120B16E9F50A6D
:102703007401650A70291263A5122767AAF075F090
:102713000BE9122779850882F58312275312278440
:10272300700DE5082403FCE5091227351227410241
:1027330023E13400FDEE2403FAEF2212274834008C
:10274300FB120B34223400FDE5082403FAE50922C9
:10275300A31227582212275C22E0F8A3E0F98E8205
:102763008F83A32212276B223400F583123DDEE808
:1027730075F00BA4F8221226B3F508A3E039F50986
:1027830022E8F0A3E9F0E5082403FAE50912279407
:102793002212279A6401223400FB120B3AE92274B5
:1027A300F312040574E6120923126390750C017584
:1027B3000800750900750A00750B008518828519D4
:1027C30083E4F0EE2403FCEF3400FD7403120AE506
:1027D300122854E964017023740B120AE512342B96
:1027E3007401120AE5124AF77003A3E06960518588
:1027F3001882851983858208858309740D120AE579
:10280300E412285B740E120AE5123434740D120AB2
:10281300E5AA82AB83120B58E96401700B740D12A5
:102823000AE585820A85830B780A12087CAC08AD19
:1028330009EEFAEFFB120B28740212088FE9F50C6C
:10284300EEFAEFFB120B52A90C741A12088F022630
:102853009A122B45120B5E221233A8123DDA22C0C4
:1028630082C08378007900800312295212261AE865
:102873009AE99B5029E8FAE9FBEA75F00BA4FAAC54
:10288300F075F00BEBA42CFB900336E02AFCA3E0DD
:102893003B8C82F583E0540F70CF7900800279017D
:1028A30002336AC082C0839021D0123E30EC75F0AF
:1028B30012A4FCA8F075F012EDA428FD79FF7AD9D3
:1028C3007B071214BE02336A74F7120405E9FEEAA9
:1028D300FF7A007B00780079008028E8FCE9FDECB2
:1028E30075F012A4FC85F00875F012EDA42508120A
:1028F3002D85C39E400AE0FCEFC39C4003122E7457
:10290300122952122D7940D302339DC082C083789D
:102913000079008003122952122946501F122D8973
:10292300F470F2E875F012A4F8AAF075F012E9A4B5
:102933002AF974D928FA740739FB80047A007B00DA
:1029430002336A9021D0122E42C3E89AE99B22E80F
:10295300240108E93400F92274F012040574F31217
:1029630009238A0A8B0B8C0C8D0D8908EC450D60AD
:1029730016AA0CAB0D120BAC8A0E8B0FAE0EAF0F5B
:10298300EE4F6003022A19120B828A0E8B0FA80ED8
:10299300A90FE8FEE9FFE849607C9021DE122A993D
:1029A30060227403650860067404650870167A046F
:1029B3007903120B7C9021DE122AB040077A007B48
:1029C30000022A969021DC122A99601B7401650883
:1029D300600674026508700F7A027901120B7C900D
:1029E30021DC122AB050D68518828519837401F030
:1029F300120AE5124E1CAC0CAD0D7403120AE5125B
:102A03002B3E740B120AE51233711237E7E4124EB0
:102A1300041210508004EE4F6068780074FF25089C
:102A2300C39404500278048E828F83124E1C8E82CC
:102A33008F83A3A3A3A3E508F0E88E828F83A3A3C8
:102A4300A3A3A3124E241202B4E88E828F83A3A3FE
:102A5300A3A3A3A3A3A31235CB74011235CBA3F075
:102A6300EE241012522EE4F0A31231DAA3F0123046
:102A73007CE4F0908043120AC2EE240C12522E1210
:102A83000ACE122A9E4005900D35E4F0120F2AEE6D
:102A9300FAEFFB023DE4124F3849227A047900121F
:102AA3000B7C9021D0125A44EA98EB9922122AC93E
:102AB3007583217582D0E493C398F8A3E49399F9BD
:102AC300C3EA98EB9922E493F8740193F92274F220
:102AD30012040574F31209238A088B09ECFEEDFF37
:102AE300750A00EEFAEFFB120BAC8A0C8B0DA80CE7
:102AF300A90DE849603E88828983E065087004A3D4
:102B0300E06509602F88828983A3A3A3A3E0C3940C
:102B13000550211252478518828519837401F012DA
:102B23000AE512524BEEFCEFFD7403120AE5122B79
:102B33003E750A01A90A740D0248E2122B45120BD5
:102B43006A22AA82AB83120B34851882851983AA61
:102B530082AB832274F6120405122B93600FA3A396
:102B6300A3A3E014C3940450047901800279000202
:102B73002E3D74F6120405122B93600FA3A3A3A397
:102B8300E014C394025004790180027900022E3DBF
:102B9300120BA68A828B83E58245832274F6120484
:102BA30005122B93600BA3A3A3A3E0700479018008
:102BB300027900022E3DC082C083EAFCEBFD7A005D
:102BC3007B00023367C082C0837C007D00023367D1
:102BD30074F412040574F3120923EAFEEBFF8C0A62
:102BE3008D0BC3EC94F8ED94FF4007EE4F70030296
:102BF3002C8C750800750900802E85188285198331
:102C03007401F0122FC7120AE5122FD56013740353
:102C1300120AE5AC82AD83EEFAEFFB121C02E970F7
:102C230049E5082401122E259021D0E4125CCCE55D
:102C33000898E509995052E50875F012A4F8AAF02E
:102C430075F012E509A42AF9125A7760D4EE4F7091
:102C5300A974FF650A700474FF650B60C4122FB773
:102C6300650A7004A3E0650B70B7E50875F012A45C
:102C7300F508A8F075F012E509A428F50974D9251B
:102C830008FA74073509FB80047A007B00024A5472
:102C930074F412040574F3120923750800120BACC3
:102CA3008A0A8B0BAE0AAF0BEE4F602A851882851A
:102CB300198374011233A2F8A3E0F9740B120AE525
:102CC3001234AF120B4C7C127D0079FFEEFAEFFB4E
:102CD3001214BE750801122A9E5009900D35740115
:102CE300F0120F2AA908024A5474F7120405E9FEE8
:102CF30074FE6A700374FF6B78007900700580526C
:102D0300122952122D79504AE8FCE9FDEC75F012B4
:102D1300A4FCAFF075F012EDA42F122D85F460E042
:102D2300E8FCE9FDEC75F012A4FC75F012EDA42F9C
:102D3300FD74D92CF58274073DF583E06A7003A313
:102D4300E06B70BC8009122D8914C39404401712E0
:102D530029521229465018EE70EC122D8964016035
:102D630005E0640370E9122FA8FAA3E0FB80047A5C
:102D7300FE7BFF02339D9021D0123E34C3E89CE9D1
:102D83009D22122EA922E8FAE9FBEA75F012A4FAB1
:102D9300ACF075F012EBA42CFB74DD2AF5827407FA
:102DA3003BF583E022120BBE02336AC082C08379F3
:102DB3000180F274F01204058A0A8B0B7A047901FC
:102DC300120B7C8A0C8B0DEA450D603EEAC333FA85
:102DD300EB33FB12155A8A088B09AE08AF09EE4F85
:102DE30060237AFE7BFF120BC474FE6A700374FFC8
:102DF3006B601B8508828509831233ADE5082402C5
:102E0300122E2580E1750C0080047E007F00850A68
:102E130082850B83E50CF0EEFAEFFB023DE9E50852
:102E23002407F508E5093400F509229021D0123E64
:102E330034C3EA9CEB9D2212088F7F0202061DE435
:102E430093FA740193FB22C082C0837A007B0080D3
:102E53000419122E74122E2E5010122E93C39405A1
:102E630050F0E970EC122E7D80047A007B0002336F
:102E73006AEA24010AEB3400FB22EA75F012A4FA91
:102E830075F012EBA428FB74D92AFA74073BFB22D2
:102E9300EAFCEBFDEC75F012A4FCA8F075F012ED62
:102EA300A428122EA922FD74DD2CF58274073DF5AA
:102EB30083E02274F712040574F31209237E007F62
:102EC30000022F5BE50875F017A4F8A9F0125CDF88
:102ED300FAA3E0FBEEF8EFF9E875F012A4F8ACF012
:102EE30075F012E9A42C122FB66A7003A3E06B608D
:102EF3003FE50875F017A4F8AAF0EA125CDEF8A320
:102F0300E0F97401120AE5E0687003A3E069602048
:102F1300E50875F017A4F8EAF9745528FC74093923
:102F2300FD7403120AE5AA82AB83121C02E9601442
:102F3300E50875F017A4F8A9F0745328FA74093951
:102F4300FB12105C05089021E3E493F8E508C398AD
:102F53005003022EC7122F9F9021D01260255039A3
:102F6300EEF8EFF9122FA8F47003A3E0F460E685FE
:102F730018828519837401F0EEF8EFF9E875F01201
:102F8300A4F875F012E9A42AF9122FC7120AE51260
:102F93002FD560C175080080AD023398EE24010E71
:102FA300EF3400FF22E875F012A4F8AAF075F012CE
:102FB300E9A42AF9122FBB2274D928F582740739A0
:102FC300F583E02274DB28F582740739123DD87447
:102FD3000B22E8F0A3E91234B7120B64E922C08292
:102FE300C08390033D741CF0A3740EF090033F74F0
:102FF30016F0A3740EF09003437436F0A3740CF030
:1030030002336A74F7120405EAFEEBFF900377E0DC
:103013006408601BE0640460168E828F83E05403AF
:103023006401704812307C1238DFE06406703D8E14
:10303300828F83A3A3E064FE7003A3E0F4602D8E6C
:10304300828F83A3A3123427900368E0687003A3DD
:10305300E069700BEE2415F582EF125A5E600812D8
:103063000ECAE9F5088008120ED080F67508C2EE84
:10307300FAEFFB12156002251CEE12308122240B9D
:10308300F582EF3400F5832274F41204058A088B69
:10309300098A828B83E0F8A3E0FAE82AFAE4340091
:1030A300FB12155A8A0A8B0BAE0AAF0BEE4F606008
:1030B300850882850983E0FC7D0079001214BE8EA9
:1030C300828F83A3A312639A120F0C8E828F83A322
:1030D300A3A3A31233AD850882850983E0F8EE2804
:1030E300F8EF340012342F850882850983A3E0C0EA
:1030F300E012522BD0E0F0120F1EEE240E12522ECD
:10310300E9124A4AE0C0E0EE241112522ED0E0F058
:10311300EEFAEFFB024A5974F612040574EB120936
:1031230023EAFEEBFF12466D60030231BE7A077B92
:103133000012155A9003391233AD12466D60788E22
:10314300828F83120AC290033A1238E2120ACE1215
:10315300625EC0E01231CAD0E0F0EE2405FAEF342B
:1031630000FB8A088B098A82F583E0C0E01231C52F
:10317300D0E01231DAE0C0E01231C5A3D0E012345E
:1031830019120AC2851882851983120ACE88828988
:1031930083E0C0E07405120AE5D0E0F0850882857B
:1031A3000983E0C0E07404120AE5D0E0F07407126A
:1031B3000AE512330480067910800279017415023E
:1031C3002E3A1231CAA322900339E0FAA3E0F58321
:1031D3008A82A3A3A3A3221237EF22C082C0831241
:1031E300466D600D900339124F70900339E4F0A3DC
:1031F300F0120E3A120FFC02336A74F012040574D3
:10320300EB120923ECFEEDFF89087425120AE57819
:103213000C120A887429120AE5E0F9742A120AE5E5
:10322300E0FC742B120AE5E0FD740F697005740F5E
:103233006C6012900D7AE06402700579C10232FF6E
:10324300E9C39C40F6900378780C120AA6E508902F
:10325300037EF0E990037CF0ECA3F0ED90037FF0A4
:1032630074FF6A700374FF6B701D900D85E0F4703A
:1032730003A3E0F470051214CA800C900D85123379
:1032830082E8F0A3E98007900375EAF0A3EBF0EE80
:103293004F6017EEFAEFFB1210BCE96401700BEEFE
:1032A300FCEFFD7A897B03121C08900368E4F0A30A
:1032B300F090036BF0A3F0900388F0900D7AE06434
:1032C30002700890037C740FF0A3F09003777405E9
:1032D300F014120AE5E4F0900378120AC28518820A
:1032E300851983120ACE90037EE0C0E07405120AAA
:1032F300E5D0E0F07407120AE51233047415023DB9
:10330300E6E41234B7121C3222C082C08390033821
:10331300E070031217C4120C06804CC082C0839065
:103323000338E0900D347004E4F0802D7401F090C4
:103333000338E0F460237C41E0C394415002E0FC95
:10334300ECF8E0C398F0EC75F0E8A4CCA8F075F0C5
:1033530003A428FD7A80123E3C7A347B0D79411216
:103363001C208003120BB2D083D082020841123397
:10337300752212275CA322E0F508A3E0F5092212C7
:103383003DDA9003752274F7120405EB90037FF086
:10339300120E288005740D12088F7F0102061D127C
:1033A30033A8A3E022123419A322EAF0A3EBF022FC
:1033B30074F712040574F8120923EAFEEBFF79008F
:1033C300900377E06408704485188285198374FD3F
:1033D300F0A374FFF0120F067402120AE51233AD64
:1033E3007405120AE5E41233A8E0C0E07404120A7B
:1033F300E5D0E0123414C0E07406120AE5D0E0F020
:103403007407120AE5E41234B3120F487408023346
:103413009A123419E022F08E828F8322F08518826B
:1034230085198322123DDA22E0F8A3E0F9EE123087
:1034330081E8F0A3E9F022C082C08390034974C6F7
:10344300F0A3740CF09003EF74A2F0A3740FF09048
:10345300034D74FCF0A3740CF090034F74C6F0A3F7
:10346300740CF09003517402F0A3740DF002336AEC
:1034730074F412040574F91209238A088B098C0A5F
:103483008D0B8518828519837808120AA674041295
:103493000AE5E9F07405120AE5E4F07406120AE598
:1034A300E41234B3120BEE7407024A56E8F0A3E9B0
:1034B3001234B72212341FAA82AB832274F412048B
:1034C300058A088B098A828B831253A3EE4F7003FC
:1034D3000235C890031212467060158A828B83A34B
:1034E300A3E0F9EEFAEFFB9003131238E2121DCFBB
:1034F3008E828F83A3A3A3A3A3A3A3A3A3E06402A6
:1035030070718E828F83A3A3A3A3A3A3E05402703D
:103513000302359A850882850983A3A3E064E960E1
:10352300768E828F83A3A3A3A3A3A3A3A3A3A3E0C2
:103533007014900D7DE0048E828F83A3A3A3A3A3B5
:10354300A3A3A3A3A3F08E828F83A3A3A3A3A3A365
:10355300A3A3A3A3E0141235CB7404F0900D7E1241
:103563004DF6E8F0A3E9125EC28B0BEA450B70033C
:103573001258958E828F83A3A3A3A3A3A3A3A3A36C
:10358300E0640260128E828F83A3A3A3A3A3A3A3E9
:10359300A3A3E06406702E8E828F83A3A3A3A3A3A9
:1035A300A3E0A2E0501F850882850983A3A3E0F965
:1035B300EEFAEFFB121CB08E828F83A3A3A3A3A307
:1035C300A3E054FEF0024A591237EFA3A3A32274D7
:1035D300EC12040574DD120923EAFEEBFF8C088D5F
:1035E300097437120AE5780C120A88750A00740503
:1035F300120AE5AC82AD83121D047412120AE5E0CF
:1036030070087415120AE5E060207405120AE5E0FB
:10361300A2E6501E8E828F83A3A3A3A3A3A3A3A377
:10362300A3124AF3120F7EE960087903121BF0021A
:1036330037D57405120AE5E0540C64047005750B64
:10364300018003750B00E0A2E55019750A01E50B33
:10365300A2E040101263A1124AEF121CBCE96004FD
:10366300790480C87405120AE5E0A2E650227406C4
:10367300120AE5E0540370187405120AE5E0540CCD
:10368300640C600CE0540C64086005751001800341
:103693007510007405120AE5E05403F874026870AB
:1036A3000C1263A1124AEF120AFE0237D5740168A5
:1036B300703AE510A2E050031237DD7405120AE5F3
:1036C300A882A9837403120AE5E8F0A3E9123DCEA8
:1036D3008518828519831237E7E0C0E07402120A65
:1036E300E5D0E01234B3121DA00237D5E86003021F
:1036F30037D590035FE0640170108E828F83A3A39C
:10370300A3A3A3A3E070030236637422120AE57431
:1037130002123DCE741A120AE5123434E510A2E007
:1037230050087405120AE51237DDE50BA2E0506A72
:10373300EE240FF582EF125A5EC0E07417120AE509
:10374300D0E0F090031412467070030237D5120FC5
:103753000C8A128B13A812A913741A120AE5E068D3
:103763007003A3E069706B780C120874780A12086E
:1037730080780812087CA910740C120AE5AC82AD9B
:10378300837421120AE5AA82AB839003141238DFF3
:10379300121DCF740712088F8038780C12087478C2
:1037A3000A120880780812087C9003751206ECEE62
:1037B3002412F582EF1257887423120AE5AC82AD06
:1037C30083740E120AE5AA82AB83121CA474091235
:1037D300088F742312088F025E8D1263A1124F7E2D
:1037E30012141022E8F0A3E91237EF221258CBA3E8
:1037F300A3A32274F71204051216AA02339D74F7C9
:103803001204051216B002339D74F7120405121642
:10381300BC02339DC082C0831216B602336A74F7AA
:103823001204051216C202339D74F71204057409BB
:10383300120AE5E0F50878081208801216CE740122
:1038430002339AC082C0831216DA02336AC082C07E
:10385300831216E002336A74F71204051216E602A5
:10386300339D74F7120405EAFEEBFF8908740165C2
:103873000870147900120D3E9021EEE493FC790058
:10388300EEFAEFFB120CB402339D74F412040574C8
:10389300F9120923E9FE8A088B098C0A8D0B74132C
:1038A300120AE5124AF39005651246706027EE8509
:1038B3001882851983F07401120AE57808120AA6A2
:1038C300EAF8EBF97405120AE51234AF90056512B4
:1038D30038DF121DCF0234AAFB90034BE0F8A3E0BC
:1038E300F583888222C082C08312171602336A745A
:1038F300F7120405900D37E0F97E00800B125A4A47
:10390300540D64017001190E123AEC5003E970ED85
:1039130002339D74F7120405900D38E0F97E0080A0
:103923000B125A4A548D64817001190E123AEC50ED
:1039330003E970ED02339D74F2120405890BE975F6
:10394300F006A4240CF508E5F0122E298A0CE508EC
:10395300250CFAE5093400FB12155A8A0C8B0DAEBF
:103963000CAF0DEE4F6027AC08AD0979001214BE01
:1039730012307CE50BF0EE2508F8EF3509F98E825D
:103983008F83A3A3A3A3A3A3A3A3A3123434EEFA05
:10399300EFFB0248E574F6120405EAFEEBFF120C96
:1039A30090900D36E0F8E9C3984009900345124A18
:1039B300F3120C96EE2402F8EF1250F39003471221
:1039C3004FAD900347E004F0EEFAEFFB120C9C8539
:1039D3000882850983E002559EC082C083790090E6
:1039E3000345800109124AF38A828B83E58245836A
:1039F30070F202336A74F7120405EAFEEBFFEE4F2E
:103A03006056900345124670604E888289837A001F
:103A13007B00EE65827003EF6583600FAA82AB8340
:103A2300123A5EE5824583602F80E7900345123AA0
:103A33006A687002EF698E828F8370081234279050
:103A430003458003125E9F123434EEFAEFFB121D1E
:103A530070EEFAEFFB12156002339D123A622212E6
:103A63003DDE8882898322123DDAEE22C082C08342
:103A7300900345800488828983124670600B888294
:103A8300898312447CEC4D70EC8A828B83E4F0A32F
:103A9300F0E84960068882898380039003451233E6
:103AA300AD02336A74F712040590034580048A82D9
:103AB3008B83123AE74B60257E0080010E123AECAD
:103AC30050ECEE75F006A4FCADF0EA2CFCEB3DFDEA
:103AD300EC2410F582ED123B3C70E180047A007B0C
:103AE3000002339D124F82EA22123B45EEC3982215
:103AF30074F71204057D0080010D123B41EDC3985C
:103B03005034ED75F006A4FEA8F0E8FFEA2EFEEBB4
:103B13003FFFEE2410F582EF123B3C70DCED75F0B5
:103B230006A4FEE8FFEA2EFAEB3FFBEA2411F58236
:103B3300EB125A5E4CF002339D125A6A6922123B11
:103B430045221263ABEB3400F583E0F82274F612DE
:103B53000405120DB67A007B008025EAF8EBF9E83C
:103B630075F006A4F8ACF075F006E9A42C124F57D3
:103B730012626CA3E412504DF0A31262721263E955
:103B83009021D8122AA840D37A007B00801C8A088F
:103B93008B09740378081209C5124A11A374FEF045
:103BA300A304124E36A3E41263E99021E2123BEF21
:103BB30040DC7A007B00801D8A088B097403780837
:103BC3001209C5747B1256D2740C125F2474FEF072
:103BD300A3041263E99021E8123BEF40DB9021EC50
:103BE300E493900353F0123BF9022E3DE493F8C3A0
:103BF300EA98EB9400227CE87D037A107B00900323
:103C0300C2E0F912160E2274F012040574F51209BB
:103C1300238A088B09890A8C0BE9A2E050147508E2
:103C2300FC7509FFA2E15005D2E4023CCCD2E302C9
:103C33003CCC1248D17003A3E06970057900023DC2
:103C430099AC0A7902AA08AB09120D92E960EDE575
:103C53000AF50C780C12088079027CFE7DFFAA0815
:103C6300AB0912464C12088FE96003023D97E50A3F
:103C7300C2E5F50A9003B5E07051E50AA2E6404BB0
:103C83007403120AE5AC82AD83AA08AB09120B4098
:103C9300E97032123F6D8A0C8B0DA80CA90DE8FE5A
:103CA300E9FFE8496025EE24020A0AEF12279A6029
:103CB3001AEE2402FCEF3400FD7403120AE5AA8213
:103CC300AB83121C08E50AD2E5F50A900348E0F538
:103CD3000C900368E0F50EA3E0F50F780E12087C54
:103CE3007D017C00900348E0F9AA0EAB0F120D4A48
:103CF300740212088FE9F8900348E004F0E86003C7
:103D0300023D97E50AA2E55004740E80027406C0D2
:103D1300E07401120AE5D0E01253B48A0E8B0FAEA1
:103D23000EAF0FEE4F6069123DB7123DCE88828908
:103D3300837401F07478550AA31263B1E50C12631E
:103D4300B1A3E508F0E509123DA6E4F0E50AA2E512
:103D5300500F7403120AE5AC82AD83E82406123DCA
:103D63009D8E828F83A3A374FDF0A374FFF0E50BF4
:103D730060159021EFE493F8E50BC3985009EE2406
:103D83001312522EE50BF0EEFAEFFB120BE2800654
:103D93007910800279C7740B8049FAE93400FB1269
:103DA3001C082288828983A3A3A3A3123DB22212F3
:103DB3005126A322EE24171230837401F0120F064A
:103DC300EE241A123083EAF0A3EB22F01263A53437
:103DD30000123DD822F583123DDE22E0F8A3E0F97C
:103DE30022740D12088F7F0802061D74F612040553
:103DF3007A007B101258A260089003D47401F080FB
:103E030029900602E06401900D7B7006E0FC7901C5
:103E13008004E0FC79037A007B00120CB49021D675
:103E2300123E307A007B10123E3E022E3D123E348B
:103E330022E493FC740193FD227B009003C2E0F91A
:103E43001216082274EC1204058A088B098C0C8D57
:103E53000D890E7414120AE512482B7416120AE522
:103E6300E0F510A3E0F511120F7EE960077AFF7BFE
:103E7300FF023F6A900D7AE064026003023F5D79BE
:103E830000AA08AB09120D98A90E120D8C8A128B89
:103E930013AE12AF13EE4F7003023F458E828F8332
:103EA300A3A3A3A3A3E064018E828F83A3A370695A
:103EB300124AF38E828F83A3A3A3A3A3A3E0541870
:103EC30060439021EDE4938E828F83A3A3A3A3F099
:103ED300EA650C7003EB650D6014EA650A7003EB89
:103EE300650B600AEA65107003EB6511701F7810AB
:103EF30012087CAC0AAD0BAA0CAB0D12107A74023B
:103F030012088F800890036712588CA3F074FE6A1E
:103F1300700374FF6B601D804EA3A3A3E064036072
:103F2300298E828F83A3A3A3A3A3E0640470057ADD
:103F3300FE023E728E828F83A3A3A3A3A3E0640237
:103F430070089003B4E064027010123F6D8B0BEAAB
:103F5300450B6006AA08AB09800DAA08AB099003BC
:103F6300491238DF121DCF025E8D9003751246523F
:103F730012103E2274F7120405EAFEEBFF120B94B3
:103F8300E9700AEEFAEFFB120BA0E96006EEFAEF16
:103F9300FB80047AFE7BFF02339D74F01204058AD2
:103FA3000A8B0B8C0E8D0F8909750800120F7EE9A1
:103FB30079006003024114AA0AAB0B120D98A909F8
:103FC300120D8C8A0C8B0DAE0CAF0DEE4F60198E5B
:103FD300828F83A3A3A3A3A3E0640270559003B4C9
:103FE300E064027003024112AA0AAB0B90034F1262
:103FF30038DF121DCF120BA68A0C8B0DA80CA90D4E
:10400300E849700302411288828983A3A3A3A3A36F
:10401300E0A2E04003024112750C01A2E15068796D
:1040230001AC0AAD0BAA0EAB0F120CE4E9706402EB
:1040330041128E828F83A3A3A3A3A3E0640370051D
:10404300750C0280528E828F83A3A3A3A3A3E06483
:1040530001600302411290037512447C8E828F83A8
:104063001244688A0C8B0DA80CA90DE84960D19005
:1040730021E6E493FA88828983E0C39A50C2A3E0DD
:10408300600302411280B988828983A3A3A3A3A3F7
:10409300D2E1F0EE4F603A8E828F83A3A3A3A3A352
:1040A300A3E05418602B7508018E828F83A3A3129B
:1040B30006EC750CFE750DFF780C12087C7900ACCC
:1040C3000AAD0BAA0EAB0F120DAA740412088F804F
:1040D3003E900368E0650E7004A3E0650F701490D2
:1040E30021EEE493FCA909AA0AAB0B120CB47508E0
:1040F30001801CA90CAC0AAD0BAA0EAB0F120CE489
:10410300E9700C750801A909AA0AAB0B120D3EA9A7
:1041130008023DE974EA12040574F01209238A0CBB
:104123008B0D8C088D097426120AE5E0F514A3E0C3
:10413300F5157512069003F512467060239003750A
:1041430012447CAA08AB091210688A108B11EA4545
:1041530011600D8A828B83A3E070057900024450BD
:10416300E50C241DF50EE50D3400F50F850E8212C6
:10417300465CF51388828983A3A3A3E0FA88828926
:1041830083A3A3A3A3E0F9EA2400FEE439FFAA086A
:10419300AB09120D44850E82850F8312449AE029E0
:1041A300F50BE50AA2E5500375120E7487550A70E4
:1041B300177418550A6418600FE50C2417F582E587
:1041C3000D125A5E651260077901121BF0808C5341
:1041D3000A78C3EE94F8EF94FF501D7900EEFAEFDE
:1041E300FB12445A601288828983A3A3A3A3A3A3C7
:1041F300E05418600302415E780812087C7D0012C7
:10420300448D12088FE9F8740368700302415EE875
:1042130060030242C97418550A700302437EE50A1B
:10422300D2E0F50AA2E45004D2E1F50AA90A124A3F
:10423300EC12445A605388828983A3A3A3A3A3A344
:10424300E05418604488828983A3A3A3A3A3E064F2
:10425300017036E5104511603090037512447C8877
:104263008289831244688A0E8B0FA80EA90FE8492E
:10427300601788828983A3E0600F8510828511838C
:10428300A31255A9500302415EE50AF50E780E12FA
:10429300088012448012088FE9702B7C007D008512
:1042A300148285158374FFF0A3F0850C82850D833A
:1042B300A3A3A3A3A3A3A3A3E06003124471A90B25
:1042C300124AEC1216D4851482851583E0F4700328
:1042D300A3E0F460399003B4E06402700302415E2A
:1042E30012481CE0FAA3E01238DB121DCFEA65087E
:1042F3007003EB6509600302415EEEFAEF1238DBEF
:10430300121DCF851482851583EAF0A3EBF078089C
:1043130012087C7D0112448D12088FA90AEEFAEF70
:10432300FB120D988A088B09A808A909900368E075
:10433300687003A3E0696003024441EEFAEFFB12E5
:104343000BA68A088B09A808A909E849606E888228
:104353008983A3A3A3A3E06401600D88828983A357
:10436300A3A3A3E064027054851882851983AC82E9
:10437300AD83EEFAEFFB120B408055900361E060D2
:104383000FE50AF50E780E12088012448012088F8A
:10439300E50AF50E780E12088079027CFE7DFFEEA9
:1043A300FAEFFB12464C12088FE960030242C985FB
:1043B300148285158374FFF0A3024310120F06EADB
:1043C300FCEBFD851882851983AA82AB83121C0836
:1043D300850C82850D83A3A3A3A3A3A3A3A3E06456
:1043E30001700F1244717408120AE5AA82AB83129A
:1043F3001C081246261252354430F5087808120874
:10440300807401120AE585820885830978081208F9
:104413007C740B120AE585820885830978081208E3
:104423007CE513F50878081208807900EEFCEFFDAF
:10443300124AEC120CDE740612088F02415E124619
:104443002612523112449AE50BF0120F1E74101209
:10445300088F7F0E02061D120D8C8A0E8B0FA80E7D
:10446300A90FE84922A3A3124F8212106822E50C78
:104473002415F582E50D123086124E10227901AC17
:1044830008AD09124F7712464C22AC0BA913124FF9
:1044930077120D4A74022212523DA3A3A3A32274DE
:1044A300F012040574F01209238A0C8B0DECFAED5B
:1044B300FB750F089003F512467060141255A28A1B
:1044C300828B83E58245836007A3E0700302462164
:1044D300124626340012465CF50B88828983124605
:1044E3002FE0FBEC2400FEE43BFF88828983A3A337
:1044F30012462FA3A3E0FBECF508E43BF509888201
:104503008983A3A3A3A3A3A3A3E0F50EE50AA2E4CF
:104513005003750F10A2E550067408250FF50F74AC
:104523008F550A700FE50C2417F582E50D125A5EBC
:10453300650F60087901121BF0024621530A707857
:1045430000E50AA2E45022124626125A5E2408FC11
:10455300A3E03400FD7408120AE5AA82AB83121C9F
:10456300087808E50AC2E4F50AE50AA2E55028122C
:104573004626125A5E28F8A3E03400F9E82408FC22
:10458300E93400FD851882851983AA82AB83121C46
:1045930008E50AC2E5F50AAC0EA90BEEFAEFFB1229
:1045A3000D50E9F87403686075900368E06E70035A
:1045B300A3E06F605EE87054E50AF50F780F120808
:1045C3008012463D12088FE97054780A12088074ED
:1045D30001120AE585820C85830D780C12087C7420
:1045E3000B120AE585820C85830D780C12087CE595
:1045F3000BF50A780A120880A90EAC08AD09EEFA89
:10460300EFFB120CDE740612088F801274046870BC
:104613000D80B7780A12088012463D12088F741075
:10462300023DE6E50C241DF582E50D22A3A3A3E0DC
:10463300FC88828983A3A3A3A322790112482312AE
:10464300308612465212464C22120D08740122E0A3
:10465300FCA3E0FDAA08AB0922F583123A62A3E0AA
:10466300F50A88828983A3A3E022900339124FDEDF
:104673002274E812040574F5120923EAFEEBFF8C99
:10468300088D0989147423120AE5E0F50F742412C6
:104693000AE5E0F512A3E0F5137426120AE5E0F546
:1046A30016A3E0F5177428120AE5E0F50EA90F1218
:1046B3000D568A108B117401120AE57408F0E50E89
:1046C300A2E450037410F0E50EA2E55004E02408C0
:1046D300F0851882851983AA82AB83120F668A0C30
:1046E3008B0DEA450D7003024803EA2417F582EBAC
:1046F300124815120F06E50C241AF582E50D125225
:10470300311233AD7403120AE5AC82AD83AA10AB48
:1047130011120B40E9601D12480D7403120AE5A83B
:1047230082A983E50C2418F582E50D125231E8F0D5
:10473300A3E98024E50EA2E4501FE5106E7003E5A3
:10474300116F701512480DE50C2418F582E50D1252
:104753005231E512F0A3E513F012481C12482B85E1
:104763000A82F5837402F0A3E50E124833E50FF0D5
:10477300EE850A82850B83A3A3A3F0EF850A8285C6
:104783000B83A3A3A3A3124833A3A3A3E508F0E5D4
:1047930009850A82850B83A3A3A3A3A3A3F0AA106D
:1047A300AB11120D44E92514850A82850B83A3A35B
:1047B300A3A3A3A3A3F0750800E50EA2E45011ACD4
:1047C30012AD13E50A2408FAE50B123D9F7508089C
:1047D300E50EA2E55014AC16AD17E50A2508F8E579
:1047E3000B3400F9E82408123D9D850C82850D8366
:1047F300A3A3E510F0A3E511F0AA0CAB0D120BE295
:10480300740B12088F7F1002061DE50C2416F58227
:10481300E50D1230867401F02212482312308622ED
:10482300E50C1263ACE50D22E0F50AA3E0F50B22DB
:10483300F0850A82850B83A3A32274F21204058AEE
:10484300088B09ECFEEDFF890A79001248D1700349
:10485300A3E069700479018073750B01900368E02C
:1048630065087004A3E06509601F750B00780B12DF
:104873000880A90AEEFCEFFDAA08AB09120FBA746F
:104883000112088FE9F50B80417900EEFAEFFB1274
:104893000D8CEA4B602B8A828B83A3A3A3A3A3A3D0
:1048A300E05418601C7508FE7509FF780812087C2F
:1048B3008A828B83A3A31206EC1261C112088F8034
:1048C300097901EEFAEFFB120C66A90B8014120DA5
:1048D300988A0C8B0DA80CA90D900368E06822122E
:1048E300088F7F0602061D74F41204057508C3754C
:1048F300090A7A10125EC98B0BEA450B7003123B4F
:10490300F9900353E014F0700C9021ECE4939003BE
:1049130053F0120DA47E007F00806C850882850908
:1049230083A3A3A3A3E06059F46056E5082404F528
:1049330082E5091258867049850882850983A3A3F5
:10494300A3A3A3E064037019790285088285098310
:1049530012447C850882850983A3A3124AF3120CAF
:10496300E4850882850983A3A3A3A3A3E06401606C
:104973001085088285098374FEF0A304124A43E478
:10498300F0122F9F122E219021DA126025408C7E87
:10499300007F008039120EAC8E088F0974037808EB
:1049A3001209C5743B2508FC740C3509FD7AF07BAC
:1049B3000C120E9AEA4B70DD8E088F097403780887
:1049C3001209C5124A1112626CE4F0122F9F902152
:1049D300E2E493F8C3EE98EF9400501B8E088F091E
:1049E300740378081209C5124A19E82407F582E905
:1049F30012588670D680A17E007F00800A124A2456
:104A0300600214F0122F9F12602240F18048124A74
:104A1300198882898322743B2508F8740C3509F9B7
:104A230022EEF8EFF9E875F006A4F8AAF075F0069F
:104A3300E9A42AF974DB28F582740B39F583E022A3
:104A4300124A4AA3A3A322F0850882850983A3A35C
:104A530022740D12088F7F0402061D74F7120405D9
:104A630074E1120923ECFEEDFF750800EE4F60724E
:104A73008A828B83E0241C1258B712467060638AC3
:104A8300828B83124AF3851882851983AC82AD83A6
:104A9300EA241BF582EB125788EA241CF582EB12F9
:104AA3004AEF120EEE740B120AE5124AF77003A3D3
:104AB300E069702E7402120AE5E064017024741D2B
:104AC300120AE51238DFE064017017741D120AE55B
:104AD3001238E1A3A3E0F88E828F83E06870037538
:104AE3000801A908741F02339A1248233400F5837E
:104AF300124F8222122758E0682274F4120405E947
:104B03007024790090034D1238DF121DCF8A0A8B6F
:104B13000BAE0AAF0B74FE6E700374FF6F701A90C6
:104B230021E9E4936013790190034D1238DF121DDC
:104B3300CF8A0A8B0BAE0AAF0B120F2A0231137402
:104B4300F612040574F31209231214CA8A088B0996
:104B5300AE08AF09900368E06E7003A3E06F60E9ED
:104B6300120F12EA6E7002EB6F60DEEEFAEFFB12C9
:104B73000F7EE970D4EE4F60D0851882851983E4E7
:104B8300F004120AE5EEF0A3EF124BA5E970BA7434
:104B9300FE6E700374FF6F60B0EEFAEFFB740D02EC
:104BA3002E3A1234B7120B5822C082C083120F2A36
:104BB30002336A7F0A02061D74F2120405EAFEEB51
:104BC300FF8C0A8D0B8908740E120AE5E0F509744F
:104BD300FC6E700374FF6F700579000248E579007D
:104BE300120D988A0C8B0DAE0CAF0D900368E06E1E
:104BF3007003A3E06F7006E509A2E650DCA9091271
:104C030060AF706179007AFE7BFF1260AF705674FB
:104C13001855097003024CF27800790080031229B9
:104C2300529021DA1229494003024CF2E8FAE9FBD7
:104C3300EA75F007A4FAACF075F007EBA42CFB744B
:104C4300C92AF582740A3BF583E0541870D0E875DD
:104C5300F007A4F8AAF075F007E9A42AF974C328A9
:104C6300F8740A39F988828983A3A3A3A3A3A3E0D1
:104C730054186009741855097003024BDC88828943
:104C830083EEF0A3EFF074FE650A700474FF650B06
:104C93006003124E1688828983A3A3A3A3A3A3E56B
:104CA30009F0A2E0500D88828983A3A3A3A3A3A341
:104CB300D2E2F07401650888828983A3A3A3A3A326
:104CC30070387401124E36E0541860289021EDE4D8
:104CD3009388828983A3A3A3A3124E041210688B23
:104CE3000DEA450D6003024BDC78007900803979C9
:104CF30002024BDE900367E080D7E0640170030299
:104D03004BDC88828983A3A3A3A3A3A3E0541860E5
:104D1300079021EDE4938004900366E0123DA6E53D
:104D230008F0024BDC1229529021E3E493FAC3E822
:104D33009AE994004003024BDC7A007B00804BEA43
:104D4300FCEBFDEC75F007A4FCAEF075F007EDA4E9
:104D53002EFD74C52CF582740A3DF5831253A3E826
:104D6300FCE9FDEC75F017A4FC85F00975F017ED6F
:104D7300A42509FD74532CF58274093DF583E06E77
:104D83007003A3E06F609E122E749021DA122E310D
:104D930040AD123E30EC6A7002ED6B7088E875F03E
:104DA30017A4F8AAF075F017E9A42AF9745328FE9A
:104DB300740939FF7C177D007900EEFAEFFB1214BA
:104DC300BE8E828F83124E1C900375124DF6A3A3E1
:104DD300A3A3A3A3E8F0A3E9124DFC7401F0EE240E
:104DE3000E12522E7401124E241202B412522BE8E8
:104DF300024D24123375A3A322F0EE240F12308345
:104E030022F0124E0DAA0AAB0B22900375E0FCA30D
:104E1300E0FD2288828983A3A3E50AF0A3E50BF0D2
:104E230022F09021E6E4932401F8E43400F97A02B5
:104E33007B0022123DB2A32274ED1204058A088B73
:104E430009890E124F6040057905024F3512171C70
:104E5300AA08AB091250329021D8124F38650A7054
:104E630003E9650B70077AFE7BFF1250329021D85D
:104E7300125A3DE50B994003024F33124F3D601226
:104E8300E50A75F006A4F875F006E50B124F8812D3
:104E93001560E50E6018E50A75F006A4F8AAF0752A
:104EA300F006E50B124FB4701A7901024F35E50A8B
:104EB30075F006A4F8AAF075F006E50B124F95E419
:104EC300F0A3F0E50A75F006A4F8AAF075F006E57C
:104ED3000B124F55A312524B88828983A3AA82AB2C
:104EE30083124FA38A828B83E06041124F3D603C63
:104EF3008E108F117512007810120878E50EC333E7
:104F0300FCE433FDE50A75F006A4F50AA8F075F094
:104F130006E50BA428F50B74DF250AF582740B351F
:104F23000B124AF11214B2740312088F7900800233
:104F330079070260C5122AC9E822E50A75F006A4BA
:104F4300F8AAF075F006E50B124F90F8A3E0F9E824
:104F53004922A42A1250E988828983A322ECFEED18
:104F6300FF9021E4E493F8E9C39822F583124F827A
:104F730012156022E50C1263ACE50D3400F583E0F5
:104F8300FAA3E0FB22124F90FAA3E0FB22124F9503
:104F9300E022A42AF974DF28F582740B39F5832201
:104FA300E50EF0900D7C124FAD22E088828983F0EC
:104FB3002212510DF50CE93400F50DE50EC333FA59
:104FC300E433FB12155A850C82850D83EAF0A3EBBB
:104FD300F0850C82850D83124FDE22123DDEE849F7
:104FE3002274F4120405ECFEEDFF740C120AE512B0
:104FF300342788088909125032AC0AAD0BECF8ED5E
:10500300F99021D812503A5021E875F006A4F8AA75
:10501300F075F006E9124F55E08E828F8312504DE2
:10502300125043123434790080027904024A59122F
:105033000D1A8A0A8B0B22122E42C3EC9AED9B2285
:10504300123DDA850882850983221251222274F6E1
:105053001204057E007F008028EEF8EFF9E875F072
:1050630006A4F8ACF075F006E9A42CF974DD28F574
:1050730082740B125CD06A7003A3E06B6057122F2B
:105083009F12602240D312601D7002E96F70467454
:10509300FE6A700374FF6B703C7E007F0080031216
:1050A3002F9F126022502E124A2470F3EEF8EFF96C
:1050B300E875F006A4F81250DF125114601712506D
:1050C300FBF8E91250F38882124F6E850882850936
:1050D30083E4F0A3F0EEFAEFFB022E3D75F006E950
:1050E3001250E722A42AF974DB28F8740B39F92249
:1050F3003400F98808890922EEF8EFF9E875F0061B
:10510300A4F875F006E912510D221250E7E82404C1
:1051130022A3A374FE12511F124FDE22F0A3041226
:10512300512622F088828983A3A3A3A32274F612B3
:105133000405EA241DF582EB125235F9604BEA248B
:105143001DF582EB125A5E2402FCA3E03400FD122B
:105153004F64400302521E780080298C828D83E0C5
:10516300F508A3E0FFE5082400E43FF509E833FE72
:10517300E433FF74232EF582740C3FF58312524BF4
:1051830012522108E8C39940D28A828B83A3A3A336
:10519300A3A3A3A3A3A312447C900368E06C7003AE
:1051A300A3E06D700F7C237D0C1226C1124AEF120F
:1051B3000D0E8067EA2411F582EB125A5E605CFCE7
:1051C30074FF2CF0750801780812088075082375A0
:1051D300090C780812087CE9F5087808120880EAB7
:1051E3002412F582EB125A5EF5087808120880EA59
:1051F3002415F582EB1252311206ECECF91226C19A
:105203001244798A828B83A3A3A3A3A3A3A3A3A3F7
:10521300124AF3120D26740712088F022E3DEC2456
:10522300020C0CED3400FD22EE240DF582EF12305A
:10523300862212308612523DE022E0F8A3E0F58385
:105243008882A32288828983E508F0A3E509F022F6
:1052530074EA12040574FD1209238A148B158C0E4B
:105263008D0F890D7419120AE51253A3741B120AC8
:10527300E5E0F511741C120AE5E0F50C741D120A41
:10528300E512482B741F120AE5E0F5106008E50CDF
:10529300C333240480027402C0E07401120AE5D00F
:1052A300E01253B48A088B09EA4509700302539448
:1052B3008A828B83A3A3E514F0A3E515125EB8E5F8
:1052C3000EF0A3E50FF0EA2413F582EB125231E559
:1052D3000DF0EA2414F582EB125231E511F0EA24C1
:1052E30017F582EB125A5E64017040120F0C8A0E9E
:1052F3008B0FA80EA90F850882850983A3A3A3A3F7
:10530300E0687003A3E0696022EE4F6011E50824B2
:105313001AF582E509125231EEF0A3EF800CE5088D
:105323002417F582E509125231E4F012539912530E
:10533300A38E828F837405F0A3E5107004E50C80BF
:10534300487401250C1253AD7A008028850A8285A2
:105353000B83E01253A9850A82850B83A3E08E8217
:105363008F83F0E50A2402F50AE50B3400F50BA35D
:105373000EAF830AEAC3950C40D2120F0CEA125304
:10538300A9120F0CEB8E828F83F0AA08AB09120BC4
:10539300E274030244521226D2123086229003345E
:1053A300E0FEA3E0FF228E828F83F0A3AE82AF8361
:1053B300221234B7120F6622C082C083E9C333FCC2
:1053C300E433FDEA2CFAEB3DFBEA24FEF582EB34F1
:1053D300FF124AF102336A74F212040589098A0A38
:1053E300124F604004790080407508008002050870
:1053F300E508C39509502AE508C333F8E433F9EE09
:1054030028F582EF39F583C082C083120F0C8A0C12
:105413008B0DD083D082E0650C7004A3E0650D7022
:10542300CDE50A650870BE79010248E574F01204FF
:105433000574F31209238A088B098C0A8D0B890CD6
:10544300750D00120F7EE979006003025531AA0839
:10545300AB09120D98A90C120D8C8A0E8B0FAE0E90
:10546300AF0FEE4F700302552F8E828F83A3A3A33A
:10547300A3A3A3E0A2E2400302552F120F0CEA6597
:105483000A7003EB650B7011780D120880E4F50EBA
:10549300F50F780E12087C8044AA0AAB0B120B9A04
:1054A300E9640170688518828519837404F07401B6
:1054B300120AE5124E1C851882851983AA82AB83D2
:1054C300120B58E964017045750D01780D120880BF
:1054D300E4F50EF50F780E12087C750D00780D12A9
:1054E3000880780D1208807408120AE585820E85FB
:1054F300830F780E12087C9021EFE493F9AC0AAD88
:105503000BAA08AB09120D26740712088F8E828F1F
:1055130083A3A3A3A3A3A3E0A2E1400D8E828F8361
:10552300A3A3A3A3A3A3C2E2F0750D01A90D023D9A
:10553300E474F6120405E9FE7900120D98EEF912EF
:105543000D8C8A088B09A808A909E849600612632B
:10555300F3F980027904022E3D74F61204057E07E6
:1055630090035CE070341255A28A088B09A808A93D
:1055730009E8496025900361E0640188828983A377
:10558300A3700B1255A9888289835001A3A3E0F964
:10559300121086E9FEEE70027E07EEF9022E3D122E
:1055A3004E0D12106822E0FA88828983A3E0C39A21
:1055B3002274EE120405EAFEEBFF890A8C0C8D0BB4
:1055C3007412120AE512337A12567E124F67505143
:1055D300890E750F007403780E1209C57441250EE8
:1055E300F582740C350FF583E0F8E50CC398502D64
:1055F300E50B6024751100740378101209C5743B20
:105603002510F8740C3511F988828983A3A3A3A309
:10561300A3A3E50C125688F07900024BB6790380F8
:10562300F979007AFE7BFF12567EE49365107004CD
:10563300790280E6E50B60E0890E750F007403784C
:105643000E1209C5743B250EF8740C350FF98882C8
:105653008983A3EEF0A3EF125688124E36E50C129F
:105663003DAE74FF126272E50AF0900366E0888231
:105673008983A3A3A3A3A3A3A3809C120D86E9F507
:10568300109021E2221263B5A3E508F0A3E50922F5
:1056930074F6120405ECFF120D869021E2124F6797
:1056A30050278908750900740378081209C57440E6
:1056B3001256D2740C125F24E0F8EFC3985006EF31
:1056C300F079008006790380027904022E3DEA25F1
:1056D30008F5822274F4120405EAFEEBFF120D862C
:1056E300E9F50A9021E2124F675019750B00740314
:1056F300780A1209C5743E250AF582740C350B121B
:105703004AF1801890034B124670600CEEFAEFFBDF
:105713001238E2121DCF80047AFE7BFF024A5974CD
:10572300F61204058A828B83A3A3A3A3A3E4F0F850
:105733008001089021E8E493F9E8C399501E880892
:105743001257808C828D83A3A3A3A3A3A3A3A3E057
:105753006970DFECFAEDFB120EB2801EE493687001
:10576300198C828D83A3A3A3A3A3A3A3A3A37406CA
:10577300F07A008C828D831258AB022E3D74C325C0
:1057830008F582740C125A6AF92274F4120405EAB9
:10579300FEEBFF8E828F83A3A3E0141258C2A3E013
:1057A300F9120E8E8A088B09EA45097003025883A1
:1057B3008E828F83A3A3E070358A828B83A3A3A3F6
:1057C300A3A3A3A3A3A3E064028A828B83A3A3A3BB
:1057D300A3A3A3A3A3A360107406F07AF0850882A1
:1057E3008B831258AB0258837406F00258838E825F
:1057F3008F83A3A3A3A3A3A3E060738E828F83A34A
:10580300A3A3A3E0607AEE2403F582EF1258867017
:105813006F90035512588C1258C2E014125EAFE019
:105823006403705C8E828F83A3A3A3A3E0700DAC8B
:1058330008AD09EEFAEFFB120D5C80448A828B837C
:10584300A3A3A3A3A3A3A3A3A37404F01214CAEA58
:10585300540F04850882850983A3A3A3A3F0A3E4BB
:10586300F07A20FB1258A2701712589580128A8280
:105873008B83A3A3A3A3A3A3A3A3A3E0640360AF06
:10588300024A59125A6A14F022E08E828F83A3A32C
:10589300A3227A207B009003C2E0F912150C221296
:1058A3005ECB8B09EA450922E0240C1258B7E0F9D4
:1058B300120DD422F8A3E03400F9888289832212DE
:1058C30058C7A3221258CB22123419A3A3A32274BC
:1058D300F612040579007E0080258E087509007490
:1058E3000378081209C5747B2508FA740C3509FB83
:1058F3008A828B83A3A3E06005120D6279010E9067
:1059030021E8E493F8EEC39840D0E9A2E07A407B23
:10591300009003C2E0F9501512161A8B09EA4509E3
:10592300700E7C647D007A40123BFF8003121614D4
:10593300022E3D74F4120405ECFEEDFF75087B7531
:10594300090C7C008045850882850983A3A3A3A352
:10595300A3A3A3E0F8EA2412F582EB125A5E68705F
:105963001F850882850983123427125A62687003DF
:10597300A3E069700B850882850983A3A3E07020E7
:105983000CE5082408F8E5091250F39021E8E493A4
:10599300F8ECC39840B0E4936C70057900024A595F
:1059A300850882850983A3A3A3A3A3A3E070047935
:1059B3000180EA1260BD12103E8B0BEA450B600FAB
:1059C300850882850983A3A3A3A3A3A3E014F07C82
:1059D3000080010C8C0A9021D0125A3DE49950208A
:1059E300EC125A7060ED122FB76E7003A3E06F7064
:1059F300E2850882850983A3A3A3A3A3A3E014F0EC
:105A03009021E3E493F89021D0E49328F8A3E4935E
:105A13003400F9850882850983A3A3A3A3A3A3E084
:105A2300FAC3E89AE994005086850882850983A31E
:105A3300A3A3A3A3A3E4F00259B2125A44E50A981C
:105A430022E4122ACAC322EE75F006A4FCADF0EAE2
:105A53002CFCEB3DFDEC2411F582ED125A6A221267
:105A630063ABEB125A6A223400F583E02275F0121D
:105A7300A4F8A9F074DD28F582740739F583E0F4FE
:105A83002274EA120405EAFEEBFF8C148D158912C9
:105A93007C7B7D0C750801750900750A00750B0088
:105AA3009021E3E49378081207FD908043780C1269
:105AB3000A887A0080128C828D83A3A3E0601E0A79
:105AC300EC2408FCED3400FD9021E8E493F8EAC3EC
:105AD3009840E3E4936A70057900025CC68C828D7A
:105AE30083A3A3A3A3A3A3E4F0FA802E6401600518
:105AF300E06403701D8E828F83A3A3A3A3A3A3A338
:105B0300A3A3E0F47003A3E0F47007780C79081200
:105B13000A110A740178081207FD8A10125CC9E59C
:105B23001098E499504DEA75F012A4F8ABF0EB121B
:105B33002FB665147004A3E0651560D6125EA790B6
