:020000040000FA
:0600000002111602072E9A
:0300130002075190
:03002B00020F378A
:03003B000207A613
:0300530002065F43
:100083000206C30101FF01010503010F10FEFF84F6
:100093001984198419841940183A18841979250088
:1000A3000000009F26000000000C0000000C00016F
:1000B300FFFF0102003405000000A70564000202EF
:1000C30000000002050207051E02051E020A0A03BC
:1000D300B80B02803E010233000100140202061233
:1000E3001135601D1211627005191919801A120F4A
:1000F300C2701F120FADC37003E66733191919409D
:10010300071818182208080874FFF618F618F618C6
:10011300F622120FAD60171211A1702192F0121185
:10012300AB7019501720F014080808090909E7F6FD
:100133001819E7F61819E7F61819E7F6221211ABA2
:1001430060E6E869701F0808E62480F608E436F6DE
:1001530018547FB47F0CE654806007F6E418F61851
:10016300F622181822E9C6CC08C6CD08C6CE08C6A2
:10017300CFC0E0E8C0E0EAC0E0EBC0E009E9F8097D
:10018300E7FA09E7FBE6F918E6F8C3EC98ED99EE10
:100193009AEBC2E7F5F0EFC2E795F0500E600CEB77
:1001A300CFFBEACEFAE9CDF9E8CCF8EAA2E7D2E749
:1001B300FAEB33FB13F5F0EEA2E7D2E7FEEF33FFE2
:1001C300C5F013A2E730E601B313C5F0C3C0E0C026
:1001D300F07F00C39BFB605B9418600C401AD0E077
:1001E30023F9D0E0F80202C08AF0E9486003D2F0B4
:1001F300E4AFF0FAF9F8803BEB30E40D89F0EA6004
:1002030003D2F0E4AFF0F9CAF8EB30E30D88F0EF76
:100213006002D2F0AFF0E4CAC9F8EB54076014FBF4
:10022300C3EA13FAE913F9E813F8EF135002D2E023
:10023300FFDBEDD0E0C0E030E739C3E49FFFF5F02A
:10024300EC98FC42F0ED99FD42F0EE9AFE42F0D0BC
:10025300E0F9D0E0F8E5F0607AE923F9EE20E7422F
:10026300D8028067C3EF33FFEC33FCED33FDEE338D
:10027300FE80EAEC28FCED39FDEE3AFED0E023F9EE
:10028300D0E0F84002801BC3EE13FEED13FDEC1328
:10029300FCEF135002D2E0FF08B800067F7F74FF23
:1002A300802EEF3350178CF020F00260100CBC004E
:1002B3000C0DBD00080EBE000408E860DFE933E85A
:1002C30013FFEE2313FE4F4D4C8008E95480FFE4E7
:1002D300FEFDFCEE33EF33F47004FCFD7E80D0E0D2
:1002E300FBD0E0FAD0E0F8D0E0CFC618CEC618CDE8
:1002F300C618CCC6F9221211357004181818221228
:100303001162700D74FFF61819F61819F61819F61C
:1003130022E7548066F61211AB700F1211A170F030
:1003230014F608F608F608F680D11211A1700CF63F
:1003330008F608768008E6447F80EC120FB0700C54
:10034300120FC560BFE65480F6E480BB120FC57080
:100353000519191980A5E869700C763F187680187D
:10036300F618F6E8F922E6CDC0E018ECC0E0E63373
:10037300CD33CDD313F6E719FCE7191933CC33C3C7
:10038300947F400ECD9D502408E65480F6E418F681
:10039300800FF4043D14501408E6447FF618768069
:1003A300E418F618F6D0E0FCD0E0FD22CCD313CC51
:1003B300FD18E4C6CBC0E018E4C6CAC0E00808EDE7
:1003C30008C633E613F618E433C675F003C3CA97B9
:1003D300CA09CB97CB199C40047D08802EBD00032E
:1003E3000204A216B6FF050606081618C3CA33CAC6
:1003F300CB33CB33CA27CA09CB37CB193CC37D08D0
:10040300803E187D0820E75CC633C6CA33CACB33A7
:10041300CB33DDF1D5F0EB30E77BCA97CA09CB9735
:100423004ACB199C406F4B7025E620E0218066186B
:100433007D08C3CA97CA09CB97CB199CD3C633C6C9
:10044300CA33CACB33CB3350C9DDE7D5F0E1D3E4AC
:10045300C636C608C636C608C636C608C636C61861
:1004630018188031C3CA97CA09CB97CB199CB340DC
:1004730097C633C6CA33CACB33CB33DD34D5F02E5C
:10048300C6A2E0C640C8CA27CA09CB37194A70BEFC
:10049300CB3CB480B90808E63308E633601F18186C
:1004A30018D0E0FAD0E0FBD0E0FCD0E0FD22187DCC
:1004B30008CA27CA09CB37CB193CD3808013F61857
:1004C300E4B67F11F618B6FF0EF618C60470D2080C
:1004D30008768080CAF618F618F680C50012113522
:1004E300604F1211626012E7548066F6120FC270F9
:1004F300111211A1703B090909F4F618F618F61840
:10050300F622120FAD70151211AB08080860EAE667
:10051300447FF618768018E4F618F6221211AB60C1
:10052300161211A17012E4F608F608F608E65480D4
:10053300F609090918181822EAC0E0EBC0E0ECC07C
:10054300E0EDC0E0E687F0A4FBACF008E687F0A49A
:100553002CFCE435F0FA1809E687F0A42C4B600272
:100563007401CA35F0FCE433FB09E687F0D2F7A443
:100573002CCB35F0FC1908E687F0A42BCC35F0FB27
:10058300E433FD0819E687F0D2E7A42C4ACB35F013
:10059300CD3400FC09E687F0D2E7A42DCC35F0FD7D
:1005A300E433FA0918E687F0D2F7A42CCD35F0CA64
:1005B3003400FC08E687F0D2E7D2F7A42ACC35F062
:1005C3007A7E20E70B0ACB33CBCD33CDCC33CC3380
:1005D300CB3350147004ED30E00ED2F1E4CD3DCDB9
:1005E300CC3CCC3B5005DA05C2F1EB547FC6330853
:1005F300E63392F0FBE73309E733C39A502D2B70B0
:10060300190C0D4C4D70151806E608C333700D20F8
:10061300F10AA2F013F6E418800B4024E4F630F05C
:1006230002768018F618F618F68024D33B1450107F
:1006330074FFA2F013F6187680E418F618F6800F0C
:10064300A2F013F618E63303F618ECF618EDF6D01D
:10065300E0FDD0E0FCD0E0FBD0E0FA22C0E074F291
:10066300120A87A2AFE433FED2AFE5A7FFE5A1F5F7
:10067300085F5410600612208075A1EFE5085F54EF
:1006830008600812208675A1F7802BEFA2E0C0D086
:10069300E508A2E092F0121063158182F0501790E2
:1006A3006198E0F8900775E0C398A2D265D0335003
:1006B30002E8F075A1FEEEA2E092AF7F01020B43C8
:1006C300C0E074F2120A87A2AFE433FED2AF9061A6
:1006D300A4E0F8759B00E59158540860087591F7FC
:1006E3001220C8802AE59158541060087591EF12C2
:1006F30020CE801BE8A2E0C0D0E591A2E092F012E8
:100703001063158182F05007E0C2E0F012220C90D2
:1007130061A3E0F8E5E9585404600E1221E275E99B
:10072300FB906193E0A2E640F2808BC0E074F2128A
:100733000A87A2AFE433FED2AF9061A5E0F8E5BF2C
:10074300585404600675BFFB1222240206B9C0E0A8
:10075300C0D0E8C0E0E9C0E0C082C083E5C1C0E02A
:100763009006E1E0F8746028F58274063400F5839E
:10077300D0E0F09006E0E0F8A3E0687006E595901D
:1007830006E3F09006E1E004F0C394804002E4F055
:10079300A374C6F0D083D082D0E0F9D0E0F8D0D0F3
:1007A300D0E032C0E0C0D0E8C0E0C008C009C082D9
:1007B300C083900764E0F8A3E0687008539AFBA332
:1007C30074018026C2E9900764E0F50874012508E6
:1007D300F074E42508F58274063400F583E0F5C16E
:1007E300900764E0C394804002E4F0D083D082D0C9
:1007F30009D00880A6C3E498F8E499F9120839806F
:1008030026C3E49AFAE49BFBE920E7E9120839E4FA
:1008130098F8E499F922C3E498F8E499F9120839AD
:10082300E498F8E499F9C3E49AFAE49BFB22EB20F9
:10083300E7CFE920E7E0B90010BB0008E88AF084BD
:10084300F8AAF022E4FBC8FA22EB70227B10C8332B
:10085300C8C933C9335007C39AC3DBF280069A5021
:10086300012ADBEAC833F4C8C933F4C9FA2275F0A4
:1008730008E4C833C8C933C933C99AC99B5004C9EA
:100883002AC93BD5F0ECFBC833F4C8E4C9FA228A81
:10089300088B098C0A8D0B78081208DC20F01430C1
:1008A300E72B74FFFCFBFA747F8022E4FCFBFA74F1
:1008B30080801AB48008BC00F2BB00EF800F50EBBD
:1008C300F9E4C39AFAE49BFBE49CFCE499C6CC18D4
:1008D300C6CB18C6CA18C6F922E4C9C608CAC608D0
:1008E300CBC6D3330308CCC63392F0C3947F402ED8
:1008F30094184019C9B90704CACBCC225025C3099F
:10090300CA33CACB33CBCC33CC33D9F422F4600D06
:10091300C9CCC313CB13CBCA13CAD9F6CC22E4FC7C
:10092300FBFA2214FCFBFA22080808EAC0E0EBC039
:10093300E086F0E7A4FA180986F0E7A42AFA180972
:1009430086F0E7A42AFA180986F0E7A42AFA19869A
:10095300F0E7A4FBE5F02AFA190886F0E7A42BFBDD
:10096300E5F03AFA190886F0E7A42BFBE5F03AFA2A
:1009730018180986F0E7A4C5F02BFBE43AFA190826
:10098300E7C5F0C6A426F6E5F03BFBE43AFA188681
:10099300F0E7A4F6E5F00826F6E43B08F6E43A08A7
:1009A300F6D0E0FBD0E0FA22E4CFC0E0E4CEC0E032
:1009B300E4CDC0E0E4CCC0E075F020C3E633F60834
:1009C300E633F608E633F608E633F6181818EC3380
:1009D300FCED33FDEE33FEEF33FFC3EC9709ED97E8
:1009E30009EE9709EF97191919400FFFEC97FC09C6
:1009F300ED97FD09EE97FE191906D5F0BEECF70940
:100A0300EDF709EEF709EFF7191919D0E0FCD0E07B
:100A1300FDD0E0FED0E0FF222518C582C0E0E51935
:100A230034FFC583C0E0E518C3958224F810AF08EE
:100A33008583198582188008858319858218D2AF2A
:100A4300CEF0A3E520F0A37808E608F0A3DEFAEFE2
:100A5300F0A3E58124FAF8E608F0A3E608F0A3E69C
:100A630008F0A30808E608F0A3E608F0A31581152B
:100A730081D0E0FED0E0F8158115811581E8C0E052
:100A8300EEC0E022C0D02518C582C0E0E51934FFCE
:100A9300C583C0E0E518C3958224F310AF088583AE
:100AA300198582188008858319858218D2AFC8F00A
:100AB300A3E9F0A3EAF0A3EBF0A37908E709F0A315
:100AC300D8FAECF0A3EDF0A3EEF0A3EFF0A3D0E09F
:100AD300F0A3D0E0F0A3D0E0F0A3E520F0A3E5F08D
:100AE300F0A322E9799EC608CAC608CBC608CCC6BD
:100AF300C370207996CACBCC7019798ECBCC701386
:100B03007986CC700EF9802ACA33CACB33CBCC3367
:100B1300CC331930E7F2CCCBCA3350147004EA302B
:100B2300E00DE4CA3ACACB3BCBCC3CCC500209C360
:100B3300E913C6CC182313C6CB18C6CA18C6F922A4
:100B4300851983851882E0C0E0A3E0F9A3E0FAA346
:100B5300E0FBA37808E0F608A3DFFAE0FCA3E0FDDE
:100B6300A3E0FEA3E0FFA3E0C0E0A3E0C0E0A3E0B6
:100B7300F5D0A3E0F520A3E0A3F5F010AF0885833B
:100B8300198582188008858319858218D2AFD0828F
:100B9300D083D0E0F8D0E032121196B90003020BF3
:100BA300DDE49003017833790B8002F0A3D8FCD9FC
:100BB300FA900D33AA82AB83900086785D79018029
:100BC30015E493A3AC82AD838A828B83F0A3AA82BC
:100BD300AB838C828D83D8E9D9E77582187583C17D
:100BE3007403120EAF7582E27583247400120EAF84
:100BF3000975F0108E1A8F1B85821F85831E851839
:100C030082851983E0CEA3E0CF851F82851E83EB07
:100C1300C9EAC8EDCBECCAC3E833C8E933C9EA3340
:100C2300CAEB33CBC3EA9EF51DEB9FF51CB350040F
:100C3300AB1CAA1DEC33CCED33CDD5F0DAAE1AAF35
:100C43001B22D083D082ECC0E0EDC0E0E493A3FC90
:100C5300E493A3FDED4C600D120D1DEC24FFFCEDA0
:100C630034FFFD80EFE493A3FCE493A3FDED4C601C
:100C73000D120DBAEC24FFFCED34FFFD80EFD0E044
:100C8300FDD0E0FCE493A3C0E0E493C0E022851927
:100C930083851882E0A3FEE0A3F5207808E0A3F69D
:100CA30008DFFAE0A3FFE0A3C0E0E0A3C0E0E0A315
:100CB300C0E0E0A3C0E0E0A3C0E010AF0885821865
:100CC3008583198008858218858319D2AFD083D094
:100CD30082020EB5D083D082E9C0E0E493A3C38639
:100CE300F0C5F095F0F908E493A386F0C5F095F00C
:100CF300700BE493A3C3994005E9048002A3E47550
:100D0300F002A42582F582E5F03583F583D0E0F97E
:100D1300E493A3C0E0E493C0E022C0E0C3E493966D
:100D2300087401939618400FE493667008087401E1
:100D330093661870007019A3A3C3E4939608740113
:100D4300939618A3A3400DD0E0D0E0D0E0020C812D
:100D5300A3A3A3A3A3A3D0E02274048004740280FA
:100D630000CCC0E0EDC0E0E518C39CCCAD19500148
:100D73001D10AF068C188D1980068C188D19D2AFF3
:100D8300120E31D0E0FDD0E0FC2274028000CCC012
:100D9300E0EDC0E0E518C39CCCAD1950011D10AFC8
:100DA300068C188D1980068C188D19D2AF120E0F70
:100DB300D0E0FDD0E0FC22C0E0C0F088F0E4936610
:100DC30070080874019366187000A8F0A3A3700B51
:100DD300D0F0D0E0D0E0D0E0020C81A3A3D0F0D0DB
:100DE300E022D083D082CCC0E0E493A36006120E4D
:100DF300901470FAE493A36006120F971470FAD05C
:100E0300E0FCE493A3C0E0E493C0E022CAC0E0E4C2
:100E130093A3C582CCC582C583CDC583F0A3C58208
:100E2300CCC582C583CDC583DAE5D0E0CA22CAC06A
:100E3300E0E0A3C582CCC582C583CDC583F0A3C53D
:100E430082CCC582C583CDC583DAE6D0E0CA22C091
:100E530008C3E096F50808A3E096420808A3E096C5
:100E6300420808A3E09645087001D3D00822700910
:100E7300080808226016181818C6C333C608C633F4
:100E8300C608C633C608C633C6D5E0EA22C0E0E4C6
:100E930093A3D39C5010E493A3C39C400AD0E0D007
:100EA300E0D0E0020E02A3A3A3D0E022C09FF59FEF
:100EB300E473D09F22D083D082C09FE493C0E074B8
:100EC3000193C0E0740293F59F222518F58210AFB9
:100ED30008F518400215198008F51840021519D2B3
:100EE300AF851983227404800A7403800674028018
:100EF300027401C0E0F404120ECDD0E0121171228D
:100F0300BB0102E722C082C08389828A83BB0003BC
:100F1300E08002E493D083D08222C0D0251810AFA2
:100F230008F518500205198008F51850020519D262
:100F3300AFD0D022C0E0C0D0E8C0E0E5A8D2AFC2B5
:100F4300C7A2E792AFD0E0F8D0D0D0E03260160865
:100F53000808C6C313C618C613C618C613C618C6D0
:100F630013C6D5E0EA22C3E0C696F608A3E0C69608
:100F7300F608A3E0C696F608A3E0C696F62225185F
:100F830010AF08F518400215198008F5184002152E
:100F930019D2AF22C0E0E493A36C7009D0E0D0E093
:100FA300D0E0020E02A3A3D0E022191919E70947E2
:100FB30009700AE709C3337005E733F422092218DD
:100FC3001818E6084608700AE608C3337005E633C6
:100FD300F4220822E76670100809E766700A080918
:100FE300E76670040809E76622C3E09608A3E09663
:100FF30008A3E09608A3E096A2D265D03322E06668
:10100300701008A3E066700A08A3E066700408A3E2
:10101300E06622C3E096F008A3E096F008A3E0960A
:10102300F008A3E096F022E627F60809E637F6086B
:1010330009E637F60809E637F622E026F608A3E0C4
:1010430036F608A3E036F608A3E036F622E026F0EB
:1010530008A3E036F008A3E036F008A3E036F02258
:10106300C0E0E8C0E0E58124FCF8E6A2E7D0E0F8C0
:10107300D0E022E056F608A3E056F608A3E056F6C1
:1010830008A3E056F622E657F60809E657F60809DC
:10109300E657F60809E657F622E647F60809E64753
:1010A300F60809E647F60809E647F622E056F0088F
:1010B300A3E056F008A3E056F008A3E056F0227030
:1010C3000422600D18C6C333C608C633C6D5E0F480
:1010D3001822E4C396F608E496F608E496F608E4C4
:1010E30096F622C6F4C608C6F4C608C6F4C608C6F1
:1010F300F4C622C3E09608A3E09608A3E09608A3EB
:10110300E09622C3E7960809E7960809E7960809D7
:10111300E7962275D0007581407518017519030093
:10112300020B9BE6F008A3E6F008A3E6F008A3E6AB
:10113300F022E6084608C3134608336002E633F498
:1011430022600C08C6C313C618C613C6D5E0F42222
:10115300E0F608A3E0F608A3E0F608A3E0F622E72A
:10116300094709C3134709336002E733F422CAC0AE
:10117300E0E6F0A308DAFAD0E0FA22EAF0A3EBF013
:10118300A3ECF0A3EDF022E0FAA3E0FBA3E0FCA3C1
:10119300E0FD22E5C754F84401F5C7790122E7C30E
:1011A3003319471947194722E6C333184618461817
:1011B30046222518F582E43519F58322C2AF75D688
:1011C3009F02000022120EB86C2B00120EB8922B55
:1011D30000120EB8CD2B00120EB8112C00120EB84F
:1011E300382C00120EB8892C00120EB8392D0012BB
:1011F3000EB8F12D00120EB8B92E00120EB8792FC9
:1012030000120EB8BD2F00120EB8E22F00120EB856
:10121300253000120EB8723000120EB8E8310012F9
:101223000EB86E3200120EB88C3200120EB8B632FF
:1012330000120EB8D03200120EB8DF3200120EB810
:10124300EA3200120EB8AA3300120EB803340012A9
:101253000EB8C53400120EB8CD3400120EB8613585
:1012630000120EB8CD3500120EB8F83600120EB8C3
:101273001D3700120EB8A23700120EB83138001213
:101283000EB8F53800120EB8143900120EB8233A0E
:1012930000120EB8353A00120EB8A03A00120EB87A
:1012A300CA3A00120EB8513B00120EB88A3B001224
:1012B3000EB8D63B00120EB8E93C00120EB80D3F33
:1012C30000120EB8183F00120EB8233F00120EB8DA
:1012D3002E3F00120EB8383F00120EB8433F0012E3
:1012E3000EB85D3F00120EB8673F00120EB8713F93
:1012F30000120EB87C3F00120EB8A43F00120EB8C5
:10130300FF3F00120EB8094000120EB82D40001224
:101313000EB8514000120EB8AF4000120EB8F340A1
:1013230000120EB80F4100120EB8864100120EB81B
:10133300BE4100120EB80A4200120EB867420012F4
:101343000EB8214300120EB8054500120EB85E45D3
:1013530000120EB88E4600120EB8B44600120EB834
:101363002E4800120EB8B94B00120EB88B4D001266
:101373000EB8544F00120EB8015000120EB875513A
:1013830000120EB8145200120EB8595200120EB8C1
:10139300C35200120EB8D25200120EB852550012A8
:1013A3000EB8FB5600120EB8685700120EB8475815
:1013B30000120EB86A5900120EB8D25A00120EB8B3
:1013C300F15A00120EB8465B00120EB84B5C0012C5
:1013D3000EB8735C00120EB8CB5C00120EB8AA5D97
:1013E30000120EB8EE5D00120EB8395E00120EB890
:1013F300A45E00120EB8E95F00120EB84D60001231
:101403000EB89B6100120EB8026400120EB833646A
:1014130000120EB8EB6500120EB8406600120EB84B
:10142300446700120EB8E16700120EB83A68001262
:101433000EB8ED6800120EB88F6900120EB82F6A4D
:1014430000120EB8D46A00120EB8C28001120EB890
:10145300018101120EB8488301120EB89283011262
:101463000EB8AD8401120EB8158501120EB84A8567
:1014730001120EB8BE8601120EB8418901120EB8D0
:101483006A8A01120EB81D8B01120EB879930112EC
:101493000EB80E9401120EB8F59601120EB8EE971F
:1014A30001120EB85C9801120EB8A29901120EB87F
:1014B300819A01120EB8669C01120EB8779E011232
:1014C3000EB8CF9E01120EB8A19F01120EB8CF9F86
:1014D30001120EB88CA001120EB863A101120EB84E
:1014E3002AA201120EB8CEA201120EB8F7A201125F
:1014F3000EB819A301120EB86FA501120EB847A6B4
:1015030001120EB88BA601120EB8F3A601120EB883
:10151300ABA701120EB8DDA701120EB821A8011264
:101523000EB857A801120EB8A3A801120EB8F8A856
:1015330001120EB8FDA801120EB850A901120EB87F
:1015430075A901120EB884AA01120EB8E8AA0112F5
:101553000EB858AB01120EB8E4AB01120EB8B1AE1F
:1015630001120EB895AF01120EB818B101120EB8E0
:101573004EB301120EB8FCB301120EB8ACB4011293
:101583000EB8EDB601120EB890B701120EB8D7B768
:1015930001120EB883B901120EB897B901120EB831
:1015A300A1B901120EB8C9B901120EB8D5B9011209
:1015B3000EB8F4B901120EB814BC01120EB863BD13
:1015C30001120EB8A7BD01120EB84FBE01120EB81C
:1015D30032BF01120EB8DDBF01120EB829C10112CC
:1015E3000EB827C201120EB8CDC201120EB86EC3D7
:1015F30001120EB885C301120EB8BCC301120EB896
:10160300C6C301120EB8D1C301120EB8EFC3011243
:101613000EB833C401120EB890C401120EB8B5C48B
:1016230001120EB8CFC401120EB85BC501120EB879
:1016330078C601120EB8D4C601120EB8BBC7011288
:101643000EB8E2C701120EB856C801120EB8D1C8BF
:1016530001120EB8D5C901120EB8CBCA01120EB8C9
:101663007ACB01120EB88DCC01120EB829CD01121E
:101673000EB8ABCD01120EB889CE01120EB8C1CE91
:1016830001120EB819CF01120EB8E2CF01120EB833
:1016930003D001120EB88AD001120EB8AED00112D7
:1016A3000EB8D0D001120EB819D101120EB82FD333
:1016B30001120EB812D401120EB8C3D401120EB81F
:1016C300F9D601120EB849D701120EB889D7011203
:1016D3000EB8CBD701120EB827D801120EB855D8C1
:1016E30001120EB879D801120EB8CCD801120EB877
:1016F300FAD801120EB833D901120EB888D90112E3
:101703000EB8EED901120EB858DB01120EB87BDD0C
:1017130001120EB8E8DD01120EB811DE01120EB887
:101723009CDE01120EB803DF01120EB84EDF011268
:101733000EB872DF01120EB896DF01120EB8F1DF98
:1017430001120EB80CE001120EB8C5E001120EB87A
:101753003BEC03120EB87AEC03120EB87880021237
:101763000EB8BE8002120EB89E8102120EB8A0827D
:1017730002120EB8A38302120EB82F8502120EB8FE
:101783008D8502120EB84A8602120EB868870212BD
:101793000EB8D98702120EB8158802120EB86388E4
:1017A30002120EB86D8802120EB8B18802120EB87A
:1017B3000D8902120EB8A88902120EB8258A0212E8
:1017C3000EB8F48A02120EB88D8B02120EB8AD8BCE
:1017D30002120EB8E38B02120EB8148C02120EB86A
:1017E300D58C02120EB8E58C02120EB8398D021296
:1017F3000EB8548D02120EB8668D02120EB86F8D9C
:1018030002120EB8C98D02120EB8258E02120EB83E
:10181300718E02120EB88C8E02120EB8BD8E021299
:101823000EB8DA8E02120EB8E68E02120EB85A9075
:1018330002120EB8739002120EB8DA9002120EB8AA
:10184300ED9002120EB8FB9002120EB8AF91021285
:101853000EB8939202120EB8999302120EB8239403
:1018630002120EB82D9402120EB89A9402120EB8F8
:10187300B19402120EB8E39402120EB81C95021230
:101883000EB8469502120EB8A79502120EB8C79568
:1018930002120EB8E59502120EB82B9602120EB87C
:1018A300519702120EB89E9702120EB8CD970212EC
:1018B3000EB8439802120EB86B9802120EB8A49891
:1018C30002120EB8B29802120EB80A9902120EB89A
:1018D300599902120EB8989902120EB8C8990212B9
:1018E3000EB8F49902120EB8FF9902120EB81D9A9F
:1018F30002120EB8DF9A02120EB8E99A02120EB85B
:101903002A9B02120EB87F9B02120EB8939B0212FF
:101913000EB8909C02120EB8A39C02120EB8B89C8B
:1019230002120EB85A9D02120EB8DD9D02120EB8B5
:101933009B9E02120EB8A69E02120EB8D29F0212EE
:101943000EB8EE9F02120EB840A002120EB87FA08E
:1019530002120EB894A002120EB8F6A002120EB82C
:1019630085A102120EB8D0A102120EB821A4021250
:101973000EB89FA402120EB814A502120EB836A711
:1019830002120EB84EA702120EB851A702120EB8D9
:101993005DA702120EB871A702120EB879A7021240
:1019A3000EB8ACA702120EB85CA802120EB8D2A8E9
:1019B30002120EB845A902120EB8F9A902120EB806
:1019C300AEAA02120EB8CDAA02120EB873AB02125F
:1019D3000EB89EAB02120EB8A1AB02120EB80BAC3E
:1019E30002120EB833AD02120EB80BAE02120EB8CD
:1019F30096AE02120EB8AFAF02120EB86CB002125E
:101A03000EB8A5B002120EB8D6B002120EB894B139
:101A130002120EB8C4B102120EB89FB202120EB86F
:101A230038B302120EB8C3B302120EB874B4021262
:101A33000EB8F7B402120EB829B502120EB86AB581
:101A430002120EB8F29803120EB8579903120EB889
:101A53008F9903120EB8DE9903120EB8009C03127D
:101A63000EB8E39D03120EB841A103120EB876A17E
:101A730003120EB898A103120EB8FDA103120EB8FB
:101A830033A203120EB845DE02120EB883A203126C
:101A93000EB8DFA203120EB8E08C03120EB8618DEC
:101AA30003120EB8978D03120EB8FE8D03120EB8F3
:101AB300718F03120EB88D8F03120EB8D28F0312DB
:101AC3000EB8609003120EB8B99003120EB8ED91E0
:101AD30003120EB8BB9203120EB8339303120EB85F
:101AE300AF9303120EB8F19303120EB8329403129C
:101AF3000EB8669503120EB8532B00120EB88F96CC
:101B030003120EB8DA9603120EB8219703120EB819
:101B1300B39703120EB86C9803120EB86FAA031290
:101B23000EB8BBAA03120EB829AB03120EB84AAB08
:101B330003120EB8FAAB03120EB803AC03120EB8BD
:101B430056AC03120EB87FAC03120EB8E6AC031208
:101B53000EB877AD03120EB8B9AD03120EB803AECB
:101B630003120EB862AE03120EB88EAE03120EB895
:101B73001FAF03120EB85EAF03120EB89DAF031270
:101B83000EB8D2AF03120EB8E4AF03120EB8F6AF1D
:101B930003120EB815B003120EB81EB003120EB81E
:101BA300D4B003120EB814B103120EB81DFF021203
:101BB3000EB808DD03120EB83EDD03120EB887DD42
:101BC30003120EB8D7DE03120EB8206B00120EB844
:101BD3005F6C00120EB89B6C00120EB85A6E0012A6
:101BE3000EB8836E00120EB8167100120EB85A7139
:101BF30000120EB8E37200120EB87B7300120EB817
:101C0300E37300120EB8847400120EB8C674001287
:101C13000EB8067500120EB8917600120EB8017850
:101C230000120EB8267A00120EB8547A00120EB8BB
:101C33007B7A00120EB8847A00120EB80B7B001266
:101C43000EB8297E00120EB8DEFF01120EB8F4FFA3
:101C530001120EB8F0EB03120EB897CE03120EB8B2
:101C6300AACE03120EB847CF03120EB882CF0312C7
:101C73000EB89DCF03120EB8C2CF03120EB807D011
:101C830003120EB838D003120EB869D003120EB87F
:101C9300EFD103120EB88EE903120EB8C4E9031292
:101CA3000EB8E0E903120EB822EA03120EB832EAC4
:101CB30003120EB861D503120EB881D503120EB804
:101CC3001FD603120EB817D703120EB821D703126B
:101CD3000EB837D703120EB851D703120EB8D7D7A1
:101CE30003120EB890BA03120EB806BB03120EB855
:101CF30096BB03120EB835BC03120EB826BD0312F1
:101D03000EB8008003120EB8558003120EB83E8140
:101D130003120EB8D78103120EB8218203120EB834
:101D23007E8203120EB8D78203120EB80983031200
:101D33000EB8078403120EB86B8403120EB88684A0
:101D430003120EB8D58403120EB8EB8403120EB837
:101D5300F88403120EB82C8503120EB87E85031285
:101D63000EB8D88503120EB8268603120EB848861D
:101D730003120EB8BF8803120EB8F48803120EB80C
:101D8300848903120EB8F98903120EB8FE8903126F
:101D93000EB83A8A03120EB8998A03120EB8398B19
:101DA30003120EB85E8B03120EB8688B03120EB8C3
:101DB3006B8B03120EB8F48B03120EB80F8C031245
:101DC3000EB8228C03120EB85D8C03120EB8608C11
:101DD30003120EB86B8C03120EB8A78C03120EB845
:101DE300A3EB03120EB8BBEB03120EB82BA3031223
:101DF3000EB87AA303120EB81CA503120EB8D8A608
:101E030003120EB820A703120EB808A803120EB8C7
:101E130039A903120EB85BA903120EB8B7A90312AE
:101E23000EB83BAA03120EB8FFE001120EB820E170
:101E330001120EB89DE101120EB822E201120EB892
:101E43009EE201120EB807E301120EB853E301122A
:101E53000EB8D2E301120EB864E401120EB8F4E432
:101E630001120EB836E501120EB87FE901120EB861
:101E7300FFEA01120EB83EEB01120EB825EC011277
:101E83000EB828EC01120EB8DCEC01120EB811EEFC
:101E930001120EB8FCEF01120EB87CF201120EB85B
:101EA30035F301120EB852F401120EB8A9F701125C
:101EB3000EB8B9F701120EB81AF901120EB8A6F945
:101EC30001120EB8C2FA01120EB85BFB01120EB872
:101ED3005EFC01120EB8E0FC01120EB863E40212BC
:101EE3000EB81DE502120EB88FE502120EB823E6F6
:101EF30002120EB82AE702120EB89AE702120EB8BF
:101F030053EA02120EB82AEB02120EB897EB021232
:101F13000EB814ED02120EB8C8ED02120EB876EE2A
:101F230002120EB8D1EE02120EB83CEF02120EB836
:101F33003CF002120EB816F202120EB829F3021286
:101F43000EB8C2F302120EB888F402120EB86AED8C
:101F530003120EB86CED03120EB83ADF03120EB87B
:101F63006BDF03120EB825E003120EB88BE00312E9
:101F73000EB803BF03120EB89AC103120EB831EDA7
:101F830003120EB842ED03120EB814E103120EB899
:101F930022E103120EB871ED03120EB8DCEA03124C
:101FA3000EB8ECEA03120EB801EB03120EB849EBBC
:101FB30003120EB8BBE703120EB840E803120EB8C3
:101FC300A4E803120EB8FD7F00120EB8FCD1031271
:101FD3000EB80AD203120EB884D203120EB85CD321
:101FE30003120EB8E7D403120EB8BDE803120EB8FD
:101FF30068E903120EB880E903120EB8CCE20312AB
:102003000EB8F8E203120EB805E303120EB83CE370
:1020130003120EB865E303120EB8C2E303120EB83F
:102023003DB103120EB892B103120EB88EB3031270
:102033000EB8C0B303120EB8E2B303120EB8FBB36B
:1020430003120EB814B403120EB81EB503120EB861
:10205300B9B503120EB8AA7E00120EB8CF7E0012D5
:102063000EB8DF7E00120EB8127F00120EB8437F47
:1020730000120EB8787F00120EB8DA7F00120EB885
:10208300E97F00120EB8F37F00120EB81DD80312B9
:102093000EB843D803120EB880D803120EB88FD8E7
:1020A30003120EB8AED803120EB816D903120EB827
:1020B3001FD903120EB87ED903120EB8A2D9031288
:1020C3000EB861DA03120EB86EDA03120EB87FDAB5
:1020D30003120EB8C8EC03120EB8E5EC03120EB8E7
:1020E300B2C303120EB810C503120EB81DC50312F6
:1020F3000EB830C503120EB84FC503120EB865C52E
:1021030003120EB879C503120EB8FCC503120EB83C
:102113005FC603120EB8E6C603120EB844C7031215
:102123000EB854C703120EB843EA03120EB867EA97
:1021330003120EB88FEA03120EB8B7EA03120EB8F1
:1021430078FD01120EB89FFD01120EB8C0FD0112F9
:102153000EB825FE01120EB8ADDA03120EB8C6DAB8
:1021630003120EB8D2DA03120EB8E6DA03120EB86F
:1021730004DB03120EB80EDB03120EB818DB0312D6
:102183000EB82BDB03120EB87CDB03120EB8B5DBE3
:1021930003120EB8E4DB03120EB832DC03120EB8DE
:1021A30081DC03120EB89CDC03120EB8A6DC03120A
:1021B3000EB8B7DC03120EB8FDDC03120EB852EBF7
:1021C30003120EB8DCF502120EB808F602120EB8AE
:1021D30024F602120EB837F602120EB84DF60212AA
:1021E3000EB8B9F602120EB8ECF602120EB81BFBCB
:1021F30002120EB841FC02120EB874FC02120EB8A1
:10220300C0FC02120EB8F9FD02120EB821FE021232
:102213000EB836FE02120EB846FE02120EB88AFE41
:1022230002120EB8DFFE02120EB8EFFE02120EB853
:1022330069E403120EB884E403120EB8ADE403128A
:102243000EB8C7E403120EB8ECE403120EB80BE5A4
:1022530003120EB823E503120EB851E503120EB8AC
:102263006BE503120EB884EC03120EB817CB0312FE
:102273000EB81ECB03120EB82ACC03120EB85ACCDA
:1022830003120EB880CC03120EB8A3CC03120EB8FF
:10229300C5CC03120EB8FFCC03120EB865CD0312E2
:1022A3000EB89ECD03120EB8EACD03120EB817CEA8
:1022B30003120EB837CE03120EB8AFE603120EB8F0
:1022C300C7E603120EB8B5E703120EB8B8E7031258
:1022D3000EB89CE503120EB80EE603120EB84CE6D8
:1022E30003120EB88DE603120EB863C703120EB8BD
:1022F30082C703120EB8D1C703120EB8EDC703127B
:102303000EB81EC803120EB82BC803120EB838C875
:1023130003120EB824C903120EB862C903120EB811
:1023230072CA03120EB87DCA03120EB88FCA031203
:102333000EB898CA03120EB8A2CA03120EB8F8B5A3
:1023430003120EB818BA03120EB826BA03120EB847
:1023530004ED03120EB8FDDD02120EB86FDD02129A
:102363000EB862DD02120EB85CDA02120EB8BED7E6
:1023730002120EB887D602120EB8DBD502120EB8BF
:1023830021D402120EB8D1D102120EB8FF2A0012C4
:102393000EB85B2A00120EB858D102120EB8FFD045
:1023A30002120EB8D12900120EB8702900120EB80D
:1023B3008FD002120EB866D002120EB846CE0212A9
:1023C3000EB812CE02120EB8DFCD02120EB8C3CD74
:1023D30002120EB8D2CC02120EB88ACC02120EB878
:1023E300D5CA02120EB855CA02120EB852CA021248
:1023F3000EB852C902120EB820C902120EB85DC837
:1024030002120EB888C602120EB83EC602120EB8E9
:1024130010C602120EB80DC602120EB81E29001203
:102423000EB80C2900120EB83CE402120EB81EE4DA
:1024330002120EB8EAE202120EB8FAC502120EB880
:10244300A5C502120EB894C502120EB847E20212D5
:102453000EB88AC402120EB820C402120EB8CEC33C
:1024630002120EB86FC302120EB8FAE002120EB8CF
:10247300649603120EB83EC302120EB806C00212CF
:102483000EB8C6BF02120EB8BABF02120EB81ABFF8
:1024930002120EB85ABE02120EB8DCBB02120EB8FC
:1024A3006DB902120EB82BB902120EB8FFB70212A1
:1024B3000EB8B4B702120EB8F3B602120EB8C6B60F
:1024C30002120EB809B602120EB8D9B502120EB82E
:1024D300A5DE02120EB89FB502120EB856A2030073
:1024E300000080FBE47300013636010100010201A4
:1024F30000010301000104010606050200000701B3
:1025030000340801000F090401010D0100FF0E084A
:10251300000017020000190100FF1A0100011B014E
:1025230000FE1C0100081D0200001F010001200124
:102533000001210200002301000F240200002601F4
:10254300000127010008280200FF2A0100072B01D0
:1025530002402C0100002D0100012E0100012F017A
:1025630000FF30010B1C310800003A0100083B0159
:10257300000F2F0100000300710030016000110003
:10258300700031022003500480001000610000003D
:102593001400630073007200620043000000130024
:1025A300060000000000040012000000000000000C
:1025B300000004000400370037003C024400000020
:1025C30000000000000065000000350081000000ED
:1025D30005000000830000000101710101010101F8
:1025E30011010101310101010101800110016101AA
:1025F3003B00140063017301720162014301000196
:10260300130106013D01350004011201000100011F
:102613000001000104010401330133013C014401C1
:10262300320136000001000165010001350081011E
:102633000001050182018301000103047104020406
:10264300600411047004020402040104020410046F
:1026530061040004140463047304720462044304F5
:102663000004130406040004000404041204000418
:102673000004000400045104640000040004000486
:102683004404000400040004000465040004350449
:10269300810464000504000483040004010371033E
:1026A30001030103010301030103220302030103E5
:1026B30010030003000300030003000300030003EF
:1026C300420300032403060300030003040312036D
:1026D3002503230325032303040304030003000347
:1026E30000034403000300032303000365032100E5
:1026F3003503810300030503000300030003030202
:102703007102300160021102700201020202020230
:102713008002100261023A004100630273027202F6
:1027230062024302000213023800000200020402A4
:102733001202000200020002000204020402370037
:1027430037003C0244020002390000020002650225
:1027530000023502810200020502820283020002A6
:1027630036000100060000000F000000000000001A
:1027730000000000000003FFFF00000403FFFF0050
:1027830000FFFF0FF4010005C40403200001000350
:102793000B000000000000000003010F0000FA1E00
:1027A30013008E1E0100FA1E0200461E03004C1E7B
:1027B3000400521E0500581E0600641E1100821EEE
:1027C3001400881E1500761EFFFF000001921406F8
:1027D300C21408BC140BCE14100E1402981405B0C6
:1027E30014079E140C74140D8614FF000003EAF5FD
:1027F300E5D5D5C5B5A59595858575756565555596
:102803004545353525251515059A18CA18A018A666
:1028130018C418B818B218D018D618DC18E818ACB1
:102823001894188E1884000400700D83000200872A
:102833000D01040200890D00000000000000160FC6
:1028430000000B150B020002220F32000006841950
:1028530096199C196418A2195E186A189E1798177E
:10286300D417DA17CE178617DE19FC19021AE419E2
:10287300F019EA190C0E020B040B0A0708000F30BB
:102883003016181920231A1C1E30000119161816A9
:10289300161523030000034948424D181725050266
:1028A300303017181921301B1D1F3000383C3E36BD
:1028B3003B3B352B432CD219A819AE19BA19B419BD
:1028C300BE18E218F619EE18F41802040201010109
:1028D300010902AA17B017A417E017B617C8170003
:1028E300BE040A0E00150004007F00E8030C002854
:1028F30000000000000308100C0A0308090004008C
:1029030001FF1E1E0C05040F08C082C0838A828B40
:1029130083E0D2E7F0121DAA023A81C082C0837914
:1029230000122DD8125948C082C083900334124B31
:1029330093D083D082C3E09CA3E09D500C126179B5
:10294300FAA3E012294F600109023A81FBEA75F00C
:102953000BA4FAA8F075F00BEBA428FB900336E068
:102963002AF8A3E03B8882F583E0540F2274F71220
:102973000A1B8908122DD8122E7EACF075F00BE9D4
:10298300A42CF9900336E028FEA3E039FF74016517
:102993000860067402650870208A828B83122E6A8F
:1029A300123B4B74026508701B122D29122EB17055
:1029B300138E828F83E4F0800BEA2403FCEB122E48
:1029C3004C122E58EEFAEFFB122422023AB474F49E
:1029D300120A1B126AA779008E828F83E0607689C0
:1029E3000A890B8065E50A75F00BA4FAA8F075F067
:1029F3000BE50B12295C7046E50A75F00BA4F8AAE7
:102A0300F075F00BE50B122E908E828F83E0850814
:102A130082850983122F72850882850983A3123B5D
:102A23004BEE2403FCEF122E55123793125533AAA3
:102A330008AB091224227901900334124F42E50AAC
:102A43002401F50AE50B3400F50B122D31E50A9A42
:102A5300E50B9B409002517074F5120A1BEAFEEBE2
:102A6300FF740B1211B5123A91750A01EC4D602BEC
:102A7300EC126AC3ED125948123B4279011223AAA0
:102A8300E5084509606F850882850983A3126AB149
:102A93007902AA08AB091223AA805AE508450960FE
:102AA3002B125AB0124181123794122E9B700CEEE6
:102AB300FAEFFB1223A4E9F50A80CBEE2403FA1202
:102AC3002DD370317903EEFAEFFB80CA8E828F83A8
:102AD300A3E064FE7003A3E0F4700BEE24030A0A80
:102AE3000A122DD3700CEEFAEFFB1223A4E9F50AB8
:102AF3008003750A00A90A7F03020C9174F7120A76
:102B03001B900334123AC4EA4B602FEA75F00BA40E
:102B1300FAA8F075F00BEBA428FBEAFEEBFF121BFF
:102B2300BE900336123AC4900336124D876012EEFC
:102B3300FCEFFD7900121B288007900336E4F0A315
:102B4300F0023AB49003341244F1C3EE98EF9922A1
:102B5300C082C083EC4D60051222E480097C087DAD
:102B6300007900121B28023A8174F6120A1B7900BD
:102B7300EA4B601878008808125DE8EB1261756013
:102B8300047901780808E8C3940840EA02355474CC
:102B9300F7120A1B74F3120F81ECFEEDFF85188206
:102BA300851983E4F0041211B5EAF0A3EB1252BCC9
:102BB30074031211B5AC82AD83EEFAEFFB121AF86F
:102BC300EEFAEFFB1211C8023AAF74F7120A1B7444
:102BD300F3120F81ECFEEDFF851882851983E4F073
:102BE300EAFCEBFD74031211B5122F6B7401121181
:102BF300B5123B3E8E828F83123B4B74FE6870038B
:102C030074FF696004790180027900023AAF74F7B6
:102C1300120A1BEAFEEBFF122C6F7014122C7A8E31
:102C2300828F83E0F4F88A828B83E058F0122422A7
:102C3300A908023AB474F7120A1BEAFEEBFF7508FF
:102C4300008E828F83E06022122C6F701D122C7A0B
:102C53008A828B83E08F838E82F8E058700CE0F8D1
:102C63008A828B83E048F012242280C412241CE958
:102C7300F5087401650822126ABC122E82122DC453
:102C8300FAA3E039FB2274F4120A1B8A088B097C2D
:102C9300007D00122D29122E58122DE9126AAE79E9
:102CA30000850882850983A3E064FE7003A3E0F432
:102CB30060717E007F008062EEFAEF12294F605749
:102CC300EEFAEFFBEA75F00BA4FAA8F075F00BEB44
:102CD300A428FB900336E02AF50AA3E03BF50B8515
:102CE3000882850983A312520A850A82850B83A36E
:102CF300E06A7003A3E06B701EE50A2403FAE50B98
:102D0300122DD4700AE50A2403FCE50B122E55128A
:102D13002DDD7901125AB71236B6122D31EE9AEF24
:102D23009B4095025170EA24030A0A0AEB2290039E
:102D330034125699C32274F3120A1B8A088B098A28
:102D4300828B83A3126AB1122DD8126AAE750C005E
:102D5300122D29122DD470547E007F008049122D2C
:102D6300B6FAA3E0398A82F583E0540F6036122D58
:102D7300B6F50AA3E039F50BE50A2403FCE50B12CB
:102D83002E5F3400FB1222DEE964017017850A828C
:102D9300850B83A312575AA3123B4B122DDD750CDF
:102DA30001125AB71236B6122B4740B2A90C7F054F
:102DB300020C91EEF8EFF9E875F00BA4F8122DC4AC
:102DC30022AAF075F00BE9A42AF9900336E0282231
:102DD300EF122EAB22126AC2EB22122DE912379D9B
:102DE300EEF0A3EFF022E508126AC3E5092274F5B9
:102DF300120A1BEAFEEBFF8E828F83A3126AB17C59
:102E0300007D00EE24030A0A0AEF122E58EEFAEFB1
:102E1300FB12241CE9F50A7401650A7029126ABCC5
:102E2300122E7EAAF075F00BE9122E90850882F51A
:102E330083122E6A122E9B700DE5082403FCE5090C
:102E4300122E4C122E58022AF83400FDEE2403FAF7
:102E5300EF22122E5F3400FB121AF8223400FDE534
:102E6300082403FAE50922A3122E6F22122E7322DD
:102E7300E0F8A3E0F98E828F83A322122E822234FC
:102E830000F5831244F5E875F00BA4F822122DCA5D
:102E9300F508A3E039F50922E8F0A3E9F0E50824F1
:102EA30003FAE509122EAB22122EB164012234007B
:102EB300FB1211C8E92274F3120A1B74E6120F8184
:102EC300126AA7750C01750800750900750A00756B
:102ED3000B00851882851983E4F0EE2403FCEF349C
:102EE30000FD74031211B5122F6BE9640170237492
:102EF3000B1211B5123B4274011211B512520E702E
:102F030003A3E0696051851882851983858208854A
:102F13008309740D1211B5E4122F72740E1211B5D8
:102F2300123B4B740D1211B5AA82AB831211E6E961
:102F33006401700B740D1211B585820A85830B78B9
:102F43000A120EF0AC08AD09EEFAEFFB12239274ED
:102F530002120F1DE9F50CEEFAEFFB1211E0A90CBA
:102F6300741A120F1D022DB112325C1211EC2212CF
:102F73003ABF1244F122C082C083780079008003F3
:102F8300123069122D31E89AE99B5029E8FAE9FBDE
:102F9300EA75F00BA4FAACF075F00BEBA42CFB90E4
:102FA3000336E02AFCA3E03B8C82F583E0540F70E8
:102FB300CF790080027901023A81C082C0839028D0
:102FC300E8124547EC75F012A4FCA8F075F012ED79
:102FD300A428FD79FF7ADB7B07121B28023A817450
:102FE300F7120A1BE9FEEAFF7A007B0078007900FA
:102FF3008028E8FCE9FDEC75F012A4FC85F0087567
:10300300F012EDA4250812349CC39E400AE0FCEFA5
:10301300C39C400312358B12306912349040D302A3
:103023003AB4C082C08378007900800312306912F9
:10303300305D501F1234A0F470F2E875F012A4F85A
:10304300AAF075F012E9A42AF974DB28FA74073997
:10305300FB80047A007B00023A819028E8123559FC
:10306300C3E89AE99B22E8240108E93400F92274B1
:10307300F0120A1B74F3120F818A0A8B0B8C0C8DCE
:103083000D8908EC450D6016AA0CAB0D12123A8A95
:103093000E8B0FAE0EAF0FEE4F60030231301212E4
:1030A300108A0E8B0FA80EA90FE8FEE9FFE849600E
:1030B3007C9028F61231B0602274036508600674B0
:1030C30004650870167A04790312120A9028F6121E
:1030D30031C740077A007B000231AD9028F41231EA
:1030E300B0601B74016508600674026508700F7A8E
:1030F30002790112120A9028F41231C750D68518AA
:10310300828519837401F01211B5125533AC0CADDD
:103113000D74031211B5123255740B1211B5123A14
:1031230088123EFEE412551B1216DE8004EE4F6039
:1031330068780074FF2508C39404500278048E82D3
:103143008F831255338E828F83A3A3A3A3E508F045
:10315300E88E828F83A3A3A3A3A312553B12083146
:10316300E88E828F83A3A3A3A3A3A3A3A3123CE20A
:103173007401123CE2A3F0EE2410125945E4F0A3CB
:103183001238F1A3F0123793E4F090803F12118AC2
:10319300EE240C12594512117E1231B54005900DE3
:1031A30037E4F01215B8EEFAEFFB0244FB12564F68
:1031B30049227A04790012120A9028E812615BEA24
:1031C30098EB99221231E07583287582E8E493C362
:1031D30098F8A3E49399F9C3EA98EB9922E493F856
:1031E300740193F92274F2120A1B74F3120F818A89
:1031F300088B09ECFEEDFF750A00EEFAEFFB1212E5
:103203003A8A0C8B0DA80CA90DE849603E88828987
:1032130083E065087004A3E06509602F88828983D1
:10322300A3A3A3A3E0C39405502112595E8518827A
:103233008519837401F01211B5125962EEFCEFFD8A
:1032430074031211B5123255750A01A90A740D02DD
:103253004FF912325C1211F822AA82AB83121AF8C8
:10326300851882851983AA82AB832274F6120A1BFE
:103273001232AA600FA3A3A3A3E014C394045004BF
:1032830079018002790002355474F6120A1B123256
:10329300AA600FA3A3A3A3E014C39402500479016B
:1032A300800279000235541212348A828B83E582BC
:1032B30045832274F6120A1B1232AA600BA3A3A33E
:1032C300A3E07004790180027900023554C082C002
:1032D30083EAFCEBFD7A007B00023A7EC082C08366
:1032E3007C007D00023A7E74F4120A1B74F3120F01
:1032F30081EAFEEBFF8C0A8D0BC3EC94F8ED94FF8F
:103303004007EE4F70030233A37508007509008070
:103313002E8518828519837401F01236DE1211B5D9
:103323001236EC601374031211B5AC82AD83EEFA5E
:10333300EFFB1222DEE97049E508240112353C90C7
:1033430028E8E41263E3E50898E509995052E50893
:1033530075F012A4F8AAF075F012E509A42AF9127F
:10336300618E60D4EE4F70A974FF650A700474FF18
:10337300650B60C41236CE650A7004A3E0650B705A
:10338300B7E50875F012A4F508A8F075F012E50981
:10339300A428F50974DB2508FA74073509FB8004B2
:1033A3007A007B0002516B74F4120A1B74F3120F40
:1033B3008175080012123A8A0A8B0BAE0AAF0BEE24
:1033C3004F602A8518828519837401123AB9F8A3CC
:1033D300E0F9740B1211B5123BC61211DA7C127D9F
:1033E3000079FFEEFAEFFB121B287508011231B5C5
:1033F3005009900D377401F01215B8A90802516BEA
:1034030074F7120A1BE9FE74FE6A700374FF6B788B
:1034130000790070058052123069123490504AE8E6
:10342300FCE9FDEC75F012A4FCAFF075F012EDA40D
:103433002F12349CF460E0E8FCE9FDEC75F012A473
:10344300FC75F012EDA42FFD74DB2CF58274073D9F
:10345300F583E06A7003A3E06B70BC80091234A0AB
:1034630014C39404401712306912305D5018EE7083
:10347300EC1234A064016005E0640370E91236BF06
:10348300FAA3E0FB80047AFE7BFF023AB49028E8BB
:1034930012454BC3E89CE99D221235C022E8FAE9A4
:1034A300FBEA75F012A4FAACF075F012EBA42CFB56
:1034B30074DF2AF58274073BF583E02212124C0273
:1034C3003A81C082C083790180F274F0120A1B8AA8
:1034D3000A8B0B7A04790112120A8A0C8B0DEA45C6
:1034E3000D603EEAC333FAEB33FB121BBE8A088B33
:1034F30009AE08AF09EE4F60237AFE7BFF1212522A
:1035030074FE6A700374FF6B601B850882850983F0
:10351300123AC4E508240212353C80E1750C0080A0
:10352300047E007F00850A82850B83E50CF0EEFAAA
:10353300EFFB024500E5082407F508E5093400F52B
:1035430009229028E812454BC3EA9CEB9D22120FF7
:103553001D7F02020C91E493FA740193FB22C08253
:10356300C0837A007B0080041912358B12354550D5
:10357300101235AAC3940550F0E970EC123594800B
:10358300047A007B00023A81EA24010AEB3400FB4F
:1035930022EA75F012A4FA75F012EBA428FB74DB8F
:1035A3002AFA74073BFB22EAFCEBFDEC75F012A44C
:1035B300FCA8F075F012EDA4281235C022FD74DFCB
:1035C3002CF58274073DF583E02274F7120A1B740D
:1035D300F3120F817E007F00023672E50875F01743
:1035E300A4F8A9F01263F6FAA3E0FBEEF8EFF9E80A
:1035F30075F012A4F8ACF075F012E9A42C1236CDD4
:103603006A7003A3E06B603FE50875F017A4F8AA9E
:10361300F0EA1263F5F8A3E0F974011211B5E0685A
:103623007003A3E0696020E50875F017A4F8EAF9D0
:10363300745728FC740939FD74031211B5AA82ABBF
:10364300831222DEE96014E50875F017A4F8A9F0E7
:10365300745528FA740939FB1216EA05089028FAFA
:10366300E493F8E508C39850030235DE1236B690AA
:1036730028E812673C5039EEF8EFF91236BFF470C0
:1036830003A3E0F460E68518828519837401F0EEE4
:10369300F8EFF9E875F012A4F875F012E9A42AF925
:1036A3001236DE1211B51236EC60C175080080AD1A
:1036B300023AAFEE24010EEF3400FF22E875F01258
:1036C300A4F8AAF075F012E9A42AF91236D22274EA
:1036D300DB28F582740739F583E02274DD28F5824F
:1036E3007407391244EF740B22E8F0A3E9123BCEBE
:1036F3001211F2E922C082C08390033D74AAF0A3A1
:103703007414F090033F74A4F0A37414F090034373
:1037130074C4F0A37412F0023A8174F7120A1BEA1C
:10372300FEEBFF900377E06408601BE0640460161F
:103733008E828F83E0540364017048123793123FE3
:10374300F6E06406703D8E828F83A3A3E064FE706F
:1037530003A3E0F4602D8E828F83A3A3123B3E90DC
:103763000368E0687003A3E069700BEE2415F5822B
:10377300EF1261756008121558E9F50880081215F3
:103783005E80F67508C2EEFAEFFB121BC4022C33FF
:10379300EE12379822240BF582EF3400F58322745E
:1037A300F4120A1B8A088B098A828B83E0F8A3E050
:1037B300FAE82AFAE43400FB121BBE8A0A8B0BAE2A
:1037C3000AAF0BEE4F6060850882850983E0FC7DBC
:1037D300007900121B288E828F83A3A3126AB11271
:1037E300159A8E828F83A3A3A3A3123AC48508825A
:1037F300850983E0F8EE28F8EF3400123B4685088C
:1038030082850983A3E0C0E0125942D0E0F012158B
:10381300ACEE240E125945E9125161E0C0E0EE24EA
:1038230011125945D0E0F0EEFAEFFB02517074F635
:10383300120A1B74EB120F81EAFEEBFF124D846038
:10384300030238D57A077B00121BBE900339123A64
:10385300C4124D8460788E828F8312118A90033A4A
:10386300123FF912117E126975C0E01238E1D0E0FF
:10387300F0EE2405FAEF3400FB8A088B098A82F5FF
:1038830083E0C0E01238DCD0E01238F1E0C0E0128F
:1038930038DCA3D0E0123B3012118A8518828519D7
:1038A3008312117E88828983E0C0E074051211B50A
:1038B300D0E0F0850882850983E0C0E0740412112A
:1038C300B5D0E0F074071211B5123A1B80067910D7
:1038D3008002790174150235511238E1A322900355
:1038E30039E0FAA3E0F5838A82A3A3A3A322123FBC
:1038F3000622C082C083124D84600D900339125694
:1039030087900339E4F0A3F01214C812168A023A1E
:103913008174F0120A1B74EB120F81ECFEEDFF8928
:103923000874251211B5780C12115374291211B5AC
:10393300E0F9742A1211B5E0FC742B1211B5E0FD05
:10394300740F697005740F6C6012900D7CE0640253
:10395300700579C1023A16E9C39C40F69003787862
:103963000C121126E50890037EF0E990037CF0EC3D
:10397300A3F0ED90037FF074FF6A700374FF6B7024
:103983001D900D87E0F47003A3E0F47005121B345F
:10399300800C900D87123A99E8F0A3E98007900311
:1039A30075EAF0A3EBF0EE4F6017EEFAEFFB121798
:1039B3004AE96401700BEEFCEFFD7A897B03122266
:1039C300E4900368E4F0A3F090036BF0A3F090039A
:1039D30088F0900D7CE06402700890037C740FF013
:1039E300A3F09003777405F0141211B5E4F090037B
:1039F3007812118A85188285198312117E90037EAD
:103A0300E0C0E074051211B5D0E0F074071211B5EF
:103A1300123A1B74150244FDE4123BCE12230E220C
:103A2300C082C083900338E07003121E7C1212948C
:103A3300804CC082C083900338E0900D367004E45C
:103A4300F0802D7401F0900338E0F460237C41E0B2
:103A5300C394415002E0FCECF8E0C398F0EC75F03D
:103A6300E8A4CCA8F075F003A428FD7A801245538E
:103A73007A367B0D79411222FC8003121240D083E7
:103A8300D082020EB5123A8C22122E73A322E0F5D5
:103A930008A3E0F509221244F19003752274F7128A
:103AA3000A1BEB90037FF01214B68005740D120FFE
:103AB3001D7F01020C91123ABFA3E022123B30A3F7
:103AC30022EAF0A3EBF02274F7120A1B74F8120F28
:103AD30081EAFEEBFF7900900377E0640870448588
:103AE300188285198374FDF0A374FFF01215947482
:103AF300021211B5123AC474051211B5E4123ABF99
:103B0300E0C0E074041211B5D0E0123B2BC0E074A6
:103B1300061211B5D0E0F074071211B5E4123BCAD6
:103B23001215D67408023AB1123B30E022F08E82AD
:103B33008F8322F0851882851983221244F122E0B3
:103B4300F8A3E0F9EE123798E8F0A3E9F022C08277
:103B5300C0839003497454F0A37413F09003EF747B
:103B630030F0A37416F090034D748AF0A37413F02D
:103B730090034F7454F0A37413F09003517490F0B6
:103B8300A37413F0023A8174F4120A1B74F9120F2E
:103B9300818A088B098C0A8D0B8518828519837895
:103BA3000812112674041211B5E9F074051211B547
:103BB300E4F074061211B5E4123BCA12127C7407C6
:103BC30002516DE8F0A3E9123BCE22123B36AA82E2
:103BD300AB832274F4120A1B8A088B098A828B83B3
:103BE300125ABAEE4F7003023CDF900312124D8754
:103BF30060158A828B83A3A3E0F9EEFAEFFB9003AF
:103C030013123FF91224E78E828F83A3A3A3A3A3E6
:103C1300A3A3A3A3E0640270718E828F83A3A3A3E3
:103C2300A3A3A3E054027003023CB1850882850973
:103C330083A3A3E064E960768E828F83A3A3A3A307
:103C4300A3A3A3A3A3A3E07014900D7FE0048E822B
:103C53008F83A3A3A3A3A3A3A3A3A3A3F08E828F62
:103C630083A3A3A3A3A3A3A3A3A3A3E014123CE24C
:103C73007404F0900D8012550DE8F0A3E91265D994
:103C83008B0BEA450B7003125FAC8E828F83A3A369
:103C9300A3A3A3A3A3A3A3E0640260128E828F83D2
:103CA300A3A3A3A3A3A3A3A3A3E06406702E8E825E
:103CB3008F83A3A3A3A3A3A3E0A2E0501F8508823D
:103CC300850983A3A3E0F9EEFAEFFB1223C88E82E2
:103CD3008F83A3A3A3A3A3A3E054FEF00251701206
:103CE3003F06A3A3A32274EC120A1B74DD120F81F7
:103CF300EAFEEBFF8C088D0974371211B5780C12AC
:103D03001153750A0074051211B5AC82AD831224E8
:103D1300D074121211B5E0700874151211B5E06079
:103D23002074051211B5E0A2E6501E8E828F83A384
:103D3300A3A3A3A3A3A3A3A312520A12160CE9607D
:103D43000879031222CC023EEC74051211B5E0543B
:103D53000C64047005750B018003750B00E0A2E58C
:103D63005019750A01E50BA2E04010126AB812520D
:103D7300061223D4E96004790480C874051211B5CE
:103D8300E0A2E6502274061211B5E05403701874D1
:103D9300051211B5E0540C640C600CE0540C64087B
:103DA3006005751001800375100074051211B5E0EC
:103DB3005403F8740268700C126AB8125206122483
:103DC30034023EEC740168703AE510A2E05003122D
:103DD3003EF474051211B5A882A98374031211B5B8
:103DE300E8F0A3E91244E5851882851983123EFEA3
:103DF300E0C0E074021211B5D0E0123BCA1224B83D
:103E0300023EECE86003023EEC90035FE064017065
:103E1300108E828F83A3A3A3A3A3A3E07003023D09
:103E23007A74221211B574021244E5741A1211B590
:103E3300123B4BE510A2E0500874051211B5123E77
:103E4300F4E50BA2E0506AEE240FF582EF126175E0
:103E5300C0E074171211B5D0E0F0900314124D872F
:103E63007003023EEC12159A8A128B13A812A9133F
:103E7300741A1211B5E0687003A3E069706B780CD3
:103E8300120EE8780A120EF47808120EF0A91074D4
:103E93000C1211B5AC82AD8374211211B5AA82AB99
:103EA30083900314123FF61224E77407120F1D8048
:103EB30038780C120EE8780A120EF47808120EF015
:103EC300900375120D60EE2412F582EF125E9F745B
:103ED300231211B5AC82AD83740E1211B5AA82AB55
:103EE300831223BC7409120F1D7423120F1D026564
:103EF300A4126AB812569512246A22E8F0A3E912B2
:103F03003F0622125FE2A3A3A32274F7120A1B1235
:103F13001D62023AB474F7120A1B121D68023AB406
:103F230074F7120A1B121D74023AB4C082C08312C2
:103F33001D6E023A8174F7120A1B121D7A023AB4FB
:103F430074F7120A1B74091211B5E0F50878081208
:103F53000EF4121D867401023AB1C082C083121D91
:103F630092023A81C082C083121D98023A8174F78B
:103F7300120A1B121D9E023AB474F7120A1BEAFEC0
:103F8300EBFF890874016508701479001213CC9053
:103F93002905E493FC7900EEFAEFFB121342023A8F
:103FA300B474F4120A1B74F9120F81E9FE8A088BA8
:103FB300098C0A8D0B74131211B512520A900567FE
:103FC300124D876027EE851882851983F0740112DC
:103FD30011B57808121126EAF8EBF974051211B538
:103FE300123BC6900567123FF61224E7023BC1FB62
:103FF30090034BE0F8A3E0F583888222C082C0835C
:10400300121DCE023A8174F7120A1B900D39E0F9A2
:104013007E00800B126161540D64017001190E1250
:1040230042035003E970ED023AB474F7120A1B908D
:104033000D3AE0F97E00800B126161548D6481704A
:1040430001190E1242035003E970ED023AB474F2FF
:10405300120A1B890BE975F006A4240CF508E5F098
:104063001235408A0CE508250CFAE5093400FB12E9
:104073001BBE8A0C8B0DAE0CAF0DEE4F6027AC0848
:10408300AD097900121B28123793E50BF0EE2508D2
:10409300F8EF3509F98E828F83A3A3A3A3A3A3A368
:1040A300A3A3123B4BEEFAEFFB024FFC74F6120A8A
:1040B3001BEAFEEBFF12131E900D38E0F8E9C398DC
:1040C300400990034512520A121324EE2402F8EF1A
:1040D30012580A9003471256C4900347E004F0EEC7
:1040E300FAEFFB12132A850882850983E0025CB587
:1040F300C082C083790090034580010912520A8A65
:10410300828B83E582458370F2023A8174F7120A47
:104113001BEAFEEBFFEE4F6056900345124D87609E
:104123004E888289837A007B00EE65827003EF6597
:1041330083600FAA82AB83124175E5824583602FAA
:1041430080E7900345124181687002EF698E828F88
:10415300837008123B3E90034580031265B6123B01
:104163004BEEFAEFFB122488EEFAEFFB121BC402AC
:104173003AB4124179221244F58882898322124487
:10418300F1EE22C082C08390034580048882898334
:10419300124D87600B88828983124B93EC4D70EC30
:1041A3008A828B83E4F0A3F0E849600688828983DE
:1041B3008003900345123AC4023A8174F7120A1B32
:1041C30090034580048A828B831241FE4B60257ED7
:1041D3000080010E12420350ECEE75F006A4FCAD14
:1041E300F0EA2CFCEB3DFDEC2410F582ED1242537A
:1041F30070E180047A007B00023AB4125699EA22F5
:1042030012425CEEC3982274F7120A1B7D008001F0
:104213000D124258EDC3985034ED75F006A4FEA874
:10422300F0E8FFEA2EFEEB3FFFEE2410F582EF12DB
:10423300425370DCED75F006A4FEE8FFEA2EFAEBBC
:104243003FFBEA2411F582EB1261754CF0023AB49C
:10425300126181692212425C22126AC2EB3400F5B8
:1042630083E0F82274F6120A1B1214447A007B00CE
:104273008025EAF8EBF9E875F006A4F8ACF075F0E0
:1042830006E9A42C12566E126983A3E4125764F054
:10429300A3126989126B009028F01231BF40D37AC0
:1042A300007B00801C8A088B09740378081210C2F3
:1042B300125128A374FEF0A30412554DA3E4126B0C
:1042C300009028F912430640DC7A007B00801D8AA7
:1042D300088B09740378081210C2747D125DE974A7
:1042E3000C12663B74FEF0A304126B009028FF12BD
:1042F300430640DB902903E493900353F0124310E9
:10430300023554E493F8C3EA98EB9400227CE87DE9
:10431300037A107B009003C2E0F9121C782274F038
:10432300120A1B74F5120F818A088B09890A8C0BF8
:10433300E9A2E050147508FC7509FFA2E15005D20B
:10434300E40243E3D2E30243E3124FE87003A3E042
:1043530069700579000244B0AC0A7902AA08AB0976
:10436300121420E960EDE50AF50C780C120EF479CD
:10437300027CFE7DFFAA08AB09124D63120F1DE9F3
:1043830060030244AEE50AC2E5F50A9003B5E070A6
:1043930051E50AA2E6404B74031211B5AC82AD831A
:1043A300AA08AB091211CEE970321246848A0C8B2B
:1043B3000DA80CA90DE8FEE9FFE8496025EE2402EB
:1043C3000A0AEF122EB1601AEE2402FCEF3400FD4C
:1043D30074031211B5AA82AB831222E4E50AD2E573
:1043E300F50A900348E0F50C900368E0F50EA3E0AE
:1043F300F50F780E120EF07D017C00900348E0F972
:10440300AA0EAB0F1213D87402120F1DE9F8900312
:1044130048E004F0E860030244AEE50AA2E5500474
:10442300740E80027406C0E074011211B5D0E0125C
:104433005ACB8A0E8B0FAE0EAF0FEE4F606912444C
:10444300CE1244E5888289837401F07478550AA3F7
:10445300126AC8E50C126AC8A3E508F0E50912441C
:10446300BDE4F0E50AA2E5500F74031211B5AC8266
:10447300AD83E824061244B48E828F83A3A374FD14
:10448300F0A374FFF0E50B6015902906E493F8E5BB
:104493000BC3985009EE2413125945E50BF0EEFABD
:1044A300EFFB12127080067910800279C7740B80BB
:1044B30049FAE93400FB1222E42288828983A3A308
:1044C300A3A31244C92212583DA322EE2417123784
:1044D3009A7401F0121594EE241A12379AEAF0A393
:1044E300EB22F0126ABC34001244EF22F58312442B
:1044F300F522E0F8A3E0F922740D120F1D7F0802E4
:104503000C9174F6120A1B7A007B10125FB96008D3
:104513009003D47401F08029900604E06401900DA7
:104523007D7006E0FC79018004E0FC79037A007B6E
:10453300001213429028EE1245477A007B10124571
:104543005502355412454B22E493FC740193FD222A
:104553007B009003C2E0F9121C722274EC120A1B56
:104563008A088B098C0C8D0D890E74141211B512E7
:104573004F4274161211B5E0F510A3E0F5111216AF
:104583000CE960077AFF7BFF024681900D7CE064B3
:104593000260030246747900AA08AB09121426A923
:1045A3000E12141A8A128B13AE12AF13EE4F70034E
:1045B30002465C8E828F83A3A3A3A3A3E064018E30
:1045C300828F83A3A3706912520A8E828F83A3A35F
:1045D300A3A3A3A3E054186043902904E4938E8219
:1045E3008F83A3A3A3A3F0EA650C7003EB650D60AF
:1045F30014EA650A7003EB650B600AEA6510700341
:10460300EB6511701F7810120EF0AC0AAD0BAA0CFB
:10461300AB0D1217087402120F1D80089003671266
:104623005FA3A3F074FE6A700374FF6B601D804E7A
:10463300A3A3A3E0640360298E828F83A3A3A3A310
:10464300A3E0640470057AFE0245898E828F83A3FA
:10465300A3A3A3A3E0640270089003B4E064027010
:10466300101246848B0BEA450B6006AA08AB09803F
:104673000DAA08AB09900349123FF61224E702651D
:10468300A4900375124D691216CC2274F7120A1BFB
:10469300EAFEEBFF121222E9700AEEFAEFFB1212A6
:1046A3002EE96006EEFAEFFB80047AFE7BFF023A06
:1046B300B474F0120A1B8A0A8B0B8C0E8D0F8909B6
:1046C30075080012160CE97900600302482BAA0A48
:1046D300AB0B121426A90912141A8A0C8B0DAE0CFB
:1046E300AF0DEE4F60198E828F83A3A3A3A3A3E024
:1046F300640270559003B4E064027003024829AA6F
:104703000AAB0B90034F123FF61224E71212348ABE
:104713000C8B0DA80CA90DE8497003024829888267
:104723008983A3A3A3A3A3E0A2E0400302482975BE
:104733000C01A2E150687901AC0AAD0BAA0EAB0FD4
:10474300121372E970640248298E828F83A3A3A394
:10475300A3A3E064037005750C0280528E828F83DD
:10476300A3A3A3A3A3E064016003024829900375F4
:10477300124B938E828F83124B7F8A0C8B0DA80C66
:10478300A90DE84960D19028FDE493FA88828983D2
:10479300E0C39A50C2A3E0600302482980B988822B
:1047A3008983A3A3A3A3A3D2E1F0EE4F603A8E8241
:1047B3008F83A3A3A3A3A3A3E05418602B750801BD
:1047C3008E828F83A3A3120D60750CFE750DFF7887
:1047D3000C120EF07900AC0AAD0BAA0EAB0F12143B
:1047E300387404120F1D803E900368E0650E700458
:1047F300A3E0650F7014902905E493FCA909AA0AA4
:10480300AB0B121342750801801CA90CAC0AAD0B4B
:10481300AA0EAB0F121372E9700C750801A909AA4D
:104823000AAB0B1213CCA90802450074EA120A1B47
:1048330074F0120F818A0C8B0D8C088D097426126B
:1048430011B5E0F514A3E0F5157512069003F51202
:104853004D876023900375124B93AA08AB09121678
:10486300F68A108B11EA4511600D8A828B83A3E0CF
:1048730070057900024B67E50C241DF50EE50D3438
:1048830000F50F850E82124D73F51388828983A379
:10489300A3A3E0FA88828983A3A3A3A3E0F9EA246C
:1048A30000FEE439FFAA08AB091213D2850E8285F4
:1048B3000F83124BB1E029F50BE50AA2E55003750E
:1048C300120E7487550A70177418550A6418600F0E
:1048D300E50C2417F582E50D126175651260077901
:1048E300011222CC808C530A78C3EE94F8EF94FF24
:1048F300501D7900EEFAEFFB124B7160128882892A
:1049030083A3A3A3A3A3A3E0541860030248757869
:1049130008120EF07D00124BA4120F1DE9F8740368
:10492300687003024875E860030249E07418550A89
:104933007003024A95E50AD2E0F50AA2E45004D2D4
:10494300E1F50AA90A125203124B71605388828956
:1049530083A3A3A3A3A3A3E05418604488828983F9
:10496300A3A3A3A3A3E064017036E510451160304F
:10497300900375124B9388828983124B7F8A0E8B27
:104983000FA80EA90FE849601788828983A3E06006
:104993000F851082851183A3125CC05003024875F2
:1049A300E50AF50E780E120EF4124B97120F1DE95D
:1049B300702B7C007D0085148285158374FFF0A322
:1049C300F0850C82850D83A3A3A3A3A3A3A3A3E0D4
:1049D3006003124B88A90B125203121D8C8514829B
:1049E300851583E0F47003A3E0F460399003B4E029
:1049F30064027003024875124F33E0FAA3E0123FDA
:104A0300F21224E7EA65087003EB650960030248C4
:104A130075EEFAEF123FF21224E7851482851583AF
:104A2300EAF0A3EBF07808120EF07D01124BA4120A
:104A33000F1DA90AEEFAEFFB1214268A088B09A8A8
:104A430008A909900368E0687003A3E069600302A2
:104A53004B58EEFAEFFB1212348A088B09A808A907
:104A630009E849606E88828983A3A3A3A3E0640154
:104A7300600D88828983A3A3A3A3E0640270548595
:104A83001882851983AC82AD83EEFAEFFB1211CE47
:104A93008055900361E0600FE50AF50E780E120E63
:104AA300F4124B97120F1DE50AF50E780E120EF451
:104AB30079027CFE7DFFEEFAEFFB124D63120F1DB0
:104AC300E960030249E085148285158374FFF0A32E
:104AD300024A27121594EAFCEBFD85188285198397
:104AE300AA82AB831222E4850C82850D83A3A3A340
:104AF300A3A3A3A3A3E06401700F124B887408124D
:104B030011B5AA82AB831222E4124D3D12594C44D3
:104B130030F5087808120EF474011211B585820875
:104B23008583097808120EF0740B1211B58582087B
:104B33008583097808120EF0E513F5087808120E3C
:104B4300F47900EEFCEFFD12520312136C7406129B
:104B53000F1D024875124D3D125948124BB1E50B1A
:104B6300F01215AC7410120F1D7F0E020C9112146B
:104B73001A8A0E8B0FA80EA90FE84922A3A3125677
:104B8300991216F622E50C2415F582E50D12379DD0
:104B9300125527227901AC08AD0912568E124D63C6
:104BA30022AC0BA91312568E1213D8740222125977
:104BB30054A3A3A3A32274F0120A1B74F0120F814F
:104BC3008A0C8B0DECFAEDFB750F089003F5124D73
:104BD300876014125CB98A828B83E5824583600700
:104BE300A3E07003024D38124D3D3400124D73F5AE
:104BF3000B88828983124D46E0FBEC2400FEE43BE4
:104C0300FF88828983A3A3124D46A3A3E0FBECF59F
:104C130008E43BF50988828983A3A3A3A3A3A3A3E1
:104C2300E0F50EE50AA2E45003750F10A2E5500665
:104C33007408250FF50F748F550A700FE50C2417B0
:104C4300F582E50D126175650F600879011222CCBA
:104C5300024D38530A707800E50AA2E45022124D3F
:104C63003D1261752408FCA3E03400FD74081211A1
:104C7300B5AA82AB831222E47808E50AC2E4F50AF6
:104C8300E50AA2E55028124D3D12617528F8A3E00C
:104C93003400F9E82408FCE93400FD8518828519FD
:104CA30083AA82AB831222E4E50AC2E5F50AAC0EBD
:104CB300A90BEEFAEFFB1213DEE9F87403686075D3
:104CC300900368E06E7003A3E06F605EE87054E5E4
:104CD3000AF50F780F120EF4124D54120F1DE970DE
:104CE30054780A120EF474011211B585820C85836F
:104CF3000D780C120EF0740B1211B585820C85839E
:104D03000D780C120EF0E50BF50A780A120EF4A9D1
:104D13000EAC08AD09EEFAEFFB12136C7406120F1A
:104D23001D8012740468700D80B7780A120EF41295
:104D33004D54120F1D74100244FDE50C241DF58221
:104D4300E50D22A3A3A3E0FC88828983A3A3A3A3E5
:104D5300227901124F3A12379D124D69124D632287
:104D6300121396740122E0FCA3E0FDAA08AB09220A
:104D7300F583124179A3E0F50A88828983A3A3E02E
:104D8300229003391256F52274E8120A1B74F512A5
:104D93000F81EAFEEBFF8C088D098914742312112D
:104DA300B5E0F50F74241211B5E0F512A3E0F51385
:104DB30074261211B5E0F516A3E0F5177428121145
:104DC300B5E0F50EA90F1213E48A108B11740112CA
:104DD30011B57408F0E50EA2E450037410F0E50E6B
:104DE300A2E55004E02408F0851882851983AA827D
:104DF300AB831215F48A0C8B0DEA450D7003024F39
:104E03001AEA2417F582EB124F2C121594E50C24A1
:104E13001AF582E50D125948123AC474031211B5FA
:104E2300AC82AD83AA10AB111211CEE9601D124FF3
:104E33002474031211B5A882A983E50C2418F58202
:104E4300E50D125948E8F0A3E98024E50EA2E450E9
:104E53001FE5106E7003E5116F7015124F24E50CFA
:104E63002418F582E50D125948E512F0A3E513F075
:104E7300124F33124F42850A82F5837402F0A3E581
:104E83000E124F4AE50FF0EE850A82850B83A3A32A
:104E9300A3F0EF850A82850B83A3A3A3A3124F4A32
:104EA300A3A3A3E508F0E509850A82850B83A3A3E1
:104EB300A3A3A3A3F0AA10AB111213D2E92514855F
:104EC3000A82850B83A3A3A3A3A3A3A3F07508005E
:104ED300E50EA2E45011AC12AD13E50A2408FAE57D
:104EE3000B1244B6750808E50EA2E55014AC16ADD6
:104EF30017E50A2508F8E50B3400F9E824081244FD
:104F0300B4850C82850D83A3A3E510F0A3E511F00E
:104F1300AA0CAB0D121270740B120F1D7F10020C32
:104F230091E50C2416F582E50D12379D7401F022EC
:104F3300124F3A12379D22E50C126AC3E50D22E0A7
:104F4300F50AA3E0F50B22F0850A82850B83A3A360
:104F53002274F2120A1B8A088B09ECFEEDFF890A00
:104F63007900124FE87003A3E0697004790180733C
:104F7300750B01900368E065087004A3E0650960A0
:104F83001F750B00780B120EF4A90AEEFCEFFDAAB5
:104F930008AB091216487401120F1DE9F50B804185
:104FA3007900EEFAEFFB12141AEA4B602B8A828B1C
:104FB30083A3A3A3A3A3A3E05418601C7508FE75E1
:104FC30009FF7808120EF08A828B83A3A3120D6067
:104FD3001268D8120F1D80097901EEFAEFFB121245
:104FE300F4A90B80141214268A0C8B0DA80CA90D9E
:104FF300900368E06822120F1D7F06020C9174F47F
:10500300120A1B7508C575090A7A101265E08B0B25
:10501300EA450B7003124310900353E014F0700C35
:10502300902903E493900353F01214327E007F001F
:10503300806C850882850983A3A3A3A3E06059F448
:105043006056E5082404F582E509125F9D704985E1
:105053000882850983A3A3A3A3A3E064037019793A
:1050630002850882850983124B938508828509830B
:10507300A3A312520A121372850882850983A3A37C
:10508300A3A3A3E06401601085088285098374FEED
:10509300F0A30412515AE4F01236B61235389028B0
:1050A300F212673C408C7E007F00803912153A8EE5
:1050B300088F09740378081210C2743D2508FC7424
:1050C3000C3509FD7A7E7B13121528EA4B70DD8EB1
:1050D300088F09740378081210C2125128126983C9
:1050E300E4F01236B69028F9E493F8C3EE98EF94FF
:1050F30000501B8E088F09740378081210C21251D6
:1051030030E82407F582E9125F9D70D680A17E0006
:105113007F00800A12513B600214F01236B6126708
:105123003940F180481251308882898322743D25A9
:1051330008F8740C3509F922EEF8EFF9E875F00672
:10514300A4F8AAF075F006E9A42AF974DD28F5821B
:10515300740B39F583E022125161A3A3A322F085D6
:105163000882850983A3A322740D120F1D7F0402F5
:105173000C9174F7120A1B74E1120F81ECFEEDFF20
:10518300750800EE4F60728A828B83E0241C125FE5
:10519300CE124D8760638A828B8312520A851882EE
:1051A300851983AC82AD83EA241BF582EB125E9FE3
:1051B300EA241CF582EB12520612157C740B1211B1
:1051C300B512520E7003A3E069702E74021211B56A
:1051D300E064017024741D1211B5123FF6E06401FE
:1051E3007017741D1211B5123FF8A3A3E0F88E8255
:1051F3008F83E0687003750801A908741F023AB130
:10520300124F3A3400F58312569922122E6FE0683A
:105213002274F4120A1BE97024790090034D123FA3
:10522300F61224E78A0A8B0BAE0AAF0B74FE6E707C
:105233000374FF6F701A902900E49360137901904F
:10524300034D123FF61224E78A0A8B0BAE0AAF0B0B
:105253001215B802382A74F6120A1B74F3120F815E
:10526300121B348A088B09AE08AF09900368E06EFD
:105273007003A3E06F60E91215A0EA6E7002EB6F92
:1052830060DEEEFAEFFB12160CE970D4EE4F60D03D
:10529300851882851983E4F0041211B5EEF0A3EFAB
:1052A3001252BCE970BA74FE6E700374FF6F60B083
:1052B300EEFAEFFB740D023551123BCE1211E622CA
:1052C300C082C0831215B8023A817F0A020C91741E
:1052D300F2120A1BEAFEEBFF8C0A8D0B8908740E8F
:1052E3001211B5E0F50974FC6E700374FF6F70055D
:1052F3007900024FFC79001214268A0C8B0DAE0C38
:10530300AF0D900368E06E7003A3E06F7006E509CC
:10531300A2E650DCA9091267C6706179007AFE7BA8
:10532300FF1267C670567418550970030254097842
:1053330000790080031230699028F2123060400334
:10534300025409E8FAE9FBEA75F007A4FAACF07530
:10535300F007EBA42CFB74CB2AF582740A3BF5838C
:10536300E0541870D0E875F007A4F8AAF075F007B8
:10537300E9A42AF974C528F8740A39F9888289835B
:10538300A3A3A3A3A3A3E054186009741855097039
:10539300030252F388828983EEF0A3EFF074FE6573
:1053A3000A700474FF650B600312552D888289838C
:1053B300A3A3A3A3A3A3E509F0A2E0500D888289C8
:1053C30083A3A3A3A3A3A3D2E2F0740165088882F5
:1053D3008983A3A3A3A3A37038740112554DE0548A
:1053E300186028902904E49388828983A3A3A3A344
:1053F30012551B1216F68B0DEA450D60030252F38C
:1054030078007900803979020252F5900367E080D1
:10541300D7E0640170030252F388828983A3A3A3B4
:10542300A3A3A3E054186007902904E49380049095
:105433000366E01244BDE508F00252F312306990AE
:1054430028FAE493FAC3E89AE9940040030252F37A
:105453007A007B00804BEAFCEBFDEC75F007A4FCC3
:10546300AEF075F007EDA42EFD74C72CF582740A17
:105473003DF583125ABAE8FCE9FDEC75F017A4FC7C
:1054830085F00975F017EDA42509FD74552CF582F7
:1054930074093DF583E06E7003A3E06F609E1235DF
:1054A3008B9028F212354840AD124547EC6A7002E2
:1054B300ED6B7088E875F017A4F8AAF075F017E99A
:1054C300A42AF9745528FE740939FF7C177D0079E5
:1054D30000EEFAEFFB121B288E828F831255339056
:1054E300037512550DA3A3A3A3A3A3E8F0A3E91285
:1054F30055137401F0EE240E125945740112553BF5
:10550300120831125942E802543B123A8CA3A322E7
:10551300F0EE240F12379A22F0125524AA0AAB0B8D
:1055230022900375E0FCA3E0FD2288828983A3A374
:10553300E50AF0A3E50BF022F09028FDE4932401A3
:10554300F8E43400F97A027B00221244C9A32274DE
:10555300ED120A1B8A088B09890E125677400579CA
:105563000502564C121DD4AA08AB091257499028BC
:10557300F012564F650A7003E9650B70077AFE7BDC
:10558300FF1257499028F0126154E50B994003022A
:10559300564A1256546012E50A75F006A4F875F0DF
:1055A30006E50B12569F121BC4E50E6018E50A753B
:1055B300F006A4F8AAF075F006E50B1256CB701AA4
:1055C300790102564CE50A75F006A4F8AAF075F0C5
:1055D30006E50B1256ACE4F0A3F0E50A75F006A459
:1055E300F8AAF075F006E50B12566CA312596288FF
:1055F300828983A3AA82AB831256BA8A828B83E001
:105603006041125654603C8E108F11751200781051
:10561300120EECE50EC333FCE433FDE50A75F00628
:10562300A4F50AA8F075F006E50BA428F50B74E1C0
:10563300250AF582740B350B125208121B1C7403D6
:10564300120F1D7900800279070267DC1231E0E84E
:1056530022E50A75F006A4F8AAF075F006E50B1228
:1056630056A7F8A3E0F9E84922A42A125800888231
:105673008983A322ECFEEDFF9028FBE493F8E9C3B2
:105683009822F583125699121BC422E50C126AC3A1
:10569300E50D3400F583E0FAA3E0FB221256A7FAE6
:1056A300A3E0FB221256ACE022A42AF974E128F508
:1056B30082740B39F58322E50EF0900D7E1256C4E9
:1056C30022E088828983F022125824F50CE9340001
:1056D300F50DE50EC333FAE433FB121BBE850C82D2
:1056E300850D83EAF0A3EBF0850C82850D831256BA
:1056F300F5221244F5E8492274F4120A1BECFEED7C
:10570300FF740C1211B5123B3E88088909125749E0
:10571300AC0AAD0BECF8EDF99028F012575150217B
:10572300E875F006A4F8AAF075F006E912566CE0E5
:105733008E828F8312576412575A123B4B79008023
:105743000279040251701213A88A0A8B0B221235B4
:1057530059C3EC9AED9B221244F185088285098393
:10576300221258392274F6120A1B7E007F00802809
:10577300EEF8EFF9E875F006A4F8ACF075F006E979
:10578300A42CF974DF28F582740B1263E76A7003A3
:10579300A3E06B60571236B612673940D3126734F1
:1057A3007002E96F704674FE6A700374FF6B703C9D
:1057B3007E007F0080031236B6126739502E1251D5
:1057C3003B70F3EEF8EFF9E875F006A4F81257F61C
:1057D30012582B6017125812F8E912580A888212CD
:1057E3005685850882850983E4F0A3F0EEFAEFFB82
:1057F30002355475F006E91257FE22A42AF974DD26
:1058030028F8740B39F9223400F98808890922EE43
:10581300F8EFF9E875F006A4F875F006E9125824D4
:10582300221257FEE8240422A3A374FE1258361250
:1058330056F522F0A30412583D22F088828983A3EF
:10584300A3A3A32274F6120A1BEA241DF582EB120A
:10585300594CF9604BEA241DF582EB126175240261
:10586300FCA3E03400FD12567B4003025935780057
:1058730080298C828D83E0F508A3E0FFE5082400EE
:10588300E43FF509E833FEE433FF74252EF5827413
:105893000C3FF58312596212593808E8C39940D274
:1058A3008A828B83A3A3A3A3A3A3A3A3A3124B9330
:1058B300900368E06C7003A3E06D700F7C257D0C92
:1058C300122DD812520612139C8067EA2411F58216
:1058D300EB126175605CFC74FF2CF07508017808AD
:1058E300120EF475082575090C7808120EF0E9F507
:1058F300087808120EF4EA2412F582EB126175F5AA
:10590300087808120EF4EA2415F582EB12594812AE
:105913000D60ECF9122DD8124B908A828B83A3A3CE
:10592300A3A3A3A3A3A3A312520A1213B47407122B
:105933000F1D023554EC24020C0CED3400FD22EE55
:10594300240DF582EF12379D2212379D125954E030
:1059530022E0F8A3E0F5838882A32288828983E585
:1059630008F0A3E509F02274EA120A1B74FD120F72
:10597300818A148B158C0E8D0F890D74191211B534
:10598300125ABA741B1211B5E0F511741C1211B539
:10599300E0F50C741D1211B5124F42741F1211B5AC
:1059A300E0F5106008E50CC333240480027402C0E0
:1059B300E074011211B5D0E0125ACB8A088B09EAC0
:1059C30045097003025AAB8A828B83A3A3E514F0C3
:1059D300A3E5151265CFE50EF0A3E50FF0EA241356
:1059E300F582EB125948E50DF0EA2414F582EB1227
:1059F3005948E511F0EA2417F582EB126175640149
:105A0300704012159A8A0E8B0FA80EA90F85088273
:105A1300850983A3A3A3A3E0687003A3E0696022BD
:105A2300EE4F6011E508241AF582E509125948EE94
:105A3300F0A3EF800CE5082417F582E50912594815
:105A4300E4F0125AB0125ABA8E828F837405F0A30F
:105A5300E5107004E50C80487401250C125AC47AD1
:105A6300008028850A82850B83E0125AC0850A824A
:105A7300850B83A3E08E828F83F0E50A2402F50A67
:105A8300E50B3400F50BA30EAF830AEAC3950C4074
:105A9300D212159AEA125AC012159AEB8E828F838C
:105AA300F0AA08AB091212707403024B69122DE9B4
:105AB30012379D22900334E0FEA3E0FF228E828FF3
:105AC30083F0A3AE82AF8322123BCE1215F422C021
:105AD30082C083E9C333FCE433FDEA2CFAEB3DFBDC
:105AE300EA24FEF582EB34FF125208023A8174F283
:105AF300120A1B89098A0A125677400479008040EA
:105B030075080080020508E508C39509502AE508D1
:105B1300C333F8E433F9EE28F582EF39F583C08215
:105B2300C08312159A8A0C8B0DD083D082E0650C4A
:105B33007004A3E0650D70CDE50A650870BE7901B8
