:020000040000FA
:06000000020AA00201C784
:030013000201EAFD
:03002B000208DBED
:03003B0002023F7F
:030053000200F8B0
:1000830002015C0101FF01010503010F10FEFF2ABC
:10009300132A132A132A13E011DA112A13E1200079
:1000A3000000000722000000000C0000000C00010B
:1000B30000003415000000000000E81500000000F7
:1000C300000000000000FFFF010200C30500000064
:1000D30036066400020200000002050207051E0244
:1000E300051E020A0A03B80B02803E010206000144
:1000F3000014020206C0E074F2120487A2AFE433D4
:10010300FED2AFE5A7FFE5A1F5085F541060061224
:100113001C1275A1EFE5085F54086008121C1875DE
:10012300A1F7802BEFA2E0C0D0E508A2E092F01285
:1001330009DD158182F05017906198E0F89008046A
:10014300E0C398A2D265D0335002E8F075A1FEEE69
:10015300A2E092AF7F0102053EC0E074F212048771
:10016300A2AFE433FED2AF9061A4E0F8759B00E543
:100173009158540860087591F7121C5A802AE5912A
:1001830058541060087591EF121C60801BE8A2E0C0
:10019300C0D0E591A2E092F01209DD158182F05002
:1001A30007E0C2E0F0121D9E9061A3E0F8E5E95874
:1001B3005404600E121D7475E9FB906193E0A2E68E
:1001C30040F2808BC0E074F2120487A2AFE433FEE6
:1001D300D2AF9061A5E0F8E5BF585404600675BF3F
:1001E300FB121DB6020152C0E0C0D0E8C0E0E9C076
:1001F300E0C082C083E5C1C0E0900770E0F874EF0F
:1002030028F58274063400F583D0E0F090076FE0A0
:10021300F8A3E0687006E595900772F0900770E028
:1002230004F0C394804002E4F0A374C6F0D083D0FA
:1002330082D0E0F9D0E0F8D0D0D0E032C0E0C0D036
:10024300E8C0E0C008C009C082C0839007F3E0F8AB
:10025300A3E0687008539AFBA374018026C2E99057
:1002630007F3E0F50874012508F074732508F58297
:1002730074073400F583E0F5C19007F3E0C394807D
:100283004002E4F0D083D082D009D00880A6C3E432
:1002930098F8E499F91202D28026C3E49AFAE49B0F
:1002A300FBE920E7E91202D2E498F8E499F922C3C2
:1002B300E498F8E499F91202D2E498F8E499F9C3BE
:1002C300E49AFAE49BFB22EB20E7CFE920E7E0B9CD
:1002D3000010BB0008E88AF084F8AAF022E4FBC807
:1002E300FA22EB70227B10C833C8C933C9335007D5
:1002F300C39AC3DBF280069A50012ADBEAC833F4BF
:10030300C8C933F4C9FA2275F008E4C833C8C9333D
:10031300C933C99AC99B5004C92AC93BD5F0ECFB20
:10032300C833F4C8E4C9FA22080808EAC0E0EBC0FD
:10033300E086F0E7A4FA180986F0E7A42AFA180978
:1003430086F0E7A42AFA180986F0E7A42AFA1986A0
:10035300F0E7A4FBE5F02AFA190886F0E7A42BFBE3
:10036300E5F03AFA190886F0E7A42BFBE5F03AFA30
:1003730018180986F0E7A4C5F02BFBE43AFA19082C
:10038300E7C5F0C6A426F6E5F03BFBE43AFA188687
:10039300F0E7A4F6E5F00826F6E43B08F6E43A08AD
:1003A300F6D0E0FBD0E0FA22E4CFC0E0E4CEC0E038
:1003B300E4CDC0E0E4CCC0E075F020C3E633F6083A
:1003C300E633F608E633F608E633F6181818EC3386
:1003D300FCED33FDEE33FEEF33FFC3EC9709ED97EE
:1003E30009EE9709EF97191919400FFFEC97FC09CC
:1003F300ED97FD09EE97FE191906D5F0BEECF70946
:10040300EDF709EEF709EFF7191919D0E0FCD0E081
:10041300FDD0E0FED0E0FF222518C582C0E0E5193B
:1004230034FFC583C0E0E518C3958224F810AF08F4
:100433008583198582188008858319858218D2AF30
:10044300CEF0A3E520F0A37808E608F0A3DEFAEFE8
:10045300F0A3E58124FAF8E608F0A3E608F0A3E6A2
:1004630008F0A30808E608F0A3E608F0A315811531
:1004730081D0E0FED0E0F8158115811581E8C0E058
:10048300EEC0E022C0D02518C582C0E0E51934FFD4
:10049300C583C0E0E518C3958224F310AF088583B4
:1004A300198582188008858319858218D2AFC8F010
:1004B300A3E9F0A3EAF0A3EBF0A37908E709F0A31B
:1004C300D8FAECF0A3EDF0A3EEF0A3EFF0A3D0E0A5
:1004D300F0A3D0E0F0A3D0E0F0A3E520F0A3E5F093
:1004E300F0A322120B02B90003020528E4900301D2
:1004F30078C2790B8002F0A3D8FCD9FA900DC2AA76
:1005030082AB83900086787379018015E493A3AC62
:1005130082AD838A828B83F0A3AA82AB838C828D84
:1005230083D8E9D9E77582F57583E074031208531C
:1005330075824A75832074001208538519838518C0
:1005430082E0C0E0A3E0F9A3E0FAA3E0FBA378080C
:10055300E0F608A3DFFAE0FCA3E0FDA3E0FEA3E0DE
:10056300FFA3E0C0E0A3E0C0E0A3E0F5D0A3E0F583
:1005730020A3E0A3F5F010AF0885831985821880C6
:1005830008858319858218D2AFD082D083D0E0F852
:10059300D0E0320E0075F0108E1A8F1B85821F85F6
:1005A300831E851882851983E0CEA3E0CF851F8241
:1005B300851E83EBC9EAC8EDCBECCAC3E833C8E9AF
:1005C30033C9EA33CAEB33CBC3EA9EF51DEB9FF580
:1005D3001CB35004AB1CAA1DEC33CCED33CDD5F0CA
:1005E300DAAE1AAF1B22D083D082ECC0E0EDC0E0BC
:1005F300E493A3FCE493A3FDED4C600D1206C1EC60
:1006030024FFFCED34FFFD80EFE493A3FCE493A30C
:10061300FDED4C600D12075EEC24FFFCED34FFFD95
:1006230080EFD0E0FDD0E0FCE493A3C0E0E493C00E
:10063300E022851983851882E0A3FEE0A3F52078E4
:1006430008E0A3F608DFFAE0A3FFE0A3C0E0E0A31D
:10065300C0E0E0A3C0E0E0A3C0E0E0A3C0E010AFCF
:10066300088582188583198008858218858319D2A5
:10067300AFD083D082020859D083D082E9C0E0E4AE
:1006830093A3C386F0C5F095F0F908E493A386F02D
:10069300C5F095F0700BE493A3C3994005E904807A
:1006A30002A3E475F002A42582F582E5F03583F513
:1006B30083D0E0F9E493A3C0E0E493C0E022C0E078
:1006C300C3E49396087401939618400FE4936670FD
:1006D3000808740193661870007019A3A3C3E49308
:1006E30096087401939618A3A3400DD0E0D0E0D0F0
:1006F300E0020625A3A3A3A3A3A3D0E0227404804E
:100703000474028000CCC0E0EDC0E0E518C39CCCCB
:10071300AD1950011D10AF068C188D1980068C1869
:100723008D19D2AF1207D5D0E0FDD0E0FC227402C0
:100733008000CCC0E0EDC0E0E518C39CCCAD1950FF
:10074300011D10AF068C188D1980068C188D19D2D7
:10075300AF1207B3D0E0FDD0E0FC22C0E0C0F088C8
:10076300F0E4936670080874019366187000A8F0AB
:10077300A3A3700BD0F0D0E0D0E0D0E0020625A315
:10078300A3D0F0D0E022D083D082CCC0E0E493A306
:1007930060061207F61470FAE493A36006120925A3
:1007A3001470FAD0E0FCE493A3C0E0E493C0E02229
:1007B300CAC0E0E493A3C582CCC582C583CDC583FB
:1007C300F0A3C582CCC582C583CDC583DAE5D0E06D
:1007D300CA22CAC0E0E0A3C582CCC582C583CDC509
:1007E30083F0A3C582CCC582C583CDC583DAE6D0A9
:1007F300E0CA22C0E0E493A3D39C5010E493A3C3C4
:100803009C400AD0E0D0E0D0E00207A6A3A3A3D087
:10081300E022C008C3E096F50808A3E09642080862
:10082300A3E096420808A3E09645087001D3D008D8
:10083300227009080808226016181818C6C333C6A0
:1008430008C633C608C633C608C633C6D5E0EA228F
:10085300C09FF59FE473D09F22D083D082C09FE4D2
:1008630093C0E0740193C0E0740293F59F222518AE
:10087300F58210AF08F518400215198008F51840E5
:10088300021519D2AF851983227404800A74038078
:1008930006740280027401C0E0F404120871D0E00F
:1008A300120ADD22BB0102E722C082C08389828A49
:1008B30083BB0003E08002E493D083D08222C0D0C4
:1008C300251810AF08F518500205198008F51850BF
:1008D300020519D2AFD0D022C0E0C0D0E8C0E0E515
:1008E300A8D2AFC2C7A2E792AFD0E0F8D0D0D0E091
:1008F300326016080808C6C313C618C613C618C63E
:1009030013C618C613C6D5E0EA22C3E0C696F60896
:10091300A3E0C696F608A3E0C696F608A3E0C6963B
:10092300F622C0E0E493A36C7009D0E0D0E0D0E0FD
:100933000207A6A3A3D0E022251810AF08F518409C
:100943000215198008F51840021519D2AF22E7667F
:1009530070100809E766700A0809E7667004080959
:10096300E76622C3E09608A3E09608A3E09608A3EF
:10097300E096A2D265D03322E066701008A3E06649
:10098300700A08A3E066700408A3E06622C3E09639
:10099300F008A3E096F008A3E096F008A3E096F031
:1009A30022E026F008A3E036F008A3E036F008A31F
:1009B300E036F022E627F60809E637F60809E637B7
:1009C300F60809E637F622E026F608A3E036F6082D
:1009D300A3E036F608A3E036F622C0E0E8C0E0E57F
:1009E3008124FCF8E6A2E7D0E0F8D0E022700422EC
:1009F300600D18C6C333C608C633C6D5E0F4182243
:100A0300E657F60809E657F60809E657F60809E631
:100A130057F622E056F608A3E056F608A3E056F68A
:100A230008A3E056F622E056F008A3E056F008A328
:100A3300E056F008A3E056F022E647F60809E64739
:100A4300F60809E647F60809E647F622E4C396F6F0
:100A530008E496F608E496F608E496F622C3E796C9
:100A63000809E7960809E7960809E79622C6F4C637
:100A730008C6F4C608C6F4C608C6F4C622600D0844
:100A8300C6A2E713C618C613C6D5E0F322C3E09681
:100A930008A3E09608A3E09608A3E0962275D00089
:100AA300758140751801751903000204E6E0F60824
:100AB300A3E0F608A3E0F608A3E0F622600C08C65C
:100AC300C313C618C613C6D5E0F422E6F008A3E69E
:100AD300F008A3E6F008A3E6F022CAC0E0E6F0A31C
:100AE30008DAFAD0E0FA22E0FAA3E0FBA3E0FCA3E1
:100AF300E0FD22EAF0A3EBF0A3ECF0A3EDF022E596
:100B0300C754F84401F5C77901222518F582E43565
:100B130019F58322C2AF75D69F0200002212085C2A
:100B230000E30212085C34E40212085C52E402128D
:100B3300085C73240012085C85240012085CD72427
:100B43000012085C38250012085CC2250012085CFC
:100B530066260012085CBA260012085CD32600122F
:100B6300085CF9260012085C34270012085C782719
:100B73000012085C9F270012085CF0270012085C33
:100B8300A0280012085C58290012085C202A0012D1
:100B9300085CE02A0012085C242B0012085C492B35
:100BA3000012085C8C2B0012085CD92B0012085C25
:100BB3004F2D0012085CD52D0012085CF32D001296
:100BC300085C1D2E0012085C372E0012085C462EAE
:100BD3000012085C512E0012085C112F0012085CF1
:100BE3006A2F0012085C2C300012085C34300012AB
:100BF300085CC8300012085C34310012085C5F32B4
:100C03000012085C84320012085C09330012085C8D
:100C130098330012085CF0330012085CB4340012FD
:100C2300085CD3340012085CE2350012085CF4352A
:100C33000012085C5E360012085CB3370012085CD1
:100C4300E5370012085C71380012085CAA380012FC
:100C5300085CF6380012085C093A0012085C2D3C67
:100C63000012085C383C0012085C433C0012085C2C
:100C73004E3C0012085C583C0012085C633C0012B6
:100C8300085C7D3C0012085C873C0012085C913CC8
:100C93000012085C9C3C0012085CC43C0012085C17
:100CA3001F3D0012085C293D0012085C4D3D0012F7
:100CB300085C713D0012085CCF3D0012085C133ED6
:100CC3000012085C2F3E0012085CA63E0012085C6E
:100CD300DE3E0012085C2A3F0012085C873F0012C8
:100CE300085C41400012085C25420012085C7E4209
:100CF3000012085CAE430012085CD4430012085C87
:100D03004E450012085CD9480012085CAB4A001239
:100D1300085C744C0012085C214D0012085C954E6F
:100D23000012085C344F0012085C794F0012085C13
:100D3300E34F0012085CF24F0012085C725200127B
:100D4300085C1B540012085C88540012085C675549
:100D53000012085C8A560012085CF2570012085C05
:100D630011580012085C66580012085C6B59001297
:100D7300085C93590012085CEB590012085CCA5ACC
:100D83000012085C0E5B0012085C595B0012085CE1
:100D9300C45B0012085C095D0012085C6D5D001203
:100DA300085CBB5E0012085C22610012085C5361A0
:100DB3000012085C0B630012085C60630012085C9D
:100DC30064640012085C01650012085C5A65001235
:100DD300085C0D660012085CAF660012085C4F6782
:100DE3000012085CF4670012085CCD800112085CF5
:100DF3000C810112085C53830112085C9D8301126C
:100E0300085CB8840112085C20850112085C5585D2
:100E13000112085CC9860112085C4C890112085C46
:100E2300758A0112085C288B0112085C84930112F5
:100E3300085C19940112085C00970112085CF99789
:100E43000112085C67980112085CAD990112085CF5
:100E53008C9A0112085C719C0112085C829E01123B
:100E6300085CDA9E0112085CAC9F0112085CDA9FF1
:100E73000112085C97A00112085C6EA10112085CC4
:100E830035A20112085CD9A20112085C02A3011267
:100E9300085C24A30112085C7AA50112085C52A61F
:100EA3000112085C96A60112085CFEA60112085CFA
:100EB300B6A70112085CE8A70112085C2CA801126E
:100EC300085C62A80112085CAEA80112085C03A9C1
:100ED3000112085C08A90112085C5BA90112085CF5
:100EE30080A90112085C8FAA0112085CF3AA0112FF
:100EF300085C63AB0112085CEFAB0112085CBCAE8B
:100F03000112085CA0AF0112085C23B10112085C56
:100F130059B30112085C07B40112085CB7B401129B
:100F2300085CF8B60112085C9BB70112085CE2B7D3
:100F33000112085C8EB90112085CA2B90112085CA7
:100F4300ACB90112085CD4B90112085CE0B9011212
:100F5300085CFFB90112085C1FBC0112085C6EBD7E
:100F63000112085CB2BD0112085C5ABE0112085C92
:100F73003DBF0112085CE8BF0112085C34C10112D5
:100F8300085C32C20112085CD8C20112085C79C342
:100F93000112085C90C30112085CC7C30112085C0C
:100FA300D1C30112085CDCC30112085CFAC301124D
:100FB300085C3EC40112085C9BC40112085CC0C4F7
:100FC3000112085CDAC40112085C66C50112085CF0
:100FD30083C60112085CDFC60112085CC6C7011292
:100FE300085CEDC70112085C61C80112085CDCC82B
:100FF3000112085CE0C90112085CD6CA0112085C40
:1010030085CB0112085C98CC0112085C34CD011227
:10101300085CB6CD0112085C94CE0112085CCCCEFC
:101023000112085C24CF0112085CEDCF0112085CA9
:101033000ED00112085C95D00112085CB9D00112E0
:10104300085CDBD00112085C24D10112085C3AD39E
:101053000112085C1DD40112085CCED40112085C95
:1010630004D70112085C54D70112085C94D701120B
:10107300085CD6D70112085C32D80112085C60D82C
:101083000112085C84D80112085CD7D80112085CED
:1010930005D90112085C3ED90112085C93D90112EB
:1010A300085CF9D90112085C63DB0112085C86DD78
:1010B3000112085CF3DD0112085C1CDE0112085CFE
:1010C300A7DE0112085C0EDF0112085C59DF011272
:1010D300085C7DDF0112085CA1DF0112085CFCDF04
:1010E3000112085C17E00112085CD0E00112085CF1
:1010F300AC900412085CEB900412085C7880021236
:10110300085CBE800212085C9E810212085CA08209
:101113000212085CA3830212085C2F850212085C8A
:101123008D850212085C4A860212085C68870212E7
:10113300085CD9870212085C15880212085C638870
:101143000212085C6D880212085CB1880212085C06
:101153000D890212085CA8890212085C258A021212
:10116300085CF48A0212085C8D8B0212085CAD8B5A
:101173000212085CE38B0212085C148C0212085CF6
:10118300D58C0212085CE58C0212085C398D0212C0
:10119300085C548D0212085C668D0212085C6F8D28
:1011A3000212085CC98D0212085C258E0212085CCB
:1011B300718E0212085C8C8E0212085CBD8E0212C4
:1011C300085CDA8E0212085CE68E0212085C5A9002
:1011D3000212085C73900212085CDA900212085C37
:1011E300ED900212085CFB900212085CAF910212B0
:1011F300085C93920212085C99930212085C239490
:101203000212085C2D940212085C9A940212085C84
:10121300B1940212085CE3940212085C1C9502125A
:10122300085C46950212085CA7950212085CC795F4
:101233000212085CE5950212085C2B960212085C08
:1012430051970212085C9E970212085CCD97021216
:10125300085C43980212085C6B980212085CA4981D
:101263000212085CB2980212085C0A990212085C26
:1012730059990212085C98990212085CC8990212E3
:10128300085CF4990212085CFF990212085C1D9A2B
:101293000212085CDF9A0212085CE99A0212085CE7
:1012A300249B0212085C3A9B0212085C8F9B021279
:1012B300085CA39B0212085CA09C0212085CB39C0E
:1012C3000212085CC89C0212085C6A9D0212085C48
:1012D300ED9D0212085CAB9E0212085CB69E0212E0
:1012E300085CE29F0212085CFE9F0212085C50A099
:1012F3000212085C8FA00212085CA4A00212085C10
:1013030006A10212085C95A10212085CE0A1021278
:10131300085C31A40212085CAFA40212085C24A585
:101323000212085C46A70212085C5EA70212085C60
:1013330061A70212085C6DA70212085C81A7021262
:10134300085C89A70212085CBCA70212085C6CA89F
:101353000212085CE2A80212085C55A90212085C9A
:1013630009AA0212085CBEAA0212085CDDAA0212D4
:10137300085C7DAB0212085C89AB0212085CB4AB5B
:101383000212085CB7AB0212085C21AC0212085CC3
:1013930049AD0212085C21AE0212085CACAE021227
:1013A300085CC5AF0212085C82B00212085CBBB0D5
:1013B3000212085CECB00212085CAAB10212085CCB
:1013C300DAB10212085CB5B20212085C4EB3021223
:1013D300085CD9B30212085C8AB40212085C0DB52A
:1013E3000212085C3FB50212085C80B50212085C69
:1013F300EAA50312085C4FA60312085C87A6031232
:10140300085CD6A60312085CF8A80312085CDBAAE2
:101413000312085C39AE0312085C6EAE0312085C5B
:1014230090AE0312085CF5AE0312085C2BAF0312F7
:10143300085C4EAF0312085C7BAF0312085CD7AFA6
:101443000312085CD8990312085C599A0312085CCA
:101453008F9A0312085CF69A0312085C699C0312C4
:10146300085C859C0312085CCA9C0312085C589DA7
:101473000312085CB19D0312085CE59E0312085C2D
:10148300B39F0312085C2BA00312085CA7A00312EE
:10149300085CE9A00312085C2AA10312085C5EA29F
:1014A3000312085C5CA30312085C87A30312085CA5
:1014B300D2A30312085C19A40312085CABA40312A1
:1014C300085C64A50312085C62CA0312085C01CBC2
:1014D3000312085CDACB0312085C73CC0312085CBA
:1014E30064CD0312085C0BCE0312085C8BCE03128F
:1014F300085CCACF0312085C07D00312085C70D0E3
:101503000312085C9DD60212085C5C870412085C17
:10151300AD870412085CF2870412085C9C880412ED
:10152300085C078D0412085CA4850412085CFC8621
:101533000412085C23B00312085CCAB00312085CEF
:10154300EAB00312085C11B10312085C25B103125F
:10155300085C7DB10312085CADB10312085C2EB3C5
:101563000312085C5DE20212085CB6B40312085C65
:1015730007B50312085C4AB50312085C8DB5031264
:10158300085CF3B50312085C14B60312085CA0B63A
:101593000312085CC8B60312085C3CB70312085C6C
:1015A300EAB80312085CC4B90312085C1EBA03123A
:1015B300085C32820412085C53820412085C848340
:1015C3000412085CAE830412085CDEF10312085CAB
:1015D30059F20312085C64F20312085C85F20312E9
:1015E300085C9B8D0312085C9E8D0312085C588E69
:1015F3000312085C838E0312085CCA8E0312085C14
:10160300EF8E0312085C108F0312085C448F0312E1
:10161300085C7D8F0312085CA6900312085CDD90C2
:101623000312085CFD900312085C98910312085C96
:101633005D920312085C94920312085C09940312EE
:10164300085CAC940312085CA5950312085CCE9564
:101653000312085C22960312085CE8960312085CE6
:1016630016970312085CAB980312085C2C990312BB
:10167300085C5F990312085C73C30312085C7DC3A3
:101683000312085CC9C30312085C37C40312085C65
:1016930058C40312085C6FC40312085C1FC503120D
:1016A300085C28C50312085C7BC50312085CA4C54B
:1016B3000312085C0BC60312085C9CC60312085C89
:1016C300DEC60312085C28C70312085C87C703122F
:1016D300085CB3C70312085C44C80312085C83C8E0
:1016E3000312085CC2C80312085CF7C80312085C43
:1016F30009C90312085C1BC90312085C3AC9031227
:10170300085C43C90312085CF9C90312085C39CAAF
:101713000312085C0F900412085C55DA0312085C8C
:1017230028DB0312085C42DB0312085C53DB031261
:10173300085C68DD0312085C87DD0312085C008027
:101743000412085C36800412085C7F800412085C73
:10175300CF810412085C40680012085C7F690012A4
:10176300085CBB690012085C7A6B0012085CA36B0F
:101773000012085C366E0012085C7A6E0012085C78
:1017830003700012085C9B700012085C0371001266
:10179300085CA4710012085CE6710012085C2672F2
:1017A3000012085CB1730012085C21750012085C1A
:1017B30046770012085C74770012085C9B7700126E
:1017C300085CA4770012085CFF770012085C92782B
:1017D3000012085CB07B0012085C317C0012085CCC
:1017E300A2910412085CB8910412085C8E7C00126A
:1017F300085CA17C0012085C3E7D0012085C797DC8
:101803000012085C947D0012085CB97D0012085C2C
:10181300FE7D0012085C2F7E0012085C607E0012C1
:10182300085CE67F0012085CFA8D0412085C308EB7
:101833000412085C4C8E0412085C8E8E0412085C41
:101843009E8E0412085C00800312085C558003120C
:10185300085C3E810312085CD7810312085C218275
:101863000312085C7E820312085CD7820312085CB1
:1018730009830312085C07840312085C6B84031258
:10188300085C86840312085CD5840312085CEB842D
:101893000312085CF8840312085C2C850312085CAD
:1018A30045850312085C54850312085CDC8503122A
:1018B300085C36860312085C84860312085CA686DD
:1018C3000312085C1D890312085C52890312085C29
:1018D300E2890312085C578A0312085C5C8A0312CC
:1018E300085C988A0312085CF78A0312085C978BDA
:1018F3000312085CBC8B0312085CC68B0312085CE2
:10190300C98B0312085C528C0312085C6D8C0312A2
:10191300085C808C0312085CAC8C0312085CE78CB7
:101923000312085CEA8C0312085CF58C0312085C52
:10193300318D0312085C448D0312085C6B8D031216
:10194300085C5F900412085C77900412085CDFF770
:101953000212085C2EF80212085CD0F90212085C2D
:101963008CFB0212085CD4FB0212085CBCFC021262
:10197300085CEDFD0212085C0FFE0212085C6BFEB0
:101983000212085CEFFE0212085C0AE10112085C15
:101993002BE10112085CA8E10112085C2DE201129F
:1019A300085CA9E20112085C12E30112085C5EE321
:1019B3000112085CDDE30112085C6FE40112085CAC
:1019C300FFE40112085C41E50112085C8AE9011297
:1019D300085C0AEB0112085C49EB0112085C30EC6D
:1019E3000112085C33EC0112085CE7EC0112085C9D
:1019F3001CEE0112085C07F00112085C87F2011269
:101A0300085C40F30112085C5DF40112085CB4F752
:101A13000112085CC4F70112085C25F90112085C85
:101A2300B1F90112085CCDFA0112085C66FB0112E0
:101A3300085C69FC0112085CEBFC0112085C79E4A8
:101A43000212085C33E50212085CA5E50212085C89
:101A5300B4E50212085C2EE60212085C9DE602124F
:101A6300085CA4E70212085CCDE70212085C6DE88B
:101A73000212085CBBE80212085C2BE90212085C44
:101A8300E4EB0212085CBBEC0212085C28ED0212C4
:101A9300085CA5EE0212085C59EF0212085C07F01D
:101AA3000212085C62F00212085CCDF00212085CBC
:101AB300CDF10212085CA7F30212085CBAF4021219
:101AC300085C53F50212085CC5F50212085C8BF63C
:101AD3000212085CF7FF0112085CF9FF0112085CAF
:101AE3004DFC0312085C7EFC0312085C38FD0312F4
:101AF300085C9EFD0312085C0FFE0312085CE0DE27
:101B03000312085C77E10312085C23FF0212085CEE
:101B130034FF0212085CD4FF0212085CEC83041247
:101B2300085CFA830412085CEEFF0212085C488F1B
:101B33000412085C588F0412085C6D8F0412085C51
:101B4300B58F0412085C058C0412085C8A8C04129D
:101B5300085CEE8C0412085CF37F0012085C8EEEC6
:101B63000312085C9CEE0312085C16EF0312085C78
:101B7300EEEF0312085C79F10312085CBDF4031263
:101B8300085C0BF50312085CA8F50312085C53F616
:101B93000312085C6BF60312085CE7F60312085C99
:101BA300FDF60312085C10F70312085C1EF703121C
:101BB300085C02D10312085C57D10312085C53D3AB
:101BC3000312085C85D30312085CA7D30312085CD5
:101BD300C0D30312085CD9D30312085CE3D4031205
:101BE300085C7ED50312085CA3FE0312085CC8FEE2
:101BF3000312085CD8FE0312085C0BFF0312085C97
:101C03003CFF0312085C71FF0312085CD3FF03124D
:101C1300085CE2FF0312085CECFF0312085C62F746
:101C23000312085C88F70312085CC5F70312085C0B
:101C3300D4F70312085CF3F70312085C5BF8031292
:101C4300085C64F80312085CC3F80312085CE7F845
:101C53000312085CA6F90312085CB3F90312085CCB
:101C6300C4F90312085C39910412085C56910412FA
:101C7300085C8FE30312085CEDE40312085CFAE4EA
:101C83000312085C0DE50312085C2CE50312085CE3
:101C930042E50312085C56E50312085CD9E503121A
:101CA300085C3CE60312085CC3E60312085C21E708
:101CB3000312085C31E70312085CAF8E0412085C60
:101CC300D38E0412085CFB8E0412085C238F04126B
:101CD300085C83FD0112085CAAFD0112085CCBFDC0
:101CE3000112085C30FE0112085CF2F90312085C71
:101CF3000BFA0312085C17FA0312085C2BFA03129F
:101D0300085C49FA0312085C53FA0312085C5DFA93
:101D13000312085C70FA0312085CC1FA0312085C30
:101D2300FAFA0312085C29FB0312085C77FB03121F
:101D3300085CC6FB0312085CE1FB0312085CEBFBC7
:101D43000312085CFCFB0312085C42FC0312085CF0
:101D5300BE8F0412085C32BA0312085C5EBA031227
:101D6300085C7ABA0312085C8DBA0312085CA3BA42
:101D73000312085C0FBB0312085C42BB0312085C2E
:101D830071BF0312085C97C00312085CCAC0031238
:101D9300085C16C10312085C4FC20312085C77C2C9
:101DA3000312085C8CC20312085C9CC20312085C19
:101DB300E0C20312085C35C30312085C45C3031277
:101DC300085CB3880412085CCE880412085CF788A8
:101DD3000412085C11890412085C36890412085C39
:101DE30055890412085C6D890412085C9B890412EE
:101DF300085CB5890412085CF5900412085C0EEBCC
:101E03000312085C15EB0312085C21EC0312085C57
:101E130051EC0312085C77EC0312085C9AEC031292
:101E2300085CBCEC0312085CF6EC0312085C5CED86
:101E33000312085C95ED0312085CE1ED0312085CE4
:101E43000EEE0312085C2EEE0312085CF98A0412EC
:101E5300085C118B0412085CFF8B0412085C028C73
:101E63000412085CE6890412085C588A0412085CB0
:101E7300968A0412085CD78A0412085C40E70312AE
:101E8300085C5FE70312085CAEE70312085CCAE76D
:101E93000312085CFBE70312085C0BE80312085CFF
:101EA30018E80312085C25E80312085C11E9031221
:101EB300085C4FE90312085C59E90312085C69EAFC
:101EC3000312085C74EA0312085C86EA0312085CD6
:101ED3008FEA0312085C99EA0312085CBDD503126A
:101EE300085CDDD90312085CEBD90312085C759119
:101EF3000412085CC2910412085CF1D50212085C5A
:101F030037D40212085CE7D10212085C6ED10212C8
:101F1300085C15D10212085CA5D00212085C7CD0C3
:101F23000212085C5CCE0212085C28CE0212085C26
:101F3300F5CD0212085CD9CD0212085CE8CC02127E
:101F4300085CA0CC0212085CEBCA0212085C6BCAE4
:101F53000212085C68CA0212085C68C90212085CB3
:101F630036C90212085C73C80212085C9EC60212CC
:101F7300085C54C60212085C26C60212085C10E113
:101F83000212085CBBDE0212085C5BDE0212085C14
:101F930013DE0212085C85DD0212085C23C60212FE
:101FA300085C10C60212085CBBC50212085CAAC515
:101FB3000212085C78DD0212085CA0C40212085CFD
:101FC30036C40212085CE4C30212085C85C3021221
:101FD300085C72DA0212085CD4B30312085C54C3BF
:101FE3000212085C1CC00212085CDCBF0212085C0F
:101FF300D0BF0212085C30BF0212085C70BE02122E
:10200300085CF2BB0212085C83B90212085C41B996
:102013000212085C15B80212085CCAB70212085C07
:1020230009B70212085CDCB60212085C1FB6021282
:10203300085CEFB50212085CD4D70212085CB5B590
:102043000212085C4B870400000080FBE47300016C
:102053003636010100010201000103010001040100
:10206300060605020000070100340801000F0904F9
:1020730001010D0100FF0E08000017020000190105
:1020830000FF1A0100011B0100FE1C0100081D02D4
:1020930000001F01000120010001210200002301B3
:1020A300000F240200002601000127010008280276
:1020B30000FF2A0100072B0102402C0100002D0123
:1020C30000012E0100012F0100FF30010B1C31081C
:1020D30000003A0100083B01000F2F01000003003C
:1020E30071003001600011007000310220035004C0
:1020F3008000100061000000140063007300720090
:10210300620043000000130006000000000004000A
:10211300120000000000000000000400040037006B
:1021230037003C024400000000000000000065008E
:10213300000035008100000005000000830000005E
:1021430001017101010101011101010131010101CC
:1021530001018001100161013B001400630173015F
:102163007201620143010001130106013D013500C3
:102173000401120100010001000100010401040136
:10218300330133013C0144013201360000010001F7
:102193006501000135008101000105018201830110
:1021A30000010304710402046004110470040204B6
:1021B300020401040204100461040004140463040F
:1021C3007304720462044304000413040604000449
:1021D3000004040412040004000400040004510475
:1021E3006400000400040004440400040004000428
:1021F300000465040004350481046400050400043C
:1022030083040004010371030103010301030103B8
:10221300010322030203010310030003000300036D
:102223000003000300030003420300032403060327
:1022330000030003040312032503230325032303DD
:102243000403040300030003000344030003000327
:102253002303000365032100350381030003050302
:102263000003000300030302710230016002110244
:1022730070020102020202028002100261023A00AD
:1022830041006302730272026202430200021302FC
:1022930038000002000204021202000200020002DF
:1022A300000204020402370037003C024402000229
:1022B30039000002000265020002350281020002B9
:1022C30005028202830200023600010006000000BC
:1022D3000F0000000000000000000000000003FFEA
:1022E300FF00000403FFFF0000FFFF0FF4010005E0
:1022F300C4040320000100030B00000000000000E1
:102303000003010F00007A1A1300F01901007A1A72
:102313000200A8190300AE190400B4190500BA1984
:102323000600C6191100E4191400EA191500D8199A
:10233300FFFF000001320E06620E085C0E0B6E0EEC
:1023430010AE0D02380E05500E073E0E0C140E0D86
:10235300260EFF000003EAF5E5D5D5C5B5A595958D
:10236300858575756565555545453535252515159A
:10237300053A126A1240124612641258125212702F
:102383001276127C1288124C1234122E128400041C
:1023930000150E830002002C0E010402002E0E0015
:1023A300000000000000160F00000B150B020002D6
:1023B300220F320000062A133C134213041248135F
:1023C300FE110A123E11381174117A116E11261181
:1023D3008A13A813AE1390139C1396130C0E020BBF
:1023E300040B0A0708000F303016181920231A1C93
:1023F3001E30000119161816161523030000034991
:1024030048424D1817250502303017181921301B83
:102413001D1F3000383C3E363B3B352B432C7E138F
:102423004E13541360135A135E128212A2138E12A8
:1024330094120204020101010109024A11501144DC
:102443001180115611681100BE040A150004007FA3
:1024530000E8030C00280000000000090308100C2A
:102463000A03080900040001FF1E1E0C05040F08DF
:10247300C082C0838A828B83E0D2E7F01218FA020B
:102483003640C082C083790012293F125668C08249
:10249300C0839003341248B3D083D082C3E09CA39B
:1024A300E09D500C125E99FAA3E01224B660010974
:1024B300023640FBEA75F00BA4FAA8F075F00BEBBB
:1024C300A428FB900336E02AF8A3E03B8882F58337
:1024D300E0540F2274F712041B890812293F1229B2
:1024E300E5ACF075F00BE9A42CF9900336E028FE77
:1024F300A3E039FF74016508600674026508702063
:102503008A828B831229D112386B74026508701B7F
:10251300122890122A1870138E828F83E4F0800B96
:10252300EA2403FCEB1229B31229BFEEFAEFFB12E4
:102533000B320237C774F412041B1267C779008E7B
:10254300828F83E06076890A890B8065E50A75F0DE
:102553000BA4FAA8F075F00BE50B1224C37046E543
:102563000A75F00BA4F8AAF075F00BE50B1229F726
:102573008E828F83E0850882850983122AD9850894
:1025830082850983A312386BEE2403FCEF1229BC66
:102593001232FA125253AA08AB09120B3279019084
:1025A3000334124C62E50A2401F50AE50B3400F505
:1025B3000B122898E50A9AE50B9B4090024E907403
:1025C300F512041BEAFEEBFF740B120B0D123656C9
:1025D300750A01EC4D602BEC1267E3ED125668129D
:1025E30038627901120B3EE5084509606F85088260
:1025F300850983A31267D17902AA08AB09120B3E9E
:10260300805AE5084509602B1257D0123EA11232B9
:10261300FB122A02700CEEFAEFFB120B44E9F50AE7
:1026230080CBEE2403FA12293A70317903EEFAEFE4
:10263300FB80CA8E828F83A3E064FE7003A3E0F461
:10264300700BEE24030A0A0A12293A700CEEFAEF11
:10265300FB120B44E9F50A8003750A00A90A7F03FC
:1026630002063574F712041B9003341237D7EA4B72
:10267300602FEA75F00BA4FAA8F075F00BEBA42811
:10268300FBEAFEEBFF12174A9003361237D790038B
:1026930036124AA76012EEFCEFFD790012168A800B
:1026A30007900336E4F0A3F00237C79003341242D5
:1026B30011C3EE98EF9922C082C083EC4D600512DE
:1026C3001E7680097C087D00790012168A02364046
:1026D30074F612041B7900EA4B601878008808121C
:1026E3005B08EB125E9560047901780808E8C394EF
:1026F3000840EA0230BB74F712041B74F312093B5F
:10270300ECFEEDFF851882851983E4F004120B0DAE
:10271300EAF0A3EB124FDC7403120B0DAC82AD8312
:10272300EEFAEFFB120B56EEFAEFFB120B5C0237DD
:10273300C274F712041B74F312093BECFEEDFF8520
:102743001882851983E4F0EAFCEBFD7403120B0D88
:10275300122AD27401120B0D12385E8E828F8312ED
:10276300386B74FE68700374FF696004790180023A
:1027730079000237C274F712041BEAFEEBFF12273B
:10278300D670141227E18E828F83E0F4F88A828B4D
:1027930083E058F0120B32A9080237C774F712040A
:1027A3001BEAFEEBFF7508008E828F83E060221226
:1027B30027D6701D1227E18A828B83E08F838E8256
:1027C300F8E058700CE0F88A828B83E048F0120B33
:1027D3003280C4120B38E9F50874016508221267C8
:1027E300DC1229E912292BFAA3E039FB2274F41233
:1027F300041B8A088B097C007D001228901229BFD4
:102803001229501267CE7900850882850983A3E0D7
:1028130064FE7003A3E0F460717E007F008062EECB
:10282300FAEF1224B66057EEFAEFFBEA75F00BA449
:10283300FAA8F075F00BEBA428FB900336E02AF519
:102843000AA3E03BF50B850882850983A3124F2A6F
:10285300850A82850B83A3E06A7003A3E06B701E75
:10286300E50A2403FAE50B12293B700AE50A24035F
:10287300FCE50B1229BC12294479011257D71232F5
:102883001D122898EE9AEF9B4095024E90EA24037E
:102893000A0A0AEB229003341253B9C32274F312C7
:1028A300041B8A088B098A828B83A31267D112299E
:1028B3003F1267CE750C0012289012293B70547E8C
:1028C300007F00804912291DFAA3E0398A82F5832B
:1028D300E0540F603612291DF50AA3E039F50BE524
:1028E3000A2403FCE50B1229C63400FB121E70E90F
:1028F30064017017850A82850B83A312547AA3128D
:10290300386B122944750C011257D712321D122647
:10291300AE40B2A90C7F05020635EEF8EFF9E87573
:10292300F00BA4F812292B22AAF075F00BE9A42AC4
:10293300F9900336E02822EF122A12221267E2EB03
:1029430022122950123304EEF0A3EFF022E508120D
:1029530067E3E5092274F512041BEAFEEBFF8E829E
:102963008F83A31267D17C007D00EE24030A0A0A39
:10297300EF1229BFEEFAEFFB120B38E9F50A7401E7
:10298300650A70291267DC1229E5AAF075F00BE9D4
:102993001229F7850882F5831229D1122A02700DB4
:1029A300E5082403FCE5091229B31229BF02265FB7
:1029B3003400FDEE2403FAEF221229C63400FB1281
:1029C3000B56223400FDE5082403FAE50922A3127D
:1029D30029D6221229DA22E0F8A3E0F98E828F8326
:1029E300A3221229E9223400F583124215E875F077
:1029F3000BA4F822122931F508A3E039F50922E8DE
:102A0300F0A3E9F0E5082403FAE509122A122212D9
:102A13002A186401223400FB120B5CE92274F312BE
:102A2300041B74E612093B1267C7750C0175080095
:102A3300750900750A00750B00851882851983E4F2
:102A4300F0EE2403FCEF3400FD7403120B0D122A85
:102A5300D2E964017023740B120B0D1238627401F6
:102A6300120B0D124F2E7003A3E06960518518827B
:102A7300851983858208858309740D120B0DE41271
:102A83002AD9740E120B0D12386B740D120B0DAA8A
:102A930082AB83120B7AE96401700B740D120B0D78
:102AA30085820A85830B780A120894AC08AD09EE77
:102AB300FAEFFB120B4A74021208C1E9F50CEEFAA5
:102AC300EFFB120B74A90C741A1208C10229181215
:102AD3002DC3120B80221237D212421122C082C0A0
:102AE30083780079008003122BD0122898E89AE9A2
:102AF3009B5029E8FAE9FBEA75F00BA4FAACF075F0
:102B0300F00BEBA42CFB900336E02AFCA3E03B8CF8
:102B130082F583E0540F70CF790080027901023689
:102B230040C082C08390244E124267EC75F012A419
:102B3300FCA8F075F012EDA428FD79FF7A6A7B08F2
:102B430012168A02364074F712041BE9FEEAFF7A72
:102B5300007B00780079008028E8FCE9FDEC75F043
:102B630012A4FC85F00875F012EDA42508123003B9
:102B7300C39E400AE0FCEFC39C40031230F2122BC9
:102B8300D0122FF740D30237C7C082C083780079B1
:102B9300008003122BD0122BC4501F123007F47085
:102BA300F2E875F012A4F8AAF075F012E9A42AF974
:102BB300746A28FA740839FB80047A007B000236B1
:102BC3004090244E1230C0C3E89AE99B22E82401C6
:102BD30008E93400F92274F012041B74F312093B60
:102BE3008A0A8B0B8C0C8D0D8908EC450D6016AA97
:102BF3000CAB0D120BCE8A0E8B0FAE0EAF0FEE4F3A
:102C03006003022C97120BA48A0E8B0FA80EA90F38
:102C1300E8FEE9FFE849607C90245C122D176022EE
:102C23007403650860067404650870167A047903F2
:102C3300120B9E90245C122D2E40077A007B00021B
:102C43002D1490245A122D17601B74016508600619
:102C530074026508700F7A027901120B9E90245A50
:102C6300122D2E50D68518828519837401F0120B0C
:102C73000D125253AC0CAD0D7403120B0D122DBC7F
:102C8300740B120B0D12364D123C1EE412523B1202
:102C9300107E8004EE4F6068780074FF2508C394AB
:102CA30004500278048E828F831252538E828F8354
:102CB300A3A3A3A3E508F0E88E828F83A3A3A3A312
:102CC300A312525B1202CAE88E828F83A3A3A3A32B
:102CD300A3A3A3A3123A027401123A02A3F0EE24AF
:102CE30010125665E4F0A31234B0A3F01232FAE4E2
:102CF300F0908070120AEAEE240C125665120AF65E
:102D0300122D1C4005900DC6E4F0120F58EEFAEF99
:102D1300FB02421B12536F49227A047900120B9E65
:102D230090244E125E7BEA98EB9922122D4775830D
:102D33002475824EE493C398F8A3E49399F9C3EA04
:102D430098EB9922E493F8740193F92274F2120434
:102D53001B74F312093B8A088B09ECFEEDFF750A1D
:102D630000EEFAEFFB120BCE8A0C8B0DA80CA90D0B
:102D7300E849603E88828983E065087004A3E065C2
:102D830009602F88828983A3A3A3A3E0C39405507A
:102D93002112567E8518828519837401F0120B0D5A
:102DA300125682EEFCEFFD7403120B0D122DBC754F
:102DB3000A01A90A740D024D19122DC3120B8C229C
:102DC300AA82AB83120B56851882851983AA82AB1C
:102DD300832274F612041B122E11600FA3A3A3A364
:102DE300E014C3940450047901800279000230BBDB
:102DF30074F612041B122E11600FA3A3A3A3E014F5
:102E0300C3940250047901800279000230BB120B93
:102E1300C88A828B83E58245832274F612041B12CF
:102E23002E11600BA3A3A3A3E070047901800279A0
:102E3300000230BBC082C083EAFCEBFD7A007B005A
:102E430002363DC082C0837C007D0002363D74F4AF
:102E530012041B74F312093BEAFEEBFF8C0A8D0B81
:102E6300C3EC94F8ED94FF4007EE4F7003022F0A72
:102E7300750800750900802E8518828519837401F1
:102E8300F0123245120B0D12325360137403120BFE
:102E93000DAC82AD83EEFAEFFB121E70E97049E5CB
:102EA3000824011230A390244EE4126103E508982C
:102EB300E509995052E50875F012A4F8AAF075F0E7
:102EC30012E509A42AF9125EAE60D4EE4F70A9741C
:102ED300FF650A700474FF650B60C4123235650A1E
:102EE3007004A3E0650B70B7E50875F012A4F5084C
:102EF300A8F075F012E509A428F509746A2508FA03
:102F030074083509FB80047A007B00024E8B74F44D
:102F130012041B74F312093B750800120BCE8A0AC4
:102F23008B0BAE0AAF0BEE4F602A8518828519838F
:102F330074011237CCF8A3E0F9740B120B0D12389D
:102F4300E6120B6E7C127D0079FFEEFAEFFB121690
:102F53008A750801122D1C5009900DC67401F012D8
:102F63000F58A908024E8B74F712041BE9FE74FE76
:102F73006A700374FF6B7800790070058052122B1E
:102F8300D0122FF7504AE8FCE9FDEC75F012A4FCCF
:102F9300AFF075F012EDA42F123003F460E0E8FCFB
:102FA300E9FDEC75F012A4FC75F012EDA42FFD748D
:102FB3006A2CF58274083DF583E06A7003A3E06B25
:102FC30070BC800912300714C394044017122BD02D
:102FD300122BC45018EE70EC12300764016005E048
:102FE300640370E9123226FAA3E0FB80047AFE7BC5
:102FF300FF0237C790244E12426BC3E89CE99D221F
:1030030012312722E8FAE9FBEA75F012A4FAACF0D0
:1030130075F012EBA42CFB746E2AF58274083BF551
:1030230083E022120BE0023640C082C08379018024
:10303300F274F012041B8A0A8B0B7A047901120BC7
:103043009E8A0C8B0DEA450D603EEAC333FAEB33DF
:10305300FB12174A8A088B09AE08AF09EE4F6023AB
:103063007AFE7BFF120BE674FE6A700374FF6B60DB
:103073001B8508828509831237D7E508240212309D
:10308300A380E1750C0080047E007F00850A8285A1
:103093000B83E50CF0EEFAEFFB024220E508240770
:1030A300F508E5093400F5092290244E12426BC35A
:1030B300EA9CEB9D221208C17F02020635E493FAD3
:1030C300740193FB22C082C0837A007B00800419C1
:1030D3001230F21230AC5010123111C3940550F07B
:1030E300E970EC1230FB80047A007B00023640EA80
:1030F30024010AEB3400FB22EA75F012A4FA75F0FE
:1031030012EBA428FB746A2AFA74083BFB22EAFC3C
:10311300EBFDEC75F012A4FCA8F075F012EDA428F9
:1031230012312722FD746E2CF58274083DF583E07D
:103133002274F712041B74F312093B7E007F000212
:1031430031D9E50875F017A4F8A9F0126116FAA3AE
:10315300E0FBEEF8EFF9E875F012A4F8ACF075F0C7
:1031630012E9A42C1232346A7003A3E06B603FE5CA
:103173000875F017A4F8AAF0EA126115F8A3E0F9AC
:103183007401120B0DE0687003A3E0696020E50889
:1031930075F017A4F8EAF974E628FC740939FD748C
:1031A30003120B0DAA82AB83121E70E96014E508AB
:1031B30075F017A4F8A9F074E428FA740939FB121E
:1031C300108A0508902461E493F8E508C398500336
:1031D30002314512321D90244E12645C5039EEF8D0
:1031E300EFF9123226F47003A3E0F460E685188247
:1031F3008519837401F0EEF8EFF9E875F012A4F87D
:1032030075F012E9A42AF9123245120B0D1232534A
:1032130060C175080080AD0237C2EE24010EEF34A1
:1032230000FF22E875F012A4F8AAF075F012E9A4E1
:103233002AF912323922746A28F582740839F5831F
:10324300E022746C28F58274083912420F740B2241
:10325300E8F0A3E91238EE120B86E922C082C0839C
:1032630090033D744AF0A3740EF090033F7444F04E
:10327300A3740EF09003437464F0A3740CF002364D
:103283004074F712041BEAFEEBFF900377E0640837
:10329300601BE0640460168E828F83E05403640134
:1032A30070481232FA123D16E06406703D8E828F2A
:1032B30083A3A3E064FE7003A3E0F4602D8E828FEA
:1032C30083A3A312385E900368E0687003A3E069E8
:1032D300700BEE2415F582EF125E956008120EF85E
:1032E300E9F5088008120EFE80F67508C2EEFAEFC3
:1032F300FB12175002279AEE1232FF22240BF5829B
:10330300EF3400F5832274F412041B8A088B098AB4
:10331300828B83E0F8A3E0FAE82AFAE43400FB1294
:10332300174A8A0A8B0BAE0AAF0BEE4F6060850813
:1033330082850983E0FC7D00790012168A8E828FD4
:1033430083A3A31267D1120F3A8E828F83A3A3A301
:10335300A31237D7850882850983E0F8EE28F8EFB2
:103363003400123866850882850983A3E0C0E01221
:103373005662D0E0F0120F4CEE240E125665E9129D
:103383004E81E0C0E0EE2411125665D0E0F0EEFA73
:10339300EFFB024E9074F412041B74EB12093B8A88
:1033A300088B098C0A8D0BE9FE900377E0640460B7
:1033B30005E06408700479C2802EA37808120ACE4F
:1033C300EE90037E123647120ACE7405120B0DE9F6
:1033D300F07404120B0D7401F07407120B0DE4F07A
:1033E30090037774021235DB7415024E8D74F61256
:1033F300041B74EB12093BEAFEEBFF124AA46003C1
:103403000234947A077B0012174A9003391237D794
:10341300124AA460788E828F83120AEA90033A12CA
:103423003D19120AF6126695C0E01234A0D0E0F0FE
:10343300EE2405FAEF3400FB8A088B098A82F583B0
:10344300E0C0E012349BD0E01234B0E0C0E01234AC
:103453009BA3D0E012384B120AEA851882851983A0
:10346300120AF688828983E0C0E07405120B0DD03E
:10347300E0F0850882850983E0C0E07404120B0D37
:10348300D0E0F07407120B0D1235DA800679108044
:1034930002790174150230B81234A0A322900339C3
:1034A300E0FAA3E0F5838A82A3A3A3A322123C2616
:1034B30022C082C083124AA4600D9003391253A71D
:1034C300900339E4F0A3F0120E6812102A0236407A
:1034D30074F012041B74EB12093BECFEEDFF890838
:1034E3007425120B0D780C120AB07429120B0DE01F
:1034F300F9742A120B0DE0FC742B120B0DE0FD7412
:103503000F697005740F6C6012900E21E0640270F5
:103513000579C10235D5E9C39C40F6900378780C50
:10352300120ACEE50890037EF0E990037CF0ECA349
:10353300F0ED90037FF074FF6A700374FF6B701DEE
:10354300900E2CE0F47003A3E0F4700512169C8037
:103553000C900E2C12379FE8F0A3E98007900375B7
:10356300EAF0A3EBF0EE4F6017EEFAEFFB1210EA6E
:10357300E96401700BEEFCEFFD7A897B03121E7682
:10358300900368E4F0A3F090036BF0A3F09003883A
:10359300F0900E21E06402700890037C740FF0A396
:1035A300F09003777405F014120B0DE4F090037898
:1035B300120AEA851882851983120AF690037EE0BF
:1035C300C0E07405120B0DD0E0F07407120B0D125E
:1035D30035DA741502421DE41238EE121EA622C01B
:1035E30082C083900338E070031219DE120C2E8020
:1035F3004CC082C083900338E0900DC57004E4F0A2
:10360300802D7401F0900338E0F460237C41E0C323
:1036130094415002E0FCECF8E0C398F0EC75F0E85C
:10362300A4CCA8F075F003A428FD7A801242737A23
:10363300C57B0D7941121E8E8003120BD4D083D02B
:10364300820208591238567808221236512212295A
:10365300DAA322E0F508A3E0F5092274F512041BAE
:1036630074E212093B851882851983ECF0A3EDF00F
:10367300EAFEEBFF89087429120B0DE0F509742C9F
:10368300120B0DE0F50A900377E064046005E06433
:1036930008700579C2023790742A120B0DE064FE9C
:1036A3007003A3E0F4700579C30237909003777435
:1036B300031238EA7950121E8E742A120B0DAA8255
:1036C300AB83794B121E8E85188285198312379F1F
:1036D30012386BE50890036AF0742A120B0D123747
:1036E3009812386BE5099003621237A674CE550918
:1036F3004480C0E07412120B0DD0E0F07401250A6F
:10370300900388F0740F120B0D7402F0742A120BDD
:103713000D12385E7407120B0DE8F0A3E91237DDC2
:103723007410120B0D12386B7405120B0DE508F0B3
:10373300741B120B0DE4F090037D740FF07A7D7B04
:10374300037954121E8E90037C740FF07A7C7B03F2
:103753007947121E8E90037CE0C3940F50237405A7
:10376300120B0DE0C0E07402120B0DD0E0F07404F4
:10377300120B0D7401F004120B0DAA82AB83121EFF
:10378300B27405120B0DAA82AB83121E94741E121F
:1037930008C102266112421190036B22124211905A
:1037A300037522F0EEFCEFFD7A897B03121E76226D
:1037B30074F712041BEB90037FF0120E568005740E
:1037C3000D1208C17F010206351237D2A3E022127F
:1037D300384BA322EAF0A3EBF022123851F8A3E00E
:1037E300F92274F712041B74F812093BEAFEEBFF8B
:1037F3007900900377E06408704485188285198303
:1038030074FDF0A374FFF0120F347402120B0D1247
:1038130037D77405120B0DE41237D2E0C0E07404FD
:10382300120B0DD0E0123846C0E07406120B0DD017
:10383300E0F07407120B0DE41238EA120F767408E5
:103843000237C412384BE022F08E828F8322123863
:1038530056E022F08518828519832212421122E054
:10386300F8A3E0F9EE1232FFE8F0A3E9F022C082F8
:10387300C08390034974F4F0A3740CF09003EF74C5
:10388300D0F0A3740FF090034D742AF0A3740DF0DD
:1038930090034F74F4F0A3740CF09003517430F060
:1038A300A3740DF002364074F412041B74F9120968
:1038B3003B8A088B098C0A8D0B85188285198378BE
:1038C30008120ACE7404120B0DE9F07405120B0DE5
:1038D300E4F07406120B0DE41238EA120C167407A6
:1038E300024E8DE8F0A3E91238EE22123856AA826E
:1038F300AB832274F412041B8A088B098A828B839C
:103903001257DAEE4F70030239FF900312124AA7DF
:1039130060158A828B83A3A3E0F9EEFAEFFB900391
:1039230013123D1912204F8E828F83A3A3A3A3A347
:10393300A3A3A3A3E0640270718E828F83A3A3A3C6
:10394300A3A3A3E0540270030239D1850882850939
:1039530083A3A3E064E960768E828F83A3A3A3A3EA
:10396300A3A3A3A3A3A3E07014900E24E0048E8268
:103973008F83A3A3A3A3A3A3A3A3A3A3F08E828F45
:1039830083A3A3A3A3A3A3A3A3A3A3E014123A0211
:103993007404F0900E2512522DE8F0A3E91262F997
:1039A3008B0BEA450B7003125CCC8E828F83A3A32F
:1039B300A3A3A3A3A3A3A3E0640260128E828F83B5
:1039C300A3A3A3A3A3A3A3A3A3E06406702E8E8241
:1039D3008F83A3A3A3A3A3A3E0A2E0501F85088220
:1039E300850983A3A3E0F9EEFAEFFB121F308E8261
:1039F3008F83A3A3A3A3A3A3E054FEF0024E9012CC
:103A03003C26A3A3A32274EC12041B74DD12093B0E
:103A1300EAFEEBFF8C088D097437120B0D780C123C
:103A23000AB0750A007405120B0DAC82AD83121F28
:103A3300847412120B0DE070087415120B0DE06004
:103A4300207405120B0DE0A2E6501E8E828F83A315
:103A5300A3A3A3A3A3A3A3A3124F2A120FACE960AA
:103A6300087903121E5E023C0C7405120B0DE05420
:103A73000C64047005750B018003750B00E0A2E56F
:103A83005019750A01E50BA2E040101267D8124FD6
:103A930026121F3CE96004790480C87405120B0DDB
:103AA300E0A2E650227406120B0DE0540370187462
:103AB30005120B0DE0540C640C600CE0540C64080C
:103AC300600575100180037510007405120B0DE07D
:103AD3005403F8740268700C1267D8124F26120B45
:103AE30020023C0C740168703AE510A2E050031206
:103AF3003C147405120B0DA882A9837403120B0DD9
:103B0300E8F0A3E9124205851882851983123C1E49
:103B1300E0C0E07402120B0DD0E01238EA1220204C
:103B2300023C0CE86003023C0C90035FE06401700C
:103B3300108E828F83A3A3A3A3A3A3E07003023AEF
:103B43009A7422120B0D7402124205741A120B0D91
:103B530012386BE510A2E050087405120B0D123CED
:103B630014E50BA2E0506AEE240FF582EF125E9586
:103B7300C0E07417120B0DD0E0F0900314124AA7A3
:103B83007003023C0C120F3A8A128B13A812A9136A
:103B9300741A120B0DE0687003A3E069706B780C64
:103BA30012088C780A1208987808120894A91074DD
:103BB3000C120B0DAC82AD837421120B0DAA82ABD8
:103BC30083900314123D1612204F74071208C1800C
:103BD30038780C12088C780A12089878081208941E
:103BE300900375120704EE2412F582EF125BBF7483
:103BF30023120B0DAC82AD83740E120B0DAA82AB94
:103C030083121F2474091208C174231208C10262AB
:103C1300C41267D81253B5121F7E22E8F0A3E9122B
:103C23003C2622125D02A3A3A32274F712041B12E3
:103C330018B20237C774F712041B1218B80237C739
:103C430074F712041B1218C40237C7C082C0831250
:103C530018BE02364074F712041B1218CA0237C783
:103C630074F712041B7409120B0DE0F5087808129F
:103C730008981218D674010237C4C082C083121880
:103C8300E2023640C082C0831218E802364074F75D
:103C930012041B1218EE0237C774F712041BEAFE54
:103CA300EBFF89087401650870147900120D6C909C
:103CB300246CE493FC7900EEFAEFFB120CE202377A
:103CC300C774F412041B74F912093BE9FE8A088BCA
:103CD300098C0A8D0B7413120B0D124F2A9005F6E3
:103CE300124AA76027EE851882851983F0740112A2
:103CF3000B0D7808120ACEEAF8EBF97405120B0DD6
:103D03001238E69005F6123D1612204F0238E1FBF9
:103D130090034BE0F8A3E0F583888222C082C0833E
:103D230012192402364074F712041B900DC8E0F9EF
:103D33007E00800B125E81540D64017001190E1216
:103D43003F235003E970ED0237C774F712041B9049
:103D53000DC9E0F97E00800B125E81548D64817081
:103D630001190E123F235003E970ED0237C774F2B5
:103D730012041B890BE975F006A4240CF508E5F081
:103D83001230A78A0CE508250CFAE5093400FB126A
:103D9300174A8A0C8B0DAE0CAF0DEE4F6027AC08A3
:103DA300AD09790012168A1232FAE50BF0EE2508F6
:103DB300F8EF3509F98E828F83A3A3A3A3A3A3A34B
:103DC300A3A312386BEEFAEFFB024D1C74F6120438
:103DD3001BEAFEEBFF120CBE900DC7E0F8E9C39897
:103DE3004009900345124F2A120CC4EE2402F8EF47
:103DF30012552A9003471253E4900347E004F0EE70
:103E0300FAEFFB120CCA850882850983E00259D5B3
:103E1300C082C0837900900345800109124F2A8A2A
:103E2300828B83E582458370F202364074F7120475
:103E33001BEAFEEBFFEE4F6056900345124AA76064
:103E43004E888289837A007B00EE65827003EF657A
:103E530083600FAA82AB83123E95E5824583602F70
:103E630080E7900345123EA1687002EF698E828F4E
:103E730083700812385E90034580031262D61238AD
:103E83006BEEFAEFFB121FF0EEFAEFFB1217500284
:103E930037C7123E99221242158882898322124221
:103EA30011EE22C082C083900345800488828983F7
:103EB300124AA7600B888289831248B3EC4D70ECD9
:103EC3008A828B83E4F0A3F0E849600688828983C1
:103ED30080039003451237D702364074F712041B50
:103EE30090034580048A828B83123F1E4B60257E9C
:103EF3000080010E123F2350ECEE75F006A4FCADDA
:103F0300F0EA2CFCEB3DFDEC2410F582ED123F733F
:103F130070E180047A007B000237C71253B9EA22AA
:103F2300123F7CEEC3982274F712041B7D008001BC
:103F33000D123F78EDC3985034ED75F006A4FEA83A
:103F4300F0E8FFEA2EFEEB3FFFEE2410F582EF12BE
:103F53003F7370DCED75F006A4FEE8FFEA2EFAEB82
:103F63003FFBEA2411F582EB125E954CF00237C752
:103F7300125EA16922123F7C221267E2EB3400F544
:103F830083E0F82274F612041B120DE47A007B001E
:103F93008025EAF8EBF9E875F006A4F8ACF075F0C3
:103FA30006E9A42C12538E1266A3A3E4125484F0E0
:103FB300A31266A9126820902456122D2640D37AA4
:103FC300007B00801C8A088B09740378081209F0AF
:103FD300124E48A374FEF0A30412526DA3E41268B8
:103FE3002090246012402640DC7A007B00801D8AEA
:103FF300088B09740378081209F0740C125B0974B6
:104003000D12635B74FEF0A3041268209024661201
:10401300402640DB90246AE493900353F01240302F
:104023000230BBE493F8C3EA98EB9400227CE87D6A
:10403300037A107B009003C2E0F912180A2274F08D
:1040430012041B74F512093B8A088B09890A8C0B2D
:10405300E9A2E050147508FC7509FFA2E15005D2EE
:10406300E4024103D2E3024103124D087003A3E0CB
:1040730069700579000241D0AC0A7902AA08AB093C
:10408300120DC0E960EDE50AF50C780C1208987979
:10409300027CFE7DFFAA08AB09124A831208C1E91C
:1040A30060030241CEE50AC2E5F50A9003B5E0706C
:1040B30051E50AA2E6404B7403120B0DAC82AD83AB
:1040C300AA08AB09120B62E970321243A48A0C8B63
:1040D3000DA80CA90DE8FEE9FFE8496025EE2402CE
:1040E3000A0AEF122A18601AEE2402FCEF3400FDCC
:1040F3007403120B0DAA82AB83121E76E50AD2E576
:10410300F50A900348E0F50C900368E0F50EA3E090
:10411300F50F780E1208947D017C00900348E0F9B6
:10412300AA0EAB0F120D7874021208C1E9F89003BE
:1041330048E004F0E860030241CEE50AA2E550043A
:10414300740E80027406C0E07401120B0DD0E012ED
:1041530057EB8A0E8B0FAE0EAF0FEE4F6069124115
:10416300EE124205888289837401F07478550AA39C
:104173001267E8E50C1267E8A3E508F0E5091241C8
:10418300DDE4F0E50AA2E5500F7403120B0DAC82D7
:10419300AD83E824061241D48E828F83A3A374FDDA
:1041A300F0A374FFF0E50B601590246DE493F8E53C
:1041B3000BC3985009EE2413125665E50BF0EEFA83
:1041C300EFFB120C0480067910800279C7740B8010
:1041D30049FAE93400FB121E762288828983A3A35D
:1041E300A3A31241E92212555DA322EE2417123331
:1041F300017401F0120F34EE241A123301EAF0A312
:10420300EB22F01267DC340012420F22F5831242D4
:104213001522E0F8A3E0F922740D1208C17F080209
:10422300063574F612041B7A007B10125CD9600801
:104233009003D47401F08029900693E06401900EFA
:10424300227006E0FC79018004E0FC79037A007BAC
:1042530000120CE29024541242677A007B1012423F
:10426300750230BB12426B22E493FC740193FD226E
:104273007B009003C2E0F91218042274EC12041BB1
:104283008A088B098C0C8D0D890E7414120B0D1278
:104293004C627416120B0DE0F510A3E0F511120F2A
:1042A300ACE960077AFF7BFF0243A1900E21E06433
:1042B3000260030243947900AA08AB09120DC6A950
:1042C3000E120DBA8A128B13AE12AF13EE4F700398
:1042D30002437C8E828F83A3A3A3A3A3E064018EF6
:1042E300828F83A3A37069124F2A8E828F83A3A325
:1042F300A3A3A3A3E05418604390246BE4938E829A
:104303008F83A3A3A3A3F0EA650C7003EB650D6091
:1043130014EA650A7003EB650B600AEA6510700323
:10432300EB6511701F7810120894AC0AAD0BAA0C40
:10433300AB0D1210A874021208C180089003671213
:104343005CC3A3F074FE6A700374FF6B601D804E40
:10435300A3A3A3E0640360298E828F83A3A3A3A3F3
:10436300A3E0640470057AFE0242A98E828F83A3C0
:10437300A3A3A3A3E0640270089003B4E0640270F3
:10438300101243A48B0BEA450B6006AA08AB098005
:104393000DAA08AB09900349123D1612204F026281
:1043A300C4900375124A8912106C2274F712041B0D
:1043B300EAFEEBFF120BB6E9700AEEFAEFFB120B03
:1043C300C2E96006EEFAEFFB80047AFE7BFF023758
:1043D300C774F012041B8A0A8B0B8C0E8D0F89098C
:1043E300750800120FACE97900600302454BAA0A75
:1043F300AB0B120DC6A909120DBA8A0C8B0DAE0CAC
:10440300AF0DEE4F60198E828F83A3A3A3A3A3E006
:10441300640270559003B4E064027003024549AA34
:104423000AAB0B90034F123D1612204F120BC88A92
:104433000C8B0DA80CA90DE849700302454988822D
:104443008983A3A3A3A3A3E0A2E040030245497584
:104453000C01A2E150687901AC0AAD0BAA0EAB0FB7
:10446300120D12E970640245498E828F83A3A3A3C0
:10447300A3A3E064037005750C0280528E828F83C0
:10448300A3A3A3A3A3E064016003024549900375BA
:104493001248B38E828F8312489F8A0C8B0DA80C0F
:1044A300A90DE84960D1902464E493FA8882898352
:1044B300E0C39A50C2A3E0600302454980B98882F1
:1044C3008983A3A3A3A3A3D2E1F0EE4F603A8E8224
:1044D3008F83A3A3A3A3A3A3E05418602B750801A0
:1044E3008E828F83A3A3120704750CFE750DFF78CC
:1044F3000C1208947900AC0AAD0BAA0EAB0F120D87
:10450300D874041208C1803E900368E0650E7004FD
:10451300A3E0650F701490246CE493FCA909AA0A24
:10452300AB0B120CE2750801801CA90CAC0AAD0B95
:10453300AA0EAB0F120D12E9700C750801A909AA96
:104543000AAB0B120D6CA90802422074EA12041B79
:1045530074F012093B8A0C8B0D8C088D097426129A
:104563000B0DE0F514A3E0F5157512069003F51293
:104573004AA760239003751248B3AA08AB09121027
:10458300968A108B11EA4511600D8A828B83A3E012
:1045930070057900024887E50C241DF50EE50D34FE
:1045A30000F50F850E82124A93F51388828983A33F
:1045B300A3A3E0FA88828983A3A3A3A3E0F9EA244F
:1045C30000FEE439FFAA08AB09120D72850E82853D
:1045D3000F831248D1E029F50BE50AA2E5500375D4
:1045E300120E7487550A70177418550A6418600FF1
:1045F300E50C2417F582E50D125E956512600779C7
:1046030001121E5E808C530A78C3EE94F8EF94FF78
:10461300501D7900EEFAEFFB1248916012888289EF
:1046230083A3A3A3A3A3A3E054186003024595782F
:10463300081208947D001248C41208C1E9F87403F3
:10464300687003024595E860030247007418550A31
:1046530070030247B5E50AD2E0F50AA2E45004D29A
:10466300E1F50AA90A124F231248916053888289FF
:1046730083A3A3A3A3A3A3E05418604488828983DC
:10468300A3A3A3A3A3E064017036E5104511603032
:104693009003751248B38882898312489F8A0E8BD0
:1046A3000FA80EA90FE849601788828983A3E060E9
:1046B3000F851082851183A31259E050030245959B
:1046C300E50AF50E780E1208981248B71208C1E9E8
:1046D300702B7C007D0085148285158374FFF0A305
:1046E300F0850C82850D83A3A3A3A3A3A3A3A3E0B7
:1046F30060031248A8A90B124F231218DC851482F9
:10470300851583E0F47003A3E0F460399003B4E00B
:1047130064027003024595124C53E0FAA3E0123D84
:104723001212204FEA65087003EB65096003024526
:1047330095EEFAEF123D1212204F851482851583F0
:10474300EAF0A3EBF078081208947D011248C41232
:1047530008C1A90AEEFAEFFB120DC68A088B09A855
:1047630008A909900368E0687003A3E06960030285
:104773004878EEFAEFFB120BC88A088B09A808A940
:1047830009E849606E88828983A3A3A3A3E0640137
:10479300600D88828983A3A3A3A3E0640270548578
:1047A3001882851983AC82AD83EEFAEFFB120B629C
:1047B3008055900361E0600FE50AF50E780E12084C
:1047C300981248B71208C1E50AF50E780E12089838
:1047D30079027CFE7DFFEEFAEFFB124A831208C1D9
:1047E300E9600302470085148285158374FFF0A3F3
:1047F300024747120F34EAFCEBFD851882851983C3
:10480300AA82AB83121E76850C82850D83A3A3A394
:10481300A3A3A3A3A3E06401700F1248A874081212
:104823000B0DAA82AB83121E76124A5D12566C449C
:1048330030F50878081208987401120B0D85820868
:104843008583097808120894740B120B0D8582086E
:104853008583097808120894E513F5087808120887
:10486300987900EEFCEFFD124F23120D0C74061223
:1048730008C1024595124A5D1256681248D1E50BEC
:10488300F0120F4C74101208C17F0E020635120D80
:10489300BA8A0E8B0FA80EA90FE84922A3A31253BD
:1048A300B912109622E50C2415F582E50D12330496
:1048B300125247227901AC08AD091253AE124A8352
:1048C30022AC0BA9131253AE120D787402221256A6
:1048D30074A3A3A3A32274F012041B74F012093B64
:1048E3008A0C8B0DECFAEDFB750F089003F5124A59
:1048F300A760141259D98A828B83E58245836007A6
:10490300A3E07003024A58124A5D3400124A93F539
:104913000B88828983124A66E0FBEC2400FEE43BA9
:10492300FF88828983A3A3124A66A3A3E0FBECF565
:1049330008E43BF50988828983A3A3A3A3A3A3A3C4
:10494300E0F50EE50AA2E45003750F10A2E5500648
:104953007408250FF50F748F550A700FE50C241793
:10496300F582E50D125E95650F60087901121E5EF2
:10497300024A58530A707800E50AA2E45022124A08
:104983005D125E952408FCA3E03400FD7408120B4D
:104993000DAA82AB83121E767808E50AC2E4F50AF3
:1049A300E50AA2E55028124A5D125E9528F8A3E0B5
:1049B3003400F9E82408FCE93400FD8518828519E0
:1049C30083AA82AB83121E76E50AC2E5F50AAC0E12
:1049D300A90BEEFAEFFB120D7EE9F874036860751C
:1049E300900368E06E7003A3E06F605EE87054E5C7
:1049F3000AF50F780F120898124A741208C1E97069
:104A030054780A1208987401120B0D85820C858361
:104A13000D780C120894740B120B0D85820C858390
:104A23000D780C120894E50BF50A780A120898A978
:104A33000EAC08AD09EEFAEFFB120D0C740612086A
:104A4300C18012740468700D80B7780A1208981236
:104A53004A741208C1741002421DE50C241DF5822C
:104A6300E50D22A3A3A3E0FC88828983A3A3A3A3C8
:104A7300227901124C5A123304124A89124A8322B0
:104A8300120D36740122E0FCA3E0FDAA08AB092253
:104A9300F583123E99A3E0F50A88828983A3A3E0F4
:104AA300229003391254152274E812041B74F51270
:104AB300093BEAFEEBFF8C088D0989147423120B62
:104AC3000DE0F50F7424120B0DE0F512A3E0F513BE
:104AD3007426120B0DE0F516A3E0F5177428120BDC
:104AE3000DE0F50EA90F120D848A108B11740112BB
:104AF3000B0D7408F0E50EA2E450037410F0E50EFC
:104B0300A2E55004E02408F0851882851983AA825F
:104B1300AB83120F948A0C8B0DEA450D7003024C84
:104B23003AEA2417F582EB124C4C120F34E50C24AD
:104B33001AF582E50D1256681237D77403120B0D5E
:104B4300AC82AD83AA10AB11120B62E9601D124C4B
:104B5300447403120B0DA882A983E50C2418F58273
:104B6300E50D125668E8F0A3E98024E50EA2E450AF
:104B73001FE5106E7003E5116F7015124C44E50CC0
:104B83002418F582E50D125668E512F0A3E513F03B
:104B9300124C53124C62850A82F5837402F0A3E52A
:104BA3000E124C6AE50FF0EE850A82850B83A3A3F0
:104BB300A3F0EF850A82850B83A3A3A3A3124C6AF8
:104BC300A3A3A3E508F0E509850A82850B83A3A3C4
:104BD300A3A3A3A3F0AA10AB11120D72E9251485A8
:104BE3000A82850B83A3A3A3A3A3A3A3F075080041
:104BF300E50EA2E45011AC12AD13E50A2408FAE560
:104C03000B1241D6750808E50EA2E55014AC16AD9B
:104C130017E50A2508F8E50B3400F9E824081241E2
:104C2300D4850C82850D83A3A3E510F0A3E511F0D1
:104C3300AA0CAB0D120C04740B1208C17F100206F0
:104C430035E50C2416F582E50D1233047401F022C8
:104C5300124C5A12330422E50C1267E3E50D22E0ED
:104C6300F50AA3E0F50B22F0850A82850B83A3A343
:104C73002274F212041B8A088B09ECFEEDFF890AE9
:104C83007900124D087003A3E06970047901807301
:104C9300750B01900368E065087004A3E065096083
:104CA3001F750B00780B120898A90AEEFCEFFDAAFA
:104CB30008AB09120FE874011208C1E9F50B804132
:104CC3007900EEFAEFFB120DBAEA4B602B8A828B66
:104CD30083A3A3A3A3A3A3E05418601C7508FE75C4
:104CE30009FF78081208948A828B83A3A31207040E
:104CF3001265F81208C180097901EEFAEFFB120C74
:104D030094A90B8014120DC68A0C8B0DA80CA90D47
:104D1300900368E068221208C17F0602063574F426
:104D230012041B75085475090B7A101263008B0B60
:104D3300EA450B7003124030900353E014F0700CFB
:104D430090246AE493900353F0120DD27E007F0007
:104D5300806C850882850983A3A3A3A3E06059F42B
:104D63006056E5082404F582E509125CBD704985A7
:104D73000882850983A3A3A3A3A3E064037019791D
:104D8300028508828509831248B3850882850983D1
:104D9300A3A3124F2A120D12850882850983A3A3A8
:104DA300A3A3A3E06401601085088285098374FED0
:104DB300F0A304124E7AE4F012321D12309F9024B5
:104DC3005812645C408C7E007F008039120EDA8EAC
:104DD300088F09740378081209F074CC2508FC7451
:104DE3000C3509FD7A1E7B0D120EC8EA4B70DD8E61
:104DF300088F09740378081209F0124E481266A34B
:104E0300E4F012321D902460E493F8C3EE98EF941B
:104E130000501B8E088F09740378081209F0124E94
:104E230050E82407F582E9125CBD70D680A17E00AC
:104E33007F00800A124E5B600214F012321D12646E
:104E43005940F18048124E50888289832274CC25C0
:104E530008F8740C3509F922EEF8EFF9E875F00655
:104E6300A4F8AAF075F006E9A42AF9746C28F5826F
:104E7300740C39F583E022124E81A3A3A322F0859B
:104E83000882850983A3A322740D1208C17F04023B
:104E9300063574F712041B74E112093BECFEEDFFB7
:104EA300750800EE4F60728A828B83E0241C125CCB
:104EB300EE124AA760638A828B83124F2A85188277
:104EC300851983AC82AD83EA241BF582EB125BBFA9
:104ED300EA241CF582EB124F26120F1C740B120BE3
:104EE3000D124F2E7003A3E069702E7402120B0D86
:104EF300E064017024741D120B0D123D16E0640171
:104F03007017741D120B0D123D18A3A3E0F88E82C7
:104F13008F83E0687003750801A908741F0237C402
:104F2300124C5A3400F5831253B9221229D6E06881
:104F33002274F412041BE97024790090034D123D8E
:104F43001612204F8A0A8B0BAE0AAF0B74FE6E70DB
:104F53000374FF6F701A902467E4936013790190D0
:104F6300034D123D1612204F8A0A8B0BAE0AAF0B6C
:104F7300120F5802339174F612041B74F312093B97
:104F830012169C8A088B09AE08AF09900368E06E7D
:104F93007003A3E06F60E9120F40EA6E7002EB6FDB
:104FA30060DEEEFAEFFB120FACE970D4EE4F60D087
:104FB300851882851983E4F004120B0DEEF0A3EF3C
:104FC300124FDCE970BA74FE6E700374FF6F60B049
:104FD300EEFAEFFB740D0230B81238EE120B7A22A0
:104FE300C082C083120F580236407F0A020635740E
:104FF300F212041BEAFEEBFF8C0A8D0B8908740E78
:10500300120B0DE0F50974FC6E700374FF6F7005ED
:105013007900024D1C7900120DC68A0C8B0DAE0C63
:10502300AF0D900368E06E7003A3E06F7006E509AF
:10503300A2E650DCA9091264E6706179007AFE7B6E
:10504300FF1264E6705674185509700302512978EB
:105053000079008003122BD0902458122BC74003F1
:10506300025129E8FAE9FBEA75F007A4FAACF075F6
:10507300F007EBA42CFB745A2AF582740B3BF583DF
:10508300E0541870D0E875F007A4F8AAF075F0079B
:10509300E9A42AF9745428F8740B39F988828983AE
:1050A300A3A3A3A3A3A3E05418600974185509701C
:1050B3000302501388828983EEF0A3EFF074FE6538
:1050C3000A700474FF650B600312524D8882898352
:1050D300A3A3A3A3A3A3E509F0A2E0500D888289AB
:1050E30083A3A3A3A3A3A3D2E2F0740165088882D8
:1050F3008983A3A3A3A3A37038740112526DE05450
:1051030018602890246BE49388828983A3A3A3A3C4
:1051130012523B1210968B0DEA450D600302501399
:105123007800790080397902025015900367E08096
:10513300D7E06401700302501388828983A3A3A379
:10514300A3A3A3E05418600790246BE49380049016
:105153000366E01241DDE508F0025013122BD090F4
:105163002461E493FAC3E89AE994004003025013DC
:105173007A007B00804BEAFCEBFDEC75F007A4FCA6
:10518300AEF075F007EDA42EFD74562CF582740B6A
:105193003DF5831257DAE8FCE9FDEC75F017A4FC42
:1051A30085F00975F017EDA42509FD74E42CF5824B
:1051B30074093DF583E06E7003A3E06F609E1230C7
:1051C300F29024581230AF40AD124267EC6A70027D
:1051D300ED6B7088E875F017A4F8AAF075F017E97D
:1051E300A42AF974E428FE740939FF7C177D007939
:1051F30000EEFAEFFB12168A8E828F8312525390BF
:10520300037512522DA3A3A3A3A3A3E8F0A3E9124A
:1052130052337401F0EE240E125665740112525B80
:105223001202CA125662E802515B123651A3A3223C
:10523300F0EE240F12330122F0125244AA0AAB0BF0
:1052430022900375E0FCA3E0FD2288828983A3A357
:10525300E50AF0A3E50BF022F0902464E493240123
:10526300F8E43400F97A027B00221241E9A32274A4
:10527300ED12041B8A088B09890E12539740057996
:105283000502536C12192AAA08AB09125469902417
:105293005612536F650A7003E9650B70077AFE7B3C
:1052A300FF125469902456125E74E50B9940030271
:1052B300536A1253746012E50A75F006A4F875F088
:1052C30006E50B1253BF121750E50E6018E50A7579
:1052D300F006A4F8AAF075F006E50B1253EB701A6A
:1052E300790102536CE50A75F006A4F8AAF075F08B
:1052F30006E50B1253CCE4F0A3F0E50A75F006A41F
:10530300F8AAF075F006E50B12538CA312568288A7
:10531300828983A3AA82AB831253DA8A828B83E0C6
:105323006041125374603C8E108F11751200781017
:10533300120890E50EC333FCE433FDE50A75F0066D
:10534300A4F50AA8F075F006E50BA428F50B747014
:10535300250AF582740C350B124F2812167E74033E
:105363001208C17900800279070264FC122D47E814
:1053730022E50A75F006A4F8AAF075F006E50B120B
:1053830053C7F8A3E0F9E84922A42A1255208882DA
:105393008983A322ECFEEDFF902462E493F8E9C332
:1053A3009822F5831253B912175022E50C1267E3C2
:1053B300E50D3400F583E0FAA3E0FB221253C7FAAC
:1053C300A3E0FB221253CCE022A42AF9747028F53F
:1053D30082740C39F58322E50EF0900E231253E408
:1053E30022E088828983F022125544F50CE93400C7
:1053F300F50DE50EC333FAE433FB12174A850C822D
:10540300850D83EAF0A3EBF0850C82850D8312549E
:105413001522124215E8492274F412041BECFEED26
:10542300FF740C120B0D12385E8808890912546937
:10543300AC0AAD0BECF8EDF99024561254715021DF
:10544300E875F006A4F8AAF075F006E912538CE0AB
:105453008E828F8312548412547A12386B790080AF
:10546300027904024E90120D488A0A8B0B221230E5
:10547300C0C3EC9AED9B22124211850882850983F1
:10548300221255592274F612041B7E007F008028D5
:10549300EEF8EFF9E875F006A4F8ACF075F006E95C
:1054A300A42CF9746E28F582740C1261076A7003D8
:1054B300A3E06B605712321D12645940D312645437
:1054C3007002E96F704674FE6A700374FF6B703C80
:1054D3007E007F00800312321D126459502E124E3B
:1054E3005B70F3EEF8EFF9E875F006A4F8125516C1
:1054F30012554B6017125532F8E912552A88821259
:1055030053A5850882850983E4F0A3F0EEFAEFFB47
:105513000230BB75F006E912551E22A42AF9746CF9
:1055230028F8740C39F9223400F98808890922EE25
:10553300F8EFF9E875F006A4F875F006E91255449A
:105543002212551EE8240422A3A374FE12555612F8
:10555300541522F0A30412555D22F088828983A397
:10556300A3A3A32274F612041BEA241DF582EB12F3
:10557300566CF9604BEA241DF582EB125E9524020A
:10558300FCA3E03400FD12539B4003025655780000
:1055930080298C828D83E0F508A3E0FFE5082400D1
:1055A300E43FF509E833FEE433FF74B42EF5827467
:1055B3000C3FF58312568212565808E8C39940D21D
:1055C3008A828B83A3A3A3A3A3A3A3A3A31248B3F6
:1055D300900368E06C7003A3E06D700F7CB47D0CE6
:1055E30012293F124F26120D3C8067EA2411F582DF
:1055F300EB125E95605CFC74FF2CF0750801780873
:105603001208987508B475090C7808120894E9F51E
:10561300087808120898EA2412F582EB125E95F5D1
:10562300087808120898EA2415F582EB12566812D6
:105633000704ECF912293F1248B08A828B83A3A393
:10564300A3A3A3A3A3A3A3124F2A120D5474071257
:1056530008C10230BBEC24020C0CED3400FD22EE39
:10566300240DF582EF12330422123304125674E030
:1056730022E0F8A3E0F5838882A32288828983E568
:1056830008F0A3E509F02274EA12041B74FD120961
:105693003B8A148B158C0E8D0F890D7419120B0D0B
:1056A3001257DA741B120B0DE0F511741C120B0D5B
:1056B300E0F50C741D120B0D124C62741F120B0DCE
:1056C300E0F5106008E50CC333240480027402C0C3
:1056D300E07401120B0DD0E01257EB8A088B09EA34
:1056E300450970030257CB8A828B83A3A3E514F089
:1056F300A3E5151262EFE50EF0A3E50FF0EA24131C
:10570300F582EB125668E50DF0EA2414F582EB12EC
:105713005668E511F0EA2417F582EB125E956401F1
:105723007040120F3A8A0E8B0FA80EA90F850882BC
:10573300850983A3A3A3A3E0687003A3E0696022A0
:10574300EE4F6011E508241AF582E509125668EE5A
:10575300F0A3EF800CE5082417F582E509125668DB
:10576300E4F01257D01257DA8E828F837405F0A3B8
:10577300E5107004E50C80487401250C1257E47A97
:10578300008028850A82850B83E01257E0850A8210
:10579300850B83A3E08E828F83F0E50A2402F50A4A
:1057A300E50B3400F50BA30EAF830AEAC3950C4057
:1057B300D2120F3AEA1257E0120F3AEB8E828F831E
:1057C300F0AA08AB09120C04740302488912295089
:1057D30012330422900334E0FEA3E0FF228E828F73
:1057E30083F0A3AE82AF83221238EE120F9422C04D
:1057F30082C083E9C333FCE433FDEA2CFAEB3DFBBF
:10580300EA24FEF582EB34FF124F2802364074F28D
:1058130012041B89098A0A125397400479008040B5
:1058230075080080020508E508C39509502AE508B4
:10583300C333F8E433F9EE28F582EF39F583C082F8
:10584300C083120F3A8A0C8B0DD083D082E0650C93
:105853007004A3E0650D70CDE50A650870BE79019B
:10586300024D1C74F012041B74F312093B8A088B5B
:10587300098C0A8D0B890C750D00120FACE97900A8
:105883006003025968AA08AB09120DC6A90C120DD0
:10589300BA8A0E8B0FAE0EAF0FEE4F70030259662E
:1058A3008E828F83A3A3A3A3A3A3E0A2E240030258
:1058B3005966120F3AEA650A7003EB650B701178AB
:1058C3000D120898E4F50EF50F780E120894804433
:1058D300AA0AAB0B120BBCE96401706885188285B8
:1058E30019837404F07401120B0D1252538518823C
:1058F300851983AA82AB83120B7AE964017045751B
:105903000D01780D120898E4F50EF50F780E1208C4
:1059130094750D00780D120898780D120898740884
:10592300120B0D85820E85830F780E120894902436
:105933006DE493F9AC0AAD0BAA08AB09120D5474CC
:10594300071208C18E828F83A3A3A3A3A3A3E0A2FC
:10595300E1400D8E828F83A3A3A3A3A3A3C2E2F08E
:10596300750D01A90D02421B74F612041BE9FE79A1
:1059730000120DC6EEF9120DBA8A088B09A808A900
:1059830009E849600612682AF9800279040230BBEB
:1059930074F612041B7E0790035CE070341259D92D
:1059A3008A088B09A808A909E8496025900361E0E2
:1059B300640188828983A3A3700B1259E0888289CA
:1059C300835001A3A3E0F91210B4E9FEEE70027E46
:1059D30007EEF90230BB12524412109622E0FA8805
:1059E300828983A3E0C39A2274EE12041BEAFEEBBE
:1059F300FF890A8C0C8D0B7412120B0D1236561282
:105A03005AB512539E5051890E750F007403780EC8
:105A13001209F074D2250EF582740C350FF583E06C
:105A2300F8E50CC398502DE50B6024751100740341
:105A330078101209F074CC2510F8740C3511F9881C
:105A4300828983A3A3A3A3A3A3E50C125ABFF0796E
:105A530000024FED790380F979007AFE7BFF125A39
:105A6300B5E49365107004790280E6E50B60E08984
:105A73000E750F007403780E1209F074CC250EF81E
:105A8300740C350FF988828983A3EEF0A3EF125AC1
:105A9300BF12526DE50C1241E574FF1266A9E50AC7
:105AA300F0900366E088828983A3A3A3A3A3A3A39F
:105AB300809C120DB4E9F510902460221267ECA3C8
:105AC300E508F0A3E5092274F612041BECFF120D9E
:105AD300B490246012539E502789087509007403FB
:105AE30078081209F074D1125B09740C12635BE03D
:105AF300F8EFC3985006EFF079008006790380022F
:105B030079040230BBEA2508F5822274F412041BDF
:105B1300EAFEEBFF120DB4E9F50A90246012539EDE
:105B23005019750B007403780A1209F074CF250A13
:105B3300F582740C350B124F28801890034B124AD0
