:020000040000FA
:0600000002113A02074262
:030013000207657C
:03002B00020F645D
:03003B000207BAFF
:030053000206732F
:100083000206D70101FF050301D816D816D816D8E2
:100093001694158E15D816A32400000000672500BA
:1000A3000000000C0000000C00010000A618000076
:1000B300000000005A1900000000000000000000CA
:1000C300FFFF01010100F5040000004605E8036499
:1000D300006400B801020200000002050207051EC9
:1000E30002051E0A03B80B02010206000201000208
:1000F300020612121159601D121186700519191981
:10010300801A120FC1701F121000C37003E6673309
:1001130019191940071818182208080874FFF61847
:10012300F618F618F62212100060171211C5702186
:1001330092F01211CF7019501720F0140808080913
:100143000909E7F61819E7F61819E7F61819E7F693
:10015300221211CF60E6E869701F0808E62480F6D2
:1001630008E436F618547FB47F0CE654806007F633
:10017300E418F618F622181822E9C6CC08C6CD08EA
:10018300C6CE08C6CFC0E0E8C0E0EAC0E0EBC0E0FE
:1001930009E9F809E7FA09E7FBE6F918E6F8C3EC19
:1001A30098ED99EE9AEBC2E7F5F0EFC2E795F050C0
:1001B3000E600CEBCFFBEACEFAE9CDF9E8CCF8EA16
:1001C300A2E7D2E7FAEB33FB13F5F0EEA2E7D2E7AF
:1001D300FEEF33FFC5F013A2E730E601B313C5F01A
:1001E300C3C0E0C0F07F00C39BFB605B9418600C4E
:1001F300401AD0E023F9D0E0F80202D48AF0E948AB
:100203006003D2F0E4AFF0FAF9F8803BEB30E40D91
:1002130089F0EA6003D2F0E4AFF0F9CAF8EB30E317
:100223000D88F0EF6002D2F0AFF0E4CAC9F8EB54E6
:10023300076014FBC3EA13FAE913F9E813F8EF13A1
:100243005002D2E0FFDBEDD0E0C0E030E739C3E499
:100253009FFFF5F0EC98FC42F0ED99FD42F0EE9A29
:10026300FE42F0D0E0F9D0E0F8E5F0607AE923F956
:10027300EE20E742D8028067C3EF33FFEC33FCED97
:1002830033FDEE33FE80EAEC28FCED39FDEE3AFE59
:10029300D0E023F9D0E0F84002801BC3EE13FEED5B
:1002A30013FDEC13FCEF135002D2E0FF08B8000675
:1002B3007F7F74FF802EEF3350178CF020F00260A5
:1002C300100CBC000C0DBD00080EBE000408E86055
:1002D300DFE933E813FFEE2313FE4F4D4C8008E9AB
:1002E3005480FFE4FEFDFCEE33EF33F47004FCFDB9
:1002F3007E80D0E0FBD0E0FAD0E0F8D0E0CFC618A3
:10030300CEC618CDC618CCC6F922121159700418DE
:10031300181822121186700D74FFF61819F61819A1
:10032300F61819F622E7548066F61211CF700F12F1
:1003330011C570F014F608F608F608F680D112110C
:10034300C5700CF608F608768008E6447F80EC1248
:100353001003700C120FC460BFE65480F6E480BB38
:10036300120FC4700519191980A5E869700C763F3E
:1003730018768018F618F6E8F922E6CDC0E018ECF6
:10038300C0E0E633CD33CDD313F6E719FCE71919F3
:1003930033CC33C3947F400ECD9D502408E6548064
:1003A300F6E418F6800FF4043D14501408E6447F75
:1003B300F6187680E418F618F6D0E0FCD0E0FD22BB
:1003C300CCD313CCFD18E4C6CBC0E018E4C6CAC036
:1003D300E00808ED08C633E613F618E433C675F0F3
:1003E30003C3CA97CA09CB97CB199C40047D0880E5
:1003F3002EBD00030204B616B6FF0506060816183E
:10040300C3CA33CACB33CB33CA27CA09CB37CB19B9
:100413003CC37D08803E187D0820E75CC633C6CA0E
:1004230033CACB33CB33DDF1D5F0EB30E77BCA975F
:10043300CA09CB974ACB199C406F4B7025E620E045
:10044300218066187D08C3CA97CA09CB97CB199C2C
:10045300D3C633C6CA33CACB33CB3350C9DDE7D592
:10046300F0E1D3E4C636C608C636C608C636C608A3
:10047300C636C61818188031C3CA97CA09CB97CB9A
:10048300199CB34097C633C6CA33CACB33CB33DDCB
:1004930034D5F02EC6A2E0C640C8CA27CA09CB3756
:1004A300194A70BECB3CB480B90808E63308E6337A
:1004B300601F181818D0E0FAD0E0FBD0E0FCD0E0C1
:1004C300FD22187D08CA27CA09CB37CB193CD38034
:1004D3008013F618E4B67F11F618B6FF0EF618C6A9
:1004E3000470D20808768080CAF618F618F680C51C
:1004F30000121159604F1211866012E7548066F69C
:10050300120FC170111211C5703B090909F4F618D5
:10051300F618F618F62212100070151211CF0808FB
:100523000860EAE6447FF618768018E4F618F622A7
:100533001211CF60161211C57012E4F608F608F610
:1005430008E65480F609090918181822EAC0E0EBF6
:10055300C0E0ECC0E0EDC0E0E687F0A4FBACF0083F
:10056300E687F0A42CFCE435F0FA1809E687F0A43A
:100573002C4B60027401CA35F0FCE433FB09E687B7
:10058300F0D2F7A42CCB35F0FC1908E687F0A42BA6
:10059300CC35F0FBE433FD0819E687F0D2E7A42C51
:1005A3004ACB35F0CD3400FC09E687F0D2E7A42D21
:1005B300CC35F0FDE433FA0918E687F0D2F7A42C22
:1005C300CD35F0CA3400FC08E687F0D2E7D2F7A4B1
:1005D3002ACC35F07A7E20E70B0ACB33CBCD33CD53
:1005E300CC33CC33CB3350147004ED30E00ED2F166
:1005F300E4CD3DCDCC3CCC3B5005DA05C2F1EB5408
:100603007FC63308E63392F0FBE73309E733C39A37
:10061300502D2B70190C0D4C4D70151806E608C3A0
:1006230033700D20F10AA2F013F6E418800B402476
:10063300E4F630F002768018F618F618F68024D324
:100643003B14501074FFA2F013F6187680E418F6EA
:1006530018F6800FA2F013F618E63303F618ECF63B
:1006630018EDF6D0E0FDD0E0FCD0E0FBD0E0FA22BC
:10067300C0E074F2120A9BA2AFE433FED2AFE5A747
:10068300FFE5A1F5085F54106006121F4E75A1EF38
:10069300E5085F54086008121F5475A1F7802BEF1B
:1006A300A2E0C0D0E508A2E092F012107715818293
:1006B300F05017906198E0F8900713E0C398A2D226
:1006C30065D0335002E8F075A1FEEEA2E092AF7F51
:1006D30001020BAFC0E074F2120A9BA2AFE433FE37
:1006E300D2AF9061A4E0F8759B00E591585408607F
:1006F300087591F7121F96802AE5915854106008E7
:100703007591EF121F9C801BE8A2E0C0D0E591A277
:10071300E092F0121077158182F05007E0C2E0F00A
:100723001220DA9061A3E0F8E5E9585404600E1250
:1007330020B075E9FB906193E0A2E640F2808BC0A4
:10074300E074F2120A9BA2AFE433FED2AF9061A52C
:10075300E0F8E5BF585404600675BFFB1220F202AF
:1007630006CDC0E0C0D0E8C0E0E9C0E0C082C083ED
:10077300E5C1C0E090067FE0F874FE28F5827405B9
:100783003400F583D0E0F090067EE0F8A3E06870D3
:1007930006E595900681F090067FE004F0C394800F
:1007A3004002E4F0A374C6F0D083D082D0E0F9D045
:1007B300E0F8D0D0D0E032C0E0C0D0E8C0E0C0085C
:1007C300C009C082C083900702E0F8A3E068700804
:1007D300539AFBA374018026C2E9900702E0F5084F
:1007E30074012508F074822508F58274063400F537
:1007F30083E0F5C1900702E0C394804002E4F0D0A7
:1008030083D082D009D00880A6C3E498F8E499F98C
:1008130012084D8026C3E49AFAE49BFBE920E7E93A
:1008230012084DE498F8E499F922C3E498F8E4999E
:10083300F912084DE498F8E499F9C3E49AFAE49BB1
:10084300FB22EB20E7CFE920E7E0B90010BB00086B
:10085300E88AF084F8AAF022E4FBC8FA22EB7022BB
:100863007B10C833C8C933C9335007C39AC3DBF2FB
:1008730080069A50012ADBEAC833F4C8C933F4C9A5
:10088300FA2275F008E4C833C8C933C933C99AC911
:100893009B5004C92AC93BD5F0ECFBC833F4C8E428
:1008A300C9FA228A088B098C0A8D0B78081208F082
:1008B30020F01430E72B74FFFCFBFA747F8022E4F2
:1008C300FCFBFA7480801AB48008BC00F2BB00EF12
:1008D300800F50EBF9E4C39AFAE49BFBE49CFCE43D
:1008E30099C6CC18C6CB18C6CA18C6F922E4C9C61D
:1008F30008CAC608CBC6D3330308CCC63392F0C3A9
:10090300947F402E94184019C9B90704CACBCC224E
:100913005025C309CA33CACB33CBCC33CC33D9F438
:1009230022F4600DC9CCC313CB13CBCA13CAD9F6B7
:10093300CC22E4FCFBFA2214FCFBFA22080808EAA6
:10094300C0E0EBC0E086F0E7A4FA180986F0E7A45C
:100953002AFA180986F0E7A42AFA180986F0E7A408
:100963002AFA1986F0E7A4FBE5F02AFA190886F0BB
:10097300E7A42BFBE5F03AFA190886F0E7A42BFB72
:10098300E5F03AFA18180986F0E7A4C5F02BFBE462
:100993003AFA1908E7C5F0C6A426F6E5F03BFBE4EE
:1009A3003AFA1886F0E7A4F6E5F00826F6E43B08E1
:1009B300F6E43A08F6D0E0FBD0E0FA22E4CFC0E058
:1009C300E4CEC0E0E4CDC0E0E4CCC0E075F020C3E9
:1009D300E633F608E633F608E633F608E633F618A8
:1009E3001818EC33FCED33FDEE33FEEF33FFC3ECAD
:1009F3009709ED9709EE9709EF97191919400FFF1A
:100A0300EC97FC09ED97FD09EE97FE191906D5F051
:100A1300BEECF709EDF709EEF709EFF7191919D04D
:100A2300E0FCD0E0FDD0E0FED0E0FF222518C58237
:100A3300C0E0E51934FFC583C0E0E518C3958224FF
:100A4300F810AF0885831985821880088583198576
:100A53008218D2AFCEF0A3E520F0A37808E608F021
:100A6300A3DEFAEFF0A3E58124FAF8E608F0A3E6A3
:100A730008F0A3E608F0A30808E608F0A3E608F0E8
:100A8300A315811581D0E0FED0E0F81581158115FD
:100A930081E8C0E0EEC0E022C0D02518C582C0E0E6
:100AA300E51934FFC583C0E0E518C3958224F3102C
:100AB300AF08858319858218800885831985821874
:100AC300D2AFC8F0A3E9F0A3EAF0A3EBF0A379084F
:100AD300E709F0A3D8FAECF0A3EDF0A3EEF0A3EF4F
:100AE300F0A3D0E0F0A3D0E0F0A3D0E0F0A3E520A2
:100AF300F0A3E5F0F0A322E9799EC608CAC608CBA5
:100B0300C608CCC6C370207996CACBCC7019798E2F
:100B1300CBCC70137986CC700EF9802ACA33CACB3A
:100B230033CBCC33CC331930E7F2CCCBCA335014AC
:100B33007004EA30E00DE4CA3ACACB3BCBCC3CCCE0
:100B4300500209C3E913C6CC182313C6CB18C6CA6F
:100B530018C6F9221211BAB90003020B99E49003E3
:100B630001786179098002F0A3D8FCD9FA900B616E
:100B7300AA82AB83900086787179018015E493A3F0
:100B8300AC82AD838A828B83F0A3AA82AB838C82EF
:100B93008D83D8E9D9E77582DD7583DD7402120E82
:100BA300C37582AA7583237400120EC385198385C6
:100BB3001882E0C0E0A3E0F9A3E0FAA3E0FBA37886
:100BC30008E0F608A3DFFAE0FCA3E0FDA3E0FEA340
:100BD300E0FFA3E0C0E0A3E0C0E0A3E0F5D0A3E022
:100BE300F520A3E0A3F5F010AF08858319858218DB
:100BF3008008858319858218D2AFD082D083D0E054
:100C0300F8D0E0320875F0108E1A8F1B85821F858D
:100C1300831E851882851983E0CEA3E0CF851F82CA
:100C2300851E83EBC9EAC8EDCBECCAC3E833C8E938
:100C330033C9EA33CAEB33CBC3EA9EF51DEB9FF509
:100C43001CB35004AB1CAA1DEC33CCED33CDD5F053
:100C5300DAAE1AAF1B22D083D082ECC0E0EDC0E045
:100C6300E493A3FCE493A3FDED4C600D120D31EC72
:100C730024FFFCED34FFFD80EFE493A3FCE493A396
:100C8300FDED4C600D120DCEEC24FFFCED34FFFDA9
:100C930080EFD0E0FDD0E0FCE493A3C0E0E493C098
:100CA300E022D083D082E9C0E0E493A3C386F0C5F9
:100CB300F095F0F908E493A386F0C5F095F0700B76
:100CC300E493A3C3994005E9048002A3E475F00209
:100CD300A42582F582E5F03583F583D0E0F9E4932A
:100CE300A3C0E0E493C0E022851983851882E0A3C2
:100CF300FEE0A3F5207808E0A3F608DFFAE0A3FFFF
:100D0300E0A3C0E0E0A3C0E0E0A3C0E0E0A3C0E054
:100D1300E0A3C0E010AF0885821885831980088599
:100D23008218858319D2AFD083D082020EC9C0E066
:100D3300C3E49396087401939618400FE493667086
:100D43000808740193661870007019A3A3C3E49391
:100D530096087401939618A3A3400DD0E0D0E0D079
:100D6300E0020C95A3A3A3A3A3A3D0E02274048061
:100D73000474028000CCC0E0EDC0E0E518C39CCC55
:100D8300AD1950011D10AF068C188D1980068C18F3
:100D93008D19D2AF120E45D0E0FDD0E0FC227402D3
:100DA3008000CCC0E0EDC0E0E518C39CCCAD195089
:100DB300011D10AF068C188D1980068C188D19D261
:100DC300AF120E23D0E0FDD0E0FC22C0E0C0F088DB
:100DD300F0E4936670080874019366187000A8F035
:100DE300A3A3700BD0F0D0E0D0E0D0E0020C95A329
:100DF300A3D0F0D0E022D083D082CCC0E0E493A390
:100E03006006120E851470FAE493A36006120FAB0A
:100E13001470FAD0E0FCE493A3C0E0E493C0E022B2
:100E2300CAC0E0E493A3C582CCC582C583CDC58384
:100E3300F0A3C582CCC582C583CDC583DAE5D0E0F6
:100E4300CA22CAC0E0E0A3C582CCC582C583CDC592
:100E530083F0A3C582CCC582C583CDC583DAE6D032
:100E6300E0CA22C008C3E096F50808A3E09642084A
:100E730008A3E096420808A3E09645087001D3D082
:100E83000822C0E0E493A3D39C5010E493A3C39C33
:100E9300400AD0E0D0E0D0E0020E16A3A3A3D0E036
:100EA300227009080808226016181818C6C333C62A
:100EB30008C633C608C633C608C633C6D5E0EA2219
:100EC300C09FF59FE473D09F22D083D082C09FE45C
:100ED30093C0E0740193C0E0740293F59F227404FD
:100EE300800A74038006740280027401C0E0F40473
:100EF300120EFCD0E0121195222518F58210AF08CE
:100F0300F518400215198008F51840021519D2AFDB
:100F130085198322C0D0251810AF08F51850020593
:100F2300198008F51850020519D2AFD0D022BB01A1
:100F330002E722C082C08389828A83BB0003E080E8
:100F430002E493D083D082226016080808C6C31334
:100F5300C618C613C618C613C618C613C6D5E0EA04
:100F630022C0E0C0D0E8C0E0E5A8D2AFC2C7A2E784
:100F730092AFD0E0F8D0D0D0E032C3E0C696F60806
:100F8300A3E0C696F608A3E0C696F608A3E0C696C5
:100F9300F622251810AF08F518400215198008F538
:100FA3001840021519D2AF22C0E0E493A36C700974
:100FB300D0E0D0E0D0E0020E16A3A3D0E0221818B0
:100FC30018E6084608700AE608C3337005E633F4EA
:100FD300220822E066701008A3E066700A08A3E006
:100FE30066700408A3E06622E76670100809E766E6
:100FF300700A0809E76670040809E76622191919D7
:10100300E7094709700AE709C3337005E733F42298
:101013000922C3E09608A3E09608A3E09608A3E09C
:1010230096A2D265D03322C3E096F008A3E096F0EF
:1010330008A3E096F008A3E096F022E627F6080955
:10104300E637F60809E637F60809E637F622E0261A
:10105300F608A3E036F608A3E036F608A3E036F672
:1010630022E026F008A3E036F008A3E036F008A358
:10107300E036F022C0E0E8C0E0E58124FCF8E6A217
:10108300E7D0E0F8D0E022E056F608A3E056F608F1
:10109300A3E056F608A3E056F622E657F60809E65B
:1010A30057F60809E657F60809E657F622E647F623
:1010B3000809E647F60809E647F60809E647F6226F
:1010C300E056F008A3E056F008A3E056F008A3E0CA
:1010D30056F022700422600D18C6C333C608C63307
:1010E300C6D5E0F41822E4C396F608E496F608E4BD
:1010F30096F608E496F622600D08C6A2E713C61812
:10110300C613C6D5E0F322C6F4C608C6F4C608C69D
:10111300F4C608C6F4C622C3E7960809E796080989
:10112300E7960809E79622C3E09608A3E09608A38A
:10113300E09608A3E0962275D000758140751801EA
:1011430075190300020B57E6F008A3E6F008A3E6BF
:10115300F008A3E6F022E6084608C3134608336006
:1011630002E633F422600C08C6C313C618C613C6BE
:10117300D5E0F422E0F608A3E0F608A3E0F608A31E
:10118300E0F622E7094709C3134709336002E7334F
:10119300F422CAC0E0E6F0A308DAFAD0E0FA22EAC1
:1011A300F0A3EBF0A3ECF0A3EDF022E0FAA3E0FB55
:1011B300A3E0FCA3E0FD22E5C754F84401F5C77999
:1011C3000122E7C33319471947194722E6C33318E6
:1011D3004618461846222518F582E43519F5832268
:1011E300C2AF75D69F02000022120ECC2A610012F4
:1011F3000ECC436100120ECC696100120ECCA461C7
:1012030000120ECCED6100120ECC3E6200120ECC29
:10121300EE6200120ECCA66300120ECC6E640012B6
:101223000ECC4B6500120ECCD16500120ECCE065DE
:1012330000120ECCEB6500120ECCFC6600120ECC35
:101243000D6700120ECC926700120ECC21680012BB
:101253000ECC796800120ECC436900120ECC74696F
:1012630000120ECCB16900120ECCBE6900120ECC76
:101273004D6B00120ECCB06C00120ECCC36D00127D
:101283000ECC0A7000120ECC157000120ECC1F701B
:1012930000120ECC2A7000120ECC347000120ECC49
:1012A3003E7000120ECC497000120ECC5470001226
:1012B3000ECC857000120ECCA97000120ECCCD702E
:1012C30000120ECC327100120ECC767100120ECCCD
:1012D300927100120ECC097200120ECC41720012F0
:1012E3000ECC8D7200120ECCEA7200120ECCCC74AE
:1012F30000120ECC527500120ECC2D7600120ECCBD
:101303002E7900120ECC837900120ECCAF79001225
:101313000ECCFB7A00120ECC4B7B00120ECCA07BC2
:1013230000120ECCA17C00120ECC397D00120ECC23
:10133300BB7D00120ECC5B7E00120ECC3727001251
:101343000ECC702700120ECC4A2900120ECC89292C
:1013530000120ECCD32900120ECC782A00120ECC28
:10136300D72A00120ECC0B2B00120ECC782B0012B6
:101373000ECC952C00120ECC9D2D00120ECC582EA7
:1013830000120ECC9A3100120ECC433200120ECC56
:10139300373300120ECC983300120ECCB534001242
:1013A3000ECCC23600120ECC793700120ECC833726
:1013B30000120ECCB63700120ECC7D3800120ECCC4
:1013C300183900120ECC7D3900120ECCA63900124A
:1013D3000ECCC83900120ECCF73B00120ECCCE3C1B
:1013E30000120ECC123D00120ECC7F3D00120ECC2B
:1013F3003A3E00120ECC6C3E00120ECCB03E0012F0
:101403000ECCE33E00120ECC383F00120ECC8D3FC3
:1014130000120ECC214000120ECC834000120ECCE1
:10142300EB4000120ECC944200120ECC7C4300120F
:101433000ECCBE4400120ECCEC4600120ECCAC47D0
:1014430000120ECCDB4900120ECC7E4A00120ECCE9
:10145300BC4A00120ECC684C00120ECC7C4C00121D
:101463000ECC864C00120ECCB04C00120ECCBC4CF1
:1014730000120ECCDB4C00120ECC924D00120ECC9F
:10148300D14D00120ECCDB4D00120ECC8F4E00124C
:101493000ECC8E4F00120ECC875000120ECC24516E
:1014A30000120ECCC65100120ECCDD5100120ECC30
:1014B300145200120ECC325200120ECC765200128D
:1014C3000ECC9B5200120ECC815300120ECCED5366
:1014D30000120ECC675400120ECC765500120ECCBF
:1014E300B55600120ECC175700120ECCD15700126E
:1014F3000ECCF45700120ECCC85800120ECC135960
:1015030000120ECC555900120ECCBF5900120ECC4E
:10151300ED5900120ECC265A00120ECC4B5A001273
:101523000ECCD35A00120ECCF65C00120ECC555DD5
:1015330000120ECCE95D00120ECC555E00120ECCEB
:10154300A95E00120ECC5EA903120ECC9DA9031254
:101553000ECCB6B201120ECC10B301120ECC6CB38A
:1015630001120ECCB8B301120ECCD3B301120ECCC0
:1015730004B401120ECC21B401120ECC2DB401120D
:101583000ECCA1B501120ECCBAB501120ECC21B608
:1015930001120ECC34B601120ECC42B601120ECC9F
:1015A300F6B601120ECCDAB701120ECCE0B8011276
:1015B3000ECC66B901120ECC70B901120ECCDDB996
:1015C30001120ECCF4B901120ECC26BA01120ECCC4
:1015D3005FBA01120ECC89BA01120ECCEABA01121B
:1015E3000ECC0ABB01120ECC28BB01120ECC6EBB73
:1015F30001120ECC94BC01120ECCE1BC01120ECC34
:1016030010BD01120ECC86BD01120ECCAEBD01126F
:101613000ECCE7BD01120ECCF5BD01120ECC4DBEB2
:1016230001120ECC9CBE01120ECCDBBE01120ECCFD
:101633000BBF01120ECC37BF01120ECC42BF0112F9
:101643000ECC60BF01120ECC22C001120ECC2CC0F6
:1016530001120ECC67C001120ECC7DC001120ECC5C
:1016630086C001120ECCDBC001120ECCEFC00112FA
:101673000ECCECC101120ECCFFC101120ECC14C270
:1016830001120ECCB6C201120ECC39C301120ECC1C
:10169300F7C301120ECC02C401120ECC28C50112ED
:1016A3000ECC44C501120ECC96C501120ECCD5C585
:1016B30001120ECCEAC501120ECC2CC601120ECCBF
:1016C30079C801120ECCF7C801120ECC6AC90112F7
:1016D3000ECC8CCB01120ECCA4CB01120ECCA7CB1B
:1016E30001120ECCB3CB01120ECCC7CB01120ECC20
:1016F300CFCB01120ECC02CC01120ECCB2CC011214
:101703000ECC28CD01120ECC9BCD01120ECC4FCEA8
:1017130001120ECC04CF01120ECC23CF01120ECC3A
:10172300C3CF01120ECCCFCF01120ECCFACF0112D0
:101733000ECCFDCF01120ECC67D001120ECC8FD18F
:1017430001120ECC67D201120ECCF2D201120ECCD2
:101753000BD401120ECCC8D401120ECC01D5011248
:101763000ECC32D501120ECCD2D501120ECC02D63C
:1017730001120ECCDDD601120ECC76D701120ECC9F
:1017830001D801120ECCB2D801120ECC34D90112F9
:101793000ECC66D901120ECCA7D901120ECC86B796
:1017A30002120ECCEBB702120ECC23B802120ECCEF
:1017B30072B802120ECC94BA02120ECC77BC02128B
:1017C3000ECCD5BF02120ECC0AC002120ECC2CC016
:1017D30002120ECC91C002120ECCC7C002120ECC64
:1017E300EAC002120ECC17C102120ECC73C1021250
:1017F3000ECC74AB02120ECCF5AB02120ECC2BAC9A
:1018030002120ECC92AC02120ECC05AE02120ECC1A
:1018130021AE02120ECC66AE02120ECCF4AE021250
:101823000ECC4DAF02120ECC81B002120ECC4FB1D2
:1018330002120ECCC7B102120ECC43B202120ECC6E
:1018430085B202120ECCC6B202120ECCFAB3021249
:101853000ECCF8B402120ECC23B502120ECC6EB528
:1018630002120ECCB5B502120ECC47B602120ECC44
:1018730000B702120ECC98A003120ECCA9A003123B
:101883000ECCFAA003120ECC3FA103120ECCE9A199
:1018930003120ECC88A503120ECC549D03120ECC5A
:1018A300AC9E03120ECCBFC102120ECC66C2021252
:1018B3000ECC86C202120ECCADC202120ECCC1C235
:1018C30002120ECC19C302120ECC49C302120ECC63
:1018D300CAC402120ECC70C502120ECC52C602123A
:1018E3000ECCA3C602120ECCE6C602120ECC29C73A
:1018F30002120ECC8FC702120ECCB0C702120ECC4E
:101903003CC802120ECC64C802120ECCD8C8021214
:101913000ECC86CA02120ECC60CB02120ECCBACB0E
:1019230002120ECCE29903120ECC039A03120ECCD0
:10193300349B03120ECC5E9B03120ECC6386031200
:101943000ECCDE8603120ECCE98603120ECC0A8778
:1019530003120ECC379F02120ECC3A9F02120ECC0A
:10196300F49F02120ECC1FA002120ECC66A002122C
:101973000ECC8BA002120ECCACA002120ECCE0A0B7
:1019830002120ECC19A102120ECC42A202120ECCEC
:1019930079A202120ECC99A202120ECC34A3021227
:1019A3000ECCF9A302120ECC30A402120ECCA5A5C4
:1019B30002120ECC48A602120ECC41A702120ECC84
:1019C3006AA702120ECCBEA702120ECC84A8021282
:1019D3000ECCB2A802120ECC47AA02120ECCC8AA91
:1019E30002120ECCFBAA02120ECC0FD502120ECCA1
:1019F3005BD502120ECCC9D502120ECC29AB011253
:101A03000ECC01D602120ECCB1D602120ECCBAD62F
:101A130002120ECC0DD702120ECC36D702120ECC08
:101A23009DD702120ECC2ED802120ECC70D8021201
:101A33000ECCBAD802120ECC19D902120ECCAAD9E6
:101A430002120ECCE9D902120ECC28DA02120ECC05
:101A53005DDA02120ECC6FDA02120ECC81DA0212B8
:101A63000ECCA0DA02120ECCA9DA02120ECCD6608A
:101A730000120ECC9FDB02120ECC09EF02120ECC29
:101A8300DCEF02120ECCF6EF02120ECC07F00212BC
:101A93000ECC1CF202120ECC3BF202120ECCBA9503
:101AA30003120ECCF09503120ECC399603120ECC12
:101AB300899703120ECCDCD901120ECC1BDB011269
:101AC3000ECC57DB01120ECC16DD01120ECC3FDD1E
:101AD30001120ECCD2DF01120ECC16E001120ECC95
:101AE3009FE101120ECC37E201120ECC9FE20112EC
:101AF3000ECC40E301120ECC82E301120ECCC2E302
:101B030001120ECC4DE501120ECCBDE601120ECC36
:101B1300E2E801120ECC10E901120ECC37E90112F2
:101B23000ECC40E901120ECC9BE901120ECC2EEA39
:101B330001120ECC4CED01120ECCCDED01120ECCE8
:101B4300D97F00120ECC13A903120ECC0BFB021289
:101B53000ECC1EFB02120ECCBBFB02120ECCF6FB0C
:101B630002120ECC11FC02120ECC36FC02120ECC69
:101B73007BFC02120ECCACFC02120ECCDDFC02127A
:101B83000ECC63FE02120ECC7BA603120ECCB1A6C2
:101B930003120ECCCDA603120ECC0FA703120ECC4C
:101BA3001FA703120ECC578903120ECC7789031299
:101BB3000ECC158A03120ECC0D8B03120ECC178B91
:101BC30003120ECC2D8B03120ECC478B03120ECCBB
:101BD300CD8B03120ECCDEE002120ECC5DE10212BD
:101BE3000ECC26E202120ECCC4E202120ECCB5E3F6
:101BF30002120ECCE2E302120ECC6F9002120ECC54
:101C0300C49002120ECC6E9102120ECC16920212E6
:101C13000ECC739202120ECCCC9202120ECC96947E
:101C230002120ECC139502120ECC3D9502120ECC6D
:101C3300FA9602120ECC159702120ECC649702127A
:101C43000ECC7A9702120ECC879702120ECCB7975E
:101C530002120ECCCD9702120ECCDC9702120ECCE0
:101C6300359802120ECC8F9802120ECCE198021214
:101C73000ECCEB9902120ECC699C02120ECC039D82
:101C830002120ECC4E9D02120ECCB29D02120ECC4D
:101C9300CF9D02120ECCD29D02120ECCD59D021204
:101CA3000ECC489E02120ECC639E02120ECC8F9E67
:101CB30002120ECCCA9E02120ECCCD9E02120ECC84
:101CC300E09E02120ECC079F02120ECCC9A703128C
:101CD3000ECCD5A703120ECC0FA803120ECC008096
:101CE30002120ECC2B8002120ECCF78002120ECC05
:101CF3007C8102120ECCE58102120ECC31820212DB
:101D03000ECCB08202120ECC428302120ECCD283CE
:101D130002120ECC148402120ECC808802120ECC56
:101D2300008A02120ECC3F8A02120ECC088B0212DA
:101D33000ECCBC8B02120ECC6C8D02120ECCF88D25
:101D430002120ECCFA8E02120ECC2AEE01120ECC27
:101D5300E4EE01120ECC56EF01120ECC65EF011228
:101D63000ECCDFEF01120ECC4EF001120ECC58F167
:101D730001120ECC81F101120ECC21F201120ECC14
:101D83006FF201120ECCDFF201120ECC13F401122A
:101D93000ECCEFF401120ECC60F501120ECCDDF681
:101DA30001120ECC9FF701120ECC3AF801120ECCA1
:101DB30095F801120ECC00F901120ECC04FA0112AF
:101DC3000ECCC5FB01120ECC64FC01120ECCD6FC6A
:101DD30001120ECC93FD01120ECC62AA03120ECC9B
:101DE30064AA03120ECC649303120ECC95930312D0
:101DF3000ECC4F9403120ECCB59403120ECC269541
:101E030003120ECCC8DB02120ECC6BDE02120ECC18
:101E13003DE002120ECC0E7F00120ECC1F7F00128B
:101E23000ECCBF7F00120ECC9C9B03120ECCAA9B40
:101E330003120ECCEF7F00120ECC4CA803120ECC73
:101E43005CA803120ECC71A803120ECCB9A803121E
:101E53000ECC86A403120ECC0BA503120ECC6FA5D9
:101E630003120ECCFBFF01120ECC69AA03120ECC97
:101E73006CAA03120ECC6FAA03120ECC72AA031221
:101E83000ECC008003120ECC0E8003120ECC888081
:101E930003120ECC608103120ECCEB8203120ECC24
:101EA300EC9703120ECC459803120ECCF098031254
:101EB3000ECC089903120ECC849903120ECC9A9976
:101EC30003120ECCA89903120ECCFB9E03120ECC68
:101ED300279F03120ECC349F03120ECC6B9F031269
:101EE3000ECC949F03120ECCF19F03120ECCBFE5D0
:101EF30002120ECC14E602120ECC10E802120ECC23
:101F030042E802120ECC64E802120ECC7DE8021203
:101F13000ECC96E802120ECCA0E902120ECC3BEADC
:101F230002120ECC00A203120ECC25A203120ECC79
:101F330035A203120ECC68A203120ECC99A203128F
:101F43000ECCCEA203120ECC30A303120ECC3FA3B1
:101F530003120ECC49A303120ECC138C03120ECC26
:101F6300398C03120ECC768C03120ECC858C0312A3
:101F73000ECCA48C03120ECC0C8D03120ECC158D3B
:101F830003120ECC748D03120ECC988D03120ECC5B
:101F9300578E03120ECC648E03120ECC758E031271
:101FA3000ECCEBA903120ECC08AA03120ECCDAF363
:101FB30002120ECC38F502120ECC45F502120ECCED
:101FC30058F502120ECC77F502120ECC8DF50212E3
:101FD3000ECCA1F502120ECC24F602120ECC87F61B
:101FE30002120ECC0EF702120ECC6CF702120ECCBC
:101FF3007CF702120ECC30A703120ECC54A70312A7
:102003000ECC7CA703120ECCA4A703120ECCA38E76
:1020130003120ECCCA8E03120ECCEB8E03120ECC1F
:10202300508F03120ECC099103120ECC229103128E
:102033000ECC2E9103120ECC429103120ECC609162
:1020430003120ECC6A9103120ECC749103120ECCC0
:10205300879103120ECCD89103120ECC1192031266
:102063000ECC409203120ECC8E9203120ECCDD9254
:1020730003120ECCF89203120ECC029303120ECC71
:10208300139303120ECC599303120ECCC2A803125E
:102093000ECCCECB02120ECCFACB02120ECC16CC47
:1020A30002120ECC29CC02120ECC3FCC02120ECC63
:1020B300ABCC02120ECCDECC02120ECC0DD102122E
:1020C3000ECC33D202120ECC66D202120ECCB2D296
:1020D30002120ECCEBD302120ECC13D402120ECC8E
:1020E30028D402120ECC38D402120ECC7CD40212A5
:1020F3000ECCD1D402120ECCE1D402120ECC53A3D7
:1021030003120ECC6EA303120ECC97A303120ECCB4
:10211300B1A303120ECCD6A303120ECCF5A3031264
:102123000ECC0DA403120ECC3BA403120ECC55A46B
:1021330003120ECCA7A903120ECC8BF702120ECCFE
:1021430092F702120ECC9EF802120ECCCEF80212B7
:102153000ECCF4F802120ECC17F902120ECC39F998
:1021630002120ECC73F902120ECCD9F902120ECC64
:1021730012FA02120ECC5EFA02120ECC8BFA021283
:102183000ECCABFA02120ECC70FE02120ECC82FE03
:1021930002120ECC6DFF02120ECCFAFF02120ECC0D
:1021A300E8FE01120ECC5AFF01120ECC98FF011269
:1021B3000ECCD9FF01120ECC508303120ECC6C83CC
:1021C30003120ECCBB8303120ECCD78303120ECCA7
:1021D300088403120ECC188403120ECC0485031258
:1021E3000ECC0E8503120ECC1B8503120ECC2B8650
:1021F30003120ECC3F8603120ECC488603120ECC7C
:102203007AEA02120ECC9AEE02120ECC9FEE021262
:102213000ECC27AA03120ECC9CAA01120ECC8FAAB5
:1022230001120ECC8DA701120ECCDFA401120ECC2D
:10223300B3A301120ECC07A301120ECC58A10112B5
:102243000ECC139F01120ECC8A9E01120ECC32606B
:1022530000120ECCA85F00120ECC319E01120ECCE0
:10226300C59D01120ECC475F00120ECCF55E001225
:102273000ECC9C9D01120ECC8F9B01120ECC5B9B4E
:1022830001120ECC289B01120ECC0C9B01120ECC1A
:10229300289A01120ECCE09901120ECC1598011266
:1022A3000ECC959701120ECC929701120ECCAC96E0
:1022B30001120ECC7A9601120ECCB79501120ECCF8
:1022C300E29301120ECC989301120ECC6A93011281
:1022D3000ECC679301120ECC549301120ECCE35E25
:1022E30000120ECC71B101120ECC53B101120ECCFF
:1022F3001BB001120ECC78AF01120ECCEC9201127E
:102303000ECCDB9201120ECCC09101120ECC569171
:1023130001120ECC25AE01120ECC199101120ECC76
:10232300BA9001120ECC899001120ECC448D011289
:102333000ECCD6AB01120ECC5FDB02120ECC358C69
:1023430001120ECCC48B01120ECC898B01120ECC60
:10235300548B01120ECC488B01120ECCA88A0112A9
:102363000ECCEF8901120ECCC28701120ECC4E8522
:1023730001120ECC0C8501120ECCD78301120ECCA8
:102383008C8301120ECCBE8201120ECC1582011277
:102393000ECCEB8101120ECC71AB01120ECCB181CC
:1023A30001120ECCEAD50200000080FBE4730001A9
:1023B300363601010001020100010301000104019D
:1023C300060605020000070100340801000F090496
:1023D30001010D0100FF0E080000170200001901A2
:1023E30000FF1A0100011B0100FE1C0100081D0271
:1023F30000001F0100012001000121020000230150
:10240300000F240200002601000127010008280212
:1024130000FF2A0100072B0102402C0100002D01BF
:1024230000012E0100012F0100FF30010B1C3108B8
:1024330000003A0100083B01000F2F0100000302D6
:1024430071023001600211027002010202020202F3
:102453008002100261023A004100630273027202B9
:102463006202430200021302380000020002040267
:1024730012020002000200020002040204023700FA
:1024830037003C02440200023900000200026502E8
:102493000002350281020002050282028302000269
:1024A300030071003001600011007000310220034D
:1024B30050048000100061000000140063007300EA
:1024C30072006200430000001300060000000000D9
:1024D30004001200000000000000000004000400DB
:1024E300370037003C0244000000000000000000F9
:1024F3006500000035008100000005000000830036
:10250300000001017101010101011101010131010A
:10251300010101018001100161013B00140063010D
:1025230073017201620143010001130106013D01C0
:102533003500040112010001000100010001040142
:102543000401330133013C0144013201360000012F
:1025530000016501000135008101000105018201CF
:10256300830100010103710301030103010301035B
:10257300010322030203010310030003000300030A
:1025830000030003000300034203000324030603C4
:10259300000300030403120325032303250323037A
:1025A30004030403000300030003440300030003C4
:1025B300230300036503210035038103000305039F
:1025C30000030003000336000100060000000F00B3
:1025D30000000000000000000000000003FFFF00F7
:1025E300000403FFFF0000FFFF0FF4010005C40414
:1025F3000320000100030B000000000000000003A3
:10260300010F0100861D0200F61C0300FC1C0400E0
:10261300021D0500081D0600141D11002C1D1400C9
:10262300321D1500261DFFFF0000EE151E16F415C2
:10263300FA1518160C16061624162A1630163C160A
:102643000016E815E21503EAF5E5D5D5C5B5A59558
:102653009585857575656555554545353525251527
:10266300150584000400B50B83000200C80B0104A8
:102673000200CB0B0000000000000AC013028A1303
:10268300059C130790130C6C130D7E13FF000000C1
:10269300160F00000B150B020002220F320000067A
:1026A300D816EA16F016B815F616B215BE15381771
:1026B30056175C173E174A17441700034948424D03
:1026C30018172505020C0E020B040B0A0708000F4E
:1026D300000119161816161523030000383C3E3660
:1026E3003B3B352B432C303017181921301B1D1F52
:1026F30030303016181920231A1C1E3012163616C5
:102703005017421648162C17FC1602170E170817F7
:1027130002040201010101090200BE040AE8030EDA
:102723000004001500280004050A030908FF1E1E03
:102733000F040C0C74F7120A2FE99003B0F0900306
:1027430065E4F01221889003B5E4F0A3F09003B19F
:10275300F0A3F01214F812218E900334E4F0A3F0E6
:1027630090273393FA79021221EE0253E874F2129E
:102773000A2FEAFEEBFF548060699003B0E0F91280
:102783001A208A088B09EA4509604F7C0080010CF6
:10279300EC75F003A4F8A9F0747D28F5827426394A
:1027A300F583E493F4602CE493F88508828B83E04B
:1027B3006870DCAA08EC75F003A4F8747E28F5822F
:1027C300742639F583E493C0E0740193F583D082D2
:1027D3001223AFAA08AB09121A14EEFAEF6480FBB6
:1027E30002293DEF5420601D12141A8A088B09EA4E
:1027F3004509600A12137EAA08AB09121A14EEFAED
:10280300EF642080DAEEA2E0501A90036AE0640FCE
:10281300700B7900121348E96003122940EE64013A
:10282300FAEF80BB5420700302290B750C00123E93
:102833002D8B09EA450970107C027D007A207B000C
:102843009003B0E0F9121B6A7C0079047A007B00E4
:102853001213F68A088B098018850882850983A3D9
:10286300A3A3A3A3A3A3A3A37401F0850A08850BC1
:1028730009E5084509606D7C007904AA08AB0912D3
:1028830013F68A0A8B0B750C01E5082404F8E50995
:10289300123BD124FFF0A3E034FF125EA070CC857D
:1028A3000882850983A3A3A3A3A3A3A3A3A3A3E04C
:1028B300640170A5850882850983A3A3A3A3A3A3A9
:1028C300E054047094850882850983A3A3A3A3A37A
:1028D300A3A3A3A37406F07AB7850882850983129C
:1028E3002A6C80871213C67C0079017A007B001260
:1028F30013F68B09EA45097009E50C70057A201275
:102903004D87EE6420022823EF5402600B1214F269
:10291300EEFAEF64020227E2EF54046019124F1E2D
:10292300124E3E79019003631251A212128EEEFAF7
:10293300EF64040227E27A007B00022B73900BAB57
:1029430012322A12136022C082C08374EA120F95D6
:10295300851882851983AA82AB83794B1221C474AB
:10296300081211D97402F074091211D9AA82AB8327
:1029730079501221C474131211D9E4125371122124
:10298300E2741602434B74F7120A2F74E1120F9587
:10299300EAFEEBFFEE4F6033851882851983AC8224
:1029A300AD8312143E74061211D9E0601E7417121F
:1029B30011D9E0FD74011211D9E0FCEEFAEFFB79B5
:1029C300001222EAE9600479A4800279000253E349
:1029D30074F6120A2FEAFEEBFF8E828F83A3A3A362
:1029E300A3A3A3E05440601B125860122B3A600665
:1029F3007AFF7BFF801A8E828F83123FD7FAA3E080
:102A0300FB800312146274FE6A700374FF6B6041EF
:102A1300125860124DCB1214B6E98E828F83600672
:102A2300122A65E48005122A657401F07C4E7D1339
:102A33008E828F831251A21221E8E9F5087015EEF8
:102A43004F60097901EEFAEFFB1213D2A908024D88
:102A5300FC7508CDAA088E828F83122A6CE960DF89
:102A630080EAE0240D1244A622E0240C1244A6E0DE
:102A7300F912135A2274F6120A2FE9FEEAFF7A0FAB
:102A83007B00121A0EEA4B60198A828B83740CF056
:102A9300EEA3A3F0EF8A828B83A3F0124E27790073
:102AA300802FEEF91213FC8A088B09A808A909E8FC
:102AB30049601C88828983A3A3A3A3A3A3A3A3A37D
:102AC3007406125AC7E0F9121312EEF91213D879E9
:102AD30010024DFCC082C08390036AE0640F70143F
:102AE300EA4B6010900365E064086005E0640470DD
:102AF30003122AFA024375EAFCEBFD7A017B00908C
:102B030003B0E0F9121B6422C082C0837900EA2477
:102B13001DF582EB123FD424FD600B14600824FDE5
:102B2300600424FD7001090243758E828F83A3A381
:102B3300A3A3A3A3A3A3A3122B3E2212401CFB1205
:102B430014B6E9228E828F83A3A3A3A3A3A3A3A373
:102B5300A3122B3E6402228E828F83A3A3A3A3A37B
:102B6300A3A3A3A312436C900356E06822120F178A
:102B73007F06020CEB74F4120A2F74FD120F958A70
:102B8300088B098A828B83A3A3E0F91213FC8A0AB8
:102B93008B0BAE0AAF0BEE4F7003022C7F850882BE
:102BA300850983A3E064F16030850882850983A3E6
:102BB300E064CD6024850882850983A3E0641A60FC
:102BC30018850882850983A3E064E9600C8508827F
:102BD300850983A3E064E1700879001213D2E970D8
:102BE3006C850882850983A3E0C0E074021211D9C1
:102BF300D0E0124350EEF0A3EF1236988518828589
:102C03001983AA82AB837005121276800312149E75
:102C130074021211D9E064E970338E828F83122C0F
:102C23008B750A01780A120EED750AE9780A120EFD
:102C3300EDE508240CF582E50912317A123675FCAC
:102C4300A3E0FD8A828B8312368F120F178E828F39
:102C530083A3A3A3A3A3A3A3A3A3E0640270108EDF
:102C6300828F83A3A3A3A3A3A3A3A3A37406F08523
:102C73000882850983A3A3E0F91213D81213C6901F
:102C83000BAF12294302322FE0F8A3E0F9E8FAE987
:102C9300FB2274F4120A2FEAFEEBFF7508008E8202
:102CA3008F83A3A3A3A3A3E060427508088E828F3A
:102CB30083A3A3A3A3A3A3A3A312427F8B0BEA45DE
:102CC3000B601075082C8E828F83A3A3A3A3A3E0AC
:102CD300D2E0F08E828F83A3A3A3A3A3E054036463
:102CE300016003022D7E430811022D7EEE2418128B
:102CF300323C6033EE241A12323C700F122B5A709E
:102D030003A3E06970757508228070EE241BF582B9
:102D1300EF122D83241AF582EF1236A0EE24191236
:102D230058941213008054122B4770037508011234
:102D33002B5A7003A3E0697006E508D2E1F508E5B4
:102D43000860158E828F83A3A3E07006E508D2E5A1
:102D53008004E508D2E6F508122B2D64017006E520
:102D630008D2E0F5088E828F83A3A3E0600D122DB5
:102D73009164016006E508C2E0F508A9080232344F
:102D8300123FC2122D8A22E0FCA3E0FDEE22123F85
:102D9300BC123FF4F91214A4E922C082C083790162
:102DA3008A828B83A3A3E0C394024001198A828B96
:102DB30083A3A3A3A3E0C39402400279008A828B76
:102DC30083A3A3A3A3A3A3A3A3A3E064F87003A370
:102DD300E0F460458A828B83A3A3A3A3A3A3A3A345
:102DE300A3E064F97003A3E0F4602E8A828B83A3CB
:102DF300A3A3A3A3A3A3A3A3E064FA7003A3E0F490
:102E030060178A828B83A3A3A3A3A3A3A3A3A3E093
:102E130064FB7003A3E0F4700279008A828B83A3BE
:102E2300A3A3E0F8900353E068600279009027328F
:102E3300E493C394805013EA2411122E5090273246
:102E4300E493C333C39850027900024375F582EBD0
:102E5300124E57F82274F0120A2F74DE120F95EAFD
:102E6300FEEBFF8E828F83A3A3A3A3E0600E900BE0
:102E7300AD124DF36006900BAD122943740312118A
:102E8300D9AC82AD838E828F83A3A3A3124E751216
:102E930056AEE9600F74031211D9AA82AB831213E1
:102EA30078E97008790112219A02316FEE241B121E
:102EB3003FC774101211D9124E3E74091211D9E092
:102EC3006021741A1211D9E0FD74041211D9E0FCC7
:102ED3008E828F831251A079011222EAE96004796C
:102EE3000280C374031211D9AA82AB83121372E94D
:102EF300F50A74091211D9E0702A90034DE0602499
:102F03007422550A6422601C7442550A644270CFCD
:102F130074201211D9123185600A74201211D9124A
:102F2300317E70BBE9A2E6504174031211D9AA8223
:102F3300AB83121366E97003022EA774201211D912
:102F4300123FD76403700F74201211D9A3124DE5F9
:102F5300A3E0640D601474031211D9AA82AB831227
:102F630014C8E96401700302316FEE242C12317727
:102F73001234AB7003A3E069701C75080078081263
:102F83000EED7808120EEDEE242E12589412318BAA
:102F930012368F120F1774091211D9E07003023021
:102FA3004C12318B1251A21215168A088B09EA456D
:102FB3000970030230E974041211D9E0F88E828F8C
:102FC30083A3A3E028F8A3E03400F9E8240DF582F5
:102FD300E9122E538A828B83A3A3A3E068601CE8C3
:102FE3008A828B83A3A3A3F09081A21211AE8508DA
:102FF30082850983A3A3A3A31211A27904E9121161
:10300300D912568B2AF8A3E034008882F583A3AA49
:1030130082AB83121A028A0C8B0D8C0E8D0F8508DE
:1030230082850983A3A3A3A3780C120E664003022F
:10303300316F90811A780C121051850882850983AB
:10304300A3A3A3A3780C12114A900365E064046060
:1030530008E06409600302316FE50AA2E540030258
:103063003127EE242E12323C851882851983F0EE27
:10307300242F12323CC0E074011211D9D0E0F0EEDB
:10308300243012323CC0E074021211D9D0E0F07443
:10309300141211D9E064017027740E1211D9123F72
:1030A300CDEE241212323C687003A3E069701174F0
:1030B3000C1211D9122B54700774141211D9E4F0A5
:1030C300EE2424123177120D7074041211D9AC82DC
:1030D300AD8374071211D9AA82AB8312127C7404D4
:1030E300120F1702316F9003AAE0640160030230EC
:1030F3004C74201211D91231857009E50AA2E650E9
:103103000302304C74101211D9E0F47003A3E0F4FD
:10311300605AEEFCEFFD74031211D9AA82AB83123D
:1031230013848048A2E6504474201211D91251B17D
:10313300701A741A1211D9E06402703074031211F8
:10314300D9AA82AB837900121492802074201211C1
:10315300D912317E7016741A1211D9E06404700CFE
:1031630074031211D9AA82AB8312148C74220255F0
:103173005DEE240BF582EF123FC222125872E06417
:103183000722123FF4640622EE242A123FBF122DB7
:103193008A2412123FBF2274F4120A2FEAFEEBFFB5
:1031A3008C088D099005A1E0600F122B5A7003A3C0
:1031B300E06970051212EE804F79001251951213D7
:1031C3001E8A828B83E58245836035A3A3A3A3A3D1
:1031D300A3E05418602AE508241BF582E50912319F
:1031E3007A120D7412386B12317A120D74EE2418A0
:1031F30012589412320D1213307404120F178008F0
:10320300790012320D1212F480278E828F83A3A3CA
:10321300A3A3A3A3A3A3A3122D8A240BF582EF12C6
:103223003226223400F58312401CFB227403120F52
:10323300177F04020CEBEE2417F582EF124E572290
:1032430074F7120A2F74F7120F95EAFEEBFF90033F
:1032530065E06403600DE064016008E064096003F5
:103263000233258E828F83A3E060030233047C0044
:103273007D007A027B00122194EE2402FAEF123BC6
:10328300D8123FCD900356124E3E79531221CA797C
:103293000012332AE0640960099003631251A212F9
:1032A30015108518828519837401124E14900365D5
:1032B3007404F074011211D9AA82AB83794A1221E2
:1032C300C474011211D9AC82AD837A5B7B031221E2
:1032D300B29003561256A47A037B001221949003F2
:1032E300591256A47A047B00122194900350E0A251
:1032F300E35004D2F08002C2F0124E011229408042
:103303001E8E828F83A3AE82AF83FC7D007A037B04
:10331300101221948E828F83E0F912332AE4F01283
:1033230013AE74090253E590036312322A12128E0C
:1033330090036522C082C083900334124DF3701F43
:10334300900365E014600924FC600A14600C800F8C
:1033530090033C8032900338802D90033A8028E814
:1033630049600890033512366F700C8A828B83A3F1
:10337300E0F9121282801B9003351239077005128F
:1033830014E6800E9003D2124DF36006124DE5123F
:1033930023AF02437574F4120A2F74FB120F958A3C
:1033A300088B097A0F7B00121A0E8A0A8B0BAE0A5E
:1033B300AF0BEE4F700302349F8E828F8312536FD5
:1033C30079501221C4850882850983A3E060030232
:1033D3003487900363E0F47003A3E0F46034900354
:1033E30063E064FE7003A3E0F46027851882851907
:1033F300831234AB7003A3E06960178508828509E3
:1034030083A374EA1236A57A637B0379501221CA27
:103413008072851882851983125853124E3E7A564C
:103423007B0379531221C4900356124E6F124E3E02
:103433007A597B03794B1221C47A587B0379E112C1
:1034430021C490036AE0C3940F5021900358E0C055
:10345300E074021211D9D0E0F074041211D974018E
:10346300F0041211D9AA82AB831221DC750A007809
:103473000A120EED780A120EED900BCFE0F9123618
:1034830086120F178508828509831234A4A3F0904E
:1034930003657403F0EEFAEFFB124E277405023254
:1034A30031A3E08E828F8322125857E068221244A0
:1034B300AD2274F5120A2F74D8120F958A088B095E
:1034C3008A828B83A3A3A3123FF974151211D9AC7B
:1034D30082AD838A828B83A3A3A3A3A3A3A3A312F3
:1034E3003675FAA3E0FB1213B474151211D9E07008
:1034F3006B850882850983A3A3A3A3A3A3A3A3E046
:10350300C3940B40578E828F83A3A3A3A3A3A3A328
:10351300A3E064027046EE240B12323CF4703D903B
:103523000365E06402603AE0640660359003341298
:103533004DF3600512366F604F900365E0640860D9
:1035430005E06404701674171211D9E0F9741C12A3
:1035530011D9AC82AD831251951213BA7428025D4E
:103563004D900334124DF3701F7508007808120E46
:10357300ED7808120EEDEE24101231771258AC12CA
:103583003CC012368F120F178E828F831251111285
:103593003BEA123FCD74021211D9124E3EEE240DB6
:1035A30012323CC0E074041211D9D0E0123698F5FF
:1035B30008A3E0F509740F78081211687405121155
:1035C300D9E508F074191211D9E0C0E0740612119C
:1035D300D9D0E0F0741B1211D9E0C0E074071211C6
:1035E300D9D0E0F074161211D9E0C0E074091211B9
:1035F300D9D0E0F074171211D9E0C0E074081211A9
:10360300D9D0E0F0EE241012323CC0E0740A12115B
:10361300D9D0E0F0741A1211D9E0C0E0740B121182
:10362300D9D0E0F074271211D9E0C0E0740C121164
:10363300D9D0E0F0741C1211D9A982AA8389088A0F
:1036430009750A007808120EE57C087D00741012D3
:1036530011D9AA82AB831249A2120F17851882854A
:103663001983AA82AB8312128802355F12390D6463
:103673000122E0F98A828B83A3A3A3A3A3A3A3A319
:10368300A3E0229003631256A890035912322A1220
:103693001474740222F0EE240B124E5422124E576D
:1036A300FA22F07A567B0379531236B0221221CADA
:1036B3007A597B03794B1221CA22F01258B722742C
:1036C300F2120A2F74F8120F95EAFEEBFF8C0A8DA3
:1036D3000B890C851882851983AC82AD8375838031
:1036E3007582F27408120E45F50DEEFCEFFD851898
:1036F30082851983AA82AB831250727003750D0100
:103703009003B1803BEEFCEFFDE508240BFAE509DD
:103713003400125071601E850882850983A3A3E0DB
:10372300650C7011850882850983E0650A7004A31E
:10373300E0650B6038E5082414F582E50912317A57
:10374300123BE2E50845096024E50DA2E040B68599
:103753000882850983E0650A7004A3E0650B70D5D0
:10376300850882850983A3A3E0650C70C8AA08AB0A
:10377300097408022B70C082C0839003B1024372A4
:1037830074F7120A2F9003B112401C8012EA24141A
:10379300F582EB12317A123FF9121AB0EEFAEFFB0F
:1037A300EA4B70E99003B1E4F0A3F00253E87F071A
:1037B300020CEB74F1120A2FEAFEEBFF890A8C0864
:1037C3008D098E828F83E08C828D83124289AE8233
:1037D300AF83E0124A621249D3C4124A62123874A8
:1037E300E054038C828D831249D1A2E2E4338C82AC
:1037F3008D831249D0131313541F124A621249CFF7
:10380300A2E7E4338C828D83A3A3A3A31238748E1F
:103813000C8F0D750E00780C120EE57C087D00E50B
:10382300082407125617120F171256828E0C8F0D8B
:10383300780C120EE57C037D00E508240F12561761
:10384300120F17E50AC3940F40148E828F83A3A32C
:10385300A3E0C0E012386B12317AD0E08006123850
:103863006B125ABBF00237B1E5082412F582E50961
:1038730022A3A312428D0EAF832274F4120A2F7473
:10388300F9120F95EAFEEBFF8908900334124DF30A
:10389300600E1239077009EEFAEFFB1214E0805F35
:1038A300900363E06E7003A3E06F705374016508C7
:1038B30060097A777B0312507270447A007B02129C
:1038C3003E318B0BEA450B70369003661211AE85C1
:1038D30018828519831211A290036CE0C0E074046E
:1038E3001211D9D0E0F074051211D97401F07406E5
:1038F3001211D912536F121252E9609B12125874AB
:103903000702323112390D640222125873A3A3A3A2
:10391300A3A3A3E02274F5120A2F8A088B098A82D3
:103923008B83A3AE82AF83E0F91212A68E828F83BC
:10393300E064EB600C850882850983A3E064E17091
:1039430009850882850983A3E4F0122940750A01D9
:10395300780A120EED850882850983A3E0F50878BD
:1039630008120EED7900123686120F171213C602D3
:103973005D50EAF0A3EBF002437574F6120A2F9040
:1039830003B4E0701B7C0079017A007B001213F60C
:10399300EA4B600C8A828B83124DF360031213543B
:1039A300024DFCC082C083123E19401079FF1213EE
:1039B300F0E9F8902736E493C39850047901800224
:1039C300790002437574F0120A2F8A088B09890B58
:1039D300750C008A828B83A3A3A3A3A3A3A3A3E051
:1039E300F91213FC8A0E8B0FAE0EAF0F750A01EEA0
:1039F3004F6003023AA6850882850983A3A3A3A384
:103A0300A3A31256A4850882850983A3A3A3A3A312
:103A1300A3A31247A21251A21213E48A0C8B0DAE78
:103A23000CAF0DEE4F7003023BC98E828F83A3A3AD
:103A3300A3A3E4F0A3F0E508240B123BD5E0C0E018
:103A4300123174D0E0F01214BCEE240CF582EF12A4
:103A53004DC7E508240EF582E509123FCAEE240E90
:103A6300F582EF124E3B750C01EE2406F8EF123B84
:103A7300D1547FF0A3E054FC125909E054046003CD
:103A8300023B2C900BB3124793740778081210D69D
:103A93008E828F83A3A3A3A3A3A3E04508F0A3E08F
:103AA3004509F08E828F83A3A3A3A3123BE074077F
:103AB3007808121168E5085407F508E50B607A8E5B
:103AC300828F83A3A3A3A3A3A3A3A3A374021249D3
:103AD300D4240D1244A2E0A2E2500B900351124EE3
:103AE3006FA3A3124E3EE5087003023B9EEE24062D
:103AF300F8EF3400F9E8FAE9FB8A828B83E0547F1C
:103B0300FCA3E054FCFDE50824FFF508E434FFF5CD
:103B130009740778081210D6EC4508F8ED4509F941
:103B23008A828B83124E3E80728E828F83A3A3A3DD
:103B3300A3A3A3E04480023AA5E5087005750A0033
:103B430080598E828F83A3A3A3A3A3A3E0542060F1
:103B530012121A08EA547F245F8E828F83A3A3A3D1
:103B6300A380238E828F83A3A3A3A3A3A3E05410D4
:103B7300600A121A08EA540F240A80DD8E828F83AA
:103B8300A3A3A3A37401F0A3E4123BEA7404123EBB
:103B9300288B09EA45097003124DBAE50CA2E050DF
:103BA300288E828F83A3A3A3A31253D5F9EEFAEF32
:103BB300FB1213EAE96012124DE96003123FB2EE01
:103BC300FAEFFB121AB0750A00A90A025560124FE8
:103BD3003222FAE5093400FB8A828B8322A3A3E015
:103BE300F508A3E0F50922123BEE22125633A3A3F4
:103BF300A3A3A32274F4120A2F74F7120F957E0065
:103C03001213FCEA4B7003023CB98A828B83A3A391
:103C1300A3A3A3A3A3A3A3E064066003023CB98AFE
:103C2300828B83A3A3A3A3A3A3A3E0FF8A828B8393
:103C33001244B5E0C0E074081211D9D0E0123FED90
:103C4300125078124E3E12140EEF54086066851817
:103C5300828519831256A47A007B001213DE8B0B24
:103C6300EA450B704F9003631240DD1221F47C0090
:103C73007D007A007B0080288E828F83123FD7F4E9
:103C83007003A3E0F4602D900363123CC01251A2B1
:103C9300121EF4E9641A601C7C007D00EEFAEFFB4F
:103CA3001213DE8A0A8B0BAE0AAF0BEE4F70C97983
:103CB300001221FA7E01EEF97409023231123CC47A
:103CC30022E0FCA3E0FD8E828F8322C082C083EAC0
:103CD3004B70059003B580068A828B83A3A3123EA3
:103CE300DD60258A828B83A3A3A3A3A3A3A3E054AC
:103CF3000860E5EC4D60158A828B83123FD76C70A8
:103D030003A3E06D70D280047A007B0002437574D4
:103D1300F2120A2FEAFEEBFF890A8C088D097A104A
:103D23007B00121AAAEA4B603F8A828B83A3A3A368
:103D3300A3A3A3A3A3A3E4123FDBA3E50A12587929
:103D4300A3123D758A828B83A3A3A3A3E4F0A312DA
:103D53003FE7A3F012570DEA240CF582EB124279E8
:103D6300123D6EA3A3F0A3F0022B73A3F08A828B00
:103D73008322A3A3E508F0A3E509F02274F4120A51
:103D83002FEAFEEBFF89088C0A8D0BEE4F6055740A
:103D9300016508701479011213F0E9F890272FE4F4
:103DA30093C398500F7911806A74046508702F12B9
:103DB3003E1940F18E828F83A3A3A3A3A3A3A3A33E
:103DC300A3E508124289A3125DDA8E828F83A3A32F
:103DD300E4F0A3F09003B5124DF36021800D74025B
:103DE300650860D079C1802BE0F8A3124E68A3A3C5
:103DF300123EDD88828983A3A370ED80039003B50F
:103E0300EEF0A3EF123E288B0BEA450B7003124D25
:103E1300BA790002323479041213F0E9F890272BAF
:103E2300E493C39822F0123E2D227A207B00900364
:103E3300B0E0F9121B7622C082C083E9F8790090C2
:103E430003B5801D8A828B83A3A3A3A3A3A3A3A3E8
:103E5300A3E068600574FF687001098A828B83A3FD
:103E6300A3123EDD70DE02437574F7120A2FEA4B8C
:103E730070059003B580068A828B83A3A3123EDD6F
:103E830060248A828B83A3A3A3A3A3A3A3A3A3E0F6
:103E93006970E4EC60148A828B83E0240D125695DA
:103EA300A2E240D380047A007B000253E8C082C0C0
:103EB300839003B580068A828B83A3A3123EDD60C1
:103EC300128A828B83A3A3A3A3A3A3A3A3E06970F2
:103ED300E580047A007B0002437512322AEA4B2202
:103EE30074F2120A2F8A0A8B0B8C0C8D0D75080045
:103EF300750900EA450B602E9003B580068E828F0C
:103F030083A3A3123F30601EAC0CAD0DEEFAEFFBA2
:103F1300850A82850B831223AFE9640170DFEEF813
:103F2300EFF988088909AA08AB09022B73E0FEA3FD
:103F3300E0FFEE4F2274F7120A2F9003B5123FCD24
:103F43007C007D00800DE8FCE9FD88828983A3A3C2
:103F5300123FCDE8496030EA687002EB6970E79080
:103F630003B51251A2E86A7002E96B88828983A3C0
:103F7300A37008123FCD9003B58009123FCD8C8208
:103F83008D83A3A3124E3E0253E874F7120A2FEA5D
:103F9300FEEBFFEE4F6015121408123FFF124DE9BE
:103FA3006003123FB2EEFAEFFB121AB00253E8EECF
:103FB300240C123FBF12401422EE241DF582EF346D
:103FC30000F58322F582EF123FC212436C22F58281
:103FD300EF123FC2123FF422123FDF22125881A395
:103FE300A3A3A322123FDFA3A322123D6F123FF428
:103FF3002212586CE022E0FEA3E0FF228E828F8320
:10400300E0241C1244A61240148E828F83124014A3
:104013002212401CFB121AB022E0FAA3E022C08253
:10402300C083EAFCEBFDEC4D700479058044EC247D
:10403300FBF582ED34FF124DF17007124078E0F486
:104043006005121A1480E39003B0E0C0E0124078D8
:10405300D0E0F090272CE493F97AB77B03121A3E51
:10406300E96401700B7A007B20124DBE7900800257
:104073007904024375EC24FFF582ED34FFF58322C6
:1040830074F4120A2FA2AFE433F508C2AF9003B75A
:10409300123F306038EE24FBF582EF34FF124DF10E
:1040A3007A007B209003B06005124DC18005E0F9D2
:1040B300121A4AE4F50AF50B780A120EE9EEFCEF40
:1040C300FD7AB77B03121A387402120F17E508A2A0
:1040D300E092AFEEFAEFFB0232341256A885188253
:1040E300851983AA82AB832274F2120A2F74FC12FD
:1040F3000F95EAFEEBFF750AFE750BFF1213CCE971
:104103006005791102426EEE241512323C6037903D
:104113000BC7E0C43354E0F8E0333354FC48C0E049
:10412300EE2415123177D0E012428912427F8B09B7
:10413300EA45096011750AFFEE240F12323C44046C
:10414300124E4CD2E0F08E828F83122B386006EE33
:104153002412124276EE241312323C70109027324E
:10416300E493C0E0EE2413123177D0E0F08E828F17
:1041730083E0A2E750045403801CEE241412323C63
:104183007015900342E0C0E0EE2414123177D0E0C2
:10419300F0900342E004F0EE241112323C6401700B
:1041A30016900598E0600D90034DE0700A8E828FA3
:1041B30083E070031242738E828F83E06401701375
:1041C300EE240B123FD164027009EE240F12323C2D
:1041D3004440F0851882851983AC82AD83EEFAEFF3
:1041E300FB1214328A088B0974FE650A700374FF8C
:1041F300F470098E828F83A3A3125623EA450960C4
:10420300668E828F83E0C0E074011211D9D0E0F092
:1042130074021211D912571174011211D985820C2B
:1042230085830D780C120EE9EE240F123177120DEF
:1042330074EE240E12323CF50C780C120EED900342
:1042430056120D7474071211D9E0F9AC0AAD0B12B2
:10425300142C7407120F17E9FE74106E700BAA0862
:10426300AB09121AB080027E10EEF97404022B70AF
:10427300EE2411F582EF123FC2E4F022A312322A98
:1042830079FF1219FC2212428D22F08E828F83A3B2
:1042930022C082C08374DE120F958A828B83A3A30C
:1042A300A3A3123FCD740E1211D9E8F0A3E9124370
:1042B30063740C1211D912435C240DF582EB123294
:1042C3003FC0E0741A1211D9D0E0F0125570EB120E
:1042D3003FCA74201211D912435C2415F582EB12E4
:1042E300323FC0E074081211D9D0E0F0EA241CF583
:1042F30082EB123FCA74121211D912435C2411F5D6
:1043030082EB12323FC0E074091211D9D0E012439C
:104313005074FFF074011211D974FFF0740212117A
:10432300D974FFF09081A2120D7074041211D9ACEC
:1043330082AD8374071211D9AA82AB8312127C74E3
:1043430004120F1779007422120F17802512435499
:1043530022F085188285198322E8F0A3E9F0EA2286
:10436300123D6FA312436B22A3E0F8A3E0F92212DC
:1043730051A2D083D082020EC974EC120A2F74EEBC
:10438300120F958A128B13ECFEEDFF890974261226
:1043930011D912562374281211D9E0F51074291279
:1043A30011D9124497742B1211D9E0F50EA3E0F53D
:1043B3000F7508107A1E7B00121AAA74021211D903
:1043C300124DCB74021211D9124DF37003024490B3
:1043D300851882851983AA82AB837950124CA61261
:1043E30051A274021211D91244B5A3124DCB741009
:1043F3001211D9125DDC74021211D9E0240B12449C
:10440300A27402F01211D91244B57402F01211D938
:1044130012586412571174021211D91251B7E509D7
:10442300F074021211D9E0240C1244A2E510F074C6
:10443300021211D912449FE512F0A3E513F0740898
:104443001211D9E50CF0A3E50DF0740A1211D9E5A8
:1044530010F0850E82850F83C082C083740D121104
:10446300D9AC82AD83D083D0827403120E45F97424
:10447300021211D9AA82AB831213D2E96401700527
:10448300750800800874021211D9123FB8A9087484
:104493001202563AE0F50CA3E0F50D22E0241C12BB
:1044A30044A622F8A3E01244AD223400F98882899D
:1044B30083221251AAA3A3A3A3A32274EE120A2F49
:1044C300EAFEEBFF8C088D098E828F83A37408129A
:1044D3004E87E060088E828F83A37410F012323906
:1044E30060098E828F83A3E02408F0EE2415123234
:1044F3003C60088E828F83A3E004F08E828F83A3B7
:10450300A3A3A3A3A3E060198E828F83A3A3A3A372
:10451300A3A3A3E0C3332402F88E828F83A3E028EE
:10452300F0EE241112323C6005750B0E8003750BFF
:10453300008E828F83A3C082C083EE240D12323C8F
:10454300D083D082F8E028250B8C828D83F0EE2473
:104553001112323C60051249B228F08508828509A0
:1045630083E0C3947540097508007509000246A0ED
:10457300E0FA7B001257BF70030246A0EEFAEFFB8E
:10458300121438EA850882850983124DCCEE240281
:10459300F8EF1234B112479A1246DCF0EE24040805
:1045A30008EF1234B1124BDCA31246DCA3A3F0EEE6
:1045B30024131246C2F0EE24141246C2A3F0750A65
:1045C30008EE241612323C6010EE24181256A1E5B0
:1045D3000824081258A2750A101232396016EE2404
:1045E3001A1256A1850A0CE508250C1258A2740864
:1045F300250AF50A8E828F83A3A3A3A3A3A3E06056
:1046030059EE2407F510EF3400F511851082F58378
:10461300E0C0E01246A912317AD0E01246CCE0C0E5
:10462300E01246A912317AD0E01246CCA31246B565
:10463300120EE5851082851183E0C333FCE433FD5C
:10464300850A0CE508250C125617120F17851082E0
:10465300851183E0C333250AF50AEE241512323C93
:10466300600BC0E01246A912317AD0E0F012317427
:104673001246B5120EE5EE240D12323CFC7D008588
:104683000B0A8E828F83A3E0F8E50828F8E5093446
:1046930000F9E8250AFAE912561A120F17AA08AB0D
:1046A300097F0A020CEB850A0CE508250CF582E567
:1046B3000922E0F50CA3E0F50D750E00780C22122B
:1046C3003FBF1246E6A3A3A322F0050A8E828F837F
:1046D300A3A3A3A3A3A3A3A322A3A312590DA3122A
:1046E30046E622124BE0A3A32274F6120A2F8A8213
:1046F3008B83E0FC900353124793740278081210E3
:10470300D6EC4508FCAD09EA241212478D740678ED
:10471300081210D6EC4508FCED4509FDEA2415F511
:1047230082EB12323F6004780180027800E4C8F91A
:10473300ED49FDEA2411F582EB12323FF5088809B1
:10474300740978081210D6ED4509FDEA24161247BC
:104753008D740B78081210D6ED4509FDEA24171263
:10476300478D740C78081210D6ED4509FD8A828BAB
:1047730083A3A3A3A3A3A3124793740A78081210D5
:10478300D6ECFAED4509FB024DFCF582EB123FC274
:10479300E0F50875090022E085088285098322A3D4
:1047A300E0F98508828509832274EE120A2F8A0AAA
:1047B3008B0BECFEEDFF750F01E9C39408500579EF
:1047C3000002499F8E828F83E9F0124C05E9600352
:1047D300750F00124BE98E828F83124C33EE125504
:1047E30071EF124C28C0E0EE2411123177D0E012A1
:1047F3004C20C0E0EE2412123177D0E012428974CB
:104803000812562BA3A3A3E06015124BD1EE241379
:10481300F582EF124E3B8E828F83A3E02408F08E45
:10482300828F83A3A3A3A3A3A3A3A3E060218E8268
:104833008F83A3858208858309124C14EE2415F512
:1048430082EF124E3B850882850983E02408F08EAF
:10485300828F83A3A3A3A3A3E0601A8E828F83A373
:10486300858208858309124BF88E828F83A3A3A3C5
:10487300A3A31249C4EE2419124276EE241B12425A
:1048830076A3124E7FE07003024933EE2419F8EF4A
:104893003400F98E828F83A3858208858309E0FA29
:1048A300E50A2AF582E50B12323F88828983124991
:1048B300C4FAE50A2AF582E50B12323FC0E0EE2482
:1048C3001A123177D0E01249C488828983E0605993
:1048D300F8902735E493C398500575110C8008EEC2
:1048E300241912323CF5118E828F83A3E0F8E50A76
:1048F30028F50CE50B1249A8120EE5E511C333FCAC
:10490300E433FD7A657B0A1249A2120F17EE241BCA
:104913001231777465F0A3740AF0E511C333F88597
:104923000882850983E0288006EE2418125AB8F01D
:104933008E828F83A3E0F88E828F83E0C398500327
:104943000247C2A3E0FA8A08E50A2508F8E50B3412
:1049530000F9EE241DF582EF124F471249D4C39A92
:10496300C0E0EE2417123177D0E0124E44602BEEF4
:104973002417F8EF3400F9880889098882F583E061
:1049830024F2124F28240EFAA3E03400FB88828914
:1049930083124DCB1249B2C398F0A90F0246A41259
:1049A30019EA7403223400F50D750E00780C229079
:1049B300034EE0F91222E4E9F8850882850983E0D1
:1049C30022F0850882850983E004F022A3A3A3A330
:1049D300A3F08E828F83E02274F4120A2F8A088B4D
:1049E30009EA124A69F0EA1313543F124A62A3A375
:1049F300A3F0EAC41313124A69A3A3F0EB124A5BB0
:104A0300124A737409780A121168124A59124A72C7
:104A1300740A780A121168E50A5401C0E0EC2418FC
:104A2300F582ED12317AD0E0124A78740B780A12CB
:104A33001168124A59A3124A72740C780A12116847
:104A4300124A59A3A3A3A3A3A3A3A3F0740D7808A5
:104A5300121168022D7EE50A54018C828D83225443
:104A63000F8C828D832254038C828D83A3A322A374
:104A7300A3A3A3A3A3F08A0A8B0B22C082C08379CA
:104A8300008A828B83A3A3A3A3A3A3E090034D6017
:104A93000FE070228A828B83A3A3E070190980162A
:104AA300E060138A828B83125199900356E06A70F7
:104AB30003A3E06B70E702437574F0120A2F8A0AAE
:104AC3008B0B890C8C088D09124C05124BE9850858
:104AD30082850983124C33E508125571E509124C9E
:104AE30028C0E0E5082411F582E50912317AD0E007
:104AF300124C20C0E012386B12317AD0E0124F4FC3
:104B03007408124F686011124BD1E5082413124F39
:104B130043124F4FE02408F0850882850983A3A33D
:104B2300A3A3A3A3A3A3E06017850882850983A396
:104B3300124C10E5082415124F431249D42408F0EF
:104B4300850882850983A3A3A3A3A3E0601985082D
:104B530082850983A3AE82AF83124BF885088285D1
:104B630009831249CF04F0AA08AB0912144AE9F5E4
:104B73000D7056850882850983A3A3A3A3A3A3125B
:104B83004BDC7014E0FA8A0EE50A250EF8E50B12E9
:104B93004E30E50CC39A8021124C10E8240EF8E93C
:104BA300124E3090034EE0F91222E48E828F83E09E
:104BB300F8E50CC39824F2C399C0E0E5082417F57F
:104BC30082E50912317AD0E0F0A90D025560E50AB9
:104BD3002408F8E50B3400F922124BE022E08508A3
:104BE30082850983A322850A82850B83A3A3124CA2
:104BF30049E0F9EA22E0F8E50A28F582E50B124ECE
:104C030057228A828B8312556512144422AE82AFD7
:104C130083E0F8E50A28F8E50B3400F922124C5C2E
:104C2300A3A3A3E022123FC2E8124C55A3A3E022A0
:104C3300A3A3A3A3A3A3A3A3A3124C55124C49A3B9
:104C4300A3E0F9EAF822E0FA850A82850B83A3A39D
:104C5300A322F0A3E9124C5C22F0850A82850B8320
:104C6300A3A3A3A322C082C0837AC57B0379E212E4
:104C730021C47AC57B03024375C082C08390035667
:104C8300024372C082C08374FE120F958518828519
:104C93001983AA82AB83794B124CA61251A27402D8
:104CA30002434B1221C485188285198322C082C016
:104CB30083794A1221C402437574F6120A2F9003B2
:104CC300CDE0FE04F0EEF91213FC8B09EA450970FE
:104CD300EDEE60EAF9024DFC74F0120A2FEAFEEBE6
:104CE300FF8C088D09890A74101211D9E0F50B7431
:104CF300111211D9E0F50C121516EA4B7013E50CDD
:104D03007042A90AAC08AD09EEFAEFFB12152E802A
:104D13006EE50A6021EA2402F582EB12323F850A2E
:104D2300082508F8E4340013E813F070098A828B2D
:104D330083A3A37401F0E50C6045E50B70068A823A
:104D43008B83E4F07401650C7035E50B9003D4702C
:104D530004E4F0802AE004F0900BB4E0F89003D46C
:104D6300E0C398401AE4F0900359E06E7003A3E0A7
:104D73006F700CEEFAEFFB79011212A0124D85024F
:104D830055607A017B009003B0E0F9121B7022C0DA
:104D930082C08374016A7001EB70077A01124DBC03
:104DA3008012900BAB124DCBEA4B6005122AFA80AE
:104DB30003124D850243757A207B009003B0E0F91E
:104DC300121A44223400F583EAF0A3EBF022C082E6
:104DD300C083900BAD023975C082C083900BAF02C4
:104DE300397512587322EE240CF582EF3400F583E3
:104DF30012436CE84922120F177F02020CEBA2F058
:104E0300E433851882851983124E1D79521221CA03
:104E130022124E1D79421221CA22F0AA82AB8322AA
:104E2300AA08AB099003B0E0F9121A1A223400F968
:104E3300E508241DF582E509123FC2E8F0A3E9F075
:104E43002212562FA3A3E022A3F0EE2415124E54F0
:104E530022F582EF3400F583E022124E6122340002
:104E6300F583E0F8A3E0F98882898322E0F8124E03
:104E73007522A3E0F98E828F83A3A322F0EE241878
:104E8300123FBF22F0EE2416123FBF2274F4120A1F
:104E93002FEAFEEBFF7A007B04124D89124F1E129C
:104EA3004E3E9003657409F01214568A088B09ACC0
:104EB30008AD09EE24131231771251A21250726415
:104EC3000170487A0F124F1160418A828B837402FA
:104ED300124F28FAA3E0FB8A828B83A3E0FC8A8229
:104EE3008B83A3A3E0FBEC850882850983A3A3122C
:104EF3004DCC888289831251A612479A124E4BFADF
:104F0300A3E0FB794A1221CA124E230232347B00FA
:104F1300121A0E8A088B09EA4509229003361243B6
:104F23006C900BAF22F0EE241DF8EF124F322212D9
:104F330044ADE022124F3B223400F5837401F0228A
:104F4300F582E509123FC2E8F0A3E922124F53228A
:104F5300124F5722F0850882850983A322124F57E7
:104F6300A3A3A3A322124F60A3A3E0221253791297
:104F730014AA22EE2417F582EF124F3B121456EEB9
:104F8300241A123FBFEAF0A3EBF02274F4120A2FA3
:104F930074F3120F958908EAFEEBFF7C0D7D00790F
:104FA30000851882851983AA82AB831219F6EE2431
:104FB3001D123177125864A3E0F8741F58600A7900
:104FC3000112219A7900025069E8A2E55008740C95
:104FD3001211D97401F0E8A2E75008740B1211D929
:104FE3007401F0E8A2E6740A50081211D97401F0B2
:104FF30080081211D9E064017005EE24138003EEDA
:1050030024151256A174021211D9AA82AB8312215C
:10501300B2123174125077124E3E740A1211D9E053
:1050230064017033122B2D703B1214628A0A8B0BAE
:10503300A80AA90BEE240B12323C687003A3E069A3
:105043007022121456EAFCEBFD74021211D9AA82E3
:10505300AB83125072600D851882851983AA82ABC7
:105063008312129AA908740D023231EEFAEFFB1281
:1050730021ACE922E012507C22F8A3E0F9851882E2
:105083008519832274F6120A2F74F3120F958A0876
:105093008B09ECFEEDFF7C0D7D0079008518828580
:1050A3001983AA82AB831259E5A3A3A3A3A3A3A342
:1050B300A3A312511112511AF8A2E55008740B124E
:1050C30011D97401F0E8A2E75008740A1211D974D7
:1050D30001F0E8A2E6EE50042413800224151256D0
:1050E300A174021211D9125103A3A3E0C0E0740CFE
:1050F3001211D9D0E0125371121294740D024DF9AA
:10510300AA82AB831221B285088285098322E01229
:10511300507CE8F0A3E922F0123FBC125868A3E0E8
:105123002274F7120A2F74E1120F95EAFEEBFF8E39
:10513300828F831251A6A3A3A3E0A2E050518E82D3
:105143008F83122C8D8A828B83A3A3A3A3A3A3E0B3
:1051530054FE1251BE8A828B831251B7E0F98A82C0
:105163008B83E0241CFAA3E0123BD81251A2121441
:1051730050E9701B741D1211D91251B170118518A9
:1051830082851983AC82AD83EEFAEFFB1214980289
:1051930053E38E828F83A3A3A3A3A3A3A3A3A312E7
:1051A300322A221251AA2212586CA3A3A322123F1D
:1051B300F4640422E0241B1244A622124354AC825A
:1051C300AD8322E9F87900740468600A740A6860A0
:1051D30005740368700109020EC974F6120A2F8A56
:1051E300828B837420F0A3A37401F01212468A0801
:1051F3008B09AE08AF09EE4F60108E828F83740166
:10520300F09003A3E07003124F76EEFAEFFB024D2A
:10521300FCC082C0839003B97401F0E9A2E3500398
:105223007403F0E9A2E15004E0D2E2F002437574A2
:10523300F6120A2F79007C008A088B097808120C71
:10524300A5F8FF07655263526352635263525C527F
:105253006052655259520C80097C0480050C80F61B
:105263007C089003B9E05C6003098003EC600109EA
:10527300024DFC74F6120A2F8A828B83E07012A30C
:10528300124DF3600C8A828B831251A11223088082
:10529300047A007B00024DFC74F5120A2F74F3129A
:1052A3000F958A088B09ECFEEDFF750A12EA450992
:1052B3007005790002536A900356E065087004A3F1
:1052C300E065097014121456EAFCEBFD12506E707F
:1052D30005750A018003750A00851882851983E420
:1052E300F0041211D9E508F0A3E509125371121263
:1052F3000AE9602774031211D9AA82AB831211F24F
:10530300E964017016750A0174031211D9AC82ADF8
:105313008312506E6021750A00801C7412650A7036
:10532300169003A2E06402700EEEFCEFFDAA08AB38
:1053330009121222E970DFEEFCEFFDAA08AB091295
:10534300151CE9F8740A687005750A01801774A0C2
:10535300687012EEFCEFFDAA08AB09121528AA0823
:10536300AB0912153AA90A740D025D4D740212536A
:10537300752212537922124354AA82AB832274F703
:10538300120A2FEAFEEBFF8E828F83A3A3A3A3A3AC
:10539300A3A3A3E06015EE241512317712321A127B
:1053A30014C2E964017004790180258E828F83A37E
:1053B300A3A3A3A3A3A3E06015EE241312317712D2
:1053C30053D5FAA3E0FB1214C2E9640160D9790052
:1053D3008013123CC4A3A3A3A3A3A3A3A3A3E02268
:1053E300741F120F177F01020CEB74F0120A2F7453
:1053F300FD120F958A088B09ECFEEDFF890B7413E0
:105403001211D9E0F50C750A0174011211D9740453
:1054130012589C6048E50C601DEA2417F582EB12D4
:105423005ABB12588A8A828B83E0D2E7F0EA2414AB
:10543300F582EB124279125570EB124E5D74031232
:105443005DDEEE88828983A3A3F0EF88828983A33C
:10545300A3123D6E123D75121240E9F50AA90A74B2
:105463000302555D74EC120A2F74F5120F958A0A24
:105473008B0B890C8C0E8D0F741F1211D9E0F50D57
:1054830074201211D9E0F510A3E0F5117E01EE129C
:1054930011D9740AF0E97007E50DC333240AF01239
:1054A300564270030255441256577409F0A3E50C93
:1054B300C43354E0450D125669E50C702D7C008011
:1054C30023ECC333F8E433F9E51028F8E51139F98F
:1054D30088828983125551888289831234A4F0A368
:1054E3000EAF830CECC3950D40D7E5082417F58266
:1054F300E509124F37121456E508241AF582E50917
:10550300124DC774031211D9AC82AD83AA0AAB0B37
:105513001211F8E96019E5082416F582E509125518
:105523004B1211D9A882A983E5082418124E378596
:105533000882850983125DDAAA08AB09121240E9D1
:10554300FEEEF9740B02563A124F3B740322E08EBF
:10555300828F83F0A3AE82AF8322120F177F0802DC
:105563000CEB12401CF9EA2400E439FB22EA240B79
:10557300F5822274EE120A2F8A0C8B0D890E8C0889
:105583008D0974121211D9E0F50F74131211D91287
:105593005623900509124DF36077E50FC333F8E402
:1055A30033F9E8240EFAE93400FB121A0E8A108B41
:1055B30011AE10AF11EE4F60588E828F8374D4F00A
:1055C300A3A3E50CF0A3E50D12562BE50EF0AC08F2
:1055D300AD09EE2405FAEF1258A5EE240D1231772A
:1055E300E50FF0850A08850B09750A007808120E85
:1055F300E5E50FC333FCE433FDEE240EFAEF125658
:105603001A120F17EEFAEFFB9005091258641223D2
:10561300AF0246A4FAE5093400FB1219EA74032227
:10562300E0F50AA3E0F50B2212562F22125633227D
:1056330012428DA3A3A322120F177F0C020CEB853A
:105643001882851983AA82AB831214AA8A088B094C
:10565300EA450922EA240BF582EB124E57FEA3E03A
:10566300FF8E828F8322F0A3AE82AF83AC0EAD0F89
:10567300EEFAEFFB12567B221221B212568222EE71
:105683002408FEEF3400FF22E0FA8E828F83A3A367
:10569300E022FEA3E03400FF8E828F83E022123FDC
:1056A300BF1256A822E0FCA3E0FD2212322A1214F4
:1056B3003E2274F6120A2FEAFEEBFF9003BA801320
:1056C30088828983E06E7003A3E06F603A888289E1
:1056D30083A3A3124DF370E87A047B00121AAA8AFB
:1056E300088B09A808A909E849601C8882898312E4
:1056F30057119003BA1251A288828983A3A3124D32
:10570300CB9003BA124E3E024DFC8A828B83EEF09D
:10571300A3EFF02274F4120A2F7E009003BA8007DD
:105723000E88828983A3A3124DF370F4EEC333FA78
:10573300E433FB1257BF607E7F009003BA80248856
:105743008289831256A4EFC333FAE433FBE5082AB4
:10575300F582E5093BF583ECF0A3EDF00F88828930
:1057630083A3A3124DF370D79003AB122B6770037F
:10577300A3E06978087019120EE9EEF50A780A12A7
:105783000EED7C777D0379009003AB1257CA801A24
:10579300120EE9EEF50A780A120EED7C777D037995
:1057A300009003AB1251A21214D47403120F17AA60
:1057B30008AB09121AB0121258023234121AAA8A0A
:1057C300088B09EA45092212322A1214DA22C0820E
:1057D300C08380128A828B83A3A3123FCD9003BA26
:1057E300124E3E121AB09003BA123EDD70E6024327
:1057F3007574F6120A2F900363123FF99003CE12C9
:105803005853124E3E7ACE7B0379501221CA90032D
:10581300CE122D86FAEFFB1215349003CE123FF908
:1058230090050B124DF360257A067B00121A0EEADF
:105833004B601A8A828B8374D5F0A3A3E412587940
:105843000412588A90050B1258641223AF024DFCC0
:1058530012585722E0F8A3E0F9900363228E828F57
:10586300831258682212586C22E0F812587222A34D
:10587300E0F58388822212587D2212588122F08A11
:10588300828B83A3A3A32212587DA3EEF0A3EFF090
:1058930022F582EF124E57F922124F6FEA4B22FA8A
:1058A300E5093400FB1221B222124E76A3A3A3A36F
:1058B300A3A3A32290272DE4932401F8E43400F951
:1058C3007A027B002274F7120A2F7E008004125E94
:1058D300910E1259B540F77E00EE1258F474FEF0A3
:1058E300A304125909E4F00EEEC3940340EB0253F0
:1058F300E875F003A4F8A9F074BC28F8740339F927
:1059030088828983A32212590D22F08882898322F7
:1059130074F7120A2F7F0080010F90272AE493F86F
:10592300EFC3985026EF125AA16A7003A3E06B707D
:10593300E8125E3E6C7003A3E06D600A74FF6C7046
:105943000374FF6D70D31259AC80047A007B00029C
:1059530053E874F6120A2F7CFF7DFF7AFE7BFF1259
:1059630014FEEA4B70407508008036E50875F017A1
:10597300A4F8A9F0740028F5827409125AB3600CD4
:1059830074FF28F5827408125AB3701374F128FE59
:10599300740839FF8E828F83125AC0EEFAEFFB052B
:1059A30008125A1B40C5024DFC74F128FA740839D9
:1059B300FB2290272AE493F8EEC3982274F7120A85
:1059C3002FEAFEEBFFEE4F60101259DF74FEF0A3D7
:1059D30004125DE414F0A304F00253E87C177D0085
:1059E30079001219F68E828F832274F7120A2FEA36
:1059F300FEEBFF7508008018E50875F017A4F8A9F9
:105A0300F0125E497003A3E06F6003125E9905080C
:105A1300125A1B40E30253E890272AE493F8E5085F
:105A2300C3982274F6120A2F1214FE8A088B09A84F
:105A330008A909E849600AE8240DFAE93400FB8063
:105A4300047A007B00024DFC74F4120A2F8A0A8B3D
:105A53000BECFEEDFF750800750900802EE5097556
:105A6300F017A4F8A9F0125E84601EE509125AA18A
:105A7300650A7004A3E0650B700375080AEEFCEF7A
:105A8300FD125D4060034308A0050990272AE493B3
:105A9300F8E509C3985004E50860C2022D7E75F04D
:105AA30017A4F8A9F0125AAC2274F128F5827408ED
:105AB30039F583E022F582EF123FC2E42212322A43
:105AC3001213362212590DA3A3A3A3A3A3A3A322A4
:105AD30074F2120A2F8A088B09ECFEEDFF740E1282
:105AE30011D9125623750C007C007D018010121A07
:105AF30008E50CF5F0EA84ACF0750C007D00780045
:105B030079008003125C7D125CD94003025B9FE83D
:105B1300FAE9FBEA75F017A4FA85F00D75F017EBB7
:105B2300A4250D125CB57003A3E0F460D7125C9357
:105B330065087004A3E0650960CA125C936E700384
